{
  "address": "0x938C502Ee39aBE5417aDbE2736571bE34f91E8b9",
  "abi": [
    {
      "inputs": [
        {
          "internalType": "contract IGaugeController",
          "name": "_gaugeController",
          "type": "address"
        },
        {
          "internalType": "contract IDrawBuffer",
          "name": "_drawBuffer",
          "type": "address"
        },
        {
          "internalType": "contract IPrizeConfigHistory",
          "name": "_prizeConfigHistory",
          "type": "address"
        },
        {
          "internalType": "address",
          "name": "_owner",
          "type": "address"
        }
      ],
      "stateMutability": "nonpayable",
      "type": "constructor"
    },
    {
      "anonymous": false,
      "inputs": [
        {
          "indexed": true,
          "internalType": "contract IGaugeController",
          "name": "gaugeController",
          "type": "address"
        },
        {
          "indexed": true,
          "internalType": "contract IDrawBuffer",
          "name": "drawBuffer",
          "type": "address"
        },
        {
          "indexed": true,
          "internalType": "contract IPrizeConfigHistory",
          "name": "prizeConfigHistory",
          "type": "address"
        }
      ],
      "name": "Deployed",
      "type": "event"
    },
    {
      "anonymous": false,
      "inputs": [
        {
          "indexed": true,
          "internalType": "address",
          "name": "previousManager",
          "type": "address"
        },
        {
          "indexed": true,
          "internalType": "address",
          "name": "newManager",
          "type": "address"
        }
      ],
      "name": "ManagerTransferred",
      "type": "event"
    },
    {
      "anonymous": false,
      "inputs": [
        {
          "indexed": true,
          "internalType": "address",
          "name": "pendingOwner",
          "type": "address"
        }
      ],
      "name": "OwnershipOffered",
      "type": "event"
    },
    {
      "anonymous": false,
      "inputs": [
        {
          "indexed": true,
          "internalType": "address",
          "name": "previousOwner",
          "type": "address"
        },
        {
          "indexed": true,
          "internalType": "address",
          "name": "newOwner",
          "type": "address"
        }
      ],
      "name": "OwnershipTransferred",
      "type": "event"
    },
    {
      "inputs": [],
      "name": "TIERS_LENGTH",
      "outputs": [
        {
          "internalType": "uint8",
          "name": "",
          "type": "uint8"
        }
      ],
      "stateMutability": "view",
      "type": "function"
    },
    {
      "inputs": [
        {
          "internalType": "contract ITicket",
          "name": "_ticket",
          "type": "address"
        },
        {
          "internalType": "address",
          "name": "_user",
          "type": "address"
        },
        {
          "internalType": "uint32[]",
          "name": "_drawIds",
          "type": "uint32[]"
        },
        {
          "internalType": "bytes",
          "name": "_pickIndicesForDraws",
          "type": "bytes"
        }
      ],
      "name": "calculate",
      "outputs": [
        {
          "internalType": "uint256[]",
          "name": "prizesAwardable",
          "type": "uint256[]"
        },
        {
          "internalType": "bytes",
          "name": "prizeCounts",
          "type": "bytes"
        }
      ],
      "stateMutability": "view",
      "type": "function"
    },
    {
      "inputs": [
        {
          "internalType": "contract ITicket",
          "name": "_ticket",
          "type": "address"
        },
        {
          "internalType": "address",
          "name": "_user",
          "type": "address"
        },
        {
          "internalType": "uint32[]",
          "name": "_drawIds",
          "type": "uint32[]"
        }
      ],
      "name": "calculateUserPicks",
      "outputs": [
        {
          "internalType": "uint64[]",
          "name": "picks",
          "type": "uint64[]"
        }
      ],
      "stateMutability": "view",
      "type": "function"
    },
    {
      "inputs": [],
      "name": "claimOwnership",
      "outputs": [],
      "stateMutability": "nonpayable",
      "type": "function"
    },
    {
      "inputs": [],
      "name": "drawBuffer",
      "outputs": [
        {
          "internalType": "contract IDrawBuffer",
          "name": "",
          "type": "address"
        }
      ],
      "stateMutability": "view",
      "type": "function"
    },
    {
      "inputs": [],
      "name": "gaugeController",
      "outputs": [
        {
          "internalType": "contract IGaugeController",
          "name": "",
          "type": "address"
        }
      ],
      "stateMutability": "view",
      "type": "function"
    },
    {
      "inputs": [],
      "name": "getDrawBuffer",
      "outputs": [
        {
          "internalType": "contract IDrawBuffer",
          "name": "",
          "type": "address"
        }
      ],
      "stateMutability": "view",
      "type": "function"
    },
    {
      "inputs": [],
      "name": "getGaugeController",
      "outputs": [
        {
          "internalType": "contract IGaugeController",
          "name": "",
          "type": "address"
        }
      ],
      "stateMutability": "view",
      "type": "function"
    },
    {
      "inputs": [],
      "name": "getPrizeConfigHistory",
      "outputs": [
        {
          "internalType": "contract IPrizeConfigHistory",
          "name": "",
          "type": "address"
        }
      ],
      "stateMutability": "view",
      "type": "function"
    },
    {
      "inputs": [
        {
          "internalType": "contract ITicket",
          "name": "_ticket",
          "type": "address"
        },
        {
          "internalType": "uint256",
          "name": "_startTime",
          "type": "uint256"
        },
        {
          "internalType": "uint256",
          "name": "_endTime",
          "type": "uint256"
        },
        {
          "internalType": "uint256",
          "name": "_poolStakeCeiling",
          "type": "uint256"
        },
        {
          "internalType": "uint8",
          "name": "_bitRange",
          "type": "uint8"
        },
        {
          "internalType": "uint8",
          "name": "_cardinality",
          "type": "uint8"
        }
      ],
      "name": "getTotalPicks",
      "outputs": [
        {
          "internalType": "uint256",
          "name": "",
          "type": "uint256"
        }
      ],
      "stateMutability": "view",
      "type": "function"
    },
    {
      "inputs": [],
      "name": "manager",
      "outputs": [
        {
          "internalType": "address",
          "name": "",
          "type": "address"
        }
      ],
      "stateMutability": "view",
      "type": "function"
    },
    {
      "inputs": [],
      "name": "owner",
      "outputs": [
        {
          "internalType": "address",
          "name": "",
          "type": "address"
        }
      ],
      "stateMutability": "view",
      "type": "function"
    },
    {
      "inputs": [],
      "name": "pendingOwner",
      "outputs": [
        {
          "internalType": "address",
          "name": "",
          "type": "address"
        }
      ],
      "stateMutability": "view",
      "type": "function"
    },
    {
      "inputs": [],
      "name": "prizeConfigHistory",
      "outputs": [
        {
          "internalType": "contract IPrizeConfigHistory",
          "name": "",
          "type": "address"
        }
      ],
      "stateMutability": "view",
      "type": "function"
    },
    {
      "inputs": [],
      "name": "renounceOwnership",
      "outputs": [],
      "stateMutability": "nonpayable",
      "type": "function"
    },
    {
      "inputs": [
        {
          "internalType": "address",
          "name": "_newManager",
          "type": "address"
        }
      ],
      "name": "setManager",
      "outputs": [
        {
          "internalType": "bool",
          "name": "",
          "type": "bool"
        }
      ],
      "stateMutability": "nonpayable",
      "type": "function"
    },
    {
      "inputs": [
        {
          "internalType": "address",
          "name": "_newOwner",
          "type": "address"
        }
      ],
      "name": "transferOwnership",
      "outputs": [],
      "stateMutability": "nonpayable",
      "type": "function"
    }
  ],
  "transactionHash": "0x3b083b8f2c927b2eb1316a15066899c6957d018b53d2f75e1a7ebc1bbff74031",
  "args": [
    "0x0d32efD9e7468846b956538E120a3b97DAd9f30F",
    "0x316CEFdEB914Ab4E88e7C59b59Fd01d53624165d",
    "0x60Dd043e9c86029b88e1830064BFdefbbcA107EA",
    "0x3A791e828fDd420fbE16416efDF509E4b9088Dd4"
  ],
  "numDeployments": 1,
  "solcInputHash": "b05209ff2ac583caae27b575ae3779ab",
  "bytecode": "0x60c06040523480156200001157600080fd5b50604051620028393803806200283983398101604081905262000034916200026a565b8062000040816200021a565b506001600160a01b0384166200009d5760405162461bcd60e51b815260206004820152601c60248201527f4472617743616c632f47432d6e6f742d7a65726f2d616464726573730000000060448201526064015b60405180910390fd5b6001600160a01b038316620000f55760405162461bcd60e51b815260206004820152601c60248201527f4472617743616c632f44422d6e6f742d7a65726f2d6164647265737300000000604482015260640162000094565b6001600160a01b0382166200014d5760405162461bcd60e51b815260206004820152601d60248201527f4472617743616c632f5043482d6e6f742d7a65726f2d61646472657373000000604482015260640162000094565b6001600160a01b038116620001a55760405162461bcd60e51b815260206004820152601f60248201527f4472617743616c632f6f776e65722d6e6f742d7a65726f2d6164647265737300604482015260640162000094565b600380546001600160a01b038087166001600160a01b031990921682179092556001600160601b0319606086811b821660805285901b1660a05260405184831692861691907fc95935a66d15e0da5e412aca0ad27ae891d20b2fb91cf3994b6a3bf2b817808290600090a450505050620002eb565b600080546001600160a01b038381166001600160a01b0319831681178455604051919092169283917f8be0079c531659141344cd1fd0a4f28419497f9722a3daafe3b4186f6b6457e09190a35050565b600080600080608085870312156200028157600080fd5b84516200028e81620002d2565b6020860151909450620002a181620002d2565b6040860151909350620002b481620002d2565b6060860151909250620002c781620002d2565b939692955090935050565b6001600160a01b0381168114620002e857600080fd5b50565b60805160601c60a05160601c6124f862000341600039600081816101cf015281816102000152818161063d0152610c240152600081816101480152818161026b0152818161051a0152610ab001526124f86000f3fe608060405234801561001057600080fd5b506004361061011b5760003560e01c80638b8dc257116100b2578063ce343bb611610081578063e30c397811610066578063e30c3978146102b0578063f2fde38b146102c1578063f8d0ca4c146102d457600080fd5b8063ce343bb614610266578063d0ebdbe71461028d57600080fd5b80638b8dc257146101fb5780638da5cb5b1461022257806399eecb3b14610233578063cc399cf41461024657600080fd5b806358de9ade116100ee57806358de9ade1461019b5780636144a4eb146101ac5780636a8b62e7146101cd578063715018a6146101f357600080fd5b80632e838202146101205780634019f2d614610146578063481c6a75146101805780634e71e0c814610191575b600080fd5b61013361012e366004611d83565b6102ee565b6040519081526020015b60405180910390f35b7f00000000000000000000000000000000000000000000000000000000000000005b6040516001600160a01b03909116815260200161013d565b6002546001600160a01b0316610168565b610199610309565b005b6003546001600160a01b0316610168565b6101bf6101ba366004611cc2565b61039c565b60405161013d929190611fe6565b7f0000000000000000000000000000000000000000000000000000000000000000610168565b61019961049f565b6101687f000000000000000000000000000000000000000000000000000000000000000081565b6000546001600160a01b0316610168565b600354610168906001600160a01b031681565b610259610254366004611c5d565b610514565b60405161013d91906120e0565b6101687f000000000000000000000000000000000000000000000000000000000000000081565b6102a061029b36600461198d565b6107ad565b604051901515815260200161013d565b6001546001600160a01b0316610168565b6101996102cf36600461198d565b610829565b6102dc601081565b60405160ff909116815260200161013d565b60006102fe878787878787610965565b979650505050505050565b6001546001600160a01b031633146103685760405162461bcd60e51b815260206004820152601f60248201527f4f776e61626c652f63616c6c65722d6e6f742d70656e64696e674f776e65720060448201526064015b60405180910390fd5b60015461037d906001600160a01b0316610a4c565b6001805473ffffffffffffffffffffffffffffffffffffffff19169055565b60608060006103ad848601866119aa565b805190915086146104005760405162461bcd60e51b815260206004820152601d60248201527f4472617743616c632f696e76616c69642d7069636b2d696e6469636573000000604482015260640161035f565b6040517fffffffffffffffffffffffffffffffffffffffff00000000000000000000000060608a901b16602082015260009060340160405160208183030381529060405280519060200120905061048e8a8a838b8b80806020026020016040519081016040528093929190818152602001838360200280828437600092019190915250899250610aa9915050565b935093505050965096945050505050565b336104b26000546001600160a01b031690565b6001600160a01b0316146105085760405162461bcd60e51b815260206004820152601860248201527f4f776e61626c652f63616c6c65722d6e6f742d6f776e65720000000000000000604482015260640161035f565b6105126000610a4c565b565b606060007f00000000000000000000000000000000000000000000000000000000000000006001600160a01b031663d0bb78f385856040518363ffffffff1660e01b815260040161056692919061204b565b60006040518083038186803b15801561057e57600080fd5b505afa158015610592573d6000803e3d6000fd5b505050506040513d6000823e601f3d908101601f191682016040526105ba9190810190611aca565b80519091508367ffffffffffffffff8111156105d8576105d861245d565b604051908082528060200260200182016040528015610601578160200160208202803683370190505b50925060005b818163ffffffff1610156107a2576000838263ffffffff168151811061062f5761062f612447565b6020026020010151905060007f00000000000000000000000000000000000000000000000000000000000000006001600160a01b0316633eedcb2383602001516040518263ffffffff1660e01b8152600401610697919063ffffffff91909116815260200190565b6103006040518083038186803b1580156106b057600080fd5b505afa1580156106c4573d6000803e3d6000fd5b505050506040513d601f19601f820116820180604052508101906106e89190611dea565b90506106f48282610e08565b6107538a8a846080015163ffffffff168560400151610713919061238e565b8460a0015163ffffffff16866040015161072d919061238e565b8560c001516fffffffffffffffffffffffffffffffff1686600001518760200151610e88565b868463ffffffff168151811061076b5761076b612447565b602002602001019067ffffffffffffffff16908167ffffffffffffffff16815250505050808061079a906123ed565b915050610607565b505050949350505050565b6000336107c26000546001600160a01b031690565b6001600160a01b0316146108185760405162461bcd60e51b815260206004820152601860248201527f4f776e61626c652f63616c6c65722d6e6f742d6f776e65720000000000000000604482015260640161035f565b61082182610eea565b90505b919050565b3361083c6000546001600160a01b031690565b6001600160a01b0316146108925760405162461bcd60e51b815260206004820152601860248201527f4f776e61626c652f63616c6c65722d6e6f742d6f776e65720000000000000000604482015260640161035f565b6001600160a01b03811661090e5760405162461bcd60e51b815260206004820152602560248201527f4f776e61626c652f70656e64696e674f776e65722d6e6f742d7a65726f2d616460448201527f6472657373000000000000000000000000000000000000000000000000000000606482015260840161035f565b6001805473ffffffffffffffffffffffffffffffffffffffff19166001600160a01b0383169081179091556040517f239a2ddded15777fa246aed5f7e1a9bc69a39d4eb4a397034d1d85766cca7d4c90600090a250565b60008082610974856002612288565b61097e9190612288565b6003546040517f5cf39fbf0000000000000000000000000000000000000000000000000000000081526001600160a01b038b81166004830152602482018b9052604482018a905292935060009290911690635cf39fbf9060640160206040518083038186803b1580156109f057600080fd5b505afa158015610a04573d6000803e3d6000fd5b505050506040513d601f19601f82011682018060405250810190610a289190611e9a565b905085610a358383612333565b610a3f9190612223565b9998505050505050505050565b600080546001600160a01b0383811673ffffffffffffffffffffffffffffffffffffffff19831681178455604051919092169283917f8be0079c531659141344cd1fd0a4f28419497f9722a3daafe3b4186f6b6457e09190a35050565b60608060007f00000000000000000000000000000000000000000000000000000000000000006001600160a01b031663d0bb78f3866040518263ffffffff1660e01b8152600401610afa9190612096565b60006040518083038186803b158015610b1257600080fd5b505afa158015610b26573d6000803e3d6000fd5b505050506040513d6000823e601f3d908101601f19168201604052610b4e9190810190611aca565b90506000855167ffffffffffffffff811115610b6c57610b6c61245d565b604051908082528060200260200182016040528015610b95578160200160208202803683370190505b5090506000865167ffffffffffffffff811115610bb457610bb461245d565b604051908082528060200260200182016040528015610be757816020015b6060815260200190600190039081610bd25790505b50905060005b83518163ffffffff161015610dd5576000848263ffffffff1681518110610c1657610c16612447565b6020026020010151905060007f00000000000000000000000000000000000000000000000000000000000000006001600160a01b0316633eedcb2383602001516040518263ffffffff1660e01b8152600401610c7e919063ffffffff91909116815260200190565b6103006040518083038186803b158015610c9757600080fd5b505afa158015610cab573d6000803e3d6000fd5b505050506040513d601f19601f82011682018060405250810190610ccf9190611dea565b9050610cdb8282610e08565b6000610d3c8e8e856080015163ffffffff168660400151610cfc919061238e565b8560a0015163ffffffff168760400151610d16919061238e565b8660c001516fffffffffffffffffffffffffffffffff1687600001518860200151610e88565b9050610d7883600001518267ffffffffffffffff168e8d8863ffffffff1681518110610d6a57610d6a612447565b602002602001015186610fd6565b878663ffffffff1681518110610d9057610d90612447565b60200260200101878763ffffffff1681518110610daf57610daf612447565b602002602001018290528281525050505050508080610dcd906123ed565b915050610bed565b5080604051602001610de79190611f66565b60405160208183030381529060405293508194505050509550959350505050565b806080015163ffffffff168260400151610e2291906121d2565b67ffffffffffffffff164267ffffffffffffffff1610610e845760405162461bcd60e51b815260206004820152601560248201527f4472617743616c632f647261772d657870697265640000000000000000000000604482015260640161035f565b5050565b600080610ead898867ffffffffffffffff168867ffffffffffffffff16888888610965565b90506000610ebd8a8a8a8a611420565b9050670de0b6b3a7640000610ed28383612333565b610edc9190612223565b9a9950505050505050505050565b6002546000906001600160a01b03908116908316811415610f735760405162461bcd60e51b815260206004820152602360248201527f4d616e61676561626c652f6578697374696e672d6d616e616765722d6164647260448201527f6573730000000000000000000000000000000000000000000000000000000000606482015260840161035f565b6002805473ffffffffffffffffffffffffffffffffffffffff19166001600160a01b0385811691821790925560405190918316907f9cb45c728de594dab506a1f1a8554e24c8eeaf983618d5ec5dd7bc6f3c49feee90600090a350600192915050565b600060606000610fee84602001518560000151611660565b85516040805160108082526102208201909252929350909160009160208201610200803683370190505090506000866040015161ffff168363ffffffff16111561107a5760405162461bcd60e51b815260206004820152601f60248201527f4472617743616c632f657863656564732d6d61782d757365722d7069636b7300604482015260640161035f565b60005b8363ffffffff168163ffffffff161015611292578a898263ffffffff16815181106110aa576110aa612447565b602002602001015167ffffffffffffffff16106111095760405162461bcd60e51b815260206004820181905260248201527f4472617743616c632f696e73756666696369656e742d757365722d7069636b73604482015260640161035f565b63ffffffff8116156111c05788611121600183612369565b63ffffffff168151811061113757611137612447565b602002602001015167ffffffffffffffff16898263ffffffff168151811061116157611161612447565b602002602001015167ffffffffffffffff16116111c05760405162461bcd60e51b815260206004820152601860248201527f4472617743616c632f7069636b732d617363656e64696e670000000000000000604482015260640161035f565b60008a8a8363ffffffff16815181106111db576111db612447565b602002602001015160405160200161120792919091825267ffffffffffffffff16602082015260400190565b6040516020818303038152906040528051906020012060001c9050600061122f828f8961175b565b9050601060ff8216101561127d578360ff168160ff16111561124f578093505b848160ff168151811061126457611264612447565b602002602001018051809190611279906123d2565b9052505b5050808061128a906123ed565b91505061107d565b506000806112a18360016121fe565b60ff1667ffffffffffffffff8111156112bc576112bc61245d565b6040519080825280602002602001820160405280156112e5578160200160208202803683370190505b50905060005b8360ff168160ff16116113605761132e8a61010001518260ff166010811061131557611315612447565b602002015163ffffffff168b600001518360ff16611806565b828260ff168151811061134357611343612447565b60209081029190910101528061135881612411565b9150506112eb565b5060005b8360ff1681116113ed57600085828151811061138257611382612447565b602002602001015111156113db578481815181106113a2576113a2612447565b60200260200101518282815181106113bc576113bc612447565b60200260200101516113ce9190612333565b6113d890846121ba565b92505b806113e5816123d2565b915050611364565b50633b9aca008960e00151836114039190612333565b61140d9190612223565b9d939c50929a5050505050505050505050565b604080516001808252818301909252600091829190602080830190803683375050604080516001808252818301909252929350600092915060208083019080368337019050509050848260008151811061147c5761147c612447565b602002602001019067ffffffffffffffff16908167ffffffffffffffff168152505083816000815181106114b2576114b2612447565b67ffffffffffffffff909216602092830291909101909101526040517f68c7fd570000000000000000000000000000000000000000000000000000000081526000906001600160a01b038916906368c7fd5790611517908a9087908790600401611f28565b60006040518083038186803b15801561152f57600080fd5b505afa158015611543573d6000803e3d6000fd5b505050506040513d6000823e601f3d908101601f1916820160405261156b9190810190611bc5565b90506000886001600160a01b0316638e6d536a85856040518363ffffffff1660e01b815260040161159d9291906120f3565b60006040518083038186803b1580156115b557600080fd5b505afa1580156115c9573d6000803e3d6000fd5b505050506040513d6000823e601f3d908101601f191682016040526115f19190810190611bc5565b90506000808260008151811061160957611609612447565b60200260200101511115610a3f578160008151811061162a5761162a612447565b60200260200101518360008151811061164557611645612447565b6020026020010151670de0b6b3a7640000610ed29190612333565b606060008360ff1667ffffffffffffffff8111156116805761168061245d565b6040519080825280602002602001820160405280156116a9578160200160208202803683370190505b50905060016116b9846002612288565b6116c39190612352565b816000815181106116d6576116d6612447565b602090810291909101015260015b8460ff168160ff1610156117515760ff8416826117026001846123af565b60ff168151811061171557611715612447565b6020026020010151901b828260ff168151811061173457611734612447565b60209081029190910101528061174981612411565b9150506116e4565b5090505b92915050565b80516000908190815b8160ff168160ff1610156117ef576000858260ff168151811061178957611789612447565b60200260200101519050808716818916146117ce578360ff168360ff1614156117b95760009450505050506117ff565b6117c384846123af565b9450505050506117ff565b836117d881612411565b9450505080806117e790612411565b915050611764565b506117fa82826123af565b925050505b9392505050565b6000806118138484611828565b905061181f8186612223565b95945050505050565b6000811561186e5761183b600183612352565b6118489060ff8516612333565b6001901b6118598360ff8616612333565b6001901b6118679190612352565b9050611755565b506001611755565b600082601f83011261188757600080fd5b60405161020080820182811067ffffffffffffffff821117156118ac576118ac61245d565b60405281848281018710156118c057600080fd5b600092505b60108310156118ee5780516118d98161248b565b825260019290920191602091820191016118c5565b509195945050505050565b60008083601f84011261190b57600080fd5b50813567ffffffffffffffff81111561192357600080fd5b6020830191508360208260051b850101111561193e57600080fd5b9250929050565b80516fffffffffffffffffffffffffffffffff8116811461082457600080fd5b805161ffff8116811461082457600080fd5b80516108248161248b565b8051610824816124b3565b60006020828403121561199f57600080fd5b81356117ff81612473565b600060208083850312156119bd57600080fd5b823567ffffffffffffffff808211156119d557600080fd5b818501915085601f8301126119e957600080fd5b81356119fc6119f782612196565b612165565b80828252858201915085850189878560051b8801011115611a1c57600080fd5b60005b84811015611abb57813586811115611a3657600080fd5b8701603f81018c13611a4757600080fd5b88810135611a576119f782612196565b808282528b82019150604084018f60408560051b8701011115611a7957600080fd5b600094505b83851015611aa5578035611a918161249d565b835260019490940193918c01918c01611a7e565b5087525050509287019290870190600101611a1f565b50909998505050505050505050565b60006020808385031215611add57600080fd5b825167ffffffffffffffff811115611af457600080fd5b8301601f81018513611b0557600080fd5b8051611b136119f782612196565b8181528381019083850160a0808502860187018a1015611b3257600080fd5b60009550855b85811015611bb65781838c031215611b4e578687fd5b611b56612118565b8351815288840151611b678161248b565b818a0152604084810151611b7a8161249d565b90820152606084810151611b8d8161249d565b90820152608084810151611ba08161248b565b9082015285529387019391810191600101611b38565b50919998505050505050505050565b60006020808385031215611bd857600080fd5b825167ffffffffffffffff811115611bef57600080fd5b8301601f81018513611c0057600080fd5b8051611c0e6119f782612196565b80828252848201915084840188868560051b8701011115611c2e57600080fd5b600094505b83851015611c51578051835260019490940193918501918501611c33565b50979650505050505050565b60008060008060608587031215611c7357600080fd5b8435611c7e81612473565b93506020850135611c8e81612473565b9250604085013567ffffffffffffffff811115611caa57600080fd5b611cb6878288016118f9565b95989497509550505050565b60008060008060008060808789031215611cdb57600080fd5b8635611ce681612473565b95506020870135611cf681612473565b9450604087013567ffffffffffffffff80821115611d1357600080fd5b611d1f8a838b016118f9565b90965094506060890135915080821115611d3857600080fd5b818901915089601f830112611d4c57600080fd5b813581811115611d5b57600080fd5b8a6020828501011115611d6d57600080fd5b6020830194508093505050509295509295509295565b60008060008060008060c08789031215611d9c57600080fd5b8635611da781612473565b95506020870135945060408701359350606087013592506080870135611dcc816124b3565b915060a0870135611ddc816124b3565b809150509295509295509295565b60006103008284031215611dfd57600080fd5b611e05612141565b611e0e83611982565b8152611e1c60208401611982565b6020820152611e2d60408401611965565b6040820152611e3e60608401611977565b6060820152611e4f60808401611977565b6080820152611e6060a08401611977565b60a0820152611e7160c08401611945565b60c082015260e083015160e0820152610100611e8f85828601611876565b908201529392505050565b600060208284031215611eac57600080fd5b5051919050565b600081518084526020808501945080840160005b83811015611ee357815187529582019590820190600101611ec7565b509495945050505050565b600081518084526020808501945080840160005b83811015611ee357815167ffffffffffffffff1687529582019590820190600101611f02565b6001600160a01b0384168152606060208201526000611f4a6060830185611eee565b8281036040840152611f5c8185611eee565b9695505050505050565b6000602080830181845280855180835260408601915060408160051b870101925083870160005b82811015611fd9577fffffffffffffffffffffffffffffffffffffffffffffffffffffffffffffffc0888603018452611fc7858351611eb3565b94509285019290850190600101611f8d565b5092979650505050505050565b604081526000611ff96040830185611eb3565b602083820381850152845180835260005b8181101561202557868101830151848201840152820161200a565b818111156120365760008383860101525b50601f01601f19169190910101949350505050565b60208082528181018390526000908460408401835b8681101561208b5782356120738161248b565b63ffffffff1682529183019190830190600101612060565b509695505050505050565b6020808252825182820181905260009190848201906040850190845b818110156120d457835163ffffffff16835292840192918401916001016120b2565b50909695505050505050565b6020815260006117ff6020830184611eee565b6040815260006121066040830185611eee565b828103602084015261181f8185611eee565b60405160a0810167ffffffffffffffff8111828210171561213b5761213b61245d565b60405290565b604051610120810167ffffffffffffffff8111828210171561213b5761213b61245d565b604051601f8201601f1916810167ffffffffffffffff8111828210171561218e5761218e61245d565b604052919050565b600067ffffffffffffffff8211156121b0576121b061245d565b5060051b60200190565b600082198211156121cd576121cd612431565b500190565b600067ffffffffffffffff8083168185168083038211156121f5576121f5612431565b01949350505050565b600060ff821660ff84168060ff0382111561221b5761221b612431565b019392505050565b60008261224057634e487b7160e01b600052601260045260246000fd5b500490565b600181815b8085111561228057816000190482111561226657612266612431565b8085161561227357918102915b93841c939080029061224a565b509250929050565b60006117ff60ff8416836000826122a157506001611755565b816122ae57506000611755565b81600181146122c457600281146122ce576122ea565b6001915050611755565b60ff8411156122df576122df612431565b50506001821b611755565b5060208310610133831016604e8410600b841016171561230d575081810a611755565b6123178383612245565b806000190482111561232b5761232b612431565b029392505050565b600081600019048311821515161561234d5761234d612431565b500290565b60008282101561236457612364612431565b500390565b600063ffffffff8381169083168181101561238657612386612431565b039392505050565b600067ffffffffffffffff8381169083168181101561238657612386612431565b600060ff821660ff8416808210156123c9576123c9612431565b90039392505050565b60006000198214156123e6576123e6612431565b5060010190565b600063ffffffff8083168181141561240757612407612431565b6001019392505050565b600060ff821660ff81141561242857612428612431565b60010192915050565b634e487b7160e01b600052601160045260246000fd5b634e487b7160e01b600052603260045260246000fd5b634e487b7160e01b600052604160045260246000fd5b6001600160a01b038116811461248857600080fd5b50565b63ffffffff8116811461248857600080fd5b67ffffffffffffffff8116811461248857600080fd5b60ff8116811461248857600080fdfea264697066735822122069b1b9e8b4359de0d3cd300b769a54026bcc8b9e0b10e5445d7d396b5c59be8364736f6c63430008060033",
  "devdoc": {
    "author": "PoolTogether Inc Team",
    "events": {
      "Deployed(address,address,address)": {
        "params": {
          "drawBuffer": "Address of the DrawBuffer",
          "gaugeController": "Address of the GaugeController",
          "prizeConfigHistory": "Address of the PrizeConfigHistory"
        }
      }
    },
    "kind": "dev",
    "methods": {
      "calculate(address,address,uint32[],bytes)": {
        "params": {
          "data": "ABI encoded pick indices for all Draws. Expected to be winning picks. Pick indices must be less than the totalUserPicks.",
          "drawIds": "Array of DrawIds for which to calculate awardable prizes for",
          "ticket": "Address of the ticket to calculate awardable prizes for",
          "user": "Address of the user for which to calculate awardable prizes for"
        },
        "returns": {
          "prizeCounts": "List of prize counts ordered by tiers.",
          "prizesAwardable": "List of awardable prize amounts ordered by drawId."
        }
      },
      "calculateUserPicks(address,address,uint32[])": {
        "params": {
          "drawIds": "Array of DrawIds for which to calculate picks for",
          "ticket": "Address of the ticket to calculate picks for",
          "user": "Address of the user for which to calculate picks for"
        }
      },
      "claimOwnership()": {
        "details": "This function is only callable by the `_pendingOwner`."
      },
      "constructor": {
        "params": {
          "_drawBuffer": "Address of the DrawBuffer to push draws to",
          "_gaugeController": "Address of the GaugeController",
          "_owner": "Address of the owner",
          "_prizeConfigHistory": "Address of the PrizeConfigHistory"
        }
      },
      "getDrawBuffer()": {
        "returns": {
          "_0": "The DrawBuffer address"
        }
      },
      "getGaugeController()": {
        "returns": {
          "_0": "The GaugeController address"
        }
      },
      "getPrizeConfigHistory()": {
        "returns": {
          "_0": "The PrizeConfigHistory address"
        }
      },
      "getTotalPicks(address,uint256,uint256,uint256,uint8,uint8)": {
        "params": {
          "bitRange": "Number of bits allocated to each division",
          "cardinality": "Number of sub-divisions of a random number",
          "endTime": "Timestamp at which the draw ends",
          "poolStakeCeiling": "Globally configured pool stake ceiling",
          "startTime": "Timestamp at which the draw starts",
          "ticket": "Address of the ticket to get total picks for"
        },
        "returns": {
          "_0": "Total number of picks for this prize pool / ticket"
        }
      },
      "manager()": {
        "returns": {
          "_0": "Current `_manager` address."
        }
      },
      "pendingOwner()": {
        "returns": {
          "_0": "Current `_pendingOwner` address."
        }
      },
      "renounceOwnership()": {
        "details": "Leaves the contract without owner. It will not be possible to call `onlyOwner` functions anymore. Can only be called by the current owner. NOTE: Renouncing ownership will leave the contract without an owner, thereby removing any functionality that is only available to the owner."
      },
      "setManager(address)": {
        "details": "Throws if called by any account other than the owner.",
        "params": {
          "_newManager": "New _manager address."
        },
        "returns": {
          "_0": "Boolean to indicate if the operation was successful or not."
        }
      },
      "transferOwnership(address)": {
        "params": {
          "_newOwner": "Address to transfer ownership to."
        }
      }
    },
    "title": "PoolTogether V4 DrawCalculatorV3",
    "version": 1
  },
  "userdoc": {
    "events": {
      "Deployed(address,address,address)": {
        "notice": "Emitted when the contract is initialized"
      }
    },
    "kind": "user",
    "methods": {
      "TIERS_LENGTH()": {
        "notice": "The tiers array length"
      },
      "calculate(address,address,uint32[],bytes)": {
        "notice": "Calculates the awardable prizes for a user for Multiple Draws. Typically called by a PrizeDistributor."
      },
      "calculateUserPicks(address,address,uint32[])": {
        "notice": "Calculates picks for a user for Multiple Draws."
      },
      "claimOwnership()": {
        "notice": "Allows the `_pendingOwner` address to finalize the transfer."
      },
      "constructor": {
        "notice": "DrawCalculator constructor"
      },
      "drawBuffer()": {
        "notice": "DrawBuffer address"
      },
      "gaugeController()": {
        "notice": "GaugeController address"
      },
      "getDrawBuffer()": {
        "notice": "Returns DrawBuffer address."
      },
      "getGaugeController()": {
        "notice": "Returns GaugeController address."
      },
      "getPrizeConfigHistory()": {
        "notice": "Returns PrizeConfigHistory address."
      },
      "getTotalPicks(address,uint256,uint256,uint256,uint8,uint8)": {
        "notice": "Returns the total number of picks for a prize pool / ticket."
      },
      "manager()": {
        "notice": "Gets current `_manager`."
      },
      "owner()": {
        "notice": "Returns the address of the current owner."
      },
      "pendingOwner()": {
        "notice": "Gets current `_pendingOwner`."
      },
      "prizeConfigHistory()": {
        "notice": "PrizeConfigHistory address"
      },
      "renounceOwnership()": {
        "notice": "Renounce ownership of the contract."
      },
      "setManager(address)": {
        "notice": "Set or change of manager."
      },
      "transferOwnership(address)": {
        "notice": "Allows current owner to set the `_pendingOwner` address."
      }
    },
    "notice": "The DrawCalculator calculates a user's prize by matching a winning random number against their picks. A users picks are generated deterministically based on their address and balance of tickets held. Prize payouts are divided into multiple tiers: grand prize, second place, etc... A user with a higher average weighted balance (during each draw period) will be given a large number of picks to choose from, and thus a higher chance to match the winning numbers.",
    "version": 1
  },
  "storageLayout": {
    "storage": [
      {
        "astId": 4303,
        "contract": "contracts/DrawCalculatorV3.sol:DrawCalculatorV3",
        "label": "_owner",
        "offset": 0,
        "slot": "0",
        "type": "t_address"
      },
      {
        "astId": 4305,
        "contract": "contracts/DrawCalculatorV3.sol:DrawCalculatorV3",
        "label": "_pendingOwner",
        "offset": 0,
        "slot": "1",
        "type": "t_address"
      },
      {
        "astId": 4201,
        "contract": "contracts/DrawCalculatorV3.sol:DrawCalculatorV3",
        "label": "_manager",
        "offset": 0,
        "slot": "2",
        "type": "t_address"
      },
      {
        "astId": 13433,
        "contract": "contracts/DrawCalculatorV3.sol:DrawCalculatorV3",
        "label": "gaugeController",
        "offset": 0,
        "slot": "3",
        "type": "t_contract(IGaugeController)20455"
      }
    ],
    "types": {
      "t_address": {
        "encoding": "inplace",
        "label": "address",
        "numberOfBytes": "20"
      },
      "t_contract(IGaugeController)20455": {
        "encoding": "inplace",
        "label": "contract IGaugeController",
        "numberOfBytes": "20"
      }
    }
  }
}