{
  "address": "0x0d32efD9e7468846b956538E120a3b97DAd9f30F",
  "abi": [
    {
      "inputs": [
        {
          "internalType": "contract IERC20",
          "name": "_token",
          "type": "address"
        },
        {
          "internalType": "address",
          "name": "_owner",
          "type": "address"
        }
      ],
      "stateMutability": "nonpayable",
      "type": "constructor"
    },
    {
      "anonymous": false,
      "inputs": [
        {
          "indexed": false,
          "internalType": "contract IERC20",
          "name": "token",
          "type": "address"
        }
      ],
      "name": "Deployed",
      "type": "event"
    },
    {
      "anonymous": false,
      "inputs": [
        {
          "indexed": false,
          "internalType": "contract IGaugeReward",
          "name": "gaugeReward",
          "type": "address"
        }
      ],
      "name": "GaugeRewardSet",
      "type": "event"
    },
    {
      "anonymous": false,
      "inputs": [
        {
          "indexed": true,
          "internalType": "address",
          "name": "pendingOwner",
          "type": "address"
        }
      ],
      "name": "OwnershipOffered",
      "type": "event"
    },
    {
      "anonymous": false,
      "inputs": [
        {
          "indexed": true,
          "internalType": "address",
          "name": "previousOwner",
          "type": "address"
        },
        {
          "indexed": true,
          "internalType": "address",
          "name": "newOwner",
          "type": "address"
        }
      ],
      "name": "OwnershipTransferred",
      "type": "event"
    },
    {
      "inputs": [
        {
          "internalType": "address",
          "name": "_gauge",
          "type": "address"
        }
      ],
      "name": "addGauge",
      "outputs": [],
      "stateMutability": "nonpayable",
      "type": "function"
    },
    {
      "inputs": [
        {
          "internalType": "address",
          "name": "_gauge",
          "type": "address"
        },
        {
          "internalType": "uint256",
          "name": "_scale",
          "type": "uint256"
        }
      ],
      "name": "addGaugeWithScale",
      "outputs": [],
      "stateMutability": "nonpayable",
      "type": "function"
    },
    {
      "inputs": [
        {
          "internalType": "address",
          "name": "",
          "type": "address"
        }
      ],
      "name": "balances",
      "outputs": [
        {
          "internalType": "uint256",
          "name": "",
          "type": "uint256"
        }
      ],
      "stateMutability": "view",
      "type": "function"
    },
    {
      "inputs": [],
      "name": "claimOwnership",
      "outputs": [],
      "stateMutability": "nonpayable",
      "type": "function"
    },
    {
      "inputs": [
        {
          "internalType": "address",
          "name": "_gauge",
          "type": "address"
        },
        {
          "internalType": "uint256",
          "name": "_amount",
          "type": "uint256"
        }
      ],
      "name": "decreaseGauge",
      "outputs": [],
      "stateMutability": "nonpayable",
      "type": "function"
    },
    {
      "inputs": [
        {
          "internalType": "address",
          "name": "_to",
          "type": "address"
        },
        {
          "internalType": "uint256",
          "name": "_amount",
          "type": "uint256"
        }
      ],
      "name": "deposit",
      "outputs": [],
      "stateMutability": "nonpayable",
      "type": "function"
    },
    {
      "inputs": [],
      "name": "gaugeReward",
      "outputs": [
        {
          "internalType": "contract IGaugeReward",
          "name": "",
          "type": "address"
        }
      ],
      "stateMutability": "view",
      "type": "function"
    },
    {
      "inputs": [
        {
          "internalType": "address",
          "name": "_gauge",
          "type": "address"
        },
        {
          "internalType": "uint256",
          "name": "_startTime",
          "type": "uint256"
        },
        {
          "internalType": "uint256",
          "name": "_endTime",
          "type": "uint256"
        }
      ],
      "name": "getAverageGaugeBetween",
      "outputs": [
        {
          "internalType": "uint256",
          "name": "",
          "type": "uint256"
        }
      ],
      "stateMutability": "view",
      "type": "function"
    },
    {
      "inputs": [
        {
          "internalType": "address",
          "name": "_gauge",
          "type": "address"
        },
        {
          "internalType": "uint256",
          "name": "_startTime",
          "type": "uint256"
        },
        {
          "internalType": "uint256",
          "name": "_endTime",
          "type": "uint256"
        }
      ],
      "name": "getAverageGaugeScaleBetween",
      "outputs": [
        {
          "internalType": "uint256",
          "name": "",
          "type": "uint256"
        }
      ],
      "stateMutability": "view",
      "type": "function"
    },
    {
      "inputs": [
        {
          "internalType": "address",
          "name": "_gauge",
          "type": "address"
        }
      ],
      "name": "getGaugeBalance",
      "outputs": [
        {
          "internalType": "uint256",
          "name": "",
          "type": "uint256"
        }
      ],
      "stateMutability": "view",
      "type": "function"
    },
    {
      "inputs": [
        {
          "internalType": "address",
          "name": "_gauge",
          "type": "address"
        }
      ],
      "name": "getGaugeScaleBalance",
      "outputs": [
        {
          "internalType": "uint256",
          "name": "",
          "type": "uint256"
        }
      ],
      "stateMutability": "view",
      "type": "function"
    },
    {
      "inputs": [
        {
          "internalType": "address",
          "name": "_gauge",
          "type": "address"
        },
        {
          "internalType": "uint256",
          "name": "_startTime",
          "type": "uint256"
        },
        {
          "internalType": "uint256",
          "name": "_endTime",
          "type": "uint256"
        }
      ],
      "name": "getScaledAverageGaugeBetween",
      "outputs": [
        {
          "internalType": "uint256",
          "name": "",
          "type": "uint256"
        }
      ],
      "stateMutability": "view",
      "type": "function"
    },
    {
      "inputs": [
        {
          "internalType": "address",
          "name": "_gauge",
          "type": "address"
        },
        {
          "internalType": "address",
          "name": "_user",
          "type": "address"
        }
      ],
      "name": "getUserGaugeBalance",
      "outputs": [
        {
          "internalType": "uint256",
          "name": "",
          "type": "uint256"
        }
      ],
      "stateMutability": "view",
      "type": "function"
    },
    {
      "inputs": [
        {
          "internalType": "address",
          "name": "_gauge",
          "type": "address"
        },
        {
          "internalType": "uint256",
          "name": "_amount",
          "type": "uint256"
        }
      ],
      "name": "increaseGauge",
      "outputs": [],
      "stateMutability": "nonpayable",
      "type": "function"
    },
    {
      "inputs": [
        {
          "internalType": "address",
          "name": "_gauge",
          "type": "address"
        }
      ],
      "name": "isGauge",
      "outputs": [
        {
          "internalType": "bool",
          "name": "",
          "type": "bool"
        }
      ],
      "stateMutability": "view",
      "type": "function"
    },
    {
      "inputs": [],
      "name": "owner",
      "outputs": [
        {
          "internalType": "address",
          "name": "",
          "type": "address"
        }
      ],
      "stateMutability": "view",
      "type": "function"
    },
    {
      "inputs": [],
      "name": "pendingOwner",
      "outputs": [
        {
          "internalType": "address",
          "name": "",
          "type": "address"
        }
      ],
      "stateMutability": "view",
      "type": "function"
    },
    {
      "inputs": [
        {
          "internalType": "address",
          "name": "_gauge",
          "type": "address"
        }
      ],
      "name": "removeGauge",
      "outputs": [],
      "stateMutability": "nonpayable",
      "type": "function"
    },
    {
      "inputs": [],
      "name": "renounceOwnership",
      "outputs": [],
      "stateMutability": "nonpayable",
      "type": "function"
    },
    {
      "inputs": [
        {
          "internalType": "contract IGaugeReward",
          "name": "_gaugeReward",
          "type": "address"
        }
      ],
      "name": "setGaugeReward",
      "outputs": [],
      "stateMutability": "nonpayable",
      "type": "function"
    },
    {
      "inputs": [
        {
          "internalType": "address",
          "name": "_gauge",
          "type": "address"
        },
        {
          "internalType": "uint256",
          "name": "_scale",
          "type": "uint256"
        }
      ],
      "name": "setGaugeScale",
      "outputs": [],
      "stateMutability": "nonpayable",
      "type": "function"
    },
    {
      "inputs": [],
      "name": "token",
      "outputs": [
        {
          "internalType": "contract IERC20",
          "name": "",
          "type": "address"
        }
      ],
      "stateMutability": "view",
      "type": "function"
    },
    {
      "inputs": [
        {
          "internalType": "address",
          "name": "_newOwner",
          "type": "address"
        }
      ],
      "name": "transferOwnership",
      "outputs": [],
      "stateMutability": "nonpayable",
      "type": "function"
    },
    {
      "inputs": [
        {
          "internalType": "address",
          "name": "",
          "type": "address"
        },
        {
          "internalType": "address",
          "name": "",
          "type": "address"
        }
      ],
      "name": "userGaugeBalance",
      "outputs": [
        {
          "internalType": "uint256",
          "name": "",
          "type": "uint256"
        }
      ],
      "stateMutability": "view",
      "type": "function"
    },
    {
      "inputs": [
        {
          "internalType": "uint256",
          "name": "_amount",
          "type": "uint256"
        }
      ],
      "name": "withdraw",
      "outputs": [],
      "stateMutability": "nonpayable",
      "type": "function"
    }
  ],
  "transactionHash": "0xecc18784238cd4909f79d16bcd8804712bd708db1c526af46d8d55382c02d3f5",
  "args": [
    "0xF192eEa8eb5816Ff667aFFD3b7fbdbF4AB4Bb0d3",
    "0x3A791e828fDd420fbE16416efDF509E4b9088Dd4"
  ],
  "numDeployments": 1,
  "solcInputHash": "b05209ff2ac583caae27b575ae3779ab",
  "bytecode": "0x60806040523480156200001157600080fd5b506040516200232c3803806200232c83398101604081905262000034916200019e565b8062000040816200014e565b506001600160a01b0381166200009d5760405162461bcd60e51b815260206004820152601960248201527f47432f6f776e65722d6e6f742d7a65726f2d616464726573730000000000000060448201526064015b60405180910390fd5b6001600160a01b038216620000f55760405162461bcd60e51b815260206004820152601960248201527f47432f746f6b656e2d6e6f742d7a65726f2d6164647265737300000000000000604482015260640162000094565b600280546001600160a01b0319166001600160a01b0384169081179091556040519081527ff40fcec21964ffb566044d083b4073f29f7f7929110ea19e1b3ebe375d89055e9060200160405180910390a15050620001f6565b600080546001600160a01b038381166001600160a01b0319831681178455604051919092169283917f8be0079c531659141344cd1fd0a4f28419497f9722a3daafe3b4186f6b6457e09190a35050565b60008060408385031215620001b257600080fd5b8251620001bf81620001dd565b6020840151909250620001d281620001dd565b809150509250929050565b6001600160a01b0381168114620001f357600080fd5b50565b61212680620002066000396000f3fe608060405234801561001057600080fd5b50600436106101a35760003560e01c806378fa672e116100ee578063d77cf90611610097578063ee37d5a011610071578063ee37d5a0146103da578063f2fde38b146103ed578063fc0c546a14610400578063fd775c541461041357600080fd5b8063d77cf90614610384578063dd14d96114610397578063e30c3978146103c957600080fd5b8063a1a2f120116100c8578063a1a2f1201461031a578063aa79979b1461032d578063b14c69861461037157600080fd5b806378fa672e146102cf5780638da5cb5b146102e25780639da882ac1461030757600080fd5b806347e7ef24116101505780635cf39fbf1161012a5780635cf39fbf146102a157806362b3fdd2146102b4578063715018a6146102c757600080fd5b806347e7ef24146102735780634b0ad1cb146102865780634e71e0c81461029957600080fd5b80632e1a7d4d116101815780632e1a7d4d146102385780633a0451451461024d5780633c72026e1461026057600080fd5b8063117d37e6146101a85780632249fd72146101ed57806327e235e314610218575b600080fd5b6101da6101b6366004611d5b565b6001600160a01b03166000908152600660205260409020546001600160d01b031690565b6040519081526020015b60405180910390f35b6101da6101fb366004611d78565b600560209081526000928352604080842090915290825290205481565b6101da610226366004611d5b565b60046020526000908152604090205481565b61024b610246366004611e34565b610426565b005b61024b61025b366004611d5b565b6104eb565b6101da61026e366004611ddd565b610606565b61024b610281366004611db1565b61061d565b61024b610294366004611db1565b6106f2565b61024b610957565b6101da6102af366004611ddd565b6109e5565b61024b6102c2366004611db1565b610a2b565b61024b610b59565b6101da6102dd366004611d78565b610bce565b6000546001600160a01b03165b6040516001600160a01b0390911681526020016101e4565b61024b610315366004611d5b565b610bfb565b6101da610328366004611ddd565b610c10565b61036161033b366004611d5b565b6001600160a01b03166000908152600760205260409020546001600160d01b0316151590565b60405190151581526020016101e4565b61024b61037f366004611db1565b610c1d565b61024b610392366004611d5b565b610c27565b6101da6103a5366004611d5b565b6001600160a01b03166000908152600760205260409020546001600160d01b031690565b6001546001600160a01b03166102ef565b6003546102ef906001600160a01b031681565b61024b6103fb366004611d5b565b610d47565b6002546102ef906001600160a01b031681565b61024b610421366004611db1565b610e83565b3360009081526004602052604081208054839290610445908490612051565b90915550506002546040517fa9059cbb000000000000000000000000000000000000000000000000000000008152336004820152602481018390526001600160a01b039091169063a9059cbb90604401602060405180830381600087803b1580156104af57600080fd5b505af11580156104c3573d6000803e3d6000fd5b505050506040513d601f19601f820116820180604052508101906104e79190611e12565b5050565b6001600160a01b038116600090815260076020908152604091829020825160608101845281546001600160d01b03811680835262ffffff600160d01b8304811684870152600160e81b909204909116828601528451808601909552600685527f696e73756666000000000000000000000000000000000000000000000000000093850193909352909290916105839184919042611021565b505080518354602083015160409093015162ffffff908116600160e81b027cffffffffffffffffffffffffffffffffffffffffffffffffffffffffff91909416600160d01b027fffffff00000000000000000000000000000000000000000000000000000000009092166001600160d01b03909316929092171716179091555050565b60006106138484846110e5565b90505b9392505050565b6001600160a01b03821660009081526004602052604081208054839290610645908490611f2b565b90915550506002546040517f23b872dd000000000000000000000000000000000000000000000000000000008152336004820152306024820152604481018390526001600160a01b03909116906323b872dd90606401602060405180830381600087803b1580156106b557600080fd5b505af11580156106c9573d6000803e3d6000fd5b505050506040513d601f19601f820116820180604052508101906106ed9190611e12565b505050565b8161071d816001600160a01b03166000908152600760205260409020546001600160d01b0316151590565b61076e5760405162461bcd60e51b815260206004820152601460248201527f476175676520646f6573206e6f7420657869737400000000000000000000000060448201526064015b60405180910390fd5b336000908152600460205260408120805484929061078d908490611f2b565b90915550503360009081526005602090815260408083206001600160a01b0387168452909152812080548492906107c5908490612051565b90915550506001600160a01b03831660009081526006602052604081209061082c826107f086611158565b6040518060400160405280600681526020017f696e73756666000000000000000000000000000000000000000000000000000081525042611021565b505080518354602083015160408401516001600160d01b039093167fffffff00000000000000000000000000000000000000000000000000000000009092168217600160d01b62ffffff92831602177cffffffffffffffffffffffffffffffffffffffffffffffffffffffffff16600160e81b91909316029190911784556003549192506001600160a01b0390911690633166193090879033906108d1908990611f2b565b6040517fffffffff0000000000000000000000000000000000000000000000000000000060e086901b1681526001600160a01b0393841660048201529290911660248301526044820152606401600060405180830381600087803b15801561093857600080fd5b505af115801561094c573d6000803e3d6000fd5b505050505050505050565b6001546001600160a01b031633146109b15760405162461bcd60e51b815260206004820152601f60248201527f4f776e61626c652f63616c6c65722d6e6f742d70656e64696e674f776e6572006044820152606401610765565b6001546109c6906001600160a01b03166111db565b6001805473ffffffffffffffffffffffffffffffffffffffff19169055565b6000806109f3858585611238565b90506000610a028686866110e5565b9050670de0b6b3a7640000610a178284611fcc565b610a219190611f89565b9695505050505050565b6001600160a01b038216600090815260076020908152604091829020825160608101845281546001600160d01b03811680835262ffffff600160d01b8304811695840195909552600160e81b909104909316938101939093529190831015610ab157610aa682610a9a85611158565b83516107f09190612009565b50909150610ad99050565b610ad3828260000151610ac386611158565b610acd9190612009565b426112a2565b50909150505b80518254602083015160409093015162ffffff908116600160e81b027cffffffffffffffffffffffffffffffffffffffffffffffffffffffffff91909416600160d01b027fffffff00000000000000000000000000000000000000000000000000000000009092166001600160d01b039093169290921717161790555050565b33610b6c6000546001600160a01b031690565b6001600160a01b031614610bc25760405162461bcd60e51b815260206004820152601860248201527f4f776e61626c652f63616c6c65722d6e6f742d6f776e657200000000000000006044820152606401610765565b610bcc60006111db565b565b6001600160a01b038082166000908152600560209081526040808320938616835292905220545b92915050565b610c0d81670de0b6b3a764000061134b565b50565b6000610613848484611238565b6104e7828261134b565b33610c3a6000546001600160a01b031690565b6001600160a01b031614610c905760405162461bcd60e51b815260206004820152601860248201527f4f776e61626c652f63616c6c65722d6e6f742d6f776e657200000000000000006044820152606401610765565b6001600160a01b038116610ce65760405162461bcd60e51b815260206004820152601f60248201527f47432f47617567655265776172642d6e6f742d7a65726f2d61646472657373006044820152606401610765565b6003805473ffffffffffffffffffffffffffffffffffffffff19166001600160a01b0383169081179091556040519081527fc9436864b28e4bdede75d52a3d281101b91830fd91f9bc698dfde6048a7726609060200160405180910390a150565b33610d5a6000546001600160a01b031690565b6001600160a01b031614610db05760405162461bcd60e51b815260206004820152601860248201527f4f776e61626c652f63616c6c65722d6e6f742d6f776e657200000000000000006044820152606401610765565b6001600160a01b038116610e2c5760405162461bcd60e51b815260206004820152602560248201527f4f776e61626c652f70656e64696e674f776e65722d6e6f742d7a65726f2d616460448201527f64726573730000000000000000000000000000000000000000000000000000006064820152608401610765565b6001805473ffffffffffffffffffffffffffffffffffffffff19166001600160a01b0383169081179091556040517f239a2ddded15777fa246aed5f7e1a9bc69a39d4eb4a397034d1d85766cca7d4c90600090a250565b81610eae816001600160a01b03166000908152600760205260409020546001600160d01b0316151590565b610efa5760405162461bcd60e51b815260206004820152601460248201527f476175676520646f6573206e6f742065786973740000000000000000000000006044820152606401610765565b3360009081526004602052604081208054849290610f19908490612051565b90915550503360009081526005602090815260408083206001600160a01b038716845290915281208054849290610f51908490611f2b565b90915550506001600160a01b038316600090815260066020526040812090610f7c82610acd86611158565b505080518354602083015160408401516001600160d01b039093167fffffff00000000000000000000000000000000000000000000000000000000009092168217600160d01b62ffffff92831602177cffffffffffffffffffffffffffffffffffffffffffffffffffffffffff16600160e81b91909316029190911784556003549192506001600160a01b03909116906395cebcd490879033906108d1908990612051565b604080516060810182526000808252602082018190529181019190915260408051808201909152600080825260208201526040805160608101825287546001600160d01b0380821680845262ffffff600160d01b840481166020860152600160e81b90930490921693830193909352600092879190891611156110b75760405162461bcd60e51b81526004016107659190611e4d565b506110c68860010182876113f5565b8251999099036001600160d01b03168252909990985095505050505050565b6001600160a01b0383166000818152600760208181526040808420815160608101835281546001600160d01b038116825262ffffff600160d01b8204811683870152600160e81b9091041692810192909252948452919052909161114f90600101828686426114dc565b95945050505050565b60006001600160d01b038211156111d75760405162461bcd60e51b815260206004820152602760248201527f53616665436173743a2076616c756520646f65736e27742066697420696e203260448201527f30382062697473000000000000000000000000000000000000000000000000006064820152608401610765565b5090565b600080546001600160a01b0383811673ffffffffffffffffffffffffffffffffffffffff19831681178455604051919092169283917f8be0079c531659141344cd1fd0a4f28419497f9722a3daafe3b4186f6b6457e09190a35050565b6001600160a01b0383166000818152600660208181526040808420815160608101835281546001600160d01b038116825262ffffff600160d01b8204811683870152600160e81b9091041692810192909252948452919052909161114f90600101828686426114dc565b604080516060810182526000808252602082018190529181019190915260408051808201909152600080825260208201526040805160608101825286546001600160d01b038116825262ffffff600160d01b820481166020840152600160e81b909104169181019190915260009061131e6001880182876113f5565b83519296509094509250611333908790611ec0565b6001600160d01b031684525091959094509092509050565b6001600160a01b03821660009081526007602052604081209061137182610acd85611158565b505080518354602083015160409093015162ffffff908116600160e81b027cffffffffffffffffffffffffffffffffffffffffffffffffffffffffff91909416600160d01b027fffffff00000000000000000000000000000000000000000000000000000000009092166001600160d01b0390931692909217171617909155505050565b604080516060810182526000808252602082018190529181019190915260408051808201909152600080825260208201526000806114338787611514565b9150508463ffffffff16816020015163ffffffff16141561145c578593509150600090506114d3565b60006114768288600001516001600160d01b031688611594565b90508088886020015162ffffff1662ffffff8110611496576114966120c5565b825160209093015163ffffffff16600160e01b026001600160e01b039093169290921791015560006114c78861160f565b95509093506001925050505b93509350939050565b6000808263ffffffff168463ffffffff16116114f857836114fa565b825b90506115098787878487611677565b979650505050505050565b6040805180820190915260008082526020820181905290611543836020015162ffffff1662ffffff8016611713565b9150838262ffffff1662ffffff811061155e5761155e6120c5565b604080518082019091529101546001600160e01b0381168252600160e01b900463ffffffff166020820152919491935090915050565b604080518082019091526000808252602082015260405180604001604052806115d28660200151858663ffffffff166117419092919063ffffffff16565b6115e29063ffffffff1686611f9d565b86516115ee9190611eeb565b6001600160e01b031681526020018363ffffffff1681525090509392505050565b6040805160608101825260008082526020808301829052928201529082015161163f9062ffffff9081169061180b565b62ffffff90811660208401526040830151811610156111d75760018260400181815161166b9190611f0d565b62ffffff169052505090565b6000806000611686888861181b565b915091506000806116978a8a611514565b9150915060006116ad8b8b8487878a8f8e611898565b905060006116c18c8c8588888b8f8f611898565b90506116d6816020015183602001518a611741565b63ffffffff16826000015182600001516116f09190612031565b6116fa9190611f63565b6001600160e01b03169c9b505050505050505050505050565b60008161172257506000610bf5565b61061660016117318486611f2b565b61173b9190612051565b836119e2565b60008163ffffffff168463ffffffff161115801561176b57508163ffffffff168363ffffffff1611155b156117815761177a8385612068565b9050610616565b60008263ffffffff168563ffffffff16116117b0576117ab63ffffffff8616640100000000611f43565b6117b8565b8463ffffffff165b64ffffffffff16905060008363ffffffff168563ffffffff16116117f0576117eb63ffffffff8616640100000000611f43565b6117f8565b8463ffffffff165b64ffffffffff169050610a218183612051565b600061061661173b846001611f2b565b604080518082019091526000808252602082018190529082602001519150838262ffffff1662ffffff8110611852576118526120c5565b604080518082019091529101546001600160e01b0381168252600160e01b900463ffffffff16602082018190529091506118915760009150838261155e565b9250929050565b60408051808201909152600080825260208201526118cb8383896020015163ffffffff166119ee9092919063ffffffff16565b156118ef576118e88789600001516001600160d01b031685611594565b90506119d6565b8263ffffffff16876020015163ffffffff16141561190e5750856119d6565b8263ffffffff16866020015163ffffffff16141561192d5750846119d6565b61194c8660200151838563ffffffff166119ee9092919063ffffffff16565b156119715750604080518082019091526000815263ffffffff831660208201526119d6565b6000806119868b8888888e6040015189611abd565b91509150600061199f8260200151846020015187611741565b63ffffffff16836000015183600001516119b99190612031565b6119c39190611f63565b90506119d0838288611594565b93505050505b98975050505050505050565b60006106168284612085565b60008163ffffffff168463ffffffff1611158015611a1857508163ffffffff168363ffffffff1611155b15611a33578263ffffffff168463ffffffff16109050610616565b60008263ffffffff168563ffffffff1611611a6257611a5d63ffffffff8616640100000000611f43565b611a6a565b8463ffffffff165b64ffffffffff16905060008363ffffffff168563ffffffff1611611aa257611a9d63ffffffff8616640100000000611f43565b611aaa565b8463ffffffff165b64ffffffffff1690911095945050505050565b6040805180820190915260008082526020820152604080518082019091526000808252602082015260008662ffffff1690506000818962ffffff1610611b08578862ffffff16611b23565b6001611b1962ffffff881684611f2b565b611b239190612051565b905060005b6002611b348385611f2b565b611b3e9190611f89565b90508a611b50828962ffffff166119e2565b62ffffff1662ffffff8110611b6757611b676120c5565b604080518082019091529101546001600160e01b0381168252600160e01b900463ffffffff166020820181905290955080611baf57611ba7826001611f2b565b935050611b28565b8b611bbf838a62ffffff1661180b565b62ffffff1662ffffff8110611bd657611bd66120c5565b604080518082019091529101546001600160e01b038116825263ffffffff600160e01b90910481166020830152909550600090611c1b90838116908c908b90611c8a16565b9050808015611c445750611c448660200151898c63ffffffff16611c8a9092919063ffffffff16565b15611c50575050611c7c565b80611c6757611c60600184612051565b9350611c75565b611c72836001611f2b565b94505b5050611b28565b505050965096945050505050565b60008163ffffffff168463ffffffff1611158015611cb457508163ffffffff168363ffffffff1611155b15611cd0578263ffffffff168463ffffffff1611159050610616565b60008263ffffffff168563ffffffff1611611cff57611cfa63ffffffff8616640100000000611f43565b611d07565b8463ffffffff165b64ffffffffff16905060008363ffffffff168563ffffffff1611611d3f57611d3a63ffffffff8616640100000000611f43565b611d47565b8463ffffffff165b64ffffffffff169091111595945050505050565b600060208284031215611d6d57600080fd5b8135610616816120db565b60008060408385031215611d8b57600080fd5b8235611d96816120db565b91506020830135611da6816120db565b809150509250929050565b60008060408385031215611dc457600080fd5b8235611dcf816120db565b946020939093013593505050565b600080600060608486031215611df257600080fd5b8335611dfd816120db565b95602085013595506040909401359392505050565b600060208284031215611e2457600080fd5b8151801515811461061657600080fd5b600060208284031215611e4657600080fd5b5035919050565b600060208083528351808285015260005b81811015611e7a57858101830151858201604001528201611e5e565b81811115611e8c576000604083870101525b50601f017fffffffffffffffffffffffffffffffffffffffffffffffffffffffffffffffe016929092016040019392505050565b60006001600160d01b03808316818516808303821115611ee257611ee2612099565b01949350505050565b60006001600160e01b03808316818516808303821115611ee257611ee2612099565b600062ffffff808316818516808303821115611ee257611ee2612099565b60008219821115611f3e57611f3e612099565b500190565b600064ffffffffff808316818516808303821115611ee257611ee2612099565b60006001600160e01b0380841680611f7d57611f7d6120af565b92169190910492915050565b600082611f9857611f986120af565b500490565b60006001600160e01b0380831681851681830481118215151615611fc357611fc3612099565b02949350505050565b6000817fffffffffffffffffffffffffffffffffffffffffffffffffffffffffffffffff048311821515161561200457612004612099565b500290565b60006001600160d01b038381169083168181101561202957612029612099565b039392505050565b60006001600160e01b038381169083168181101561202957612029612099565b60008282101561206357612063612099565b500390565b600063ffffffff8381169083168181101561202957612029612099565b600082612094576120946120af565b500690565b634e487b7160e01b600052601160045260246000fd5b634e487b7160e01b600052601260045260246000fd5b634e487b7160e01b600052603260045260246000fd5b6001600160a01b0381168114610c0d57600080fdfea264697066735822122058ff36e3f2f2e1290facb6217e9444fc3bff4c3db7f87b4a2582b42a8f30cc6064736f6c63430008060033",
  "devdoc": {
    "events": {
      "Deployed(address)": {
        "params": {
          "token": "Address of the token being staked in the gauge"
        }
      },
      "GaugeRewardSet(address)": {
        "params": {
          "gaugeReward": "Address of the newly set GaugeReward contract"
        }
      }
    },
    "kind": "dev",
    "methods": {
      "claimOwnership()": {
        "details": "This function is only callable by the `_pendingOwner`."
      },
      "constructor": {
        "params": {
          "_owner": "Address of the contract owner",
          "_token": "Address of the token being staked in the gauge"
        }
      },
      "getGaugeBalance(address)": {
        "params": {
          "_gauge": "Address of the gauge to get balance for"
        },
        "returns": {
          "_0": "The gauge balance"
        }
      },
      "getGaugeScaleBalance(address)": {
        "params": {
          "_gauge": "Address of the gauge to get scale balance for"
        },
        "returns": {
          "_0": "The gauge scale balance"
        }
      },
      "getScaledAverageGaugeBetween(address,uint256,uint256)": {
        "params": {
          "_endTime": "End timestamp at which to get the average scaled balance",
          "_gauge": "Address of the gauge to get the average scaled balance for",
          "_startTime": "Start timestamp at which to get the average scaled balance"
        },
        "returns": {
          "_0": "The gauge scaled average balance between the two timestamps"
        }
      },
      "getUserGaugeBalance(address,address)": {
        "params": {
          "_gauge": "Address of the gauge to get stake balance for",
          "_user": "Address of the user to get stake balance for"
        },
        "returns": {
          "_0": "The user gauge balance"
        }
      },
      "pendingOwner()": {
        "returns": {
          "_0": "Current `_pendingOwner` address."
        }
      },
      "renounceOwnership()": {
        "details": "Leaves the contract without owner. It will not be possible to call `onlyOwner` functions anymore. Can only be called by the current owner. NOTE: Renouncing ownership will leave the contract without an owner, thereby removing any functionality that is only available to the owner."
      },
      "setGaugeReward(address)": {
        "params": {
          "_gaugeReward": "Address of the GaugeReward contract"
        }
      },
      "transferOwnership(address)": {
        "params": {
          "_newOwner": "Address to transfer ownership to."
        }
      }
    },
    "stateVariables": {
      "balances": {
        "details": "user => balance"
      },
      "gaugeScaleTwabs": {
        "details": "gauge => scale voting power"
      },
      "gaugeTwabs": {
        "details": "gauge => voting power"
      },
      "userGaugeBalance": {
        "details": "user => gauge => balance"
      }
    },
    "version": 1
  },
  "userdoc": {
    "events": {
      "Deployed(address)": {
        "notice": "Event emitted when the contract is deployed"
      },
      "GaugeRewardSet(address)": {
        "notice": "Event emitted when the GaugeReward contract address is set"
      }
    },
    "kind": "user",
    "methods": {
      "balances(address)": {
        "notice": "Tracks user deposit balance"
      },
      "claimOwnership()": {
        "notice": "Allows the `_pendingOwner` address to finalize the transfer."
      },
      "constructor": {
        "notice": "GaugeController constructor"
      },
      "getGaugeBalance(address)": {
        "notice": "Get the gauge balance"
      },
      "getGaugeScaleBalance(address)": {
        "notice": "Get the gauge scale balance"
      },
      "getScaledAverageGaugeBetween(address,uint256,uint256)": {
        "notice": "Get the gauge scaled average balance between two timestamps."
      },
      "getUserGaugeBalance(address,address)": {
        "notice": "Get the user stake balance for a given gauge"
      },
      "owner()": {
        "notice": "Returns the address of the current owner."
      },
      "pendingOwner()": {
        "notice": "Gets current `_pendingOwner`."
      },
      "renounceOwnership()": {
        "notice": "Renounce ownership of the contract."
      },
      "setGaugeReward(address)": {
        "notice": "Set GaugeReward contract"
      },
      "transferOwnership(address)": {
        "notice": "Allows current owner to set the `_pendingOwner` address."
      },
      "userGaugeBalance(address,address)": {
        "notice": "Tracks user balance per gauge"
      }
    },
    "version": 1
  },
  "storageLayout": {
    "storage": [
      {
        "astId": 4303,
        "contract": "contracts/GaugeController.sol:GaugeController",
        "label": "_owner",
        "offset": 0,
        "slot": "0",
        "type": "t_address"
      },
      {
        "astId": 4305,
        "contract": "contracts/GaugeController.sol:GaugeController",
        "label": "_pendingOwner",
        "offset": 0,
        "slot": "1",
        "type": "t_address"
      },
      {
        "astId": 14600,
        "contract": "contracts/GaugeController.sol:GaugeController",
        "label": "token",
        "offset": 0,
        "slot": "2",
        "type": "t_contract(IERC20)663"
      },
      {
        "astId": 14603,
        "contract": "contracts/GaugeController.sol:GaugeController",
        "label": "gaugeReward",
        "offset": 0,
        "slot": "3",
        "type": "t_contract(IGaugeReward)20479"
      },
      {
        "astId": 14608,
        "contract": "contracts/GaugeController.sol:GaugeController",
        "label": "balances",
        "offset": 0,
        "slot": "4",
        "type": "t_mapping(t_address,t_uint256)"
      },
      {
        "astId": 14615,
        "contract": "contracts/GaugeController.sol:GaugeController",
        "label": "userGaugeBalance",
        "offset": 0,
        "slot": "5",
        "type": "t_mapping(t_address,t_mapping(t_address,t_uint256))"
      },
      {
        "astId": 14621,
        "contract": "contracts/GaugeController.sol:GaugeController",
        "label": "gaugeTwabs",
        "offset": 0,
        "slot": "6",
        "type": "t_mapping(t_address,t_struct(Account)22529_storage)"
      },
      {
        "astId": 14627,
        "contract": "contracts/GaugeController.sol:GaugeController",
        "label": "gaugeScaleTwabs",
        "offset": 0,
        "slot": "7",
        "type": "t_mapping(t_address,t_struct(Account)22529_storage)"
      }
    ],
    "types": {
      "t_address": {
        "encoding": "inplace",
        "label": "address",
        "numberOfBytes": "20"
      },
      "t_array(t_struct(Observation)22101_storage)16777215_storage": {
        "base": "t_struct(Observation)22101_storage",
        "encoding": "inplace",
        "label": "struct ObservationLib.Observation[16777215]",
        "numberOfBytes": "536870880"
      },
      "t_contract(IERC20)663": {
        "encoding": "inplace",
        "label": "contract IERC20",
        "numberOfBytes": "20"
      },
      "t_contract(IGaugeReward)20479": {
        "encoding": "inplace",
        "label": "contract IGaugeReward",
        "numberOfBytes": "20"
      },
      "t_mapping(t_address,t_mapping(t_address,t_uint256))": {
        "encoding": "mapping",
        "key": "t_address",
        "label": "mapping(address => mapping(address => uint256))",
        "numberOfBytes": "32",
        "value": "t_mapping(t_address,t_uint256)"
      },
      "t_mapping(t_address,t_struct(Account)22529_storage)": {
        "encoding": "mapping",
        "key": "t_address",
        "label": "mapping(address => struct TwabLib.Account)",
        "numberOfBytes": "32",
        "value": "t_struct(Account)22529_storage"
      },
      "t_mapping(t_address,t_uint256)": {
        "encoding": "mapping",
        "key": "t_address",
        "label": "mapping(address => uint256)",
        "numberOfBytes": "32",
        "value": "t_uint256"
      },
      "t_struct(Account)22529_storage": {
        "encoding": "inplace",
        "label": "struct TwabLib.Account",
        "members": [
          {
            "astId": 22523,
            "contract": "contracts/GaugeController.sol:GaugeController",
            "label": "details",
            "offset": 0,
            "slot": "0",
            "type": "t_struct(AccountDetails)22520_storage"
          },
          {
            "astId": 22528,
            "contract": "contracts/GaugeController.sol:GaugeController",
            "label": "twabs",
            "offset": 0,
            "slot": "1",
            "type": "t_array(t_struct(Observation)22101_storage)16777215_storage"
          }
        ],
        "numberOfBytes": "536870912"
      },
      "t_struct(AccountDetails)22520_storage": {
        "encoding": "inplace",
        "label": "struct TwabLib.AccountDetails",
        "members": [
          {
            "astId": 22515,
            "contract": "contracts/GaugeController.sol:GaugeController",
            "label": "balance",
            "offset": 0,
            "slot": "0",
            "type": "t_uint208"
          },
          {
            "astId": 22517,
            "contract": "contracts/GaugeController.sol:GaugeController",
            "label": "nextTwabIndex",
            "offset": 26,
            "slot": "0",
            "type": "t_uint24"
          },
          {
            "astId": 22519,
            "contract": "contracts/GaugeController.sol:GaugeController",
            "label": "cardinality",
            "offset": 29,
            "slot": "0",
            "type": "t_uint24"
          }
        ],
        "numberOfBytes": "32"
      },
      "t_struct(Observation)22101_storage": {
        "encoding": "inplace",
        "label": "struct ObservationLib.Observation",
        "members": [
          {
            "astId": 22098,
            "contract": "contracts/GaugeController.sol:GaugeController",
            "label": "amount",
            "offset": 0,
            "slot": "0",
            "type": "t_uint224"
          },
          {
            "astId": 22100,
            "contract": "contracts/GaugeController.sol:GaugeController",
            "label": "timestamp",
            "offset": 28,
            "slot": "0",
            "type": "t_uint32"
          }
        ],
        "numberOfBytes": "32"
      },
      "t_uint208": {
        "encoding": "inplace",
        "label": "uint208",
        "numberOfBytes": "26"
      },
      "t_uint224": {
        "encoding": "inplace",
        "label": "uint224",
        "numberOfBytes": "28"
      },
      "t_uint24": {
        "encoding": "inplace",
        "label": "uint24",
        "numberOfBytes": "3"
      },
      "t_uint256": {
        "encoding": "inplace",
        "label": "uint256",
        "numberOfBytes": "32"
      },
      "t_uint32": {
        "encoding": "inplace",
        "label": "uint32",
        "numberOfBytes": "4"
      }
    }
  }
}