{
  "address": "0x7A4c111CEBfA573f785BFa4ED144f70b1ab519a0",
  "abi": [
    {
      "inputs": [
        {
          "internalType": "address",
          "name": "_owner",
          "type": "address"
        }
      ],
      "stateMutability": "nonpayable",
      "type": "constructor"
    },
    {
      "anonymous": false,
      "inputs": [
        {
          "indexed": true,
          "internalType": "address",
          "name": "previousManager",
          "type": "address"
        },
        {
          "indexed": true,
          "internalType": "address",
          "name": "newManager",
          "type": "address"
        }
      ],
      "name": "ManagerTransferred",
      "type": "event"
    },
    {
      "anonymous": false,
      "inputs": [
        {
          "indexed": true,
          "internalType": "address",
          "name": "pendingOwner",
          "type": "address"
        }
      ],
      "name": "OwnershipOffered",
      "type": "event"
    },
    {
      "anonymous": false,
      "inputs": [
        {
          "indexed": true,
          "internalType": "address",
          "name": "previousOwner",
          "type": "address"
        },
        {
          "indexed": true,
          "internalType": "address",
          "name": "newOwner",
          "type": "address"
        }
      ],
      "name": "OwnershipTransferred",
      "type": "event"
    },
    {
      "inputs": [
        {
          "internalType": "address",
          "name": "",
          "type": "address"
        }
      ],
      "name": "approved",
      "outputs": [
        {
          "internalType": "bool",
          "name": "",
          "type": "bool"
        }
      ],
      "stateMutability": "view",
      "type": "function"
    },
    {
      "inputs": [],
      "name": "claimOwnership",
      "outputs": [],
      "stateMutability": "nonpayable",
      "type": "function"
    },
    {
      "inputs": [
        {
          "internalType": "contract IERC20",
          "name": "token",
          "type": "address"
        },
        {
          "internalType": "address",
          "name": "spender",
          "type": "address"
        },
        {
          "internalType": "uint256",
          "name": "amount",
          "type": "uint256"
        }
      ],
      "name": "decreaseERC20Allowance",
      "outputs": [],
      "stateMutability": "nonpayable",
      "type": "function"
    },
    {
      "inputs": [
        {
          "internalType": "contract IERC20",
          "name": "token",
          "type": "address"
        },
        {
          "internalType": "address",
          "name": "spender",
          "type": "address"
        },
        {
          "internalType": "uint256",
          "name": "amount",
          "type": "uint256"
        }
      ],
      "name": "increaseERC20Allowance",
      "outputs": [],
      "stateMutability": "nonpayable",
      "type": "function"
    },
    {
      "inputs": [],
      "name": "manager",
      "outputs": [
        {
          "internalType": "address",
          "name": "",
          "type": "address"
        }
      ],
      "stateMutability": "view",
      "type": "function"
    },
    {
      "inputs": [],
      "name": "owner",
      "outputs": [
        {
          "internalType": "address",
          "name": "",
          "type": "address"
        }
      ],
      "stateMutability": "view",
      "type": "function"
    },
    {
      "inputs": [],
      "name": "pendingOwner",
      "outputs": [
        {
          "internalType": "address",
          "name": "",
          "type": "address"
        }
      ],
      "stateMutability": "view",
      "type": "function"
    },
    {
      "inputs": [],
      "name": "renounceOwnership",
      "outputs": [],
      "stateMutability": "nonpayable",
      "type": "function"
    },
    {
      "inputs": [
        {
          "internalType": "address",
          "name": "_account",
          "type": "address"
        },
        {
          "internalType": "bool",
          "name": "_approved",
          "type": "bool"
        }
      ],
      "name": "setApproved",
      "outputs": [],
      "stateMutability": "nonpayable",
      "type": "function"
    },
    {
      "inputs": [
        {
          "internalType": "address",
          "name": "_newManager",
          "type": "address"
        }
      ],
      "name": "setManager",
      "outputs": [
        {
          "internalType": "bool",
          "name": "",
          "type": "bool"
        }
      ],
      "stateMutability": "nonpayable",
      "type": "function"
    },
    {
      "inputs": [
        {
          "internalType": "address",
          "name": "_newOwner",
          "type": "address"
        }
      ],
      "name": "transferOwnership",
      "outputs": [],
      "stateMutability": "nonpayable",
      "type": "function"
    }
  ],
  "transactionHash": "0x8a6c62f2d9d01ff45d611ce650d0b7f702e9721fff2fb1f162eda796efad5f0b",
  "args": [
    "0x3A791e828fDd420fbE16416efDF509E4b9088Dd4"
  ],
  "numDeployments": 1,
  "solcInputHash": "b05209ff2ac583caae27b575ae3779ab",
  "bytecode": "0x608060405234801561001057600080fd5b5060405161105b38038061105b83398101604081905261002f91610090565b8061003981610040565b50506100c0565b600080546001600160a01b038381166001600160a01b0319831681178455604051919092169283917f8be0079c531659141344cd1fd0a4f28419497f9722a3daafe3b4186f6b6457e09190a35050565b6000602082840312156100a257600080fd5b81516001600160a01b03811681146100b957600080fd5b9392505050565b610f8c806100cf6000396000f3fe608060405234801561001057600080fd5b50600436106100c95760003560e01c8063b29fd85911610081578063d8b964e61161005b578063d8b964e614610177578063e30c39781461019a578063f2fde38b146101ab57600080fd5b8063b29fd8591461012e578063cad1b11314610141578063d0ebdbe71461015457600080fd5b8063715018a6116100b2578063715018a61461010257806384cfb6801461010a5780638da5cb5b1461011d57600080fd5b8063481c6a75146100ce5780634e71e0c8146100f8575b600080fd5b6002546001600160a01b03165b6040516001600160a01b0390911681526020015b60405180910390f35b6101006101be565b005b610100610251565b610100610118366004610dc6565b6102c6565b6000546001600160a01b03166100db565b61010061013c366004610e1c565b610378565b61010061014f366004610e1c565b6104ac565b610167610162366004610da9565b610573565b60405190151581526020016100ef565b610167610185366004610da9565b60036020526000908152604090205460ff1681565b6001546001600160a01b03166100db565b6101006101b9366004610da9565b6105ed565b6001546001600160a01b0316331461021d5760405162461bcd60e51b815260206004820152601f60248201527f4f776e61626c652f63616c6c65722d6e6f742d70656e64696e674f776e65720060448201526064015b60405180910390fd5b600154610232906001600160a01b0316610729565b6001805473ffffffffffffffffffffffffffffffffffffffff19169055565b336102646000546001600160a01b031690565b6001600160a01b0316146102ba5760405162461bcd60e51b815260206004820152601860248201527f4f776e61626c652f63616c6c65722d6e6f742d6f776e657200000000000000006044820152606401610214565b6102c46000610729565b565b336102d96000546001600160a01b031690565b6001600160a01b03161461032f5760405162461bcd60e51b815260206004820152601860248201527f4f776e61626c652f63616c6c65722d6e6f742d6f776e657200000000000000006044820152606401610214565b6001600160a01b0391909116600090815260036020526040902080547fffffffffffffffffffffffffffffffffffffffffffffffffffffffffffffff0016911515919091179055565b3361038b6002546001600160a01b031690565b6001600160a01b031614806103b95750336103ae6000546001600160a01b031690565b6001600160a01b0316145b61042b5760405162461bcd60e51b815260206004820152602660248201527f4d616e61676561626c652f63616c6c65722d6e6f742d6d616e616765722d6f7260448201527f2d6f776e657200000000000000000000000000000000000000000000000000006064820152608401610214565b6001600160a01b03821660009081526003602052604090205460ff166104935760405162461bcd60e51b815260206004820152601860248201527f5370656e646572206d75737420626520617070726f76656400000000000000006044820152606401610214565b6104a76001600160a01b0384168383610786565b505050565b336104bf6002546001600160a01b031690565b6001600160a01b031614806104ed5750336104e26000546001600160a01b031690565b6001600160a01b0316145b61055f5760405162461bcd60e51b815260206004820152602660248201527f4d616e61676561626c652f63616c6c65722d6e6f742d6d616e616765722d6f7260448201527f2d6f776e657200000000000000000000000000000000000000000000000000006064820152608401610214565b6104a76001600160a01b03841683836108df565b6000336105886000546001600160a01b031690565b6001600160a01b0316146105de5760405162461bcd60e51b815260206004820152601860248201527f4f776e61626c652f63616c6c65722d6e6f742d6f776e657200000000000000006044820152606401610214565b6105e782610a47565b92915050565b336106006000546001600160a01b031690565b6001600160a01b0316146106565760405162461bcd60e51b815260206004820152601860248201527f4f776e61626c652f63616c6c65722d6e6f742d6f776e657200000000000000006044820152606401610214565b6001600160a01b0381166106d25760405162461bcd60e51b815260206004820152602560248201527f4f776e61626c652f70656e64696e674f776e65722d6e6f742d7a65726f2d616460448201527f64726573730000000000000000000000000000000000000000000000000000006064820152608401610214565b6001805473ffffffffffffffffffffffffffffffffffffffff19166001600160a01b0383169081179091556040517f239a2ddded15777fa246aed5f7e1a9bc69a39d4eb4a397034d1d85766cca7d4c90600090a250565b600080546001600160a01b0383811673ffffffffffffffffffffffffffffffffffffffff19831681178455604051919092169283917f8be0079c531659141344cd1fd0a4f28419497f9722a3daafe3b4186f6b6457e09190a35050565b6040517fdd62ed3e0000000000000000000000000000000000000000000000000000000081523060048201526001600160a01b038381166024830152600091839186169063dd62ed3e9060440160206040518083038186803b1580156107eb57600080fd5b505afa1580156107ff573d6000803e3d6000fd5b505050506040513d601f19601f820116820180604052508101906108239190610e5d565b61082d9190610ec5565b6040516001600160a01b0385166024820152604481018290529091506108d99085907f095ea7b300000000000000000000000000000000000000000000000000000000906064015b60408051601f198184030181529190526020810180517bffffffffffffffffffffffffffffffffffffffffffffffffffffffff167fffffffff0000000000000000000000000000000000000000000000000000000090931692909217909152610b33565b50505050565b6040517fdd62ed3e0000000000000000000000000000000000000000000000000000000081523060048201526001600160a01b0383811660248301526000919085169063dd62ed3e9060440160206040518083038186803b15801561094357600080fd5b505afa158015610957573d6000803e3d6000fd5b505050506040513d601f19601f8201168201806040525081019061097b9190610e5d565b9050818110156109f35760405162461bcd60e51b815260206004820152602960248201527f5361666545524332303a2064656372656173656420616c6c6f77616e6365206260448201527f656c6f77207a65726f00000000000000000000000000000000000000000000006064820152608401610214565b6040516001600160a01b03841660248201528282036044820181905290610a409086907f095ea7b30000000000000000000000000000000000000000000000000000000090606401610875565b5050505050565b6002546000906001600160a01b03908116908316811415610ad05760405162461bcd60e51b815260206004820152602360248201527f4d616e61676561626c652f6578697374696e672d6d616e616765722d6164647260448201527f65737300000000000000000000000000000000000000000000000000000000006064820152608401610214565b6002805473ffffffffffffffffffffffffffffffffffffffff19166001600160a01b0385811691821790925560405190918316907f9cb45c728de594dab506a1f1a8554e24c8eeaf983618d5ec5dd7bc6f3c49feee90600090a350600192915050565b6000610b88826040518060400160405280602081526020017f5361666545524332303a206c6f772d6c6576656c2063616c6c206661696c6564815250856001600160a01b0316610c189092919063ffffffff16565b8051909150156104a75780806020019051810190610ba69190610dff565b6104a75760405162461bcd60e51b815260206004820152602a60248201527f5361666545524332303a204552433230206f7065726174696f6e20646964206e60448201527f6f742073756363656564000000000000000000000000000000000000000000006064820152608401610214565b6060610c278484600085610c31565b90505b9392505050565b606082471015610ca95760405162461bcd60e51b815260206004820152602660248201527f416464726573733a20696e73756666696369656e742062616c616e636520666f60448201527f722063616c6c00000000000000000000000000000000000000000000000000006064820152608401610214565b843b610cf75760405162461bcd60e51b815260206004820152601d60248201527f416464726573733a2063616c6c20746f206e6f6e2d636f6e74726163740000006044820152606401610214565b600080866001600160a01b03168587604051610d139190610e76565b60006040518083038185875af1925050503d8060008114610d50576040519150601f19603f3d011682016040523d82523d6000602084013e610d55565b606091505b5091509150610d65828286610d70565b979650505050505050565b60608315610d7f575081610c2a565b825115610d8f5782518084602001fd5b8160405162461bcd60e51b81526004016102149190610e92565b600060208284031215610dbb57600080fd5b8135610c2a81610f30565b60008060408385031215610dd957600080fd5b8235610de481610f30565b91506020830135610df481610f48565b809150509250929050565b600060208284031215610e1157600080fd5b8151610c2a81610f48565b600080600060608486031215610e3157600080fd5b8335610e3c81610f30565b92506020840135610e4c81610f30565b929592945050506040919091013590565b600060208284031215610e6f57600080fd5b5051919050565b60008251610e88818460208701610f04565b9190910192915050565b6020815260008251806020840152610eb1816040850160208701610f04565b601f01601f19169190910160400192915050565b60008219821115610eff577f4e487b7100000000000000000000000000000000000000000000000000000000600052601160045260246000fd5b500190565b60005b83811015610f1f578181015183820152602001610f07565b838111156108d95750506000910152565b6001600160a01b0381168114610f4557600080fd5b50565b8015158114610f4557600080fdfea26469706673582212209b0e9a9e56a067c1f2e9f3c449cb230a7b37fc898a20ff864c4570c7a5c4157e64736f6c63430008060033",
  "devdoc": {
    "author": "PoolTogether Inc Team",
    "kind": "dev",
    "methods": {
      "claimOwnership()": {
        "details": "This function is only callable by the `_pendingOwner`."
      },
      "constructor": {
        "params": {
          "_owner": "Owner address"
        }
      },
      "decreaseERC20Allowance(address,address,uint256)": {
        "details": "Only callable by the owner or asset manager.Current allowance should be computed off-chain to avoid any underflow.",
        "params": {
          "amount": "Amount of tokens to decrease allowance by",
          "spender": "Address of the spender of the tokens",
          "token": "Address of the ERC20 token to decrease allowance for"
        }
      },
      "increaseERC20Allowance(address,address,uint256)": {
        "details": "Only callable by the owner or asset manager.Current allowance should be computed off-chain to avoid any overflow.",
        "params": {
          "amount": "Amount of tokens to increase allowance by",
          "spender": "Address of the spender of the tokens",
          "token": "Address of the ERC20 token to increase allowance for"
        }
      },
      "manager()": {
        "returns": {
          "_0": "Current `_manager` address."
        }
      },
      "pendingOwner()": {
        "returns": {
          "_0": "Current `_pendingOwner` address."
        }
      },
      "renounceOwnership()": {
        "details": "Leaves the contract without owner. It will not be possible to call `onlyOwner` functions anymore. Can only be called by the current owner. NOTE: Renouncing ownership will leave the contract without an owner, thereby removing any functionality that is only available to the owner."
      },
      "setManager(address)": {
        "details": "Throws if called by any account other than the owner.",
        "params": {
          "_newManager": "New _manager address."
        },
        "returns": {
          "_0": "Boolean to indicate if the operation was successful or not."
        }
      },
      "transferOwnership(address)": {
        "params": {
          "_newOwner": "Address to transfer ownership to."
        }
      }
    },
    "title": "PoolTogether Vault",
    "version": 1
  },
  "userdoc": {
    "kind": "user",
    "methods": {
      "claimOwnership()": {
        "notice": "Allows the `_pendingOwner` address to finalize the transfer."
      },
      "constructor": {
        "notice": "Constructs Vault"
      },
      "decreaseERC20Allowance(address,address,uint256)": {
        "notice": "Decrease allowance of ERC20 tokens held by this contract."
      },
      "increaseERC20Allowance(address,address,uint256)": {
        "notice": "Increase allowance of ERC20 tokens held by this contract."
      },
      "manager()": {
        "notice": "Gets current `_manager`."
      },
      "owner()": {
        "notice": "Returns the address of the current owner."
      },
      "pendingOwner()": {
        "notice": "Gets current `_pendingOwner`."
      },
      "renounceOwnership()": {
        "notice": "Renounce ownership of the contract."
      },
      "setManager(address)": {
        "notice": "Set or change of manager."
      },
      "transferOwnership(address)": {
        "notice": "Allows current owner to set the `_pendingOwner` address."
      }
    },
    "version": 1
  },
  "storageLayout": {
    "storage": [
      {
        "astId": 4303,
        "contract": "contracts/TokenVault.sol:Vault",
        "label": "_owner",
        "offset": 0,
        "slot": "0",
        "type": "t_address"
      },
      {
        "astId": 4305,
        "contract": "contracts/TokenVault.sol:Vault",
        "label": "_pendingOwner",
        "offset": 0,
        "slot": "1",
        "type": "t_address"
      },
      {
        "astId": 4201,
        "contract": "contracts/TokenVault.sol:Vault",
        "label": "_manager",
        "offset": 0,
        "slot": "2",
        "type": "t_address"
      },
      {
        "astId": 19806,
        "contract": "contracts/TokenVault.sol:Vault",
        "label": "approved",
        "offset": 0,
        "slot": "3",
        "type": "t_mapping(t_address,t_bool)"
      }
    ],
    "types": {
      "t_address": {
        "encoding": "inplace",
        "label": "address",
        "numberOfBytes": "20"
      },
      "t_bool": {
        "encoding": "inplace",
        "label": "bool",
        "numberOfBytes": "1"
      },
      "t_mapping(t_address,t_bool)": {
        "encoding": "mapping",
        "key": "t_address",
        "label": "mapping(address => bool)",
        "numberOfBytes": "32",
        "value": "t_bool"
      }
    }
  }
}