{
  "address": "0x60cC8331d7000B9d8E6E980BC559a1A32B82c902",
  "abi": [
    {
      "inputs": [
        {
          "internalType": "contract IGaugeController",
          "name": "_gaugeController",
          "type": "address"
        },
        {
          "internalType": "contract IDrawBuffer",
          "name": "_drawBuffer",
          "type": "address"
        },
        {
          "internalType": "contract IPrizeConfigHistory",
          "name": "_prizeConfigHistory",
          "type": "address"
        },
        {
          "internalType": "address",
          "name": "_owner",
          "type": "address"
        }
      ],
      "stateMutability": "nonpayable",
      "type": "constructor"
    },
    {
      "anonymous": false,
      "inputs": [
        {
          "indexed": true,
          "internalType": "contract IGaugeController",
          "name": "gaugeController",
          "type": "address"
        },
        {
          "indexed": true,
          "internalType": "contract IDrawBuffer",
          "name": "drawBuffer",
          "type": "address"
        },
        {
          "indexed": true,
          "internalType": "contract IPrizeConfigHistory",
          "name": "prizeConfigHistory",
          "type": "address"
        }
      ],
      "name": "Deployed",
      "type": "event"
    },
    {
      "anonymous": false,
      "inputs": [
        {
          "indexed": true,
          "internalType": "address",
          "name": "previousManager",
          "type": "address"
        },
        {
          "indexed": true,
          "internalType": "address",
          "name": "newManager",
          "type": "address"
        }
      ],
      "name": "ManagerTransferred",
      "type": "event"
    },
    {
      "anonymous": false,
      "inputs": [
        {
          "indexed": true,
          "internalType": "address",
          "name": "pendingOwner",
          "type": "address"
        }
      ],
      "name": "OwnershipOffered",
      "type": "event"
    },
    {
      "anonymous": false,
      "inputs": [
        {
          "indexed": true,
          "internalType": "address",
          "name": "previousOwner",
          "type": "address"
        },
        {
          "indexed": true,
          "internalType": "address",
          "name": "newOwner",
          "type": "address"
        }
      ],
      "name": "OwnershipTransferred",
      "type": "event"
    },
    {
      "inputs": [],
      "name": "TIERS_LENGTH",
      "outputs": [
        {
          "internalType": "uint8",
          "name": "",
          "type": "uint8"
        }
      ],
      "stateMutability": "view",
      "type": "function"
    },
    {
      "inputs": [
        {
          "internalType": "contract ITicket",
          "name": "_ticket",
          "type": "address"
        },
        {
          "internalType": "address",
          "name": "_user",
          "type": "address"
        },
        {
          "internalType": "uint32[]",
          "name": "_drawIds",
          "type": "uint32[]"
        },
        {
          "internalType": "uint64[][]",
          "name": "_drawPickIndices",
          "type": "uint64[][]"
        }
      ],
      "name": "calculate",
      "outputs": [
        {
          "internalType": "uint256[]",
          "name": "prizesAwardable",
          "type": "uint256[]"
        },
        {
          "internalType": "bytes",
          "name": "prizeCounts",
          "type": "bytes"
        }
      ],
      "stateMutability": "view",
      "type": "function"
    },
    {
      "inputs": [
        {
          "internalType": "contract ITicket",
          "name": "_ticket",
          "type": "address"
        },
        {
          "internalType": "address",
          "name": "_user",
          "type": "address"
        },
        {
          "internalType": "uint32[]",
          "name": "_drawIds",
          "type": "uint32[]"
        }
      ],
      "name": "calculateUserPicks",
      "outputs": [
        {
          "internalType": "uint64[]",
          "name": "picks",
          "type": "uint64[]"
        }
      ],
      "stateMutability": "view",
      "type": "function"
    },
    {
      "inputs": [],
      "name": "claimOwnership",
      "outputs": [],
      "stateMutability": "nonpayable",
      "type": "function"
    },
    {
      "inputs": [],
      "name": "getDrawBuffer",
      "outputs": [
        {
          "internalType": "contract IDrawBuffer",
          "name": "",
          "type": "address"
        }
      ],
      "stateMutability": "view",
      "type": "function"
    },
    {
      "inputs": [],
      "name": "getGaugeController",
      "outputs": [
        {
          "internalType": "contract IGaugeController",
          "name": "",
          "type": "address"
        }
      ],
      "stateMutability": "view",
      "type": "function"
    },
    {
      "inputs": [],
      "name": "getPrizeConfigHistory",
      "outputs": [
        {
          "internalType": "contract IPrizeConfigHistory",
          "name": "",
          "type": "address"
        }
      ],
      "stateMutability": "view",
      "type": "function"
    },
    {
      "inputs": [
        {
          "internalType": "contract ITicket",
          "name": "_ticket",
          "type": "address"
        },
        {
          "internalType": "uint256",
          "name": "_startTime",
          "type": "uint256"
        },
        {
          "internalType": "uint256",
          "name": "_endTime",
          "type": "uint256"
        },
        {
          "internalType": "uint256",
          "name": "_poolStakeCeiling",
          "type": "uint256"
        },
        {
          "internalType": "uint8",
          "name": "_bitRange",
          "type": "uint8"
        },
        {
          "internalType": "uint8",
          "name": "_cardinality",
          "type": "uint8"
        }
      ],
      "name": "getTotalPicks",
      "outputs": [
        {
          "internalType": "uint256",
          "name": "",
          "type": "uint256"
        }
      ],
      "stateMutability": "view",
      "type": "function"
    },
    {
      "inputs": [],
      "name": "manager",
      "outputs": [
        {
          "internalType": "address",
          "name": "",
          "type": "address"
        }
      ],
      "stateMutability": "view",
      "type": "function"
    },
    {
      "inputs": [],
      "name": "owner",
      "outputs": [
        {
          "internalType": "address",
          "name": "",
          "type": "address"
        }
      ],
      "stateMutability": "view",
      "type": "function"
    },
    {
      "inputs": [],
      "name": "pendingOwner",
      "outputs": [
        {
          "internalType": "address",
          "name": "",
          "type": "address"
        }
      ],
      "stateMutability": "view",
      "type": "function"
    },
    {
      "inputs": [],
      "name": "renounceOwnership",
      "outputs": [],
      "stateMutability": "nonpayable",
      "type": "function"
    },
    {
      "inputs": [
        {
          "internalType": "address",
          "name": "_newManager",
          "type": "address"
        }
      ],
      "name": "setManager",
      "outputs": [
        {
          "internalType": "bool",
          "name": "",
          "type": "bool"
        }
      ],
      "stateMutability": "nonpayable",
      "type": "function"
    },
    {
      "inputs": [
        {
          "internalType": "address",
          "name": "_newOwner",
          "type": "address"
        }
      ],
      "name": "transferOwnership",
      "outputs": [],
      "stateMutability": "nonpayable",
      "type": "function"
    }
  ],
  "transactionHash": "0x86fda22bbdf254fc416ace2e6d37b045eff9e35ec456883f11ada82a0678394a",
  "args": [
    "0xEE876AA37580F1c08cB42d38716D3f49040D88F8",
    "0x0a59680ef3aDD76aC79679aFca0AbB7560DCE03F",
    "0x2f684e7C5185a39e21ea88A841911329197ABa10",
    "0x3A791e828fDd420fbE16416efDF509E4b9088Dd4"
  ],
  "numDeployments": 1,
  "solcInputHash": "baf4361f1169b10b86eec49b574a8e52",
  "bytecode": "0x60e06040523480156200001157600080fd5b50604051620027533803806200275383398101604081905262000034916200025d565b8062000040816200020d565b506001600160a01b0384166200009d5760405162461bcd60e51b815260206004820152601c60248201527f4472617743616c632f47432d6e6f742d7a65726f2d616464726573730000000060448201526064015b60405180910390fd5b6001600160a01b038316620000f55760405162461bcd60e51b815260206004820152601c60248201527f4472617743616c632f44422d6e6f742d7a65726f2d6164647265737300000000604482015260640162000094565b6001600160a01b0382166200014d5760405162461bcd60e51b815260206004820152601d60248201527f4472617743616c632f5043482d6e6f742d7a65726f2d61646472657373000000604482015260640162000094565b6001600160a01b038116620001a55760405162461bcd60e51b815260206004820152601f60248201527f4472617743616c632f6f776e65722d6e6f742d7a65726f2d6164647265737300604482015260640162000094565b6001600160601b0319606085811b821660a05284811b821660805283901b1660c0526040516001600160a01b0383811691858216918716907fc95935a66d15e0da5e412aca0ad27ae891d20b2fb91cf3994b6a3bf2b817808290600090a450505050620002de565b600080546001600160a01b038381166001600160a01b0319831681178455604051919092169283917f8be0079c531659141344cd1fd0a4f28419497f9722a3daafe3b4186f6b6457e09190a35050565b600080600080608085870312156200027457600080fd5b84516200028181620002c5565b60208601519094506200029481620002c5565b6040860151909350620002a781620002c5565b6060860151909250620002ba81620002c5565b939692955090935050565b6001600160a01b0381168114620002db57600080fd5b50565b60805160601c60a05160601c60c05160601c6124196200033a60003960008181610192015281816105b70152610bbf01526000818161016c0152610944015260008181610117015281816104940152610a4601526124196000f3fe608060405234801561001057600080fd5b50600436106100ea5760003560e01c80638da5cb5b1161008c578063d0ebdbe711610066578063d0ebdbe714610210578063e30c397814610233578063f2fde38b14610244578063f8d0ca4c1461025757600080fd5b80638da5cb5b146101be5780638eaf7400146101cf578063cc399cf4146101f057600080fd5b80634e71e0c8116100c85780634e71e0c81461016057806358de9ade1461016a5780636a8b62e714610190578063715018a6146101b657600080fd5b80632e838202146100ef5780634019f2d614610115578063481c6a751461014f575b600080fd5b6101026100fd366004611bd8565b610271565b6040519081526020015b60405180910390f35b7f00000000000000000000000000000000000000000000000000000000000000005b6040516001600160a01b03909116815260200161010c565b6002546001600160a01b0316610137565b61016861028c565b005b7f0000000000000000000000000000000000000000000000000000000000000000610137565b7f0000000000000000000000000000000000000000000000000000000000000000610137565b61016861031f565b6000546001600160a01b0316610137565b6101e26101dd366004611b43565b610394565b60405161010c929190611e3b565b6102036101fe366004611ade565b61048e565b60405161010c9190611f35565b61022361021e366004611929565b610727565b604051901515815260200161010c565b6001546001600160a01b0316610137565b610168610252366004611929565b6107a3565b61025f601081565b60405160ff909116815260200161010c565b60006102818787878787876108df565b979650505050505050565b6001546001600160a01b031633146102eb5760405162461bcd60e51b815260206004820152601f60248201527f4f776e61626c652f63616c6c65722d6e6f742d70656e64696e674f776e65720060448201526064015b60405180910390fd5b600154610300906001600160a01b03166109e2565b6001805473ffffffffffffffffffffffffffffffffffffffff19169055565b336103326000546001600160a01b031690565b6001600160a01b0316146103885760405162461bcd60e51b815260206004820152601860248201527f4f776e61626c652f63616c6c65722d6e6f742d6f776e6572000000000000000060448201526064016102e2565b61039260006109e2565b565b6060808285146103e65760405162461bcd60e51b815260206004820152601d60248201527f4472617743616c632f696e76616c69642d7069636b2d696e646963657300000060448201526064016102e2565b6040517fffffffffffffffffffffffffffffffffffffffff000000000000000000000000606089901b16602082015260009060340160405160208183030381529060405280519060200120905061047e8989838a8a8080602002602001604051908101604052809392919081815260200183836020028082843760009201919091525061047992508b91508c9050612227565b610a3f565b909a909950975050505050505050565b606060007f00000000000000000000000000000000000000000000000000000000000000006001600160a01b031663d0bb78f385856040518363ffffffff1660e01b81526004016104e0929190611ea0565b60006040518083038186803b1580156104f857600080fd5b505afa15801561050c573d6000803e3d6000fd5b505050506040513d6000823e601f3d908101601f191682016040526105349190810190611946565b80519091508367ffffffffffffffff8111156105525761055261237e565b60405190808252806020026020018201604052801561057b578160200160208202803683370190505b50925060005b818163ffffffff16101561071c576000838263ffffffff16815181106105a9576105a9612368565b6020026020010151905060007f00000000000000000000000000000000000000000000000000000000000000006001600160a01b0316633eedcb2383602001516040518263ffffffff1660e01b8152600401610611919063ffffffff91909116815260200190565b6103006040518083038186803b15801561062a57600080fd5b505afa15801561063e573d6000803e3d6000fd5b505050506040513d601f19601f820116820180604052508101906106629190611c3f565b905061066e8282610da4565b6106cd8a8a846080015163ffffffff16856040015161068d91906121e3565b8460a0015163ffffffff1686604001516106a791906121e3565b8560c001516fffffffffffffffffffffffffffffffff1686600001518760200151610e24565b868463ffffffff16815181106106e5576106e5612368565b602002602001019067ffffffffffffffff16908167ffffffffffffffff1681525050505080806107149061230e565b915050610581565b505050949350505050565b60003361073c6000546001600160a01b031690565b6001600160a01b0316146107925760405162461bcd60e51b815260206004820152601860248201527f4f776e61626c652f63616c6c65722d6e6f742d6f776e6572000000000000000060448201526064016102e2565b61079b82610e86565b90505b919050565b336107b66000546001600160a01b031690565b6001600160a01b03161461080c5760405162461bcd60e51b815260206004820152601860248201527f4f776e61626c652f63616c6c65722d6e6f742d6f776e6572000000000000000060448201526064016102e2565b6001600160a01b0381166108885760405162461bcd60e51b815260206004820152602560248201527f4f776e61626c652f70656e64696e674f776e65722d6e6f742d7a65726f2d616460448201527f647265737300000000000000000000000000000000000000000000000000000060648201526084016102e2565b6001805473ffffffffffffffffffffffffffffffffffffffff19166001600160a01b0383169081179091556040517f239a2ddded15777fa246aed5f7e1a9bc69a39d4eb4a397034d1d85766cca7d4c90600090a250565b600080826108ee8560026120dd565b6108f891906120dd565b6040517f638ca48f0000000000000000000000000000000000000000000000000000000081526001600160a01b038a81166004830152602482018a9052604482018990529192506000917f0000000000000000000000000000000000000000000000000000000000000000169063638ca48f9060640160206040518083038186803b15801561098657600080fd5b505afa15801561099a573d6000803e3d6000fd5b505050506040513d601f19601f820116820180604052508101906109be9190611cef565b9050856109cb8383612188565b6109d59190612078565b9998505050505050505050565b600080546001600160a01b0383811673ffffffffffffffffffffffffffffffffffffffff19831681178455604051919092169283917f8be0079c531659141344cd1fd0a4f28419497f9722a3daafe3b4186f6b6457e09190a35050565b60608060007f00000000000000000000000000000000000000000000000000000000000000006001600160a01b031663d0bb78f3866040518263ffffffff1660e01b8152600401610a909190611eeb565b60006040518083038186803b158015610aa857600080fd5b505afa158015610abc573d6000803e3d6000fd5b505050506040513d6000823e601f3d908101601f19168201604052610ae49190810190611946565b90506000815190506000865167ffffffffffffffff811115610b0857610b0861237e565b604051908082528060200260200182016040528015610b31578160200160208202803683370190505b5090506000875167ffffffffffffffff811115610b5057610b5061237e565b604051908082528060200260200182016040528015610b8357816020015b6060815260200190600190039081610b6e5790505b50905060005b838163ffffffff161015610d70576000858263ffffffff1681518110610bb157610bb1612368565b6020026020010151905060007f00000000000000000000000000000000000000000000000000000000000000006001600160a01b0316633eedcb2383602001516040518263ffffffff1660e01b8152600401610c19919063ffffffff91909116815260200190565b6103006040518083038186803b158015610c3257600080fd5b505afa158015610c46573d6000803e3d6000fd5b505050506040513d601f19601f82011682018060405250810190610c6a9190611c3f565b9050610c768282610da4565b6000610cd78f8f856080015163ffffffff168660400151610c9791906121e3565b8560a0015163ffffffff168760400151610cb191906121e3565b8660c001516fffffffffffffffffffffffffffffffff1687600001518860200151610e24565b9050610d1383600001518267ffffffffffffffff168f8e8863ffffffff1681518110610d0557610d05612368565b602002602001015186610f72565b878663ffffffff1681518110610d2b57610d2b612368565b60200260200101878763ffffffff1681518110610d4a57610d4a612368565b602002602001018290528281525050505050508080610d689061230e565b915050610b89565b5080604051602001610d829190611dbb565b6040516020818303038152906040529450819550505050509550959350505050565b806080015163ffffffff168260400151610dbe9190612027565b67ffffffffffffffff164267ffffffffffffffff1610610e205760405162461bcd60e51b815260206004820152601560248201527f4472617743616c632f647261772d65787069726564000000000000000000000060448201526064016102e2565b5050565b600080610e49898867ffffffffffffffff168867ffffffffffffffff168888886108df565b90506000610e598a8a8a8a6113bc565b9050670de0b6b3a7640000610e6e8383612188565b610e789190612078565b9a9950505050505050505050565b6002546000906001600160a01b03908116908316811415610f0f5760405162461bcd60e51b815260206004820152602360248201527f4d616e61676561626c652f6578697374696e672d6d616e616765722d6164647260448201527f657373000000000000000000000000000000000000000000000000000000000060648201526084016102e2565b6002805473ffffffffffffffffffffffffffffffffffffffff19166001600160a01b0385811691821790925560405190918316907f9cb45c728de594dab506a1f1a8554e24c8eeaf983618d5ec5dd7bc6f3c49feee90600090a350600192915050565b600060606000610f8a846020015185600001516115fc565b85516040805160108082526102208201909252929350909160009160208201610200803683370190505090506000866040015161ffff168363ffffffff1611156110165760405162461bcd60e51b815260206004820152601f60248201527f4472617743616c632f657863656564732d6d61782d757365722d7069636b730060448201526064016102e2565b60005b8363ffffffff168163ffffffff16101561122e578a898263ffffffff168151811061104657611046612368565b602002602001015167ffffffffffffffff16106110a55760405162461bcd60e51b815260206004820181905260248201527f4472617743616c632f696e73756666696369656e742d757365722d7069636b7360448201526064016102e2565b63ffffffff81161561115c57886110bd6001836121be565b63ffffffff16815181106110d3576110d3612368565b602002602001015167ffffffffffffffff16898263ffffffff16815181106110fd576110fd612368565b602002602001015167ffffffffffffffff161161115c5760405162461bcd60e51b815260206004820152601860248201527f4472617743616c632f7069636b732d617363656e64696e67000000000000000060448201526064016102e2565b60008a8a8363ffffffff168151811061117757611177612368565b60200260200101516040516020016111a392919091825267ffffffffffffffff16602082015260400190565b6040516020818303038152906040528051906020012060001c905060006111cb828f896116f7565b9050601060ff82161015611219578360ff168160ff1611156111eb578093505b848160ff168151811061120057611200612368565b602002602001018051809190611215906122f3565b9052505b505080806112269061230e565b915050611019565b5060008061123d836001612053565b60ff1667ffffffffffffffff8111156112585761125861237e565b604051908082528060200260200182016040528015611281578160200160208202803683370190505b50905060005b8360ff168160ff16116112fc576112ca8a61010001518260ff16601081106112b1576112b1612368565b602002015163ffffffff168b600001518360ff166117a2565b828260ff16815181106112df576112df612368565b6020908102919091010152806112f481612332565b915050611287565b5060005b8360ff16811161138957600085828151811061131e5761131e612368565b602002602001015111156113775784818151811061133e5761133e612368565b602002602001015182828151811061135857611358612368565b602002602001015161136a9190612188565b611374908461200f565b92505b80611381816122f3565b915050611300565b50633b9aca008960e001518361139f9190612188565b6113a99190612078565b9d939c50929a5050505050505050505050565b604080516001808252818301909252600091829190602080830190803683375050604080516001808252818301909252929350600092915060208083019080368337019050509050848260008151811061141857611418612368565b602002602001019067ffffffffffffffff16908167ffffffffffffffff1681525050838160008151811061144e5761144e612368565b67ffffffffffffffff909216602092830291909101909101526040517f68c7fd570000000000000000000000000000000000000000000000000000000081526000906001600160a01b038916906368c7fd57906114b3908a9087908790600401611d7d565b60006040518083038186803b1580156114cb57600080fd5b505afa1580156114df573d6000803e3d6000fd5b505050506040513d6000823e601f3d908101601f191682016040526115079190810190611a46565b90506000886001600160a01b0316638e6d536a85856040518363ffffffff1660e01b8152600401611539929190611f48565b60006040518083038186803b15801561155157600080fd5b505afa158015611565573d6000803e3d6000fd5b505050506040513d6000823e601f3d908101601f1916820160405261158d9190810190611a46565b9050600080826000815181106115a5576115a5612368565b602002602001015111156109d557816000815181106115c6576115c6612368565b6020026020010151836000815181106115e1576115e1612368565b6020026020010151670de0b6b3a7640000610e6e9190612188565b606060008360ff1667ffffffffffffffff81111561161c5761161c61237e565b604051908082528060200260200182016040528015611645578160200160208202803683370190505b50905060016116558460026120dd565b61165f91906121a7565b8160008151811061167257611672612368565b602090810291909101015260015b8460ff168160ff1610156116ed5760ff84168261169e600184612204565b60ff16815181106116b1576116b1612368565b6020026020010151901b828260ff16815181106116d0576116d0612368565b6020908102919091010152806116e581612332565b915050611680565b5090505b92915050565b80516000908190815b8160ff168160ff16101561178b576000858260ff168151811061172557611725612368565b602002602001015190508087168189161461176a578360ff168360ff16141561175557600094505050505061179b565b61175f8484612204565b94505050505061179b565b8361177481612332565b94505050808061178390612332565b915050611700565b506117968282612204565b925050505b9392505050565b6000806117af84846117c4565b90506117bb8186612078565b95945050505050565b6000811561180a576117d76001836121a7565b6117e49060ff8516612188565b6001901b6117f58360ff8616612188565b6001901b61180391906121a7565b90506116f1565b5060016116f1565b60008083601f84011261182457600080fd5b50813567ffffffffffffffff81111561183c57600080fd5b6020830191508360208260051b850101111561185757600080fd5b9250929050565b600082601f83011261186f57600080fd5b60405161020080820182811067ffffffffffffffff821117156118945761189461237e565b60405281848281018710156118a857600080fd5b600092505b60108310156118d65780516118c1816123ac565b825260019290920191602091820191016118ad565b509195945050505050565b80516fffffffffffffffffffffffffffffffff8116811461079e57600080fd5b805161ffff8116811461079e57600080fd5b805161079e816123ac565b805161079e816123d4565b60006020828403121561193b57600080fd5b813561179b81612394565b6000602080838503121561195957600080fd5b825167ffffffffffffffff81111561197057600080fd5b8301601f8101851361198157600080fd5b805161199461198f82611feb565b611fba565b8181528381019083850160a0808502860187018a10156119b357600080fd5b60009550855b85811015611a375781838c0312156119cf578687fd5b6119d7611f6d565b83518152888401516119e8816123ac565b818a01526040848101516119fb816123be565b90820152606084810151611a0e816123be565b90820152608084810151611a21816123ac565b90820152855293870193918101916001016119b9565b50919998505050505050505050565b60006020808385031215611a5957600080fd5b825167ffffffffffffffff811115611a7057600080fd5b8301601f81018513611a8157600080fd5b8051611a8f61198f82611feb565b80828252848201915084840188868560051b8701011115611aaf57600080fd5b600094505b83851015611ad2578051835260019490940193918501918501611ab4565b50979650505050505050565b60008060008060608587031215611af457600080fd5b8435611aff81612394565b93506020850135611b0f81612394565b9250604085013567ffffffffffffffff811115611b2b57600080fd5b611b3787828801611812565b95989497509550505050565b60008060008060008060808789031215611b5c57600080fd5b8635611b6781612394565b95506020870135611b7781612394565b9450604087013567ffffffffffffffff80821115611b9457600080fd5b611ba08a838b01611812565b90965094506060890135915080821115611bb957600080fd5b50611bc689828a01611812565b979a9699509497509295939492505050565b60008060008060008060c08789031215611bf157600080fd5b8635611bfc81612394565b95506020870135945060408701359350606087013592506080870135611c21816123d4565b915060a0870135611c31816123d4565b809150509295509295509295565b60006103008284031215611c5257600080fd5b611c5a611f96565b611c638361191e565b8152611c716020840161191e565b6020820152611c8260408401611901565b6040820152611c9360608401611913565b6060820152611ca460808401611913565b6080820152611cb560a08401611913565b60a0820152611cc660c084016118e1565b60c082015260e083015160e0820152610100611ce48582860161185e565b908201529392505050565b600060208284031215611d0157600080fd5b5051919050565b600081518084526020808501945080840160005b83811015611d3857815187529582019590820190600101611d1c565b509495945050505050565b600081518084526020808501945080840160005b83811015611d3857815167ffffffffffffffff1687529582019590820190600101611d57565b6001600160a01b0384168152606060208201526000611d9f6060830185611d43565b8281036040840152611db18185611d43565b9695505050505050565b6000602080830181845280855180835260408601915060408160051b870101925083870160005b82811015611e2e577fffffffffffffffffffffffffffffffffffffffffffffffffffffffffffffffc0888603018452611e1c858351611d08565b94509285019290850190600101611de2565b5092979650505050505050565b604081526000611e4e6040830185611d08565b602083820381850152845180835260005b81811015611e7a578681018301518482018401528201611e5f565b81811115611e8b5760008383860101525b50601f01601f19169190910101949350505050565b60208082528181018390526000908460408401835b86811015611ee0578235611ec8816123ac565b63ffffffff1682529183019190830190600101611eb5565b509695505050505050565b6020808252825182820181905260009190848201906040850190845b81811015611f2957835163ffffffff1683529284019291840191600101611f07565b50909695505050505050565b60208152600061179b6020830184611d43565b604081526000611f5b6040830185611d43565b82810360208401526117bb8185611d43565b60405160a0810167ffffffffffffffff81118282101715611f9057611f9061237e565b60405290565b604051610120810167ffffffffffffffff81118282101715611f9057611f9061237e565b604051601f8201601f1916810167ffffffffffffffff81118282101715611fe357611fe361237e565b604052919050565b600067ffffffffffffffff8211156120055761200561237e565b5060051b60200190565b6000821982111561202257612022612352565b500190565b600067ffffffffffffffff80831681851680830382111561204a5761204a612352565b01949350505050565b600060ff821660ff84168060ff0382111561207057612070612352565b019392505050565b60008261209557634e487b7160e01b600052601260045260246000fd5b500490565b600181815b808511156120d55781600019048211156120bb576120bb612352565b808516156120c857918102915b93841c939080029061209f565b509250929050565b600061179b60ff8416836000826120f6575060016116f1565b81612103575060006116f1565b816001811461211957600281146121235761213f565b60019150506116f1565b60ff84111561213457612134612352565b50506001821b6116f1565b5060208310610133831016604e8410600b8410161715612162575081810a6116f1565b61216c838361209a565b806000190482111561218057612180612352565b029392505050565b60008160001904831182151516156121a2576121a2612352565b500290565b6000828210156121b9576121b9612352565b500390565b600063ffffffff838116908316818110156121db576121db612352565b039392505050565b600067ffffffffffffffff838116908316818110156121db576121db612352565b600060ff821660ff84168082101561221e5761221e612352565b90039392505050565b600061223561198f84611feb565b838152602080820191908460053688821b8301111561225357600080fd5b60005b88811015611e2e57823567ffffffffffffffff81111561227557600080fd5b880136601f82011261228657600080fd5b803561229461198f82611feb565b818152868101908388013684881b86018a0111156122b157600080fd5b600094505b838510156122dd5780356122c9816123be565b8352600194909401939188019188016122b6565b5089525050509483019491830191600101612256565b600060001982141561230757612307612352565b5060010190565b600063ffffffff8083168181141561232857612328612352565b6001019392505050565b600060ff821660ff81141561234957612349612352565b60010192915050565b634e487b7160e01b600052601160045260246000fd5b634e487b7160e01b600052603260045260246000fd5b634e487b7160e01b600052604160045260246000fd5b6001600160a01b03811681146123a957600080fd5b50565b63ffffffff811681146123a957600080fd5b67ffffffffffffffff811681146123a957600080fd5b60ff811681146123a957600080fdfea2646970667358221220ceb04c47c820a72f6f7df2c4df759e88a4cbbab2f923ab800773b65da7aa492464736f6c63430008060033",
  "devdoc": {
    "author": "PoolTogether Inc Team",
    "events": {
      "Deployed(address,address,address)": {
        "params": {
          "drawBuffer": "Address of the DrawBuffer",
          "gaugeController": "Address of the GaugeController",
          "prizeConfigHistory": "Address of the PrizeConfigHistory"
        }
      }
    },
    "kind": "dev",
    "methods": {
      "calculate(address,address,uint32[],uint64[][])": {
        "params": {
          "drawIds": "Array of DrawIds for which to calculate awardable prizes for",
          "drawPickIndices": "Pick indices for each drawId",
          "ticket": "Address of the ticket to calculate awardable prizes for",
          "user": "Address of the user for which to calculate awardable prizes for"
        },
        "returns": {
          "prizeCounts": "List of prize counts ordered by tiers.",
          "prizesAwardable": "List of awardable prize amounts ordered by drawId."
        }
      },
      "calculateUserPicks(address,address,uint32[])": {
        "params": {
          "drawIds": "Array of DrawIds for which to calculate picks for",
          "ticket": "Address of the ticket to calculate picks for",
          "user": "Address of the user for which to calculate picks for"
        }
      },
      "claimOwnership()": {
        "details": "This function is only callable by the `_pendingOwner`."
      },
      "constructor": {
        "params": {
          "_drawBuffer": "Address of the DrawBuffer to push draws to",
          "_gaugeController": "Address of the GaugeController",
          "_owner": "Address of the owner",
          "_prizeConfigHistory": "Address of the PrizeConfigHistory"
        }
      },
      "getDrawBuffer()": {
        "returns": {
          "_0": "The DrawBuffer address"
        }
      },
      "getGaugeController()": {
        "returns": {
          "_0": "The GaugeController address"
        }
      },
      "getPrizeConfigHistory()": {
        "returns": {
          "_0": "The PrizeConfigHistory address"
        }
      },
      "getTotalPicks(address,uint256,uint256,uint256,uint8,uint8)": {
        "params": {
          "bitRange": "Number of bits allocated to each division",
          "cardinality": "Number of sub-divisions of a random number",
          "endTime": "Timestamp at which the draw ends",
          "poolStakeCeiling": "Globally configured pool stake ceiling",
          "startTime": "Timestamp at which the draw starts",
          "ticket": "Address of the ticket to get total picks for"
        },
        "returns": {
          "_0": "Total number of picks for this prize pool / ticket"
        }
      },
      "manager()": {
        "returns": {
          "_0": "Current `_manager` address."
        }
      },
      "pendingOwner()": {
        "returns": {
          "_0": "Current `_pendingOwner` address."
        }
      },
      "renounceOwnership()": {
        "details": "Leaves the contract without owner. It will not be possible to call `onlyOwner` functions anymore. Can only be called by the current owner. NOTE: Renouncing ownership will leave the contract without an owner, thereby removing any functionality that is only available to the owner."
      },
      "setManager(address)": {
        "details": "Throws if called by any account other than the owner.",
        "params": {
          "_newManager": "New _manager address."
        },
        "returns": {
          "_0": "Boolean to indicate if the operation was successful or not."
        }
      },
      "transferOwnership(address)": {
        "params": {
          "_newOwner": "Address to transfer ownership to."
        }
      }
    },
    "title": "PoolTogether V4 DrawCalculatorV3",
    "version": 1
  },
  "userdoc": {
    "events": {
      "Deployed(address,address,address)": {
        "notice": "Emitted when the contract is initialized"
      }
    },
    "kind": "user",
    "methods": {
      "TIERS_LENGTH()": {
        "notice": "The tiers array length"
      },
      "calculate(address,address,uint32[],uint64[][])": {
        "notice": "Calculates the awardable prizes for a user for Multiple Draws. Typically called by a PrizeDistributor."
      },
      "calculateUserPicks(address,address,uint32[])": {
        "notice": "Calculates picks for a user for Multiple Draws."
      },
      "claimOwnership()": {
        "notice": "Allows the `_pendingOwner` address to finalize the transfer."
      },
      "constructor": {
        "notice": "DrawCalculator constructor"
      },
      "getDrawBuffer()": {
        "notice": "Returns DrawBuffer address."
      },
      "getGaugeController()": {
        "notice": "Returns GaugeController address."
      },
      "getPrizeConfigHistory()": {
        "notice": "Returns PrizeConfigHistory address."
      },
      "getTotalPicks(address,uint256,uint256,uint256,uint8,uint8)": {
        "notice": "Returns the total number of picks for a prize pool / ticket."
      },
      "manager()": {
        "notice": "Gets current `_manager`."
      },
      "owner()": {
        "notice": "Returns the address of the current owner."
      },
      "pendingOwner()": {
        "notice": "Gets current `_pendingOwner`."
      },
      "renounceOwnership()": {
        "notice": "Renounce ownership of the contract."
      },
      "setManager(address)": {
        "notice": "Set or change of manager."
      },
      "transferOwnership(address)": {
        "notice": "Allows current owner to set the `_pendingOwner` address."
      }
    },
    "notice": "The DrawCalculator calculates a user's prize by matching a winning random number against their picks. A users picks are generated deterministically based on their address and balance of tickets held. Prize payouts are divided into multiple tiers: grand prize, second place, etc... A user with a higher average weighted balance (during each draw period) will be given a large number of picks to choose from, and thus a higher chance to match the winning numbers.",
    "version": 1
  },
  "storageLayout": {
    "storage": [
      {
        "astId": 4843,
        "contract": "contracts/DrawCalculatorV3.sol:DrawCalculatorV3",
        "label": "_owner",
        "offset": 0,
        "slot": "0",
        "type": "t_address"
      },
      {
        "astId": 4845,
        "contract": "contracts/DrawCalculatorV3.sol:DrawCalculatorV3",
        "label": "_pendingOwner",
        "offset": 0,
        "slot": "1",
        "type": "t_address"
      },
      {
        "astId": 4741,
        "contract": "contracts/DrawCalculatorV3.sol:DrawCalculatorV3",
        "label": "_manager",
        "offset": 0,
        "slot": "2",
        "type": "t_address"
      }
    ],
    "types": {
      "t_address": {
        "encoding": "inplace",
        "label": "address",
        "numberOfBytes": "20"
      }
    }
  }
}