{
  "address": "0xfc0E5d492cd1f3C18401c3FCEe8F7B25CAf025c7",
  "abi": [
    {
      "inputs": [
        {
          "internalType": "contract IGaugeController",
          "name": "_gaugeController",
          "type": "address"
        },
        {
          "internalType": "address",
          "name": "_vault",
          "type": "address"
        },
        {
          "internalType": "address",
          "name": "_liquidator",
          "type": "address"
        },
        {
          "internalType": "uint32",
          "name": "_stakerCut",
          "type": "uint32"
        }
      ],
      "stateMutability": "nonpayable",
      "type": "constructor"
    },
    {
      "anonymous": false,
      "inputs": [
        {
          "indexed": true,
          "internalType": "contract IGaugeController",
          "name": "gaugeController",
          "type": "address"
        },
        {
          "indexed": true,
          "internalType": "address",
          "name": "vault",
          "type": "address"
        },
        {
          "indexed": true,
          "internalType": "address",
          "name": "liquidator",
          "type": "address"
        },
        {
          "indexed": false,
          "internalType": "uint32",
          "name": "stakerCut",
          "type": "uint32"
        }
      ],
      "name": "Deployed",
      "type": "event"
    },
    {
      "anonymous": false,
      "inputs": [
        {
          "indexed": true,
          "internalType": "address",
          "name": "gauge",
          "type": "address"
        },
        {
          "indexed": true,
          "internalType": "contract IERC20",
          "name": "token",
          "type": "address"
        },
        {
          "indexed": false,
          "internalType": "uint256",
          "name": "timestamp",
          "type": "uint256"
        }
      ],
      "name": "RewardTokenPushed",
      "type": "event"
    },
    {
      "anonymous": false,
      "inputs": [
        {
          "indexed": true,
          "internalType": "address",
          "name": "gauge",
          "type": "address"
        },
        {
          "indexed": true,
          "internalType": "contract IERC20",
          "name": "token",
          "type": "address"
        },
        {
          "indexed": false,
          "internalType": "uint256",
          "name": "amount",
          "type": "uint256"
        },
        {
          "indexed": false,
          "internalType": "uint256",
          "name": "stakerRewards",
          "type": "uint256"
        },
        {
          "indexed": false,
          "internalType": "uint256",
          "name": "exchangeRate",
          "type": "uint256"
        }
      ],
      "name": "RewardsAdded",
      "type": "event"
    },
    {
      "anonymous": false,
      "inputs": [
        {
          "indexed": true,
          "internalType": "address",
          "name": "gauge",
          "type": "address"
        },
        {
          "indexed": true,
          "internalType": "contract IERC20",
          "name": "token",
          "type": "address"
        },
        {
          "indexed": true,
          "internalType": "address",
          "name": "user",
          "type": "address"
        },
        {
          "indexed": false,
          "internalType": "uint256",
          "name": "amount",
          "type": "uint256"
        },
        {
          "indexed": false,
          "internalType": "uint256",
          "name": "exchangeRate",
          "type": "uint256"
        }
      ],
      "name": "RewardsClaimed",
      "type": "event"
    },
    {
      "anonymous": false,
      "inputs": [
        {
          "indexed": true,
          "internalType": "address",
          "name": "caller",
          "type": "address"
        },
        {
          "indexed": true,
          "internalType": "address",
          "name": "user",
          "type": "address"
        },
        {
          "indexed": true,
          "internalType": "contract IERC20",
          "name": "token",
          "type": "address"
        },
        {
          "indexed": false,
          "internalType": "uint256",
          "name": "amount",
          "type": "uint256"
        }
      ],
      "name": "RewardsRedeemed",
      "type": "event"
    },
    {
      "inputs": [
        {
          "internalType": "address",
          "name": "_gauge",
          "type": "address"
        },
        {
          "internalType": "address",
          "name": "_user",
          "type": "address"
        },
        {
          "internalType": "uint256",
          "name": "_oldStakeBalance",
          "type": "uint256"
        }
      ],
      "name": "afterDecreaseGauge",
      "outputs": [],
      "stateMutability": "nonpayable",
      "type": "function"
    },
    {
      "inputs": [
        {
          "internalType": "address",
          "name": "_gauge",
          "type": "address"
        },
        {
          "internalType": "address",
          "name": "_user",
          "type": "address"
        },
        {
          "internalType": "uint256",
          "name": "_oldStakeBalance",
          "type": "uint256"
        }
      ],
      "name": "afterIncreaseGauge",
      "outputs": [],
      "stateMutability": "nonpayable",
      "type": "function"
    },
    {
      "inputs": [
        {
          "internalType": "contract IPrizePool",
          "name": "",
          "type": "address"
        },
        {
          "internalType": "contract ITicket",
          "name": "_ticket",
          "type": "address"
        },
        {
          "internalType": "uint256",
          "name": "",
          "type": "uint256"
        },
        {
          "internalType": "contract IERC20",
          "name": "_token",
          "type": "address"
        },
        {
          "internalType": "uint256",
          "name": "_tokenAmount",
          "type": "uint256"
        }
      ],
      "name": "afterSwap",
      "outputs": [],
      "stateMutability": "nonpayable",
      "type": "function"
    },
    {
      "inputs": [
        {
          "internalType": "address",
          "name": "_gauge",
          "type": "address"
        },
        {
          "components": [
            {
              "internalType": "contract IERC20",
              "name": "token",
              "type": "address"
            },
            {
              "internalType": "uint64",
              "name": "timestamp",
              "type": "uint64"
            }
          ],
          "internalType": "struct GaugeReward.RewardToken",
          "name": "_rewardToken",
          "type": "tuple"
        },
        {
          "internalType": "address",
          "name": "_user",
          "type": "address"
        }
      ],
      "name": "claim",
      "outputs": [],
      "stateMutability": "nonpayable",
      "type": "function"
    },
    {
      "inputs": [
        {
          "internalType": "address",
          "name": "_gauge",
          "type": "address"
        },
        {
          "internalType": "address",
          "name": "_user",
          "type": "address"
        }
      ],
      "name": "claimAll",
      "outputs": [],
      "stateMutability": "nonpayable",
      "type": "function"
    },
    {
      "inputs": [
        {
          "internalType": "address",
          "name": "_gauge",
          "type": "address"
        }
      ],
      "name": "currentRewardToken",
      "outputs": [
        {
          "components": [
            {
              "internalType": "contract IERC20",
              "name": "token",
              "type": "address"
            },
            {
              "internalType": "uint64",
              "name": "timestamp",
              "type": "uint64"
            }
          ],
          "internalType": "struct GaugeReward.RewardToken",
          "name": "",
          "type": "tuple"
        }
      ],
      "stateMutability": "view",
      "type": "function"
    },
    {
      "inputs": [],
      "name": "gaugeController",
      "outputs": [
        {
          "internalType": "contract IGaugeController",
          "name": "",
          "type": "address"
        }
      ],
      "stateMutability": "view",
      "type": "function"
    },
    {
      "inputs": [
        {
          "internalType": "address",
          "name": "",
          "type": "address"
        },
        {
          "internalType": "contract IERC20",
          "name": "",
          "type": "address"
        },
        {
          "internalType": "uint64",
          "name": "",
          "type": "uint64"
        }
      ],
      "name": "gaugeRewardTokenExchangeRates",
      "outputs": [
        {
          "internalType": "uint256",
          "name": "",
          "type": "uint256"
        }
      ],
      "stateMutability": "view",
      "type": "function"
    },
    {
      "inputs": [
        {
          "internalType": "address",
          "name": "",
          "type": "address"
        },
        {
          "internalType": "uint256",
          "name": "",
          "type": "uint256"
        }
      ],
      "name": "gaugeRewardTokens",
      "outputs": [
        {
          "internalType": "contract IERC20",
          "name": "token",
          "type": "address"
        },
        {
          "internalType": "uint64",
          "name": "timestamp",
          "type": "uint64"
        }
      ],
      "stateMutability": "view",
      "type": "function"
    },
    {
      "inputs": [
        {
          "internalType": "address",
          "name": "_gauge",
          "type": "address"
        },
        {
          "components": [
            {
              "internalType": "contract IERC20",
              "name": "token",
              "type": "address"
            },
            {
              "internalType": "uint64",
              "name": "timestamp",
              "type": "uint64"
            }
          ],
          "internalType": "struct GaugeReward.RewardToken",
          "name": "_rewardToken",
          "type": "tuple"
        },
        {
          "internalType": "address",
          "name": "_user",
          "type": "address"
        }
      ],
      "name": "getRewards",
      "outputs": [
        {
          "internalType": "uint256",
          "name": "",
          "type": "uint256"
        }
      ],
      "stateMutability": "view",
      "type": "function"
    },
    {
      "inputs": [],
      "name": "liquidator",
      "outputs": [
        {
          "internalType": "address",
          "name": "",
          "type": "address"
        }
      ],
      "stateMutability": "view",
      "type": "function"
    },
    {
      "inputs": [
        {
          "internalType": "bytes[]",
          "name": "data",
          "type": "bytes[]"
        }
      ],
      "name": "multicall",
      "outputs": [
        {
          "internalType": "bytes[]",
          "name": "results",
          "type": "bytes[]"
        }
      ],
      "stateMutability": "nonpayable",
      "type": "function"
    },
    {
      "inputs": [
        {
          "internalType": "address",
          "name": "_user",
          "type": "address"
        },
        {
          "internalType": "contract IERC20",
          "name": "_token",
          "type": "address"
        }
      ],
      "name": "redeem",
      "outputs": [
        {
          "internalType": "uint256",
          "name": "",
          "type": "uint256"
        }
      ],
      "stateMutability": "nonpayable",
      "type": "function"
    },
    {
      "inputs": [],
      "name": "stakerCut",
      "outputs": [
        {
          "internalType": "uint32",
          "name": "",
          "type": "uint32"
        }
      ],
      "stateMutability": "view",
      "type": "function"
    },
    {
      "inputs": [
        {
          "internalType": "address",
          "name": "",
          "type": "address"
        },
        {
          "internalType": "address",
          "name": "",
          "type": "address"
        },
        {
          "internalType": "contract IERC20",
          "name": "",
          "type": "address"
        },
        {
          "internalType": "uint64",
          "name": "",
          "type": "uint64"
        }
      ],
      "name": "userGaugeRewardTokenExchangeRates",
      "outputs": [
        {
          "internalType": "uint256",
          "name": "",
          "type": "uint256"
        }
      ],
      "stateMutability": "view",
      "type": "function"
    },
    {
      "inputs": [
        {
          "internalType": "address",
          "name": "",
          "type": "address"
        },
        {
          "internalType": "address",
          "name": "",
          "type": "address"
        },
        {
          "internalType": "address",
          "name": "",
          "type": "address"
        }
      ],
      "name": "userGaugeRewardTokenLastClaimedTimestamp",
      "outputs": [
        {
          "internalType": "uint256",
          "name": "",
          "type": "uint256"
        }
      ],
      "stateMutability": "view",
      "type": "function"
    },
    {
      "inputs": [
        {
          "internalType": "address",
          "name": "",
          "type": "address"
        },
        {
          "internalType": "contract IERC20",
          "name": "",
          "type": "address"
        }
      ],
      "name": "userRewardTokenBalances",
      "outputs": [
        {
          "internalType": "uint256",
          "name": "",
          "type": "uint256"
        }
      ],
      "stateMutability": "view",
      "type": "function"
    },
    {
      "inputs": [],
      "name": "vault",
      "outputs": [
        {
          "internalType": "address",
          "name": "",
          "type": "address"
        }
      ],
      "stateMutability": "view",
      "type": "function"
    }
  ],
  "transactionHash": "0x2aa8e6c5f67b74cd48d759ded8ae58c1ec3a1c674fbbbe9eb8287f679c163e08",
  "args": [
    "0xD40C3806BA42b4D5D1082321a6b30f9481b45412",
    "0x6BC0301c159306FF06E4039660F169aed458C13D",
    "0x0C8a87436dd0f97F28bF46F330802DfD36aAB155",
    "100000000"
  ],
  "numDeployments": 1,
  "solcInputHash": "46a7ec46315ece58f9d4c4ea7316a87f",
  "bytecode": "0x60806040523480156200001157600080fd5b5060405162001dad38038062001dad833981016040819052620000349162000232565b6001600160a01b038416620000905760405162461bcd60e51b815260206004820152601b60248201527f475265776172642f47432d6e6f742d7a65726f2d61646472657373000000000060448201526064015b60405180910390fd5b6001600160a01b038316620000e85760405162461bcd60e51b815260206004820152601e60248201527f475265776172642f5661756c742d6e6f742d7a65726f2d616464726573730000604482015260640162000087565b6001600160a01b038216620001405760405162461bcd60e51b815260206004820152601c60248201527f475265776172642f4c69712d6e6f742d7a65726f2d6164647265737300000000604482015260640162000087565b633b9aca008163ffffffff16106200019b5760405162461bcd60e51b815260206004820152601960248201527f475265776172642f7374616b65722d6375742d6c742d31653900000000000000604482015260640162000087565b600580546001600160a01b03199081166001600160a01b03878116918217909355600680548316878516908117909155600780546001600160c01b031916600160a01b63ffffffff8816908102909516179487169485179055604051928352917f048ccaf1264df58374a01de5614345aa417e2d16af0f2e86b97729dc752e253f9060200160405180910390a450505050620002bb565b600080600080608085870312156200024957600080fd5b84516200025681620002a2565b60208601519094506200026981620002a2565b60408601519093506200027c81620002a2565b606086015190925063ffffffff811681146200029757600080fd5b939692955090935050565b6001600160a01b0381168114620002b857600080fd5b50565b611ae280620002cb6000396000f3fe608060405234801561001057600080fd5b50600436106101365760003560e01c8063ac9650d8116100b2578063f00b199711610081578063f741e08f11610066578063f741e08f14610366578063fbfa77cf14610379578063fd4016281461038c57600080fd5b8063f00b199714610322578063f1883e5d1461033557600080fd5b8063ac9650d814610289578063ac9fb71d146102a9578063bba06f27146102d5578063e5f744b8146102e857600080fd5b80635902fc3b1161010957806381d7af2e116100ee57806381d7af2e1461024557806395cebcd41461017657806399eecb3b1461027657600080fd5b80635902fc3b146101c95780636e8fc2d31461020457600080fd5b806306302ef11461013b57806331661930146101765780634046ebae1461018b5780635767bba5146101b6575b600080fd5b6101636101493660046114f5565b600060208181529281526040808220909352908152205481565b6040519081526020015b60405180910390f35b6101896101843660046115d3565b61039f565b005b60075461019e906001600160a01b031681565b6040516001600160a01b03909116815260200161016d565b6101896101c43660046114f5565b61040e565b6101dc6101d73660046116f6565b6104a1565b604080516001600160a01b03909316835267ffffffffffffffff90911660208301520161016d565b6102176102123660046114d8565b6104eb565b6040805182516001600160a01b0316815260209283015167ffffffffffffffff16928101929092520161016d565b61016361025336600461152e565b600260209081526000938452604080852082529284528284209052825290205481565b60055461019e906001600160a01b031681565b61029c610297366004611722565b61050e565b60405161016d9190611875565b6007546102c090600160a01b900463ffffffff1681565b60405163ffffffff909116815260200161016d565b6101636102e33660046114f5565b610603565b6101636102f6366004611579565b600160209081526000948552604080862082529385528385208152918452828420909152825290205481565b61016361033036600461165b565b61069f565b610163610343366004611614565b600360209081526000938452604080852082529284528284209052825290205481565b61018961037436600461165b565b610745565b60065461019e906001600160a01b031681565b61018961039a3660046117b9565b6107df565b6005546001600160a01b031633146103fe5760405162461bcd60e51b815260206004820152601c60248201527f475265776172642f6f6e6c792d4761756765436f6e74726f6c6c65720000000060448201526064015b60405180910390fd5b610409838383610ad4565b505050565b600554604051633c7d339760e11b81526001600160a01b038481166004830152838116602483015260009216906378fa672e9060440160206040518083038186803b15801561045c57600080fd5b505afa158015610470573d6000803e3d6000fd5b505050506040513d601f19601f820116820180604052508101906104949190611814565b9050610409838383610ad4565b600460205281600052604060002081815481106104bd57600080fd5b6000918252602090912001546001600160a01b0381169250600160a01b900467ffffffffffffffff16905082565b604080518082019091526000808252602082015261050882610c22565b92915050565b60608167ffffffffffffffff81111561052957610529611a57565b60405190808252806020026020018201604052801561055c57816020015b60608152602001906001900390816105475790505b50905060005b828110156105fc576105cc3085858481811061058057610580611a41565b90506020028101906105929190611908565b8080601f016020809104026020016040519081016040528093929190818152602001838380828437600092019190915250610d1092505050565b8282815181106105de576105de611a41565b602002602001018190525080806105f490611a10565b915050610562565b5092915050565b6001600160a01b0382811660009081526020818152604080832085851680855292528220805490839055600654929390926106419291168684610d35565b826001600160a01b0316846001600160a01b0316336001600160a01b03167f8ea6014d5675f425737c93493b7ab355a73eb41cf878f7315ac58f7753bcd7da8460405161069091815260200190565b60405180910390a49392505050565b600554604051633c7d339760e11b81526001600160a01b038581166004830152838116602483015260009283929116906378fa672e9060440160206040518083038186803b1580156106f057600080fd5b505afa158015610704573d6000803e3d6000fd5b505050506040513d601f19601f820116820180604052508101906107289190611814565b9050600061073886868685610dbd565b50925050505b9392505050565b600554604051633c7d339760e11b81526001600160a01b038581166004830152838116602483015260009216906378fa672e9060440160206040518083038186803b15801561079357600080fd5b505afa1580156107a7573d6000803e3d6000fd5b505050506040513d601f19601f820116820180604052508101906107cb9190611814565b90506107d984848484611010565b50505050565b6007546001600160a01b031633146108395760405162461bcd60e51b815260206004820152601760248201527f475265776172642f6f6e6c792d6c697175696461746f7200000000000000000060448201526064016103f5565b83600061084582610c22565b905080600001516001600160a01b0316846001600160a01b03161461093b576001600160a01b038083166000818152600460209081526040808320815180830183528a871680825267ffffffffffffffff4281811684880190815285546001810187559589529690972092519290930180549551909316600160a01b027fffffffff0000000000000000000000000000000000000000000000000000000090951691909716179290921790915551909291907fd38aa1c6709087859dfa9ca795d9441a64c1fa0b1bf23d8ad02c1853b971e33c906109269085815260200190565b60405180910390a361093783610c22565b9150505b600754600090633b9aca009061095e90600160a01b900463ffffffff16866119ae565b610968919061198c565b6005546040517f117d37e60000000000000000000000000000000000000000000000000000000081526001600160a01b0386811660048301529293506000929091169063117d37e69060240160206040518083038186803b1580156109cc57600080fd5b505afa1580156109e0573d6000803e3d6000fd5b505050506040513d601f19601f82011682018060405250810190610a049190611814565b610a1683670de0b6b3a76400006119ae565b610a20919061198c565b6001600160a01b038086166000908152600360209081526040808320885190941683529281528282208782015167ffffffffffffffff168352905290812080549293508392909190610a73908490611974565b909155505060408051868152602081018490529081018290526001600160a01b0380881691908616907f1b0006daff5bb99d1383ffc4326984a27347192b77ddb40fe18ec9720d0929a89060600160405180910390a3505050505050505050565b6001600160a01b038316600090815260046020908152604080832054815180830190925283825291810192909252908115610be057815b8015610bda57610b1c6001826119cd565b6001600160a01b038716600090815260046020526040902080549192509082908110610b4a57610b4a611a41565b6000918252602091829020604080518082019091529101546001600160a01b0381168252600160a01b900467ffffffffffffffff16918101919091529150610b9486838787611062565b5081516001600160a01b038087166000908152600260209081526040808320848c168452825280832093909416825291909152204267ffffffffffffffff169055610b0b565b50610c1b565b6001600160a01b03808516600090815260026020908152604080832093891683529281528282208280529052204267ffffffffffffffff1690555b5050505050565b604080518082018252600080825260208083018290526001600160a01b0385168252600481528382208054855181840281018401909652808652939492939091849084015b82821015610cb757600084815260209081902060408051808201909152908401546001600160a01b0381168252600160a01b900467ffffffffffffffff1681830152825260019092019101610c67565b505082519293505081159050610cf45781610cd36001836119cd565b81518110610ce357610ce3611a41565b602002602001015192505050919050565b5050604080518082019091526000808252602082015292915050565b606061073e8383604051806060016040528060278152602001611a866027913961115c565b604080516001600160a01b0385811660248301528416604482015260648082018490528251808303909101815260849091019091526020810180517bffffffffffffffffffffffffffffffffffffffffffffffffffffffff167f23b872dd000000000000000000000000000000000000000000000000000000001790526107d9908590611247565b6001600160a01b0382811660008181526001602090815260408083208986168085529083528184208951871685528352818420898401805167ffffffffffffffff908116875291855283862054838752600386528487208c518a1688528652848720915190921686528452828520548a51968652600285528386209286529184528285209590961684529390915281205490928392909180610f95576001600160a01b038916600090815260046020908152604080832080548251818502810185019093528083529192909190849084015b82821015610edf57600084815260209081902060408051808201909152908401546001600160a01b0381168252600160a01b900467ffffffffffffffff1681830152825260019092019101610e8f565b5050825192935050506001811115610f5c57600082610eff6001846119cd565b81518110610f0f57610f0f611a41565b60200260200101519050610f588a8d83600001516001600160a01b0392831660009081526002602090815260408083209486168352938152838220929094168152925290205490565b9350505b82610f92576001600160a01b03808a166000908152600260209081526040808320938f1683529281528282208280529052205492505b50505b60008082118015610fb3575081896020015167ffffffffffffffff16115b905080158015610fc1575083155b15610fd6576000839550955050505050611007565b670de0b6b3a764000087610fea86866119cd565b610ff491906119ae565b610ffe919061198c565b95509193505050505b94509492505050565b61101c84848484611062565b5082516001600160a01b038084166000908152600260209081526040808320848a168452825280832093909416825291909152204267ffffffffffffffff1690556107d9565b600080600061107387878787610dbd565b6001600160a01b0380881660009081526001602090815260408083208d8516845282528083208c5190941683529281528282208b82015167ffffffffffffffff16835290522081905590925090508115611152576001600160a01b038086166000908152602081815260408083208a51909416835292905290812080548492906110fe908490611974565b9091555050855160408051848152602081018490526001600160a01b0380891693811692908b16917f7e27222c50a5510dfc61468d936b48c880bfbd05c1eb59c5be79b06e582369dd910160405180910390a45b5095945050505050565b6060833b6111d25760405162461bcd60e51b815260206004820152602660248201527f416464726573733a2064656c65676174652063616c6c20746f206e6f6e2d636f60448201527f6e7472616374000000000000000000000000000000000000000000000000000060648201526084016103f5565b600080856001600160a01b0316856040516111ed9190611859565b600060405180830381855af49150503d8060008114611228576040519150601f19603f3d011682016040523d82523d6000602084013e61122d565b606091505b509150915061123d82828661132c565b9695505050505050565b600061129c826040518060400160405280602081526020017f5361666545524332303a206c6f772d6c6576656c2063616c6c206661696c6564815250856001600160a01b03166113659092919063ffffffff16565b80519091501561040957808060200190518101906112ba9190611797565b6104095760405162461bcd60e51b815260206004820152602a60248201527f5361666545524332303a204552433230206f7065726174696f6e20646964206e60448201527f6f7420737563636565640000000000000000000000000000000000000000000060648201526084016103f5565b6060831561133b57508161073e565b82511561134b5782518084602001fd5b8160405162461bcd60e51b81526004016103f591906118f5565b6060611374848460008561137c565b949350505050565b6060824710156113f45760405162461bcd60e51b815260206004820152602660248201527f416464726573733a20696e73756666696369656e742062616c616e636520666f60448201527f722063616c6c000000000000000000000000000000000000000000000000000060648201526084016103f5565b843b6114425760405162461bcd60e51b815260206004820152601d60248201527f416464726573733a2063616c6c20746f206e6f6e2d636f6e747261637400000060448201526064016103f5565b600080866001600160a01b0316858760405161145e9190611859565b60006040518083038185875af1925050503d806000811461149b576040519150601f19603f3d011682016040523d82523d6000602084013e6114a0565b606091505b50915091506114b082828661132c565b979650505050505050565b803567ffffffffffffffff811681146114d357600080fd5b919050565b6000602082840312156114ea57600080fd5b813561073e81611a6d565b6000806040838503121561150857600080fd5b823561151381611a6d565b9150602083013561152381611a6d565b809150509250929050565b60008060006060848603121561154357600080fd5b833561154e81611a6d565b9250602084013561155e81611a6d565b9150604084013561156e81611a6d565b809150509250925092565b6000806000806080858703121561158f57600080fd5b843561159a81611a6d565b935060208501356115aa81611a6d565b925060408501356115ba81611a6d565b91506115c8606086016114bb565b905092959194509250565b6000806000606084860312156115e857600080fd5b83356115f381611a6d565b9250602084013561160381611a6d565b929592945050506040919091013590565b60008060006060848603121561162957600080fd5b833561163481611a6d565b9250602084013561164481611a6d565b9150611652604085016114bb565b90509250925092565b6000806000838503608081121561167157600080fd5b843561167c81611a6d565b93506040601f198201121561169057600080fd5b506040516040810181811067ffffffffffffffff821117156116c257634e487b7160e01b600052604160045260246000fd5b60405260208501356116d381611a6d565b81526116e1604086016114bb565b60208201529150606084013561156e81611a6d565b6000806040838503121561170957600080fd5b823561171481611a6d565b946020939093013593505050565b6000806020838503121561173557600080fd5b823567ffffffffffffffff8082111561174d57600080fd5b818501915085601f83011261176157600080fd5b81358181111561177057600080fd5b8660208260051b850101111561178557600080fd5b60209290920196919550909350505050565b6000602082840312156117a957600080fd5b8151801515811461073e57600080fd5b600080600080600060a086880312156117d157600080fd5b85356117dc81611a6d565b945060208601356117ec81611a6d565b935060408601359250606086013561180381611a6d565b949793965091946080013592915050565b60006020828403121561182657600080fd5b5051919050565b600081518084526118458160208601602086016119e4565b601f01601f19169290920160200192915050565b6000825161186b8184602087016119e4565b9190910192915050565b6000602080830181845280855180835260408601915060408160051b870101925083870160005b828110156118e8577fffffffffffffffffffffffffffffffffffffffffffffffffffffffffffffffc08886030184526118d685835161182d565b9450928501929085019060010161189c565b5092979650505050505050565b60208152600061073e602083018461182d565b60008083357fffffffffffffffffffffffffffffffffffffffffffffffffffffffffffffffe184360301811261193d57600080fd5b83018035915067ffffffffffffffff82111561195857600080fd5b60200191503681900382131561196d57600080fd5b9250929050565b6000821982111561198757611987611a2b565b500190565b6000826119a957634e487b7160e01b600052601260045260246000fd5b500490565b60008160001904831182151516156119c8576119c8611a2b565b500290565b6000828210156119df576119df611a2b565b500390565b60005b838110156119ff5781810151838201526020016119e7565b838111156107d95750506000910152565b6000600019821415611a2457611a24611a2b565b5060010190565b634e487b7160e01b600052601160045260246000fd5b634e487b7160e01b600052603260045260246000fd5b634e487b7160e01b600052604160045260246000fd5b6001600160a01b0381168114611a8257600080fd5b5056fe416464726573733a206c6f772d6c6576656c2064656c65676174652063616c6c206661696c6564a2646970667358221220f27935551d4c3396dac7e33dad73096cc7ab4ce356d7096b58d2606ad0fa045764736f6c63430008060033",
  "devdoc": {
    "author": "PoolTogether Inc Team",
    "details": "This contract is only keeping track of the rewards. Reward tokens are actually stored in the TokenVault contract.",
    "events": {
      "Deployed(address,address,address,uint32)": {
        "params": {
          "gaugeController": "Address of the GaugeController",
          "liquidator": "Address of the Liquidator",
          "stakerCut": "Percentage of rewards that goes to stakers",
          "vault": "Address of the Vault"
        }
      },
      "RewardTokenPushed(address,address,uint256)": {
        "params": {
          "gauge": "Address of the gauge for which the reward token is added",
          "timestamp": "Timestamp at which the reward token was pushed",
          "token": "Address of the token being pushed"
        }
      },
      "RewardsAdded(address,address,uint256,uint256,uint256)": {
        "params": {
          "amount": "Amount of tokens sent to the vault",
          "exchangeRate": "New exchange rate for this `token` in this `gauge`",
          "gauge": "Address of the gauge for which tokens were added",
          "stakerRewards": "Amount of rewards allocated to stakers",
          "token": "Address of the token sent to the vault"
        }
      },
      "RewardsClaimed(address,address,address,uint256,uint256)": {
        "params": {
          "amount": "Total amount of rewards claimed",
          "exchangeRate": "Exchange rate at which the rewards were claimed",
          "gauge": "Address of the gauge for which the user claimed rewards",
          "token": "Address of the token for which the user claimed rewards",
          "user": "Address of the user for which the rewards were claimed"
        }
      },
      "RewardsRedeemed(address,address,address,uint256)": {
        "params": {
          "amount": "Total amount of rewards redeemed",
          "caller": "Address who called the redeem function",
          "token": "Address of the token for which the user redeemed rewards",
          "user": "Address of the user for which the rewards were redeemed"
        }
      }
    },
    "kind": "dev",
    "methods": {
      "afterDecreaseGauge(address,address,uint256)": {
        "params": {
          "gauge": "Address of the gauge to decrease stake for",
          "oldStakeBalance": "Old stake balance of the user",
          "user": "Address of the user to decrease stake for"
        }
      },
      "afterIncreaseGauge(address,address,uint256)": {
        "params": {
          "gauge": "Address of the gauge to increase stake for",
          "oldStakeBalance": "Old stake balance of the user",
          "user": "Address of the user to increase stake for"
        }
      },
      "afterSwap(address,address,uint256,address,uint256)": {
        "details": "Called by the liquidator contract anytime tokens are liquidated.Will push `token` to the `gaugeRewardTokens` mapping if different from the current one.",
        "params": {
          "_ticket": "Address of the tickets that were sold",
          "_token": "Address of the token that the tickets were sold for",
          "_tokenAmount": "Amount of tokens that the tickets were sold for"
        }
      },
      "claim(address,(address,uint64),address)": {
        "params": {
          "_gauge": "Address of the gauge to claim rewards for",
          "_rewardToken": "Reward token to claim rewards for",
          "_user": "Address of the user to claim rewards for"
        }
      },
      "claimAll(address,address)": {
        "params": {
          "_gauge": "Address of the gauge to claim rewards for",
          "_user": "Address of the user to claim rewards for"
        }
      },
      "constructor": {
        "params": {
          "_gaugeController": "Address of the GaugeController",
          "_liquidator": "Address of the Liquidator",
          "_stakerCut": "Percentage of rewards that goes to stakers",
          "_vault": "Address of the Vault"
        }
      },
      "currentRewardToken(address)": {
        "params": {
          "_gauge": "Address of the gauge to get current reward token for"
        },
        "returns": {
          "_0": "Current reward token for the given gauge"
        }
      },
      "getRewards(address,(address,uint64),address)": {
        "params": {
          "_gauge": "Address of the gauge to get rewards for",
          "_rewardToken": "Reward token to get rewards for",
          "_user": "Address of the user to get rewards for"
        },
        "returns": {
          "_0": "Amount of rewards for the given gauge and token"
        }
      },
      "multicall(bytes[])": {
        "details": "Receives and executes a batch of function calls on this contract."
      },
      "redeem(address,address)": {
        "details": "Rewards can be redeemed on behalf of a user.",
        "params": {
          "_token": "Address of the token to redeem rewards for",
          "_user": "Address of the user to redeem rewards for"
        },
        "returns": {
          "_0": "Amount of rewards redeemed"
        }
      }
    },
    "stateVariables": {
      "gaugeRewardTokenExchangeRates": {
        "details": "gauge => reward token address => reward token timestamp => exchange rate"
      },
      "gaugeRewardTokens": {
        "details": "gauge => reward tokens array"
      },
      "userGaugeRewardTokenExchangeRates": {
        "details": "user => gauge => reward token address => reward token timestamp => exchange rate"
      },
      "userGaugeRewardTokenLastClaimedTimestamp": {
        "details": "user => gauge => reward token address => timestamp"
      },
      "userRewardTokenBalances": {
        "details": "user => reward token address => balance"
      }
    },
    "title": "PoolTogether V4 GaugeReward",
    "version": 1
  },
  "userdoc": {
    "events": {
      "Deployed(address,address,address,uint32)": {
        "notice": "Emitted when the contract is deployed"
      },
      "RewardTokenPushed(address,address,uint256)": {
        "notice": "Emitted when a new reward token is pushed onto the `gaugeRewardTokens` mapping"
      },
      "RewardsAdded(address,address,uint256,uint256,uint256)": {
        "notice": "Emitted when tickets are swapped for tokens"
      },
      "RewardsClaimed(address,address,address,uint256,uint256)": {
        "notice": "Emitted when a user claimed their rewards for a given gauge and token"
      },
      "RewardsRedeemed(address,address,address,uint256)": {
        "notice": "Emitted when a user redeemed their rewards for a given token"
      }
    },
    "kind": "user",
    "methods": {
      "afterDecreaseGauge(address,address,uint256)": {
        "notice": "Callback function to call in GaugeController after a user has decreased his gauge stake."
      },
      "afterIncreaseGauge(address,address,uint256)": {
        "notice": "Fallback function to call in GaugeController after a user has increased their gauge stake.Callback function to call in GaugeController after a user has increased their gauge stake."
      },
      "afterSwap(address,address,uint256,address,uint256)": {
        "notice": "Records exchange rate after swapping an amount of `ticket` for `token`."
      },
      "claim(address,(address,uint64),address)": {
        "notice": "Claim user rewards for a given gauge and reward token."
      },
      "claimAll(address,address)": {
        "notice": "Claim all user rewards for a given gauge."
      },
      "constructor": {
        "notice": "GaugeReward constructor"
      },
      "currentRewardToken(address)": {
        "notice": "Return the current reward token for the given gauge."
      },
      "gaugeController()": {
        "notice": "GaugeController contract address"
      },
      "gaugeRewardTokenExchangeRates(address,address,uint64)": {
        "notice": "Tracks reward token exchange rates per gauge"
      },
      "gaugeRewardTokens(address,uint256)": {
        "notice": "Tracks reward tokens per gauge"
      },
      "getRewards(address,(address,uint64),address)": {
        "notice": "Get user rewards for a given gauge and token."
      },
      "liquidator()": {
        "notice": "Address of the liquidator that this contract is listening to"
      },
      "redeem(address,address)": {
        "notice": "Redeem user rewards for a given token."
      },
      "stakerCut()": {
        "notice": "Percentage of rewards that goes to stakers. Fixed point 9 number that is less than 1."
      },
      "userGaugeRewardTokenExchangeRates(address,address,address,uint64)": {
        "notice": "Tracks reward token exchange rate per user and gauge"
      },
      "userGaugeRewardTokenLastClaimedTimestamp(address,address,address)": {
        "notice": "Tracks user last claimed timestamp per gauge and reward token"
      },
      "userRewardTokenBalances(address,address)": {
        "notice": "Tracks user token reward balances"
      },
      "vault()": {
        "notice": "Vault contract address"
      }
    },
    "notice": "The GaugeReward contract handles rewards for users who staked in one or several gauges on the GaugeController contract.",
    "version": 1
  },
  "storageLayout": {
    "storage": [
      {
        "astId": 11112,
        "contract": "contracts/GaugeReward.sol:GaugeReward",
        "label": "userRewardTokenBalances",
        "offset": 0,
        "slot": "0",
        "type": "t_mapping(t_address,t_mapping(t_contract(IERC20)663,t_uint256))"
      },
      {
        "astId": 11124,
        "contract": "contracts/GaugeReward.sol:GaugeReward",
        "label": "userGaugeRewardTokenExchangeRates",
        "offset": 0,
        "slot": "1",
        "type": "t_mapping(t_address,t_mapping(t_address,t_mapping(t_contract(IERC20)663,t_mapping(t_uint64,t_uint256))))"
      },
      {
        "astId": 11133,
        "contract": "contracts/GaugeReward.sol:GaugeReward",
        "label": "userGaugeRewardTokenLastClaimedTimestamp",
        "offset": 0,
        "slot": "2",
        "type": "t_mapping(t_address,t_mapping(t_address,t_mapping(t_address,t_uint256)))"
      },
      {
        "astId": 11143,
        "contract": "contracts/GaugeReward.sol:GaugeReward",
        "label": "gaugeRewardTokenExchangeRates",
        "offset": 0,
        "slot": "3",
        "type": "t_mapping(t_address,t_mapping(t_contract(IERC20)663,t_mapping(t_uint64,t_uint256)))"
      },
      {
        "astId": 11156,
        "contract": "contracts/GaugeReward.sol:GaugeReward",
        "label": "gaugeRewardTokens",
        "offset": 0,
        "slot": "4",
        "type": "t_mapping(t_address,t_array(t_struct(RewardToken)11149_storage)dyn_storage)"
      },
      {
        "astId": 11160,
        "contract": "contracts/GaugeReward.sol:GaugeReward",
        "label": "gaugeController",
        "offset": 0,
        "slot": "5",
        "type": "t_contract(IGaugeController)16455"
      },
      {
        "astId": 11163,
        "contract": "contracts/GaugeReward.sol:GaugeReward",
        "label": "vault",
        "offset": 0,
        "slot": "6",
        "type": "t_address"
      },
      {
        "astId": 11166,
        "contract": "contracts/GaugeReward.sol:GaugeReward",
        "label": "liquidator",
        "offset": 0,
        "slot": "7",
        "type": "t_address"
      },
      {
        "astId": 11169,
        "contract": "contracts/GaugeReward.sol:GaugeReward",
        "label": "stakerCut",
        "offset": 20,
        "slot": "7",
        "type": "t_uint32"
      }
    ],
    "types": {
      "t_address": {
        "encoding": "inplace",
        "label": "address",
        "numberOfBytes": "20"
      },
      "t_array(t_struct(RewardToken)11149_storage)dyn_storage": {
        "base": "t_struct(RewardToken)11149_storage",
        "encoding": "dynamic_array",
        "label": "struct GaugeReward.RewardToken[]",
        "numberOfBytes": "32"
      },
      "t_contract(IERC20)663": {
        "encoding": "inplace",
        "label": "contract IERC20",
        "numberOfBytes": "20"
      },
      "t_contract(IGaugeController)16455": {
        "encoding": "inplace",
        "label": "contract IGaugeController",
        "numberOfBytes": "20"
      },
      "t_mapping(t_address,t_array(t_struct(RewardToken)11149_storage)dyn_storage)": {
        "encoding": "mapping",
        "key": "t_address",
        "label": "mapping(address => struct GaugeReward.RewardToken[])",
        "numberOfBytes": "32",
        "value": "t_array(t_struct(RewardToken)11149_storage)dyn_storage"
      },
      "t_mapping(t_address,t_mapping(t_address,t_mapping(t_address,t_uint256)))": {
        "encoding": "mapping",
        "key": "t_address",
        "label": "mapping(address => mapping(address => mapping(address => uint256)))",
        "numberOfBytes": "32",
        "value": "t_mapping(t_address,t_mapping(t_address,t_uint256))"
      },
      "t_mapping(t_address,t_mapping(t_address,t_mapping(t_contract(IERC20)663,t_mapping(t_uint64,t_uint256))))": {
        "encoding": "mapping",
        "key": "t_address",
        "label": "mapping(address => mapping(address => mapping(contract IERC20 => mapping(uint64 => uint256))))",
        "numberOfBytes": "32",
        "value": "t_mapping(t_address,t_mapping(t_contract(IERC20)663,t_mapping(t_uint64,t_uint256)))"
      },
      "t_mapping(t_address,t_mapping(t_address,t_uint256))": {
        "encoding": "mapping",
        "key": "t_address",
        "label": "mapping(address => mapping(address => uint256))",
        "numberOfBytes": "32",
        "value": "t_mapping(t_address,t_uint256)"
      },
      "t_mapping(t_address,t_mapping(t_contract(IERC20)663,t_mapping(t_uint64,t_uint256)))": {
        "encoding": "mapping",
        "key": "t_address",
        "label": "mapping(address => mapping(contract IERC20 => mapping(uint64 => uint256)))",
        "numberOfBytes": "32",
        "value": "t_mapping(t_contract(IERC20)663,t_mapping(t_uint64,t_uint256))"
      },
      "t_mapping(t_address,t_mapping(t_contract(IERC20)663,t_uint256))": {
        "encoding": "mapping",
        "key": "t_address",
        "label": "mapping(address => mapping(contract IERC20 => uint256))",
        "numberOfBytes": "32",
        "value": "t_mapping(t_contract(IERC20)663,t_uint256)"
      },
      "t_mapping(t_address,t_uint256)": {
        "encoding": "mapping",
        "key": "t_address",
        "label": "mapping(address => uint256)",
        "numberOfBytes": "32",
        "value": "t_uint256"
      },
      "t_mapping(t_contract(IERC20)663,t_mapping(t_uint64,t_uint256))": {
        "encoding": "mapping",
        "key": "t_contract(IERC20)663",
        "label": "mapping(contract IERC20 => mapping(uint64 => uint256))",
        "numberOfBytes": "32",
        "value": "t_mapping(t_uint64,t_uint256)"
      },
      "t_mapping(t_contract(IERC20)663,t_uint256)": {
        "encoding": "mapping",
        "key": "t_contract(IERC20)663",
        "label": "mapping(contract IERC20 => uint256)",
        "numberOfBytes": "32",
        "value": "t_uint256"
      },
      "t_mapping(t_uint64,t_uint256)": {
        "encoding": "mapping",
        "key": "t_uint64",
        "label": "mapping(uint64 => uint256)",
        "numberOfBytes": "32",
        "value": "t_uint256"
      },
      "t_struct(RewardToken)11149_storage": {
        "encoding": "inplace",
        "label": "struct GaugeReward.RewardToken",
        "members": [
          {
            "astId": 11146,
            "contract": "contracts/GaugeReward.sol:GaugeReward",
            "label": "token",
            "offset": 0,
            "slot": "0",
            "type": "t_contract(IERC20)663"
          },
          {
            "astId": 11148,
            "contract": "contracts/GaugeReward.sol:GaugeReward",
            "label": "timestamp",
            "offset": 20,
            "slot": "0",
            "type": "t_uint64"
          }
        ],
        "numberOfBytes": "32"
      },
      "t_uint256": {
        "encoding": "inplace",
        "label": "uint256",
        "numberOfBytes": "32"
      },
      "t_uint32": {
        "encoding": "inplace",
        "label": "uint32",
        "numberOfBytes": "4"
      },
      "t_uint64": {
        "encoding": "inplace",
        "label": "uint64",
        "numberOfBytes": "8"
      }
    }
  }
}