{
  "address": "0xF3666718A247206878D27CC8F5C0c3719D6Cc52d",
  "abi": [
    {
      "inputs": [
        {
          "internalType": "contract IGaugeController",
          "name": "_gaugeController",
          "type": "address"
        },
        {
          "internalType": "address",
          "name": "_vault",
          "type": "address"
        },
        {
          "internalType": "address",
          "name": "_liquidator",
          "type": "address"
        },
        {
          "internalType": "uint32",
          "name": "_stakerCut",
          "type": "uint32"
        }
      ],
      "stateMutability": "nonpayable",
      "type": "constructor"
    },
    {
      "anonymous": false,
      "inputs": [
        {
          "indexed": true,
          "internalType": "contract IGaugeController",
          "name": "gaugeController",
          "type": "address"
        },
        {
          "indexed": true,
          "internalType": "address",
          "name": "vault",
          "type": "address"
        },
        {
          "indexed": true,
          "internalType": "address",
          "name": "liquidator",
          "type": "address"
        },
        {
          "indexed": false,
          "internalType": "uint32",
          "name": "stakerCut",
          "type": "uint32"
        }
      ],
      "name": "Deployed",
      "type": "event"
    },
    {
      "anonymous": false,
      "inputs": [
        {
          "indexed": true,
          "internalType": "address",
          "name": "gauge",
          "type": "address"
        },
        {
          "indexed": true,
          "internalType": "contract IERC20",
          "name": "token",
          "type": "address"
        },
        {
          "indexed": false,
          "internalType": "uint256",
          "name": "timestamp",
          "type": "uint256"
        }
      ],
      "name": "RewardTokenPushed",
      "type": "event"
    },
    {
      "anonymous": false,
      "inputs": [
        {
          "indexed": true,
          "internalType": "address",
          "name": "gauge",
          "type": "address"
        },
        {
          "indexed": true,
          "internalType": "contract IERC20",
          "name": "token",
          "type": "address"
        },
        {
          "indexed": false,
          "internalType": "uint256",
          "name": "amount",
          "type": "uint256"
        },
        {
          "indexed": false,
          "internalType": "uint256",
          "name": "exchangeRate",
          "type": "uint256"
        }
      ],
      "name": "RewardsAdded",
      "type": "event"
    },
    {
      "anonymous": false,
      "inputs": [
        {
          "indexed": true,
          "internalType": "address",
          "name": "gauge",
          "type": "address"
        },
        {
          "indexed": true,
          "internalType": "contract IERC20",
          "name": "token",
          "type": "address"
        },
        {
          "indexed": true,
          "internalType": "address",
          "name": "user",
          "type": "address"
        },
        {
          "indexed": false,
          "internalType": "uint256",
          "name": "amount",
          "type": "uint256"
        },
        {
          "indexed": false,
          "internalType": "uint256",
          "name": "exchangeRate",
          "type": "uint256"
        }
      ],
      "name": "RewardsClaimed",
      "type": "event"
    },
    {
      "inputs": [
        {
          "internalType": "address",
          "name": "_gauge",
          "type": "address"
        },
        {
          "internalType": "address",
          "name": "_user",
          "type": "address"
        },
        {
          "internalType": "uint256",
          "name": "_oldStakeBalance",
          "type": "uint256"
        }
      ],
      "name": "afterDecreaseGauge",
      "outputs": [],
      "stateMutability": "nonpayable",
      "type": "function"
    },
    {
      "inputs": [
        {
          "internalType": "address",
          "name": "_gauge",
          "type": "address"
        },
        {
          "internalType": "address",
          "name": "_user",
          "type": "address"
        },
        {
          "internalType": "uint256",
          "name": "_oldStakeBalance",
          "type": "uint256"
        }
      ],
      "name": "afterIncreaseGauge",
      "outputs": [],
      "stateMutability": "nonpayable",
      "type": "function"
    },
    {
      "inputs": [
        {
          "internalType": "contract IPrizePool",
          "name": "",
          "type": "address"
        },
        {
          "internalType": "contract ITicket",
          "name": "ticket",
          "type": "address"
        },
        {
          "internalType": "uint256",
          "name": "",
          "type": "uint256"
        },
        {
          "internalType": "contract IERC20",
          "name": "token",
          "type": "address"
        },
        {
          "internalType": "uint256",
          "name": "tokenAmount",
          "type": "uint256"
        }
      ],
      "name": "afterSwap",
      "outputs": [],
      "stateMutability": "nonpayable",
      "type": "function"
    },
    {
      "inputs": [
        {
          "internalType": "address",
          "name": "_gauge",
          "type": "address"
        },
        {
          "internalType": "contract IERC20",
          "name": "_token",
          "type": "address"
        },
        {
          "internalType": "address",
          "name": "_user",
          "type": "address"
        }
      ],
      "name": "claim",
      "outputs": [],
      "stateMutability": "nonpayable",
      "type": "function"
    },
    {
      "inputs": [
        {
          "internalType": "address",
          "name": "_gauge",
          "type": "address"
        }
      ],
      "name": "currentRewardToken",
      "outputs": [
        {
          "components": [
            {
              "internalType": "contract IERC20",
              "name": "token",
              "type": "address"
            },
            {
              "internalType": "uint64",
              "name": "timestamp",
              "type": "uint64"
            }
          ],
          "internalType": "struct GaugeReward.RewardToken",
          "name": "",
          "type": "tuple"
        }
      ],
      "stateMutability": "view",
      "type": "function"
    },
    {
      "inputs": [],
      "name": "gaugeController",
      "outputs": [
        {
          "internalType": "contract IGaugeController",
          "name": "",
          "type": "address"
        }
      ],
      "stateMutability": "view",
      "type": "function"
    },
    {
      "inputs": [
        {
          "internalType": "address",
          "name": "",
          "type": "address"
        },
        {
          "internalType": "uint256",
          "name": "",
          "type": "uint256"
        }
      ],
      "name": "gaugeRewardTokens",
      "outputs": [
        {
          "internalType": "contract IERC20",
          "name": "token",
          "type": "address"
        },
        {
          "internalType": "uint64",
          "name": "timestamp",
          "type": "uint64"
        }
      ],
      "stateMutability": "view",
      "type": "function"
    },
    {
      "inputs": [],
      "name": "liquidator",
      "outputs": [
        {
          "internalType": "address",
          "name": "",
          "type": "address"
        }
      ],
      "stateMutability": "view",
      "type": "function"
    },
    {
      "inputs": [
        {
          "internalType": "bytes[]",
          "name": "data",
          "type": "bytes[]"
        }
      ],
      "name": "multicall",
      "outputs": [
        {
          "internalType": "bytes[]",
          "name": "results",
          "type": "bytes[]"
        }
      ],
      "stateMutability": "nonpayable",
      "type": "function"
    },
    {
      "inputs": [
        {
          "internalType": "address",
          "name": "_user",
          "type": "address"
        },
        {
          "internalType": "contract IERC20",
          "name": "_token",
          "type": "address"
        }
      ],
      "name": "redeem",
      "outputs": [
        {
          "internalType": "uint256",
          "name": "",
          "type": "uint256"
        }
      ],
      "stateMutability": "nonpayable",
      "type": "function"
    },
    {
      "inputs": [],
      "name": "stakerCut",
      "outputs": [
        {
          "internalType": "uint32",
          "name": "",
          "type": "uint32"
        }
      ],
      "stateMutability": "view",
      "type": "function"
    },
    {
      "inputs": [
        {
          "internalType": "contract IERC20",
          "name": "",
          "type": "address"
        },
        {
          "internalType": "address",
          "name": "",
          "type": "address"
        }
      ],
      "name": "tokenGaugeExchangeRates",
      "outputs": [
        {
          "internalType": "uint256",
          "name": "",
          "type": "uint256"
        }
      ],
      "stateMutability": "view",
      "type": "function"
    },
    {
      "inputs": [
        {
          "internalType": "address",
          "name": "",
          "type": "address"
        }
      ],
      "name": "userLastClaimedTimestamp",
      "outputs": [
        {
          "internalType": "uint256",
          "name": "",
          "type": "uint256"
        }
      ],
      "stateMutability": "view",
      "type": "function"
    },
    {
      "inputs": [
        {
          "internalType": "address",
          "name": "",
          "type": "address"
        },
        {
          "internalType": "contract IERC20",
          "name": "",
          "type": "address"
        },
        {
          "internalType": "address",
          "name": "",
          "type": "address"
        }
      ],
      "name": "userTokenGaugeExchangeRates",
      "outputs": [
        {
          "internalType": "uint256",
          "name": "",
          "type": "uint256"
        }
      ],
      "stateMutability": "view",
      "type": "function"
    },
    {
      "inputs": [
        {
          "internalType": "address",
          "name": "",
          "type": "address"
        },
        {
          "internalType": "contract IERC20",
          "name": "",
          "type": "address"
        }
      ],
      "name": "userTokenRewardBalances",
      "outputs": [
        {
          "internalType": "uint256",
          "name": "",
          "type": "uint256"
        }
      ],
      "stateMutability": "view",
      "type": "function"
    },
    {
      "inputs": [],
      "name": "vault",
      "outputs": [
        {
          "internalType": "address",
          "name": "",
          "type": "address"
        }
      ],
      "stateMutability": "view",
      "type": "function"
    }
  ],
  "transactionHash": "0xa788e2d4c8fc432aa694ef01432d83e47926787d61c3ae81d091ddbe4a45deec",
  "args": [
    "0x263886A9f0b07E32f5D9239798042EC41b636Dc9",
    "0x08551a424a092B9eaEEbEe2d1a11EAB79Dc58391",
    "0xf12aD182E0990DD894A96b60604477F82AC3C4cd",
    "100000000"
  ],
  "numDeployments": 1,
  "solcInputHash": "b05209ff2ac583caae27b575ae3779ab",
  "bytecode": "0x60806040523480156200001157600080fd5b50604051620018c1380380620018c1833981016040819052620000349162000232565b6001600160a01b038416620000905760405162461bcd60e51b815260206004820152601b60248201527f475265776172642f47432d6e6f742d7a65726f2d61646472657373000000000060448201526064015b60405180910390fd5b6001600160a01b038316620000e85760405162461bcd60e51b815260206004820152601e60248201527f475265776172642f5661756c742d6e6f742d7a65726f2d616464726573730000604482015260640162000087565b633b9aca008163ffffffff1610620001435760405162461bcd60e51b815260206004820152601960248201527f475265776172642f7374616b65722d6375742d6c742d31653900000000000000604482015260640162000087565b6001600160a01b0382166200019b5760405162461bcd60e51b815260206004820152601c60248201527f475265776172642f6c69712d6e6f742d7a65726f2d6164647265737300000000604482015260640162000087565b600580546001600160a01b03199081166001600160a01b03878116918217909355600680548316878516908117909155600780546001600160c01b031916600160a01b63ffffffff8816908102909516179487169485179055604051928352917f048ccaf1264df58374a01de5614345aa417e2d16af0f2e86b97729dc752e253f9060200160405180910390a450505050620002bb565b600080600080608085870312156200024957600080fd5b84516200025681620002a2565b60208601519094506200026981620002a2565b60408601519093506200027c81620002a2565b606086015190925063ffffffff811681146200029757600080fd5b939692955090935050565b6001600160a01b0381168114620002b857600080fd5b50565b6115f680620002cb6000396000f3fe608060405234801561001057600080fd5b50600436106101005760003560e01c806399eecb3b11610097578063bba06f2711610066578063bba06f27146102b9578063f5e3e905146102cc578063fbfa77cf146102fd578063fd4016281461031057600080fd5b806399eecb3b14610232578063ac9650d814610245578063ac9fb71d14610265578063b90d147b1461029157600080fd5b80635e1c75e1116100d35780635e1c75e1146101b35780636e8fc2d3146101c657806395cebcd41461010557806396abc1961461020757600080fd5b806331661930146101055780634046ebae1461011a5780635902fc3b1461014a5780635d837d7614610185575b600080fd5b610118610113366004611127565b610323565b005b60075461012d906001600160a01b031681565b6040516001600160a01b0390911681526020015b60405180910390f35b61015d6101583660046111ec565b6103d5565b604080516001600160a01b03909316835267ffffffffffffffff909116602083015201610141565b6101a561019336600461110a565b60026020526000908152604090205481565b604051908152602001610141565b6101186101c13660046111a1565b61041f565b6101d96101d436600461110a565b6104fa565b6040805182516001600160a01b0316815260209283015167ffffffffffffffff169281019290925201610141565b6101a5610215366004611168565b600360209081526000928352604080842090915290825290205481565b60055461012d906001600160a01b031681565b610258610253366004611218565b61051d565b6040516101419190611389565b60075461027c90600160a01b900463ffffffff1681565b60405163ffffffff9091168152602001610141565b6101a561029f366004611168565b600060208181529281526040808220909352908152205481565b6101a56102c7366004611168565b610612565b6101a56102da3660046111a1565b600160209081526000938452604080852082529284528284209052825290205481565b60065461012d906001600160a01b031681565b61011861031e3660046112af565b610657565b6005546001600160a01b031633146103825760405162461bcd60e51b815260206004820152600f60248201527f475265776172642f6f6e6c792d6763000000000000000000000000000000000060448201526064015b60405180910390fd5b600061038f848484610851565b80519091506001600160a01b0316156103b6576103b48482600001518585600061098f565b505b50506001600160a01b0316600090815260026020526040902042905550565b600460205281600052604060002081815481106103f157600080fd5b6000918252602090912001546001600160a01b0381169250600160a01b900467ffffffffffffffff16905082565b6005546040517f78fa672e0000000000000000000000000000000000000000000000000000000081526001600160a01b038581166004830152838116602483015260009216906378fa672e9060440160206040518083038186803b15801561048657600080fd5b505afa15801561049a573d6000803e3d6000fd5b505050506040513d601f19601f820116820180604052508101906104be919061130a565b90506104cb848383610851565b506104da84848484600061098f565b50506001600160a01b031660009081526002602052604090204290555050565b604080518082019091526000808252602082015261051782610b41565b92915050565b60608167ffffffffffffffff8111156105385761053861156b565b60405190808252806020026020018201604052801561056b57816020015b60608152602001906001900390816105565790505b50905060005b8281101561060b576105db3085858481811061058f5761058f611555565b90506020028101906105a1919061141c565b8080601f016020809104026020016040519081016040528093929190818152602001838380828437600092019190915250610c2f92505050565b8282815181106105ed576105ed611555565b6020026020010181905250808061060390611524565b915050610571565b5092915050565b6001600160a01b0382811660009081526020818152604080832085851680855292528220805490839055600654929390926106509291168684610c54565b9392505050565b6007546001600160a01b031633146106b15760405162461bcd60e51b815260206004820152601760248201527f475265776172642f6f6e6c792d6c697175696461746f720000000000000000006044820152606401610379565b836106bb81610b41565b516001600160a01b038481169116146106d8576106d88184610ce2565b600754600090633b9aca00906106fb90600160a01b900463ffffffff16856114c2565b61070591906114a0565b6005546040517f117d37e60000000000000000000000000000000000000000000000000000000081526001600160a01b0385811660048301529293506000929091169063117d37e69060240160206040518083038186803b15801561076957600080fd5b505afa15801561077d573d6000803e3d6000fd5b505050506040513d601f19601f820116820180604052508101906107a1919061130a565b6107b383670de0b6b3a76400006114c2565b6107bd91906114a0565b6001600160a01b0380871660009081526003602090815260408083209388168352929052908120805492935083929091906107f9908490611488565b909155505060408051838152602081018390526001600160a01b0380881692908616917fbdfd07c4944984536c4cb47c9ced23a77b0407b07e5ac1577835d02c1303c8ba910160405180910390a35050505050505050565b604080518082018252600080825260208083018290526001600160a01b038681168352600282528483205490881683526004825284832054855180870187528481528084018590528651808801909752848752928601939093529293821561098457825b8015610982576108c66001826114e1565b6001600160a01b038a166000908152600460205260409020805491925090829081106108f4576108f4611555565b6000918252602091829020604080518082019091529101546001600160a01b0381168252600160a01b900467ffffffffffffffff1691810191909152925061093d6001856114e1565b811415610948578291505b600085118015610965575084836020015167ffffffffffffffff16115b156109825761097c8984600001518a8a600161098f565b506108b5565b505b979650505050505050565b6001600160a01b038084166000908152600160209081526040808320888516808552908352818420948a16808552948352818420549084526003835281842094845293909152812054909190831580156109e7575081155b156109f0578091505b6000670de0b6b3a764000086610a0685856114e1565b610a1091906114c2565b610a1a91906114a0565b90508160016000896001600160a01b03166001600160a01b0316815260200190815260200160002060008a6001600160a01b03166001600160a01b0316815260200190815260200160002060008b6001600160a01b03166001600160a01b031681526020019081526020016000208190555080600080896001600160a01b03166001600160a01b0316815260200190815260200160002060008a6001600160a01b03166001600160a01b031681526020019081526020016000206000828254610ae39190611488565b909155505060408051828152602081018490526001600160a01b03808a16928b821692918d16917f7e27222c50a5510dfc61468d936b48c880bfbd05c1eb59c5be79b06e582369dd910160405180910390a498975050505050505050565b604080518082018252600080825260208083018290526001600160a01b0385168252600481528382208054855181840281018401909652808652939492939091849084015b82821015610bd657600084815260209081902060408051808201909152908401546001600160a01b0381168252600160a01b900467ffffffffffffffff1681830152825260019092019101610b86565b505082519293505081159050610c135781610bf26001836114e1565b81518110610c0257610c02611555565b602002602001015192505050919050565b5050604080518082019091526000808252602082015292915050565b6060610650838360405180606001604052806027815260200161159a60279139610db1565b604080516001600160a01b0385811660248301528416604482015260648082018490528251808303909101815260849091019091526020810180517bffffffffffffffffffffffffffffffffffffffffffffffffffffffff167f23b872dd00000000000000000000000000000000000000000000000000000000179052610cdc908590610e9c565b50505050565b6001600160a01b0380831660008181526004602090815260408083208151808301835287871680825267ffffffffffffffff4281811684880190815285546001810187559589529690972092519290930180549551909316600160a01b027fffffffff0000000000000000000000000000000000000000000000000000000090951691909716179290921790915551909291907fd38aa1c6709087859dfa9ca795d9441a64c1fa0b1bf23d8ad02c1853b971e33c90610da49085815260200190565b60405180910390a3505050565b6060833b610e275760405162461bcd60e51b815260206004820152602660248201527f416464726573733a2064656c65676174652063616c6c20746f206e6f6e2d636f60448201527f6e747261637400000000000000000000000000000000000000000000000000006064820152608401610379565b600080856001600160a01b031685604051610e42919061136d565b600060405180830381855af49150503d8060008114610e7d576040519150601f19603f3d011682016040523d82523d6000602084013e610e82565b606091505b5091509150610e92828286610f86565b9695505050505050565b6000610ef1826040518060400160405280602081526020017f5361666545524332303a206c6f772d6c6576656c2063616c6c206661696c6564815250856001600160a01b0316610fbf9092919063ffffffff16565b805190915015610f815780806020019051810190610f0f919061128d565b610f815760405162461bcd60e51b815260206004820152602a60248201527f5361666545524332303a204552433230206f7065726174696f6e20646964206e60448201527f6f742073756363656564000000000000000000000000000000000000000000006064820152608401610379565b505050565b60608315610f95575081610650565b825115610fa55782518084602001fd5b8160405162461bcd60e51b81526004016103799190611409565b6060610fce8484600085610fd6565b949350505050565b60608247101561104e5760405162461bcd60e51b815260206004820152602660248201527f416464726573733a20696e73756666696369656e742062616c616e636520666f60448201527f722063616c6c00000000000000000000000000000000000000000000000000006064820152608401610379565b843b61109c5760405162461bcd60e51b815260206004820152601d60248201527f416464726573733a2063616c6c20746f206e6f6e2d636f6e74726163740000006044820152606401610379565b600080866001600160a01b031685876040516110b8919061136d565b60006040518083038185875af1925050503d80600081146110f5576040519150601f19603f3d011682016040523d82523d6000602084013e6110fa565b606091505b5091509150610984828286610f86565b60006020828403121561111c57600080fd5b813561065081611581565b60008060006060848603121561113c57600080fd5b833561114781611581565b9250602084013561115781611581565b929592945050506040919091013590565b6000806040838503121561117b57600080fd5b823561118681611581565b9150602083013561119681611581565b809150509250929050565b6000806000606084860312156111b657600080fd5b83356111c181611581565b925060208401356111d181611581565b915060408401356111e181611581565b809150509250925092565b600080604083850312156111ff57600080fd5b823561120a81611581565b946020939093013593505050565b6000806020838503121561122b57600080fd5b823567ffffffffffffffff8082111561124357600080fd5b818501915085601f83011261125757600080fd5b81358181111561126657600080fd5b8660208260051b850101111561127b57600080fd5b60209290920196919550909350505050565b60006020828403121561129f57600080fd5b8151801515811461065057600080fd5b600080600080600060a086880312156112c757600080fd5b85356112d281611581565b945060208601356112e281611581565b93506040860135925060608601356112f981611581565b949793965091946080013592915050565b60006020828403121561131c57600080fd5b5051919050565b6000815180845261133b8160208601602086016114f8565b601f017fffffffffffffffffffffffffffffffffffffffffffffffffffffffffffffffe0169290920160200192915050565b6000825161137f8184602087016114f8565b9190910192915050565b6000602080830181845280855180835260408601915060408160051b870101925083870160005b828110156113fc577fffffffffffffffffffffffffffffffffffffffffffffffffffffffffffffffc08886030184526113ea858351611323565b945092850192908501906001016113b0565b5092979650505050505050565b6020815260006106506020830184611323565b60008083357fffffffffffffffffffffffffffffffffffffffffffffffffffffffffffffffe184360301811261145157600080fd5b83018035915067ffffffffffffffff82111561146c57600080fd5b60200191503681900382131561148157600080fd5b9250929050565b6000821982111561149b5761149b61153f565b500190565b6000826114bd57634e487b7160e01b600052601260045260246000fd5b500490565b60008160001904831182151516156114dc576114dc61153f565b500290565b6000828210156114f3576114f361153f565b500390565b60005b838110156115135781810151838201526020016114fb565b83811115610cdc5750506000910152565b60006000198214156115385761153861153f565b5060010190565b634e487b7160e01b600052601160045260246000fd5b634e487b7160e01b600052603260045260246000fd5b634e487b7160e01b600052604160045260246000fd5b6001600160a01b038116811461159657600080fd5b5056fe416464726573733a206c6f772d6c6576656c2064656c65676174652063616c6c206661696c6564a2646970667358221220ba186f71b2d40936c375780f4314c81905fead19f40dae2177f859dc7b21bd5b64736f6c63430008060033",
  "devdoc": {
    "author": "PoolTogether Inc Team",
    "events": {
      "Deployed(address,address,address,uint32)": {
        "params": {
          "gaugeController": "Address of the GaugeController",
          "vault": "Address of the Vault"
        }
      },
      "RewardTokenPushed(address,address,uint256)": {
        "params": {
          "gauge": "Address of the gauge for which the reward token is added",
          "timestamp": "Timestamp at which the reward token was pushed",
          "token": "Address of the token being pushed"
        }
      },
      "RewardsAdded(address,address,uint256,uint256)": {
        "params": {
          "amount": "Amount of tokens added to the gauge",
          "exchangeRate": "New exchange rate for this `token` in this `gauge`",
          "gauge": "Address of the gauge for which the rewards are added",
          "token": "Address of the token being added"
        }
      },
      "RewardsClaimed(address,address,address,uint256,uint256)": {
        "params": {
          "amount": "Total amount of rewards claimed",
          "exchangeRate": "Exchange rate at which the rewards were claimed",
          "gauge": "Address of the gauge for which the user claimed rewards",
          "token": "Address of the token for which the user claimed rewards",
          "user": "Address of the user who claimed rewards"
        }
      }
    },
    "kind": "dev",
    "methods": {
      "afterDecreaseGauge(address,address,uint256)": {
        "params": {
          "gauge": "Address of the gauge to decrease stake for",
          "oldStakeBalance": "Old stake balance of the user",
          "user": "Address of the user to decrease stake for"
        }
      },
      "afterIncreaseGauge(address,address,uint256)": {
        "params": {
          "gauge": "Address of the gauge to increase stake for",
          "oldStakeBalance": "Old stake balance of the user",
          "user": "Address of the user to increase stake for"
        }
      },
      "afterSwap(address,address,uint256,address,uint256)": {
        "details": "Called by the liquidation contract anytime tokens are liquidated.Will push token to the `gaugeRewardTokens` mapping if different from the current one.",
        "params": {
          "ticket": "The address of the tickets that were sold",
          "token": "The address of the token that the tickets were sold for",
          "tokenAmount": "The amount of tokens that the tickets were sold for"
        }
      },
      "claim(address,address,address)": {
        "params": {
          "_gauge": "Address of the gauge to claim rewards for",
          "_token": "Address of the token to claim rewards for",
          "_user": "Address of the user to claim rewards for"
        }
      },
      "constructor": {
        "params": {
          "_gaugeController": "Address of the GaugeController",
          "_vault": "Address of the Vault"
        }
      },
      "currentRewardToken(address)": {
        "params": {
          "_gauge": "Address of the gauge to get current reward token for"
        },
        "returns": {
          "_0": "Current reward token for the given gauge"
        }
      },
      "multicall(bytes[])": {
        "details": "Receives and executes a batch of function calls on this contract."
      }
    },
    "stateVariables": {
      "gaugeRewardTokens": {
        "details": "gauge => reward tokens array"
      },
      "tokenGaugeExchangeRates": {
        "details": "token => gauge => exchange rate"
      },
      "userLastClaimedTimestamp": {
        "details": "user => timestamp"
      },
      "userTokenGaugeExchangeRates": {
        "details": "user => token => gauge => exchange rate"
      }
    },
    "title": "PoolTogether V4 GaugeReward",
    "version": 1
  },
  "userdoc": {
    "events": {
      "Deployed(address,address,address,uint32)": {
        "notice": "Emitted when the contract is deployed"
      },
      "RewardTokenPushed(address,address,uint256)": {
        "notice": "Emitted when a new reward token is pushed onto the `gaugeRewardTokens` mapping"
      },
      "RewardsAdded(address,address,uint256,uint256)": {
        "notice": "Emitted when rewards token are added to a gauge"
      },
      "RewardsClaimed(address,address,address,uint256,uint256)": {
        "notice": "Emitted when a user claimed their rewards for a given gauge and token"
      }
    },
    "kind": "user",
    "methods": {
      "afterDecreaseGauge(address,address,uint256)": {
        "notice": "Fallback function to call in GaugeController after a user has decreased his gauge stake."
      },
      "afterIncreaseGauge(address,address,uint256)": {
        "notice": "Fallback function to call in GaugeController after a user has increased their gauge stake."
      },
      "afterSwap(address,address,uint256,address,uint256)": {
        "notice": "Add rewards denominated in `token` for the given `gauge`."
      },
      "claim(address,address,address)": {
        "notice": "Claim user rewards for a given gauge and token."
      },
      "constructor": {
        "notice": "GaugeReward constructor"
      },
      "currentRewardToken(address)": {
        "notice": "Return the current reward token for the given gauge."
      },
      "gaugeController()": {
        "notice": "GaugeController contract address"
      },
      "gaugeRewardTokens(address,uint256)": {
        "notice": "Tracks reward tokens per gauge"
      },
      "liquidator()": {
        "notice": "Address of the liquidator that this contract is listening to"
      },
      "stakerCut()": {
        "notice": "Percentage of rewards that goes to stakers. Fixed point 9 number this is less than 1."
      },
      "tokenGaugeExchangeRates(address,address)": {
        "notice": "Tracks token gauge exchange rates"
      },
      "userLastClaimedTimestamp(address)": {
        "notice": "Tracks user last claimed timestamp"
      },
      "userTokenGaugeExchangeRates(address,address,address)": {
        "notice": "Tracks user token gauge exchange rate"
      },
      "userTokenRewardBalances(address,address)": {
        "notice": "Tracks user token reward balances"
      },
      "vault()": {
        "notice": "Vault contract address"
      }
    },
    "notice": "The GaugeReward contract handles the rewards for users who staked in one or several gauges on the GaugeController contract.",
    "version": 1
  },
  "storageLayout": {
    "storage": [
      {
        "astId": 15367,
        "contract": "contracts/GaugeReward.sol:GaugeReward",
        "label": "userTokenRewardBalances",
        "offset": 0,
        "slot": "0",
        "type": "t_mapping(t_address,t_mapping(t_contract(IERC20)663,t_uint256))"
      },
      {
        "astId": 15377,
        "contract": "contracts/GaugeReward.sol:GaugeReward",
        "label": "userTokenGaugeExchangeRates",
        "offset": 0,
        "slot": "1",
        "type": "t_mapping(t_address,t_mapping(t_contract(IERC20)663,t_mapping(t_address,t_uint256)))"
      },
      {
        "astId": 15382,
        "contract": "contracts/GaugeReward.sol:GaugeReward",
        "label": "userLastClaimedTimestamp",
        "offset": 0,
        "slot": "2",
        "type": "t_mapping(t_address,t_uint256)"
      },
      {
        "astId": 15390,
        "contract": "contracts/GaugeReward.sol:GaugeReward",
        "label": "tokenGaugeExchangeRates",
        "offset": 0,
        "slot": "3",
        "type": "t_mapping(t_contract(IERC20)663,t_mapping(t_address,t_uint256))"
      },
      {
        "astId": 15403,
        "contract": "contracts/GaugeReward.sol:GaugeReward",
        "label": "gaugeRewardTokens",
        "offset": 0,
        "slot": "4",
        "type": "t_mapping(t_address,t_array(t_struct(RewardToken)15396_storage)dyn_storage)"
      },
      {
        "astId": 15407,
        "contract": "contracts/GaugeReward.sol:GaugeReward",
        "label": "gaugeController",
        "offset": 0,
        "slot": "5",
        "type": "t_contract(IGaugeController)20455"
      },
      {
        "astId": 15410,
        "contract": "contracts/GaugeReward.sol:GaugeReward",
        "label": "vault",
        "offset": 0,
        "slot": "6",
        "type": "t_address"
      },
      {
        "astId": 15413,
        "contract": "contracts/GaugeReward.sol:GaugeReward",
        "label": "liquidator",
        "offset": 0,
        "slot": "7",
        "type": "t_address"
      },
      {
        "astId": 15416,
        "contract": "contracts/GaugeReward.sol:GaugeReward",
        "label": "stakerCut",
        "offset": 20,
        "slot": "7",
        "type": "t_uint32"
      }
    ],
    "types": {
      "t_address": {
        "encoding": "inplace",
        "label": "address",
        "numberOfBytes": "20"
      },
      "t_array(t_struct(RewardToken)15396_storage)dyn_storage": {
        "base": "t_struct(RewardToken)15396_storage",
        "encoding": "dynamic_array",
        "label": "struct GaugeReward.RewardToken[]",
        "numberOfBytes": "32"
      },
      "t_contract(IERC20)663": {
        "encoding": "inplace",
        "label": "contract IERC20",
        "numberOfBytes": "20"
      },
      "t_contract(IGaugeController)20455": {
        "encoding": "inplace",
        "label": "contract IGaugeController",
        "numberOfBytes": "20"
      },
      "t_mapping(t_address,t_array(t_struct(RewardToken)15396_storage)dyn_storage)": {
        "encoding": "mapping",
        "key": "t_address",
        "label": "mapping(address => struct GaugeReward.RewardToken[])",
        "numberOfBytes": "32",
        "value": "t_array(t_struct(RewardToken)15396_storage)dyn_storage"
      },
      "t_mapping(t_address,t_mapping(t_contract(IERC20)663,t_mapping(t_address,t_uint256)))": {
        "encoding": "mapping",
        "key": "t_address",
        "label": "mapping(address => mapping(contract IERC20 => mapping(address => uint256)))",
        "numberOfBytes": "32",
        "value": "t_mapping(t_contract(IERC20)663,t_mapping(t_address,t_uint256))"
      },
      "t_mapping(t_address,t_mapping(t_contract(IERC20)663,t_uint256))": {
        "encoding": "mapping",
        "key": "t_address",
        "label": "mapping(address => mapping(contract IERC20 => uint256))",
        "numberOfBytes": "32",
        "value": "t_mapping(t_contract(IERC20)663,t_uint256)"
      },
      "t_mapping(t_address,t_uint256)": {
        "encoding": "mapping",
        "key": "t_address",
        "label": "mapping(address => uint256)",
        "numberOfBytes": "32",
        "value": "t_uint256"
      },
      "t_mapping(t_contract(IERC20)663,t_mapping(t_address,t_uint256))": {
        "encoding": "mapping",
        "key": "t_contract(IERC20)663",
        "label": "mapping(contract IERC20 => mapping(address => uint256))",
        "numberOfBytes": "32",
        "value": "t_mapping(t_address,t_uint256)"
      },
      "t_mapping(t_contract(IERC20)663,t_uint256)": {
        "encoding": "mapping",
        "key": "t_contract(IERC20)663",
        "label": "mapping(contract IERC20 => uint256)",
        "numberOfBytes": "32",
        "value": "t_uint256"
      },
      "t_struct(RewardToken)15396_storage": {
        "encoding": "inplace",
        "label": "struct GaugeReward.RewardToken",
        "members": [
          {
            "astId": 15393,
            "contract": "contracts/GaugeReward.sol:GaugeReward",
            "label": "token",
            "offset": 0,
            "slot": "0",
            "type": "t_contract(IERC20)663"
          },
          {
            "astId": 15395,
            "contract": "contracts/GaugeReward.sol:GaugeReward",
            "label": "timestamp",
            "offset": 20,
            "slot": "0",
            "type": "t_uint64"
          }
        ],
        "numberOfBytes": "32"
      },
      "t_uint256": {
        "encoding": "inplace",
        "label": "uint256",
        "numberOfBytes": "32"
      },
      "t_uint32": {
        "encoding": "inplace",
        "label": "uint32",
        "numberOfBytes": "4"
      },
      "t_uint64": {
        "encoding": "inplace",
        "label": "uint64",
        "numberOfBytes": "8"
      }
    }
  }
}