{
  "address": "0xD40C3806BA42b4D5D1082321a6b30f9481b45412",
  "abi": [
    {
      "inputs": [
        {
          "internalType": "contract IERC20",
          "name": "_token",
          "type": "address"
        },
        {
          "internalType": "address",
          "name": "_owner",
          "type": "address"
        }
      ],
      "stateMutability": "nonpayable",
      "type": "constructor"
    },
    {
      "anonymous": false,
      "inputs": [
        {
          "indexed": false,
          "internalType": "contract IERC20",
          "name": "token",
          "type": "address"
        },
        {
          "indexed": false,
          "internalType": "address",
          "name": "owner",
          "type": "address"
        }
      ],
      "name": "Deployed",
      "type": "event"
    },
    {
      "anonymous": false,
      "inputs": [
        {
          "indexed": true,
          "internalType": "address",
          "name": "user",
          "type": "address"
        },
        {
          "indexed": false,
          "internalType": "address",
          "name": "gauge",
          "type": "address"
        }
      ],
      "name": "GaugeAdded",
      "type": "event"
    },
    {
      "anonymous": false,
      "inputs": [
        {
          "indexed": true,
          "internalType": "address",
          "name": "user",
          "type": "address"
        },
        {
          "indexed": true,
          "internalType": "address",
          "name": "gauge",
          "type": "address"
        },
        {
          "indexed": false,
          "internalType": "uint256",
          "name": "amount",
          "type": "uint256"
        }
      ],
      "name": "GaugeDecreased",
      "type": "event"
    },
    {
      "anonymous": false,
      "inputs": [
        {
          "indexed": true,
          "internalType": "address",
          "name": "user",
          "type": "address"
        },
        {
          "indexed": true,
          "internalType": "address",
          "name": "gauge",
          "type": "address"
        },
        {
          "indexed": false,
          "internalType": "uint256",
          "name": "amount",
          "type": "uint256"
        }
      ],
      "name": "GaugeIncreased",
      "type": "event"
    },
    {
      "anonymous": false,
      "inputs": [
        {
          "indexed": true,
          "internalType": "address",
          "name": "user",
          "type": "address"
        },
        {
          "indexed": true,
          "internalType": "address",
          "name": "gauge",
          "type": "address"
        }
      ],
      "name": "GaugeRemoved",
      "type": "event"
    },
    {
      "anonymous": false,
      "inputs": [
        {
          "indexed": false,
          "internalType": "contract IGaugeReward",
          "name": "gaugeReward",
          "type": "address"
        }
      ],
      "name": "GaugeRewardSet",
      "type": "event"
    },
    {
      "anonymous": false,
      "inputs": [
        {
          "indexed": true,
          "internalType": "address",
          "name": "user",
          "type": "address"
        },
        {
          "indexed": true,
          "internalType": "address",
          "name": "gauge",
          "type": "address"
        },
        {
          "indexed": false,
          "internalType": "uint256",
          "name": "scale",
          "type": "uint256"
        },
        {
          "indexed": false,
          "internalType": "uint256",
          "name": "oldScale",
          "type": "uint256"
        }
      ],
      "name": "GaugeScaleSet",
      "type": "event"
    },
    {
      "anonymous": false,
      "inputs": [
        {
          "indexed": true,
          "internalType": "address",
          "name": "previousManager",
          "type": "address"
        },
        {
          "indexed": true,
          "internalType": "address",
          "name": "newManager",
          "type": "address"
        }
      ],
      "name": "ManagerTransferred",
      "type": "event"
    },
    {
      "anonymous": false,
      "inputs": [
        {
          "indexed": true,
          "internalType": "address",
          "name": "pendingOwner",
          "type": "address"
        }
      ],
      "name": "OwnershipOffered",
      "type": "event"
    },
    {
      "anonymous": false,
      "inputs": [
        {
          "indexed": true,
          "internalType": "address",
          "name": "previousOwner",
          "type": "address"
        },
        {
          "indexed": true,
          "internalType": "address",
          "name": "newOwner",
          "type": "address"
        }
      ],
      "name": "OwnershipTransferred",
      "type": "event"
    },
    {
      "anonymous": false,
      "inputs": [
        {
          "indexed": true,
          "internalType": "address",
          "name": "user",
          "type": "address"
        },
        {
          "indexed": false,
          "internalType": "uint256",
          "name": "amount",
          "type": "uint256"
        }
      ],
      "name": "TokenDeposited",
      "type": "event"
    },
    {
      "anonymous": false,
      "inputs": [
        {
          "indexed": true,
          "internalType": "address",
          "name": "user",
          "type": "address"
        },
        {
          "indexed": false,
          "internalType": "uint256",
          "name": "amount",
          "type": "uint256"
        }
      ],
      "name": "TokenWithdrawn",
      "type": "event"
    },
    {
      "inputs": [
        {
          "internalType": "address",
          "name": "_gauge",
          "type": "address"
        }
      ],
      "name": "addGauge",
      "outputs": [],
      "stateMutability": "nonpayable",
      "type": "function"
    },
    {
      "inputs": [
        {
          "internalType": "address",
          "name": "_gauge",
          "type": "address"
        },
        {
          "internalType": "uint256",
          "name": "_scale",
          "type": "uint256"
        }
      ],
      "name": "addGaugeWithScale",
      "outputs": [],
      "stateMutability": "nonpayable",
      "type": "function"
    },
    {
      "inputs": [
        {
          "internalType": "address",
          "name": "",
          "type": "address"
        }
      ],
      "name": "balances",
      "outputs": [
        {
          "internalType": "uint256",
          "name": "",
          "type": "uint256"
        }
      ],
      "stateMutability": "view",
      "type": "function"
    },
    {
      "inputs": [],
      "name": "claimOwnership",
      "outputs": [],
      "stateMutability": "nonpayable",
      "type": "function"
    },
    {
      "inputs": [
        {
          "internalType": "address",
          "name": "_gauge",
          "type": "address"
        },
        {
          "internalType": "uint256",
          "name": "_amount",
          "type": "uint256"
        }
      ],
      "name": "decreaseGauge",
      "outputs": [],
      "stateMutability": "nonpayable",
      "type": "function"
    },
    {
      "inputs": [
        {
          "internalType": "address",
          "name": "_to",
          "type": "address"
        },
        {
          "internalType": "uint256",
          "name": "_amount",
          "type": "uint256"
        }
      ],
      "name": "deposit",
      "outputs": [],
      "stateMutability": "nonpayable",
      "type": "function"
    },
    {
      "inputs": [],
      "name": "gaugeReward",
      "outputs": [
        {
          "internalType": "contract IGaugeReward",
          "name": "",
          "type": "address"
        }
      ],
      "stateMutability": "view",
      "type": "function"
    },
    {
      "inputs": [
        {
          "internalType": "address",
          "name": "_gauge",
          "type": "address"
        },
        {
          "internalType": "uint256",
          "name": "_startTime",
          "type": "uint256"
        },
        {
          "internalType": "uint256",
          "name": "_endTime",
          "type": "uint256"
        }
      ],
      "name": "getAverageGaugeBalanceBetween",
      "outputs": [
        {
          "internalType": "uint256",
          "name": "",
          "type": "uint256"
        }
      ],
      "stateMutability": "view",
      "type": "function"
    },
    {
      "inputs": [
        {
          "internalType": "address",
          "name": "_gauge",
          "type": "address"
        },
        {
          "internalType": "uint256",
          "name": "_startTime",
          "type": "uint256"
        },
        {
          "internalType": "uint256",
          "name": "_endTime",
          "type": "uint256"
        }
      ],
      "name": "getAverageGaugeScaleBetween",
      "outputs": [
        {
          "internalType": "uint256",
          "name": "",
          "type": "uint256"
        }
      ],
      "stateMutability": "view",
      "type": "function"
    },
    {
      "inputs": [
        {
          "internalType": "address",
          "name": "_gauge",
          "type": "address"
        }
      ],
      "name": "getGaugeBalance",
      "outputs": [
        {
          "internalType": "uint256",
          "name": "",
          "type": "uint256"
        }
      ],
      "stateMutability": "view",
      "type": "function"
    },
    {
      "inputs": [
        {
          "internalType": "address",
          "name": "_gauge",
          "type": "address"
        }
      ],
      "name": "getGaugeScaleBalance",
      "outputs": [
        {
          "internalType": "uint256",
          "name": "",
          "type": "uint256"
        }
      ],
      "stateMutability": "view",
      "type": "function"
    },
    {
      "inputs": [
        {
          "internalType": "address",
          "name": "_gauge",
          "type": "address"
        },
        {
          "internalType": "uint256",
          "name": "_startTime",
          "type": "uint256"
        },
        {
          "internalType": "uint256",
          "name": "_endTime",
          "type": "uint256"
        }
      ],
      "name": "getScaledAverageGaugeBalanceBetween",
      "outputs": [
        {
          "internalType": "uint256",
          "name": "",
          "type": "uint256"
        }
      ],
      "stateMutability": "view",
      "type": "function"
    },
    {
      "inputs": [
        {
          "internalType": "address",
          "name": "_gauge",
          "type": "address"
        },
        {
          "internalType": "address",
          "name": "_user",
          "type": "address"
        }
      ],
      "name": "getUserGaugeBalance",
      "outputs": [
        {
          "internalType": "uint256",
          "name": "",
          "type": "uint256"
        }
      ],
      "stateMutability": "view",
      "type": "function"
    },
    {
      "inputs": [
        {
          "internalType": "address",
          "name": "_gauge",
          "type": "address"
        },
        {
          "internalType": "uint256",
          "name": "_amount",
          "type": "uint256"
        }
      ],
      "name": "increaseGauge",
      "outputs": [],
      "stateMutability": "nonpayable",
      "type": "function"
    },
    {
      "inputs": [
        {
          "internalType": "address",
          "name": "_gauge",
          "type": "address"
        }
      ],
      "name": "isGauge",
      "outputs": [
        {
          "internalType": "bool",
          "name": "",
          "type": "bool"
        }
      ],
      "stateMutability": "view",
      "type": "function"
    },
    {
      "inputs": [],
      "name": "manager",
      "outputs": [
        {
          "internalType": "address",
          "name": "",
          "type": "address"
        }
      ],
      "stateMutability": "view",
      "type": "function"
    },
    {
      "inputs": [],
      "name": "owner",
      "outputs": [
        {
          "internalType": "address",
          "name": "",
          "type": "address"
        }
      ],
      "stateMutability": "view",
      "type": "function"
    },
    {
      "inputs": [],
      "name": "pendingOwner",
      "outputs": [
        {
          "internalType": "address",
          "name": "",
          "type": "address"
        }
      ],
      "stateMutability": "view",
      "type": "function"
    },
    {
      "inputs": [
        {
          "internalType": "address",
          "name": "_gauge",
          "type": "address"
        }
      ],
      "name": "removeGauge",
      "outputs": [],
      "stateMutability": "nonpayable",
      "type": "function"
    },
    {
      "inputs": [],
      "name": "renounceOwnership",
      "outputs": [],
      "stateMutability": "nonpayable",
      "type": "function"
    },
    {
      "inputs": [
        {
          "internalType": "address",
          "name": "",
          "type": "address"
        }
      ],
      "name": "rewards",
      "outputs": [
        {
          "internalType": "uint256",
          "name": "",
          "type": "uint256"
        }
      ],
      "stateMutability": "view",
      "type": "function"
    },
    {
      "inputs": [
        {
          "internalType": "contract IGaugeReward",
          "name": "_gaugeReward",
          "type": "address"
        }
      ],
      "name": "setGaugeReward",
      "outputs": [],
      "stateMutability": "nonpayable",
      "type": "function"
    },
    {
      "inputs": [
        {
          "internalType": "address",
          "name": "_gauge",
          "type": "address"
        },
        {
          "internalType": "uint256",
          "name": "_scale",
          "type": "uint256"
        }
      ],
      "name": "setGaugeScale",
      "outputs": [],
      "stateMutability": "nonpayable",
      "type": "function"
    },
    {
      "inputs": [
        {
          "internalType": "address",
          "name": "_newManager",
          "type": "address"
        }
      ],
      "name": "setManager",
      "outputs": [
        {
          "internalType": "bool",
          "name": "",
          "type": "bool"
        }
      ],
      "stateMutability": "nonpayable",
      "type": "function"
    },
    {
      "inputs": [],
      "name": "token",
      "outputs": [
        {
          "internalType": "contract IERC20",
          "name": "",
          "type": "address"
        }
      ],
      "stateMutability": "view",
      "type": "function"
    },
    {
      "inputs": [
        {
          "internalType": "address",
          "name": "_newOwner",
          "type": "address"
        }
      ],
      "name": "transferOwnership",
      "outputs": [],
      "stateMutability": "nonpayable",
      "type": "function"
    },
    {
      "inputs": [
        {
          "internalType": "address",
          "name": "",
          "type": "address"
        },
        {
          "internalType": "address",
          "name": "",
          "type": "address"
        }
      ],
      "name": "userGaugeBalance",
      "outputs": [
        {
          "internalType": "uint256",
          "name": "",
          "type": "uint256"
        }
      ],
      "stateMutability": "view",
      "type": "function"
    },
    {
      "inputs": [
        {
          "internalType": "uint256",
          "name": "_amount",
          "type": "uint256"
        }
      ],
      "name": "withdraw",
      "outputs": [],
      "stateMutability": "nonpayable",
      "type": "function"
    }
  ],
  "transactionHash": "0x85a40f659608c4db5acf840b7b294ad07c131b40d3ad51fe98b818286cc23a46",
  "args": [
    "0x79B00FD40Ca5923B982afBa53573F9D349d43418",
    "0x3A791e828fDd420fbE16416efDF509E4b9088Dd4"
  ],
  "numDeployments": 1,
  "solcInputHash": "46a7ec46315ece58f9d4c4ea7316a87f",
  "bytecode": "0x60806040523480156200001157600080fd5b5060405162002962380380620029628339810160408190526200003491620001a6565b80620000408162000156565b506001600160a01b0381166200009d5760405162461bcd60e51b815260206004820152601960248201527f47432f6f776e65722d6e6f742d7a65726f2d616464726573730000000000000060448201526064015b60405180910390fd5b6001600160a01b038216620000f55760405162461bcd60e51b815260206004820152601960248201527f47432f746f6b656e2d6e6f742d7a65726f2d6164647265737300000000000000604482015260640162000094565b600380546001600160a01b0319166001600160a01b038481169182179092556040805191825291831660208201527f09e48df7857bd0c1e0d31bb8a85d42cf1874817895f171c917f6ee2cea73ec20910160405180910390a15050620001fe565b600080546001600160a01b038381166001600160a01b0319831681178455604051919092169283917f8be0079c531659141344cd1fd0a4f28419497f9722a3daafe3b4186f6b6457e09190a35050565b60008060408385031215620001ba57600080fd5b8251620001c781620001e5565b6020840151909250620001da81620001e5565b809150509250929050565b6001600160a01b0381168114620001fb57600080fd5b50565b612754806200020e6000396000f3fe608060405234801561001057600080fd5b50600436106101c45760003560e01c806372c5921c116100f9578063d77cf90611610097578063ee37d5a011610071578063ee37d5a01461043f578063f2fde38b14610452578063fc0c546a14610465578063fd775c541461047857600080fd5b8063d77cf906146103e9578063dd14d961146103fc578063e30c39781461042e57600080fd5b80639da882ac116100d35780639da882ac1461036c578063aa79979b1461037f578063b14c6986146103c3578063d0ebdbe7146103d657600080fd5b806372c5921c1461033557806378fa672e146103485780638da5cb5b1461035b57600080fd5b806347e7ef24116101665780634e71e0c8116101405780634e71e0c8146102ff57806362b3fdd214610307578063638ca48f1461031a578063715018a61461032d57600080fd5b806347e7ef24146102b4578063481c6a75146102c75780634b0ad1cb146102ec57600080fd5b806327e235e3116101a257806327e235e3146102595780632e1a7d4d146102795780633a0451451461028e5780633c72026e146102a157600080fd5b80630700037d146101c9578063117d37e6146101fc5780632249fd721461022e575b600080fd5b6101e96101d7366004612389565b60076020526000908152604090205481565b6040519081526020015b60405180910390f35b6101e961020a366004612389565b6001600160a01b03166000908152600860205260409020546001600160d01b031690565b6101e961023c3660046123a6565b600660209081526000928352604080842090915290825290205481565b6101e9610267366004612389565b60056020526000908152604090205481565b61028c610287366004612462565b61048b565b005b61028c61029c366004612389565b610585565b6101e96102af36600461240b565b610748565b61028c6102c23660046123df565b61075f565b6002546001600160a01b03165b6040516001600160a01b0390911681526020016101f3565b61028c6102fa3660046123df565b610869565b61028c610b0a565b61028c6103153660046123df565b610b98565b6101e961032836600461240b565b610dc4565b61028c610e0a565b6101e961034336600461240b565b610e7f565b6101e96103563660046123a6565b610e8c565b6000546001600160a01b03166102d4565b61028c61037a366004612389565b610eb9565b6103b361038d366004612389565b6001600160a01b03166000908152600960205260409020546001600160d01b0316151590565b60405190151581526020016101f3565b61028c6103d13660046123df565b610f37565b6103b36103e4366004612389565b610fae565b61028c6103f7366004612389565b611022565b6101e961040a366004612389565b6001600160a01b03166000908152600960205260409020546001600160d01b031690565b6001546001600160a01b03166102d4565b6004546102d4906001600160a01b031681565b61028c610460366004612389565b61118c565b6003546102d4906001600160a01b031681565b61028c6104863660046123df565b6112c8565b33600090815260056020526040812080548392906104aa90849061267f565b90915550506003546040517fa9059cbb000000000000000000000000000000000000000000000000000000008152336004820152602481018390526001600160a01b039091169063a9059cbb90604401602060405180830381600087803b15801561051457600080fd5b505af1158015610528573d6000803e3d6000fd5b505050506040513d601f19601f8201168201806040525081019061054c9190612440565b5060405181815233907fa2bd9fcfcdba69f52bcd9a520846ad4bd685b187483f53efc42d035b2ddebff09060200160405180910390a250565b336105986000546001600160a01b031690565b6001600160a01b0316146105f35760405162461bcd60e51b815260206004820152601860248201527f4f776e61626c652f63616c6c65722d6e6f742d6f776e6572000000000000000060448201526064015b60405180910390fd5b6001600160a01b038116600090815260096020908152604091829020825160608101845281546001600160d01b03811680835262ffffff600160d01b8304811684870152600160e81b909204909116828601528451808601909552600685527f696e737566660000000000000000000000000000000000000000000000000000938501939093529092909161068b9184919042611522565b50508051835460208301516040808501516001600160d01b039094167fffffff000000000000000000000000000000000000000000000000000000000090931692909217600160d01b62ffffff92831602177cffffffffffffffffffffffffffffffffffffffffffffffffffffffffff16600160e81b9190931602919091178455519091506001600160a01b0384169033907fb292ea5ac65065e4436de384d50dcda417525b8af35e31511489f7f72d56845e90600090a3505050565b60006107558484846115e6565b90505b9392505050565b6001600160a01b03821660009081526005602052604081208054839290610787908490612559565b90915550506003546040517f23b872dd000000000000000000000000000000000000000000000000000000008152336004820152306024820152604481018390526001600160a01b03909116906323b872dd90606401602060405180830381600087803b1580156107f757600080fd5b505af115801561080b573d6000803e3d6000fd5b505050506040513d601f19601f8201168201806040525081019061082f9190612440565b5060405181815233907fbc7c8a4d8049a3f99a02f2a20640c206a2e4d3f2fa54fd20da9f01fda3620cda9060200160405180910390a25050565b81610894816001600160a01b03166000908152600960205260409020546001600160d01b0316151590565b6108e05760405162461bcd60e51b815260206004820152601f60248201527f4761756765436f6e74726f6c6c65723a696e76616c69642d616464726573730060448201526064016105ea565b33600090815260056020526040812080548492906108ff908490612559565b90915550503360009081526006602090815260408083206001600160a01b03871684529091528120805484929061093790849061267f565b90915550506001600160a01b03831660009081526008602052604081209061099e8261096286611659565b6040518060400160405280600681526020017f696e73756666000000000000000000000000000000000000000000000000000081525042611522565b505080518354602083015160408401516001600160d01b039093167fffffff00000000000000000000000000000000000000000000000000000000009092168217600160d01b62ffffff92831602177cffffffffffffffffffffffffffffffffffffffffffffffffffffffffff16600160e81b91909316029190911784556004549192506001600160a01b039091169063316619309087903390610a43908990612559565b6040517fffffffff0000000000000000000000000000000000000000000000000000000060e086901b1681526001600160a01b0393841660048201529290911660248301526044820152606401600060405180830381600087803b158015610aaa57600080fd5b505af1158015610abe573d6000803e3d6000fd5b50506040518681526001600160a01b03881692503391507f987edcc82da553803c4fff2a9b4a36d93b87520c65705d63ac3a25976f89ad53906020015b60405180910390a35050505050565b6001546001600160a01b03163314610b645760405162461bcd60e51b815260206004820152601f60248201527f4f776e61626c652f63616c6c65722d6e6f742d70656e64696e674f776e65720060448201526064016105ea565b600154610b79906001600160a01b03166116dc565b6001805473ffffffffffffffffffffffffffffffffffffffff19169055565b33610bab6002546001600160a01b031690565b6001600160a01b03161480610bd9575033610bce6000546001600160a01b031690565b6001600160a01b0316145b610c4b5760405162461bcd60e51b815260206004820152602660248201527f4d616e61676561626c652f63616c6c65722d6e6f742d6d616e616765722d6f7260448201527f2d6f776e6572000000000000000000000000000000000000000000000000000060648201526084016105ea565b6001600160a01b038216600090815260096020908152604091829020825160608101845281546001600160d01b03811680835262ffffff600160d01b8304811695840195909552600160e81b909104909316938101939093529190831015610cd157610cc682610cba85611659565b83516109629190612637565b50909150610cf99050565b610cf3828260000151610ce386611659565b610ced9190612637565b42611739565b50909150505b805182546020808401516040808601516001600160d01b039095167fffffff00000000000000000000000000000000000000000000000000000000009094168417600160d01b62ffffff93841602177cffffffffffffffffffffffffffffffffffffffffffffffffffffffffff16600160e81b92909516919091029390931785558251868152908101919091526001600160a01b0386169133917fb61b951b4b5e3996dc9f57d4087ea13da4090be5c668e01345b9bec393c19f23910160405180910390a350505050565b600080610dd28585856117e2565b90506000610de18686866115e6565b9050670de0b6b3a7640000610df682846125fa565b610e0091906125b7565b9695505050505050565b33610e1d6000546001600160a01b031690565b6001600160a01b031614610e735760405162461bcd60e51b815260206004820152601860248201527f4f776e61626c652f63616c6c65722d6e6f742d6f776e6572000000000000000060448201526064016105ea565b610e7d60006116dc565b565b60006107558484846117e2565b6001600160a01b038082166000908152600660209081526040808320938616835292905220545b92915050565b33610ecc6000546001600160a01b031690565b6001600160a01b031614610f225760405162461bcd60e51b815260206004820152601860248201527f4f776e61626c652f63616c6c65722d6e6f742d6f776e6572000000000000000060448201526064016105ea565b610f3481670de0b6b3a764000061184c565b50565b33610f4a6000546001600160a01b031690565b6001600160a01b031614610fa05760405162461bcd60e51b815260206004820152601860248201527f4f776e61626c652f63616c6c65722d6e6f742d6f776e6572000000000000000060448201526064016105ea565b610faa828261184c565b5050565b600033610fc36000546001600160a01b031690565b6001600160a01b0316146110195760405162461bcd60e51b815260206004820152601860248201527f4f776e61626c652f63616c6c65722d6e6f742d6f776e6572000000000000000060448201526064016105ea565b610eb382611937565b336110356002546001600160a01b031690565b6001600160a01b031614806110635750336110586000546001600160a01b031690565b6001600160a01b0316145b6110d55760405162461bcd60e51b815260206004820152602660248201527f4d616e61676561626c652f63616c6c65722d6e6f742d6d616e616765722d6f7260448201527f2d6f776e6572000000000000000000000000000000000000000000000000000060648201526084016105ea565b6001600160a01b03811661112b5760405162461bcd60e51b815260206004820152601f60248201527f47432f47617567655265776172642d6e6f742d7a65726f2d616464726573730060448201526064016105ea565b6004805473ffffffffffffffffffffffffffffffffffffffff19166001600160a01b0383169081179091556040519081527fc9436864b28e4bdede75d52a3d281101b91830fd91f9bc698dfde6048a7726609060200160405180910390a150565b3361119f6000546001600160a01b031690565b6001600160a01b0316146111f55760405162461bcd60e51b815260206004820152601860248201527f4f776e61626c652f63616c6c65722d6e6f742d6f776e6572000000000000000060448201526064016105ea565b6001600160a01b0381166112715760405162461bcd60e51b815260206004820152602560248201527f4f776e61626c652f70656e64696e674f776e65722d6e6f742d7a65726f2d616460448201527f647265737300000000000000000000000000000000000000000000000000000060648201526084016105ea565b6001805473ffffffffffffffffffffffffffffffffffffffff19166001600160a01b0383169081179091556040517f239a2ddded15777fa246aed5f7e1a9bc69a39d4eb4a397034d1d85766cca7d4c90600090a250565b816112f3816001600160a01b03166000908152600960205260409020546001600160d01b0316151590565b61133f5760405162461bcd60e51b815260206004820152601f60248201527f4761756765436f6e74726f6c6c65723a696e76616c69642d616464726573730060448201526064016105ea565b336000908152600560205260408120805484929061135e90849061267f565b90915550503360009081526006602090815260408083206001600160a01b038716845290915281208054849290611396908490612559565b90915550506001600160a01b0383166000908152600860205260408120906113c182610ced86611659565b505080518354602083015160408401516001600160d01b039093167fffffff00000000000000000000000000000000000000000000000000000000009092168217600160d01b62ffffff92831602177cffffffffffffffffffffffffffffffffffffffffffffffffffffffffff16600160e81b91909316029190911784556004549192506001600160a01b03909116906395cebcd4908790339061146690899061267f565b6040517fffffffff0000000000000000000000000000000000000000000000000000000060e086901b1681526001600160a01b0393841660048201529290911660248301526044820152606401600060405180830381600087803b1580156114cd57600080fd5b505af11580156114e1573d6000803e3d6000fd5b50506040518681526001600160a01b03881692503391507fb8e0282e42bb26bb33cd874ef92cc0f28e322eb79622c358f445f8d9863b7f3f90602001610afb565b604080516060810182526000808252602082018190529181019190915260408051808201909152600080825260208201526040805160608101825287546001600160d01b0380821680845262ffffff600160d01b840481166020860152600160e81b90930490921693830193909352600092879190891611156115b85760405162461bcd60e51b81526004016105ea919061247b565b506115c7886001018287611a23565b8251999099036001600160d01b03168252909990985095505050505050565b6001600160a01b0383166000818152600960208181526040808420815160608101835281546001600160d01b038116825262ffffff600160d01b8204811683870152600160e81b909104169281019290925294845291905290916116509060010182868642611b0a565b95945050505050565b60006001600160d01b038211156116d85760405162461bcd60e51b815260206004820152602760248201527f53616665436173743a2076616c756520646f65736e27742066697420696e203260448201527f303820626974730000000000000000000000000000000000000000000000000060648201526084016105ea565b5090565b600080546001600160a01b0383811673ffffffffffffffffffffffffffffffffffffffff19831681178455604051919092169283917f8be0079c531659141344cd1fd0a4f28419497f9722a3daafe3b4186f6b6457e09190a35050565b604080516060810182526000808252602082018190529181019190915260408051808201909152600080825260208201526040805160608101825286546001600160d01b038116825262ffffff600160d01b820481166020840152600160e81b90910416918101919091526000906117b5600188018287611a23565b835192965090945092506117ca9087906124ee565b6001600160d01b031684525091959094509092509050565b6001600160a01b0383166000818152600860208181526040808420815160608101835281546001600160d01b038116825262ffffff600160d01b8204811683870152600160e81b909104169281019290925294845291905290916116509060010182868642611b0a565b6001600160a01b03821660009081526009602052604081209061187282610ced85611659565b5050805183546020808401516040808601516001600160d01b039095167fffffff000000000000000000000000000000000000000000000000000000000090941693909317600160d01b62ffffff92831602177cffffffffffffffffffffffffffffffffffffffffffffffffffffffffff16600160e81b9190941602929092178555516001600160a01b038716815291925033917f30f76c775008e3e7351fdc109cbad6654f319035c83d92e5b0701c563bf15489910160405180910390a250505050565b6002546000906001600160a01b039081169083168114156119c05760405162461bcd60e51b815260206004820152602360248201527f4d616e61676561626c652f6578697374696e672d6d616e616765722d6164647260448201527f657373000000000000000000000000000000000000000000000000000000000060648201526084016105ea565b6002805473ffffffffffffffffffffffffffffffffffffffff19166001600160a01b0385811691821790925560405190918316907f9cb45c728de594dab506a1f1a8554e24c8eeaf983618d5ec5dd7bc6f3c49feee90600090a350600192915050565b60408051606081018252600080825260208201819052918101919091526040805180820190915260008082526020820152600080611a618787611b42565b9150508463ffffffff16816020015163ffffffff161415611a8a57859350915060009050611b01565b6000611aa48288600001516001600160d01b031688611bc2565b90508088886020015162ffffff1662ffffff8110611ac457611ac46126f3565b825160209093015163ffffffff16600160e01b026001600160e01b03909316929092179101556000611af588611c3d565b95509093506001925050505b93509350939050565b6000808263ffffffff168463ffffffff1611611b265783611b28565b825b9050611b378787878487611ca5565b979650505050505050565b6040805180820190915260008082526020820181905290611b71836020015162ffffff1662ffffff8016611d41565b9150838262ffffff1662ffffff8110611b8c57611b8c6126f3565b604080518082019091529101546001600160e01b0381168252600160e01b900463ffffffff166020820152919491935090915050565b60408051808201909152600080825260208201526040518060400160405280611c008660200151858663ffffffff16611d6f9092919063ffffffff16565b611c109063ffffffff16866125cb565b8651611c1c9190612519565b6001600160e01b031681526020018363ffffffff1681525090509392505050565b60408051606081018252600080825260208083018290529282015290820151611c6d9062ffffff90811690611e39565b62ffffff90811660208401526040830151811610156116d857600182604001818151611c99919061253b565b62ffffff169052505090565b6000806000611cb48888611e49565b91509150600080611cc58a8a611b42565b915091506000611cdb8b8b8487878a8f8e611ec6565b90506000611cef8c8c8588888b8f8f611ec6565b9050611d04816020015183602001518a611d6f565b63ffffffff1682600001518260000151611d1e919061265f565b611d289190612591565b6001600160e01b03169c9b505050505050505050505050565b600081611d5057506000610eb3565b6107586001611d5f8486612559565b611d69919061267f565b83612010565b60008163ffffffff168463ffffffff1611158015611d9957508163ffffffff168363ffffffff1611155b15611daf57611da88385612696565b9050610758565b60008263ffffffff168563ffffffff1611611dde57611dd963ffffffff8616640100000000612571565b611de6565b8463ffffffff165b64ffffffffff16905060008363ffffffff168563ffffffff1611611e1e57611e1963ffffffff8616640100000000612571565b611e26565b8463ffffffff165b64ffffffffff169050610e00818361267f565b6000610758611d69846001612559565b604080518082019091526000808252602082018190529082602001519150838262ffffff1662ffffff8110611e8057611e806126f3565b604080518082019091529101546001600160e01b0381168252600160e01b900463ffffffff1660208201819052909150611ebf57600091508382611b8c565b9250929050565b6040805180820190915260008082526020820152611ef98383896020015163ffffffff1661201c9092919063ffffffff16565b15611f1d57611f168789600001516001600160d01b031685611bc2565b9050612004565b8263ffffffff16876020015163ffffffff161415611f3c575085612004565b8263ffffffff16866020015163ffffffff161415611f5b575084612004565b611f7a8660200151838563ffffffff1661201c9092919063ffffffff16565b15611f9f5750604080518082019091526000815263ffffffff83166020820152612004565b600080611fb48b8888888e60400151896120eb565b915091506000611fcd8260200151846020015187611d6f565b63ffffffff1683600001518360000151611fe7919061265f565b611ff19190612591565b9050611ffe838288611bc2565b93505050505b98975050505050505050565b600061075882846126b3565b60008163ffffffff168463ffffffff161115801561204657508163ffffffff168363ffffffff1611155b15612061578263ffffffff168463ffffffff16109050610758565b60008263ffffffff168563ffffffff16116120905761208b63ffffffff8616640100000000612571565b612098565b8463ffffffff165b64ffffffffff16905060008363ffffffff168563ffffffff16116120d0576120cb63ffffffff8616640100000000612571565b6120d8565b8463ffffffff165b64ffffffffff1690911095945050505050565b6040805180820190915260008082526020820152604080518082019091526000808252602082015260008662ffffff1690506000818962ffffff1610612136578862ffffff16612151565b600161214762ffffff881684612559565b612151919061267f565b905060005b60026121628385612559565b61216c91906125b7565b90508a61217e828962ffffff16612010565b62ffffff1662ffffff8110612195576121956126f3565b604080518082019091529101546001600160e01b0381168252600160e01b900463ffffffff1660208201819052909550806121dd576121d5826001612559565b935050612156565b8b6121ed838a62ffffff16611e39565b62ffffff1662ffffff8110612204576122046126f3565b604080518082019091529101546001600160e01b038116825263ffffffff600160e01b9091048116602083015290955060009061224990838116908c908b906122b816565b905080801561227257506122728660200151898c63ffffffff166122b89092919063ffffffff16565b1561227e5750506122aa565b806122955761228e60018461267f565b93506122a3565b6122a0836001612559565b94505b5050612156565b505050965096945050505050565b60008163ffffffff168463ffffffff16111580156122e257508163ffffffff168363ffffffff1611155b156122fe578263ffffffff168463ffffffff1611159050610758565b60008263ffffffff168563ffffffff161161232d5761232863ffffffff8616640100000000612571565b612335565b8463ffffffff165b64ffffffffff16905060008363ffffffff168563ffffffff161161236d5761236863ffffffff8616640100000000612571565b612375565b8463ffffffff165b64ffffffffff169091111595945050505050565b60006020828403121561239b57600080fd5b813561075881612709565b600080604083850312156123b957600080fd5b82356123c481612709565b915060208301356123d481612709565b809150509250929050565b600080604083850312156123f257600080fd5b82356123fd81612709565b946020939093013593505050565b60008060006060848603121561242057600080fd5b833561242b81612709565b95602085013595506040909401359392505050565b60006020828403121561245257600080fd5b8151801515811461075857600080fd5b60006020828403121561247457600080fd5b5035919050565b600060208083528351808285015260005b818110156124a85785810183015185820160400152820161248c565b818111156124ba576000604083870101525b50601f017fffffffffffffffffffffffffffffffffffffffffffffffffffffffffffffffe016929092016040019392505050565b60006001600160d01b03808316818516808303821115612510576125106126c7565b01949350505050565b60006001600160e01b03808316818516808303821115612510576125106126c7565b600062ffffff808316818516808303821115612510576125106126c7565b6000821982111561256c5761256c6126c7565b500190565b600064ffffffffff808316818516808303821115612510576125106126c7565b60006001600160e01b03808416806125ab576125ab6126dd565b92169190910492915050565b6000826125c6576125c66126dd565b500490565b60006001600160e01b03808316818516818304811182151516156125f1576125f16126c7565b02949350505050565b6000817fffffffffffffffffffffffffffffffffffffffffffffffffffffffffffffffff0483118215151615612632576126326126c7565b500290565b60006001600160d01b0383811690831681811015612657576126576126c7565b039392505050565b60006001600160e01b0383811690831681811015612657576126576126c7565b600082821015612691576126916126c7565b500390565b600063ffffffff83811690831681811015612657576126576126c7565b6000826126c2576126c26126dd565b500690565b634e487b7160e01b600052601160045260246000fd5b634e487b7160e01b600052601260045260246000fd5b634e487b7160e01b600052603260045260246000fd5b6001600160a01b0381168114610f3457600080fdfea2646970667358221220fa88e2021082623c3a8e8e7880cb937a0b51c3683261de9c2335127a41b8e2ea64736f6c63430008060033",
  "devdoc": {
    "events": {
      "Deployed(address,address)": {
        "params": {
          "owner": "Address of the contract owner",
          "token": "Address of the token being staked in the gauge"
        }
      },
      "GaugeAdded(address,address)": {
        "params": {
          "gauge": "New Gauge address",
          "user": "Authorized address"
        }
      },
      "GaugeDecreased(address,address,uint256)": {
        "params": {
          "amount": "Amount of 'balance' debited from the Gauge and credited to the User",
          "gauge": "Existing Gauge address",
          "user": "User address"
        }
      },
      "GaugeIncreased(address,address,uint256)": {
        "params": {
          "amount": "Amount of 'balance' debited from the User and credited to the Gauge",
          "gauge": "Existing Gauge address",
          "user": "User address"
        }
      },
      "GaugeRemoved(address,address)": {
        "params": {
          "gauge": "Gauge address",
          "user": "Authorized address"
        }
      },
      "GaugeRewardSet(address)": {
        "params": {
          "gaugeReward": "Address of the newly set GaugeReward contract"
        }
      },
      "GaugeScaleSet(address,address,uint256,uint256)": {
        "params": {
          "gauge": "Gauge address",
          "oldScale": "Old Gauge scale",
          "scale": "New Gauge scale",
          "user": "Authorized address"
        }
      },
      "TokenDeposited(address,uint256)": {
        "params": {
          "amount": "Amount of 'token' deposited into the GaugeController",
          "user": "Address of the user who deposited 'token' into the GaugeController"
        }
      },
      "TokenWithdrawn(address,uint256)": {
        "params": {
          "amount": "Amount of 'token' withdrawn from the GaugeController",
          "user": "Address of the user who withdrew 'token' from the GaugeController"
        }
      }
    },
    "kind": "dev",
    "methods": {
      "addGauge(address)": {
        "params": {
          "_gauge": "Address of the Gauge"
        }
      },
      "addGaugeWithScale(address,uint256)": {
        "params": {
          "_gauge": "Address of new Gauge",
          "_scale": "Amount to scale new Gauge by"
        }
      },
      "claimOwnership()": {
        "details": "This function is only callable by the `_pendingOwner`."
      },
      "constructor": {
        "params": {
          "_owner": "Address of authorized owner",
          "_token": "ERC20 contract address (used to weight gauges)"
        }
      },
      "decreaseGauge(address,uint256)": {
        "params": {
          "_amount": "Amount of tokens to be debited from the Gauge balance and credited to the Gauge balance",
          "_gauge": "Address of the Gauge"
        }
      },
      "deposit(address,uint256)": {
        "params": {
          "_amount": "Amount of tokens to be deposited",
          "_to": "Receivzer of the deposited tokens"
        }
      },
      "getAverageGaugeBalanceBetween(address,uint256,uint256)": {
        "params": {
          "_endTime": "Unix timestamp to signal END of the Binary search",
          "_gauge": "Address of existing Gauge",
          "_startTime": "Unix timestamp to signal START of the Binary search"
        },
        "returns": {
          "_0": "uint256 Gauge average staked balance between two timestamps."
        }
      },
      "getAverageGaugeScaleBetween(address,uint256,uint256)": {
        "params": {
          "_endTime": "Unix timestamp to signal END of the Binary search",
          "_gauge": "Address of existing Gauge",
          "_startTime": "Unix timestamp to signal START of the Binary search"
        },
        "returns": {
          "_0": "uint256 Gauge average scaled balance between two timestamps."
        }
      },
      "getGaugeBalance(address)": {
        "params": {
          "_gauge": "Address of existing Gauge"
        },
        "returns": {
          "_0": "uint256 GaugeTWAB.details.balance"
        }
      },
      "getGaugeScaleBalance(address)": {
        "params": {
          "_gauge": "Address of existing Gauge"
        },
        "returns": {
          "_0": "uint256 GaugeScaleTWAB.details.balance"
        }
      },
      "getScaledAverageGaugeBalanceBetween(address,uint256,uint256)": {
        "params": {
          "_endTime": "Unix timestamp to signal END of the Binary search",
          "_gauge": "Address of existing Gauge",
          "_startTime": "Unix timestamp to signal START of the Binary search"
        },
        "returns": {
          "_0": "uint256 Weighted(Staked * Scaled) Gauge Balance"
        }
      },
      "getUserGaugeBalance(address,address)": {
        "params": {
          "_gauge": "Address of the gauge to get stake balance for",
          "_user": "Address of the user to get stake balance for"
        },
        "returns": {
          "_0": "The user gauge balance"
        }
      },
      "increaseGauge(address,uint256)": {
        "params": {
          "_amount": "Amount of tokens to be debited from the User balance and credited to the Gauge balance",
          "_gauge": "Address of the Gauge"
        }
      },
      "isGauge(address)": {
        "details": "Only reliable to check if a Gauge has been created AND also staked on.Uses the TWAB balance to determine \"isGauge\" status.",
        "params": {
          "_gauge": "Gauge address to check."
        },
        "returns": {
          "_0": "True if gauge is active. False otherwise."
        }
      },
      "manager()": {
        "returns": {
          "_0": "Current `_manager` address."
        }
      },
      "pendingOwner()": {
        "returns": {
          "_0": "Current `_pendingOwner` address."
        }
      },
      "removeGauge(address)": {
        "params": {
          "_gauge": "Address of existing Gauge"
        }
      },
      "renounceOwnership()": {
        "details": "Leaves the contract without owner. It will not be possible to call `onlyOwner` functions anymore. Can only be called by the current owner. NOTE: Renouncing ownership will leave the contract without an owner, thereby removing any functionality that is only available to the owner."
      },
      "setGaugeReward(address)": {
        "params": {
          "_gaugeReward": "Address of the GaugeReward contract"
        }
      },
      "setGaugeScale(address,uint256)": {
        "params": {
          "_gauge": "Address of existing Gauge",
          "_scale": "Amount to scale existing Gauge by"
        }
      },
      "setManager(address)": {
        "details": "Throws if called by any account other than the owner.",
        "params": {
          "_newManager": "New _manager address."
        },
        "returns": {
          "_0": "Boolean to indicate if the operation was successful or not."
        }
      },
      "transferOwnership(address)": {
        "params": {
          "_newOwner": "Address to transfer ownership to."
        }
      },
      "withdraw(uint256)": {
        "params": {
          "_amount": "Amount of tokens to be withdrawn"
        }
      }
    },
    "stateVariables": {
      "balances": {
        "details": "The balance is updated in deposit, withthdraw, gaugeIncrease and gaugeDecrease. ----------------------------- | Address     | Balance     | | ----------- | ----------- | | 0x111...111 | 0x1000      | | 0x222...222 | 0x100000    | -----------------------------"
      },
      "rewards": {
        "details": "The rewards is updated in ----------------------------- | Address     | Rewards     | | ----------- | ----------- | | 0x111...111 | 0x100000    | | 0x222...222 | 0x500000    | -----------------------------"
      },
      "userGaugeBalance": {
        "details": "The balance is updated in gaugeIncrease and gaugeDecrease. ---------------------------------------------- | User        \t| Gauge       \t| Balance \t| |-------------\t|-------------\t|---------\t| | 0x111...111 \t| 0x999...999 \t| 0x10000  \t| | 0x111...111 \t| 0x999...999 \t| 0x30000 \t| | 0x111...111 \t| 0x999...999 \t| 0x50000  \t| ----------------------------------------------"
      }
    },
    "version": 1
  },
  "userdoc": {
    "events": {
      "Deployed(address,address)": {
        "notice": "Event emitted when the contract is deployed"
      },
      "GaugeAdded(address,address)": {
        "notice": "Emitted when an Authorized User adds a new Gauge to the GaugeController"
      },
      "GaugeDecreased(address,address,uint256)": {
        "notice": "Emitted when User decrease a Gauge weight."
      },
      "GaugeIncreased(address,address,uint256)": {
        "notice": "Emitted when User increases a Gauge weight."
      },
      "GaugeRemoved(address,address)": {
        "notice": "Emitted when an Authorized User removes an existing Gauge from the GaugeController"
      },
      "GaugeRewardSet(address)": {
        "notice": "Emitted when GaugeReward address is set/updated"
      },
      "GaugeScaleSet(address,address,uint256,uint256)": {
        "notice": "Emitted when an Authorized User sets an existing Gauge 'scale' weight."
      },
      "TokenDeposited(address,uint256)": {
        "notice": "Emitted when User deposits 'token' into the gauge."
      },
      "TokenWithdrawn(address,uint256)": {
        "notice": "Emitted when User withdraws 'token' from the gauge."
      }
    },
    "kind": "user",
    "methods": {
      "addGauge(address)": {
        "notice": "Add new gauge with \"1e18\" scale to the GaugeController."
      },
      "addGaugeWithScale(address,uint256)": {
        "notice": "Add new gauge and target scale to the GaugeController."
      },
      "balances(address)": {
        "notice": "Tracks user balance. Balance is used to update target gauge weight balances."
      },
      "claimOwnership()": {
        "notice": "Allows the `_pendingOwner` address to finalize the transfer."
      },
      "constructor": {
        "notice": "GaugeController Construction"
      },
      "decreaseGauge(address,uint256)": {
        "notice": "Decrease Gauge balance and increase User staked balance."
      },
      "deposit(address,uint256)": {
        "notice": "Deposit tokens in GaugeController and increase User balance."
      },
      "gaugeReward()": {
        "notice": "GaugeReward for stakers rewards/incentives"
      },
      "getAverageGaugeBalanceBetween(address,uint256,uint256)": {
        "notice": "Calculate Gauge average balance between two timestamps."
      },
      "getAverageGaugeScaleBetween(address,uint256,uint256)": {
        "notice": "Calculate Gauge average scale between two timestamps."
      },
      "getGaugeBalance(address)": {
        "notice": "Read Gauge balance."
      },
      "getGaugeScaleBalance(address)": {
        "notice": "Read Gauge scaled balance."
      },
      "getScaledAverageGaugeBalanceBetween(address,uint256,uint256)": {
        "notice": "Calculate Gauge weighted balance using Staked AND Scaled time-weighted average balances."
      },
      "getUserGaugeBalance(address,address)": {
        "notice": "Get the user stake balance for a given gauge"
      },
      "increaseGauge(address,uint256)": {
        "notice": "Increase Gauge balance by decreasing User staked balance."
      },
      "isGauge(address)": {
        "notice": "Checks gauge status by reading the TWAB balance"
      },
      "manager()": {
        "notice": "Gets current `_manager`."
      },
      "owner()": {
        "notice": "Returns the address of the current owner."
      },
      "pendingOwner()": {
        "notice": "Gets current `_pendingOwner`."
      },
      "removeGauge(address)": {
        "notice": "Remove gauge from the GaugeController."
      },
      "renounceOwnership()": {
        "notice": "Renounce ownership of the contract."
      },
      "rewards(address)": {
        "notice": "Tracks user rewards for staking."
      },
      "setGaugeReward(address)": {
        "notice": "Set GaugeReward contract"
      },
      "setGaugeScale(address,uint256)": {
        "notice": "Set Gauge target scale."
      },
      "setManager(address)": {
        "notice": "Set or change of manager."
      },
      "token()": {
        "notice": "ERC20 token contract address (used to weight gauges)"
      },
      "transferOwnership(address)": {
        "notice": "Allows current owner to set the `_pendingOwner` address."
      },
      "userGaugeBalance(address,address)": {
        "notice": "Tracks User => Gauge => balance."
      },
      "withdraw(uint256)": {
        "notice": "Withdraw tokens in GaugeController and increase User balance."
      }
    },
    "version": 1
  },
  "storageLayout": {
    "storage": [
      {
        "astId": 4303,
        "contract": "contracts/GaugeController.sol:GaugeController",
        "label": "_owner",
        "offset": 0,
        "slot": "0",
        "type": "t_address"
      },
      {
        "astId": 4305,
        "contract": "contracts/GaugeController.sol:GaugeController",
        "label": "_pendingOwner",
        "offset": 0,
        "slot": "1",
        "type": "t_address"
      },
      {
        "astId": 4201,
        "contract": "contracts/GaugeController.sol:GaugeController",
        "label": "_manager",
        "offset": 0,
        "slot": "2",
        "type": "t_address"
      },
      {
        "astId": 10212,
        "contract": "contracts/GaugeController.sol:GaugeController",
        "label": "token",
        "offset": 0,
        "slot": "3",
        "type": "t_contract(IERC20)663"
      },
      {
        "astId": 10216,
        "contract": "contracts/GaugeController.sol:GaugeController",
        "label": "gaugeReward",
        "offset": 0,
        "slot": "4",
        "type": "t_contract(IGaugeReward)16479"
      },
      {
        "astId": 10221,
        "contract": "contracts/GaugeController.sol:GaugeController",
        "label": "balances",
        "offset": 0,
        "slot": "5",
        "type": "t_mapping(t_address,t_uint256)"
      },
      {
        "astId": 10228,
        "contract": "contracts/GaugeController.sol:GaugeController",
        "label": "userGaugeBalance",
        "offset": 0,
        "slot": "6",
        "type": "t_mapping(t_address,t_mapping(t_address,t_uint256))"
      },
      {
        "astId": 10233,
        "contract": "contracts/GaugeController.sol:GaugeController",
        "label": "rewards",
        "offset": 0,
        "slot": "7",
        "type": "t_mapping(t_address,t_uint256)"
      },
      {
        "astId": 10239,
        "contract": "contracts/GaugeController.sol:GaugeController",
        "label": "gaugeTwabs",
        "offset": 0,
        "slot": "8",
        "type": "t_mapping(t_address,t_struct(Account)18617_storage)"
      },
      {
        "astId": 10245,
        "contract": "contracts/GaugeController.sol:GaugeController",
        "label": "gaugeScaleTwabs",
        "offset": 0,
        "slot": "9",
        "type": "t_mapping(t_address,t_struct(Account)18617_storage)"
      }
    ],
    "types": {
      "t_address": {
        "encoding": "inplace",
        "label": "address",
        "numberOfBytes": "20"
      },
      "t_array(t_struct(Observation)18189_storage)16777215_storage": {
        "base": "t_struct(Observation)18189_storage",
        "encoding": "inplace",
        "label": "struct ObservationLib.Observation[16777215]",
        "numberOfBytes": "536870880"
      },
      "t_contract(IERC20)663": {
        "encoding": "inplace",
        "label": "contract IERC20",
        "numberOfBytes": "20"
      },
      "t_contract(IGaugeReward)16479": {
        "encoding": "inplace",
        "label": "contract IGaugeReward",
        "numberOfBytes": "20"
      },
      "t_mapping(t_address,t_mapping(t_address,t_uint256))": {
        "encoding": "mapping",
        "key": "t_address",
        "label": "mapping(address => mapping(address => uint256))",
        "numberOfBytes": "32",
        "value": "t_mapping(t_address,t_uint256)"
      },
      "t_mapping(t_address,t_struct(Account)18617_storage)": {
        "encoding": "mapping",
        "key": "t_address",
        "label": "mapping(address => struct TwabLib.Account)",
        "numberOfBytes": "32",
        "value": "t_struct(Account)18617_storage"
      },
      "t_mapping(t_address,t_uint256)": {
        "encoding": "mapping",
        "key": "t_address",
        "label": "mapping(address => uint256)",
        "numberOfBytes": "32",
        "value": "t_uint256"
      },
      "t_struct(Account)18617_storage": {
        "encoding": "inplace",
        "label": "struct TwabLib.Account",
        "members": [
          {
            "astId": 18611,
            "contract": "contracts/GaugeController.sol:GaugeController",
            "label": "details",
            "offset": 0,
            "slot": "0",
            "type": "t_struct(AccountDetails)18608_storage"
          },
          {
            "astId": 18616,
            "contract": "contracts/GaugeController.sol:GaugeController",
            "label": "twabs",
            "offset": 0,
            "slot": "1",
            "type": "t_array(t_struct(Observation)18189_storage)16777215_storage"
          }
        ],
        "numberOfBytes": "536870912"
      },
      "t_struct(AccountDetails)18608_storage": {
        "encoding": "inplace",
        "label": "struct TwabLib.AccountDetails",
        "members": [
          {
            "astId": 18603,
            "contract": "contracts/GaugeController.sol:GaugeController",
            "label": "balance",
            "offset": 0,
            "slot": "0",
            "type": "t_uint208"
          },
          {
            "astId": 18605,
            "contract": "contracts/GaugeController.sol:GaugeController",
            "label": "nextTwabIndex",
            "offset": 26,
            "slot": "0",
            "type": "t_uint24"
          },
          {
            "astId": 18607,
            "contract": "contracts/GaugeController.sol:GaugeController",
            "label": "cardinality",
            "offset": 29,
            "slot": "0",
            "type": "t_uint24"
          }
        ],
        "numberOfBytes": "32"
      },
      "t_struct(Observation)18189_storage": {
        "encoding": "inplace",
        "label": "struct ObservationLib.Observation",
        "members": [
          {
            "astId": 18186,
            "contract": "contracts/GaugeController.sol:GaugeController",
            "label": "amount",
            "offset": 0,
            "slot": "0",
            "type": "t_uint224"
          },
          {
            "astId": 18188,
            "contract": "contracts/GaugeController.sol:GaugeController",
            "label": "timestamp",
            "offset": 28,
            "slot": "0",
            "type": "t_uint32"
          }
        ],
        "numberOfBytes": "32"
      },
      "t_uint208": {
        "encoding": "inplace",
        "label": "uint208",
        "numberOfBytes": "26"
      },
      "t_uint224": {
        "encoding": "inplace",
        "label": "uint224",
        "numberOfBytes": "28"
      },
      "t_uint24": {
        "encoding": "inplace",
        "label": "uint24",
        "numberOfBytes": "3"
      },
      "t_uint256": {
        "encoding": "inplace",
        "label": "uint256",
        "numberOfBytes": "32"
      },
      "t_uint32": {
        "encoding": "inplace",
        "label": "uint32",
        "numberOfBytes": "4"
      }
    }
  }
}