{
  "address": "0x2a6e3cc5D4DABb12F2cE3F9788B6f5af9735D8E8",
  "abi": [
    {
      "inputs": [
        {
          "internalType": "string",
          "name": "_name",
          "type": "string"
        },
        {
          "internalType": "string",
          "name": "_symbol",
          "type": "string"
        },
        {
          "internalType": "uint8",
          "name": "decimals_",
          "type": "uint8"
        }
      ],
      "stateMutability": "nonpayable",
      "type": "constructor"
    },
    {
      "anonymous": false,
      "inputs": [
        {
          "indexed": true,
          "internalType": "address",
          "name": "owner",
          "type": "address"
        },
        {
          "indexed": true,
          "internalType": "address",
          "name": "spender",
          "type": "address"
        },
        {
          "indexed": false,
          "internalType": "uint256",
          "name": "value",
          "type": "uint256"
        }
      ],
      "name": "Approval",
      "type": "event"
    },
    {
      "anonymous": false,
      "inputs": [
        {
          "indexed": true,
          "internalType": "address",
          "name": "from",
          "type": "address"
        },
        {
          "indexed": true,
          "internalType": "address",
          "name": "to",
          "type": "address"
        },
        {
          "indexed": false,
          "internalType": "uint256",
          "name": "value",
          "type": "uint256"
        }
      ],
      "name": "Transfer",
      "type": "event"
    },
    {
      "inputs": [
        {
          "internalType": "address",
          "name": "owner",
          "type": "address"
        },
        {
          "internalType": "address",
          "name": "spender",
          "type": "address"
        }
      ],
      "name": "allowance",
      "outputs": [
        {
          "internalType": "uint256",
          "name": "",
          "type": "uint256"
        }
      ],
      "stateMutability": "view",
      "type": "function"
    },
    {
      "inputs": [
        {
          "internalType": "address",
          "name": "spender",
          "type": "address"
        },
        {
          "internalType": "uint256",
          "name": "amount",
          "type": "uint256"
        }
      ],
      "name": "approve",
      "outputs": [
        {
          "internalType": "bool",
          "name": "",
          "type": "bool"
        }
      ],
      "stateMutability": "nonpayable",
      "type": "function"
    },
    {
      "inputs": [
        {
          "internalType": "address",
          "name": "account",
          "type": "address"
        }
      ],
      "name": "balanceOf",
      "outputs": [
        {
          "internalType": "uint256",
          "name": "",
          "type": "uint256"
        }
      ],
      "stateMutability": "view",
      "type": "function"
    },
    {
      "inputs": [
        {
          "internalType": "address",
          "name": "addr",
          "type": "address"
        }
      ],
      "name": "balanceOfToken",
      "outputs": [
        {
          "internalType": "uint256",
          "name": "",
          "type": "uint256"
        }
      ],
      "stateMutability": "nonpayable",
      "type": "function"
    },
    {
      "inputs": [],
      "name": "decimals",
      "outputs": [
        {
          "internalType": "uint8",
          "name": "",
          "type": "uint8"
        }
      ],
      "stateMutability": "view",
      "type": "function"
    },
    {
      "inputs": [
        {
          "internalType": "address",
          "name": "spender",
          "type": "address"
        },
        {
          "internalType": "uint256",
          "name": "subtractedValue",
          "type": "uint256"
        }
      ],
      "name": "decreaseAllowance",
      "outputs": [
        {
          "internalType": "bool",
          "name": "",
          "type": "bool"
        }
      ],
      "stateMutability": "nonpayable",
      "type": "function"
    },
    {
      "inputs": [],
      "name": "depositToken",
      "outputs": [
        {
          "internalType": "address",
          "name": "",
          "type": "address"
        }
      ],
      "stateMutability": "view",
      "type": "function"
    },
    {
      "inputs": [
        {
          "internalType": "address",
          "name": "spender",
          "type": "address"
        },
        {
          "internalType": "uint256",
          "name": "addedValue",
          "type": "uint256"
        }
      ],
      "name": "increaseAllowance",
      "outputs": [
        {
          "internalType": "bool",
          "name": "",
          "type": "bool"
        }
      ],
      "stateMutability": "nonpayable",
      "type": "function"
    },
    {
      "inputs": [],
      "name": "lastYieldTimestamp",
      "outputs": [
        {
          "internalType": "uint256",
          "name": "",
          "type": "uint256"
        }
      ],
      "stateMutability": "view",
      "type": "function"
    },
    {
      "inputs": [],
      "name": "name",
      "outputs": [
        {
          "internalType": "string",
          "name": "",
          "type": "string"
        }
      ],
      "stateMutability": "view",
      "type": "function"
    },
    {
      "inputs": [],
      "name": "ratePerSecond",
      "outputs": [
        {
          "internalType": "uint256",
          "name": "",
          "type": "uint256"
        }
      ],
      "stateMutability": "view",
      "type": "function"
    },
    {
      "inputs": [
        {
          "internalType": "uint256",
          "name": "amount",
          "type": "uint256"
        }
      ],
      "name": "redeemToken",
      "outputs": [
        {
          "internalType": "uint256",
          "name": "",
          "type": "uint256"
        }
      ],
      "stateMutability": "nonpayable",
      "type": "function"
    },
    {
      "inputs": [
        {
          "internalType": "uint256",
          "name": "_ratePerSecond",
          "type": "uint256"
        }
      ],
      "name": "setRatePerSecond",
      "outputs": [],
      "stateMutability": "nonpayable",
      "type": "function"
    },
    {
      "inputs": [
        {
          "internalType": "uint256",
          "name": "shares",
          "type": "uint256"
        }
      ],
      "name": "sharesToTokens",
      "outputs": [
        {
          "internalType": "uint256",
          "name": "",
          "type": "uint256"
        }
      ],
      "stateMutability": "view",
      "type": "function"
    },
    {
      "inputs": [
        {
          "internalType": "uint256",
          "name": "amount",
          "type": "uint256"
        },
        {
          "internalType": "address",
          "name": "to",
          "type": "address"
        }
      ],
      "name": "supplyTokenTo",
      "outputs": [],
      "stateMutability": "nonpayable",
      "type": "function"
    },
    {
      "inputs": [],
      "name": "symbol",
      "outputs": [
        {
          "internalType": "string",
          "name": "",
          "type": "string"
        }
      ],
      "stateMutability": "view",
      "type": "function"
    },
    {
      "inputs": [],
      "name": "token",
      "outputs": [
        {
          "internalType": "contract ERC20Mintable",
          "name": "",
          "type": "address"
        }
      ],
      "stateMutability": "view",
      "type": "function"
    },
    {
      "inputs": [
        {
          "internalType": "uint256",
          "name": "tokens",
          "type": "uint256"
        }
      ],
      "name": "tokensToShares",
      "outputs": [
        {
          "internalType": "uint256",
          "name": "",
          "type": "uint256"
        }
      ],
      "stateMutability": "view",
      "type": "function"
    },
    {
      "inputs": [],
      "name": "totalSupply",
      "outputs": [
        {
          "internalType": "uint256",
          "name": "",
          "type": "uint256"
        }
      ],
      "stateMutability": "view",
      "type": "function"
    },
    {
      "inputs": [
        {
          "internalType": "address",
          "name": "recipient",
          "type": "address"
        },
        {
          "internalType": "uint256",
          "name": "amount",
          "type": "uint256"
        }
      ],
      "name": "transfer",
      "outputs": [
        {
          "internalType": "bool",
          "name": "",
          "type": "bool"
        }
      ],
      "stateMutability": "nonpayable",
      "type": "function"
    },
    {
      "inputs": [
        {
          "internalType": "address",
          "name": "sender",
          "type": "address"
        },
        {
          "internalType": "address",
          "name": "recipient",
          "type": "address"
        },
        {
          "internalType": "uint256",
          "name": "amount",
          "type": "uint256"
        }
      ],
      "name": "transferFrom",
      "outputs": [
        {
          "internalType": "bool",
          "name": "",
          "type": "bool"
        }
      ],
      "stateMutability": "nonpayable",
      "type": "function"
    },
    {
      "inputs": [
        {
          "internalType": "uint256",
          "name": "amount",
          "type": "uint256"
        }
      ],
      "name": "yield",
      "outputs": [],
      "stateMutability": "nonpayable",
      "type": "function"
    }
  ],
  "transactionHash": "0xa347e8c72a665850f50f9327e751a9e8aa2fd4d9274dc79017fb92bcc1ac0f54",
  "args": [
    "PoolTogether DAI Token 10% APY",
    "PTDAI10",
    18
  ],
  "numDeployments": 1,
  "solcInputHash": "8bf911a82cbfe311b85456a2a6406c46",
  "bytecode": "0x60806040523480156200001157600080fd5b506040516200315538038062003155833981016040819052620000349162000264565b60405180604001604052806005815260200164165251531160da1b8152506040518060400160405280600381526020016216531160ea1b8152508160039080519060200190620000869291906200011f565b5080516200009c9060049060208401906200011f565b50505082828233604051620000b190620001ae565b620000c0949392919062000317565b604051809103906000f080158015620000dd573d6000803e3d6000fd5b50600580546001600160a01b0319166001600160a01b0392909216919091179055426007556008805460ff191660ff9290921691909117905550620003eb9050565b8280546200012d9062000398565b90600052602060002090601f0160209004810192826200015157600085556200019c565b82601f106200016c57805160ff19168380011785556200019c565b828001600101855582156200019c579182015b828111156200019c5782518255916020019190600101906200017f565b50620001aa929150620001bc565b5090565b6119e8806200176d83390190565b5b80821115620001aa5760008155600101620001bd565b600082601f830112620001e557600080fd5b81516001600160401b0380821115620002025762000202620003d5565b604051601f8301601f19908116603f011681019082821181831017156200022d576200022d620003d5565b816040528381528660208588010111156200024757600080fd5b6200025a84602083016020890162000365565b9695505050505050565b6000806000606084860312156200027a57600080fd5b83516001600160401b03808211156200029257600080fd5b620002a087838801620001d3565b94506020860151915080821115620002b757600080fd5b50620002c686828701620001d3565b925050604084015160ff81168114620002de57600080fd5b809150509250925092565b600081518084526200030381602086016020860162000365565b601f01601f19169290920160200192915050565b6080815260006200032c6080830187620002e9565b8281036020840152620003408187620002e9565b60ff95909516604084015250506001600160a01b039190911660609091015292915050565b60005b838110156200038257818101518382015260200162000368565b8381111562000392576000848401525b50505050565b600181811c90821680620003ad57607f821691505b60208210811415620003cf57634e487b7160e01b600052602260045260246000fd5b50919050565b634e487b7160e01b600052604160045260246000fd5b61137280620003fb6000396000f3fe608060405234801561001057600080fd5b50600436106101825760003560e01c806387a6eeef116100d8578063b99152d01161008c578063e8fe76d511610066578063e8fe76d51461033d578063f3044ac714610350578063fc0c546a1461036357600080fd5b8063b99152d0146102cc578063c89039c5146102df578063dd62ed3e1461030457600080fd5b806395d89b41116100bd57806395d89b411461029e578063a457c2d7146102a6578063a9059cbb146102b957600080fd5b806387a6eeef146102825780638eff1a981461029557600080fd5b806323b872dd1161013a5780633950935111610114578063395093511461023157806370a0823114610244578063765287ef1461026d57600080fd5b806323b872dd146101f657806327def4fd14610209578063313ce5671461021c57600080fd5b8063095ea7b31161016b578063095ea7b3146101c257806318160ddd146101e5578063201469a8146101ed57600080fd5b8063013054c21461018757806306fdde03146101ad575b600080fd5b61019a61019536600461119b565b610376565b6040519081526020015b60405180910390f35b6101b561043c565b6040516101a491906111f0565b6101d56101d036600461114f565b6104ce565b60405190151581526020016101a4565b60025461019a565b61019a60075481565b6101d5610204366004611113565b6104e4565b61019a61021736600461119b565b6105a8565b60085460405160ff90911681526020016101a4565b6101d561023f36600461114f565b61065e565b61019a6102523660046110c5565b6001600160a01b031660009081526020819052604090205490565b61028061027b36600461119b565b61069a565b005b6102806102903660046111cd565b61071a565b61019a60065481565b6101b56107e1565b6101d56102b436600461114f565b6107f0565b6101d56102c736600461114f565b6108a1565b61019a6102da3660046110c5565b6108ae565b6005546001600160a01b03165b6040516001600160a01b0390911681526020016101a4565b61019a6103123660046110e0565b6001600160a01b03918216600090815260016020908152604080832093909416825291909152205490565b61028061034b36600461119b565b6108e0565b61019a61035e36600461119b565b6108f1565b6005546102ec906001600160a01b031681565b6000610380610989565b600061038b836108f1565b90506103973382610ad5565b6005546040517fa9059cbb000000000000000000000000000000000000000000000000000000008152336004820152602481018590526001600160a01b039091169063a9059cbb90604401602060405180830381600087803b1580156103fc57600080fd5b505af1158015610410573d6000803e3d6000fd5b505050506040513d601f19601f820116820180604052508101906104349190611179565b509192915050565b60606003805461044b906112f1565b80601f0160208091040260200160405190810160405280929190818152602001828054610477906112f1565b80156104c45780601f10610499576101008083540402835291602001916104c4565b820191906000526020600020905b8154815290600101906020018083116104a757829003601f168201915b5050505050905090565b60006104db338484610c5a565b50600192915050565b60006104f1848484610db2565b6001600160a01b0384166000908152600160209081526040808320338452909152902054828110156105905760405162461bcd60e51b815260206004820152602860248201527f45524332303a207472616e7366657220616d6f756e742065786365656473206160448201527f6c6c6f77616e636500000000000000000000000000000000000000000000000060648201526084015b60405180910390fd5b61059d8533858403610c5a565b506001949350505050565b6000806105b460025490565b9050806105c2575090919050565b6005546040516370a0823160e01b815230600482015282916001600160a01b0316906370a082319060240160206040518083038186803b15801561060557600080fd5b505afa158015610619573d6000803e3d6000fd5b505050506040513d601f19601f8201168201806040525081019061063d91906111b4565b610647908561129d565b610651919061127b565b9392505050565b50919050565b3360008181526001602090815260408083206001600160a01b038716845290915281205490916104db918590610695908690611263565b610c5a565b6005546040517f40c10f19000000000000000000000000000000000000000000000000000000008152306004820152602481018390526001600160a01b03909116906340c10f1990604401600060405180830381600087803b1580156106ff57600080fd5b505af1158015610713573d6000803e3d6000fd5b5050505050565b610722610989565b600061072d836108f1565b6005546040517f23b872dd000000000000000000000000000000000000000000000000000000008152336004820152306024820152604481018690529192506001600160a01b0316906323b872dd90606401602060405180830381600087803b15801561079957600080fd5b505af11580156107ad573d6000803e3d6000fd5b505050506040513d601f19601f820116820180604052508101906107d19190611179565b506107dc8282610fca565b505050565b60606004805461044b906112f1565b3360009081526001602090815260408083206001600160a01b03861684529091528120548281101561088a5760405162461bcd60e51b815260206004820152602560248201527f45524332303a2064656372656173656420616c6c6f77616e63652062656c6f7760448201527f207a65726f0000000000000000000000000000000000000000000000000000006064820152608401610587565b6108973385858403610c5a565b5060019392505050565b60006104db338484610db2565b60006108b8610989565b6108da610217836001600160a01b031660009081526020819052604090205490565b92915050565b6108e8610989565b42600755600655565b6005546040516370a0823160e01b815230600482015260009182916001600160a01b03909116906370a082319060240160206040518083038186803b15801561093957600080fd5b505afa15801561094d573d6000803e3d6000fd5b505050506040513d601f19601f8201168201806040525081019061097191906111b4565b90508061097f575090919050565b8061063d60025490565b60006007544261099991906112da565b90506000600654826109ab919061129d565b6005546040516370a0823160e01b81523060048201529192506000916001600160a01b03909116906370a082319060240160206040518083038186803b1580156109f457600080fd5b505afa158015610a08573d6000803e3d6000fd5b505050506040513d601f19601f82011682018060405250810190610a2c91906111b4565b90506000670de0b6b3a7640000610a43838561129d565b610a4d919061127b565b6005546040517f40c10f19000000000000000000000000000000000000000000000000000000008152306004820152602481018390529192506001600160a01b0316906340c10f1990604401600060405180830381600087803b158015610ab357600080fd5b505af1158015610ac7573d6000803e3d6000fd5b505042600755505050505050565b6001600160a01b038216610b515760405162461bcd60e51b815260206004820152602160248201527f45524332303a206275726e2066726f6d20746865207a65726f2061646472657360448201527f73000000000000000000000000000000000000000000000000000000000000006064820152608401610587565b6001600160a01b03821660009081526020819052604090205481811015610be05760405162461bcd60e51b815260206004820152602260248201527f45524332303a206275726e20616d6f756e7420657863656564732062616c616e60448201527f63650000000000000000000000000000000000000000000000000000000000006064820152608401610587565b6001600160a01b0383166000908152602081905260408120838303905560028054849290610c0f9084906112da565b90915550506040518281526000906001600160a01b038516907fddf252ad1be2c89b69c2b068fc378daa952ba7f163c4a11628f55a4df523b3ef9060200160405180910390a3505050565b6001600160a01b038316610cd55760405162461bcd60e51b8152602060048201526024808201527f45524332303a20617070726f76652066726f6d20746865207a65726f2061646460448201527f72657373000000000000000000000000000000000000000000000000000000006064820152608401610587565b6001600160a01b038216610d515760405162461bcd60e51b815260206004820152602260248201527f45524332303a20617070726f766520746f20746865207a65726f20616464726560448201527f73730000000000000000000000000000000000000000000000000000000000006064820152608401610587565b6001600160a01b0383811660008181526001602090815260408083209487168084529482529182902085905590518481527f8c5be1e5ebec7d5bd14f71427d1e84f3dd0314c0f7b2291e5b200ac8c7c3b925910160405180910390a3505050565b6001600160a01b038316610e2e5760405162461bcd60e51b815260206004820152602560248201527f45524332303a207472616e736665722066726f6d20746865207a65726f20616460448201527f64726573730000000000000000000000000000000000000000000000000000006064820152608401610587565b6001600160a01b038216610eaa5760405162461bcd60e51b815260206004820152602360248201527f45524332303a207472616e7366657220746f20746865207a65726f206164647260448201527f65737300000000000000000000000000000000000000000000000000000000006064820152608401610587565b6001600160a01b03831660009081526020819052604090205481811015610f395760405162461bcd60e51b815260206004820152602660248201527f45524332303a207472616e7366657220616d6f756e742065786365656473206260448201527f616c616e636500000000000000000000000000000000000000000000000000006064820152608401610587565b6001600160a01b03808516600090815260208190526040808220858503905591851681529081208054849290610f70908490611263565b92505081905550826001600160a01b0316846001600160a01b03167fddf252ad1be2c89b69c2b068fc378daa952ba7f163c4a11628f55a4df523b3ef84604051610fbc91815260200190565b60405180910390a350505050565b6001600160a01b0382166110205760405162461bcd60e51b815260206004820152601f60248201527f45524332303a206d696e7420746f20746865207a65726f2061646472657373006044820152606401610587565b80600260008282546110329190611263565b90915550506001600160a01b0382166000908152602081905260408120805483929061105f908490611263565b90915550506040518181526001600160a01b038316906000907fddf252ad1be2c89b69c2b068fc378daa952ba7f163c4a11628f55a4df523b3ef9060200160405180910390a35050565b80356001600160a01b03811681146110c057600080fd5b919050565b6000602082840312156110d757600080fd5b610651826110a9565b600080604083850312156110f357600080fd5b6110fc836110a9565b915061110a602084016110a9565b90509250929050565b60008060006060848603121561112857600080fd5b611131846110a9565b925061113f602085016110a9565b9150604084013590509250925092565b6000806040838503121561116257600080fd5b61116b836110a9565b946020939093013593505050565b60006020828403121561118b57600080fd5b8151801515811461065157600080fd5b6000602082840312156111ad57600080fd5b5035919050565b6000602082840312156111c657600080fd5b5051919050565b600080604083850312156111e057600080fd5b8235915061110a602084016110a9565b600060208083528351808285015260005b8181101561121d57858101830151858201604001528201611201565b8181111561122f576000604083870101525b50601f017fffffffffffffffffffffffffffffffffffffffffffffffffffffffffffffffe016929092016040019392505050565b6000821982111561127657611276611326565b500190565b60008261129857634e487b7160e01b600052601260045260246000fd5b500490565b6000817fffffffffffffffffffffffffffffffffffffffffffffffffffffffffffffffff04831182151516156112d5576112d5611326565b500290565b6000828210156112ec576112ec611326565b500390565b600181811c9082168061130557607f821691505b6020821081141561065857634e487b7160e01b600052602260045260246000fd5b634e487b7160e01b600052601160045260246000fdfea26469706673582212208c1595553ec048e69be12da00243ecde0d7f7a03d9d80dbe9146ba470714ab9f64736f6c6343000806003360806040523480156200001157600080fd5b50604051620019e8380380620019e88339810160408190526200003491620002ba565b8351849084906200004d9060039060208501906200015d565b508051620000639060049060208401906200015d565b50506006805460ff191660ff85161790555062000082600082620000b8565b620000ae7f9f2df0fed2c77648de5860a4cc508cd0818c85b8b8a1ab4ceeef8d981c8956a682620000b8565b50505050620003b1565b60008281526005602090815260408083206001600160a01b038516845290915290205460ff16620001595760008281526005602090815260408083206001600160a01b03851684529091529020805460ff19166001179055620001183390565b6001600160a01b0316816001600160a01b0316837f2f8788117e7eff1d82e926ec794901d17c78024a50270940304540a733656f0d60405160405180910390a45b5050565b8280546200016b906200035e565b90600052602060002090601f0160209004810192826200018f5760008555620001da565b82601f10620001aa57805160ff1916838001178555620001da565b82800160010185558215620001da579182015b82811115620001da578251825591602001919060010190620001bd565b50620001e8929150620001ec565b5090565b5b80821115620001e85760008155600101620001ed565b600082601f8301126200021557600080fd5b81516001600160401b03808211156200023257620002326200039b565b604051601f8301601f19908116603f011681019082821181831017156200025d576200025d6200039b565b816040528381526020925086838588010111156200027a57600080fd5b600091505b838210156200029e57858201830151818301840152908201906200027f565b83821115620002b05760008385830101525b9695505050505050565b60008060008060808587031215620002d157600080fd5b84516001600160401b0380821115620002e957600080fd5b620002f78883890162000203565b955060208701519150808211156200030e57600080fd5b506200031d8782880162000203565b935050604085015160ff811681146200033557600080fd5b60608601519092506001600160a01b03811681146200035357600080fd5b939692955090935050565b600181811c908216806200037357607f821691505b602082108114156200039557634e487b7160e01b600052602260045260246000fd5b50919050565b634e487b7160e01b600052604160045260246000fd5b61162780620003c16000396000f3fe608060405234801561001057600080fd5b50600436106101825760003560e01c806340c10f19116100d8578063a217fddf1161008c578063d539139311610066578063d539139314610340578063d547741f14610367578063dd62ed3e1461037a57600080fd5b8063a217fddf14610312578063a457c2d71461031a578063a9059cbb1461032d57600080fd5b806391d14854116100bd57806391d14854146102be57806395d89b41146102f75780639dc29fac146102ff57600080fd5b806340c10f191461028257806370a082311461029557600080fd5b806323b872dd1161013a578063313ce56711610114578063313ce5671461024757806336568abe1461025c578063395093511461026f57600080fd5b806323b872dd146101fe578063248a9ca3146102115780632f2ff15d1461023457600080fd5b8063095ea7b31161016b578063095ea7b3146101c457806318160ddd146101d75780631c9c7903146101e957600080fd5b806301ffc9a71461018757806306fdde03146101af575b600080fd5b61019a6101953660046113ed565b6103b3565b60405190151581526020015b60405180910390f35b6101b761044c565b6040516101a691906114b0565b61019a6101d2366004611387565b6104de565b6002545b6040519081526020016101a6565b6101fc6101f736600461134b565b6104f4565b005b61019a61020c36600461134b565b610587565b6101db61021f3660046113b1565b60009081526005602052604090206001015490565b6101fc6102423660046113ca565b610646565b60065460405160ff90911681526020016101a6565b6101fc61026a3660046113ca565b61066c565b61019a61027d366004611387565b6106f8565b6101fc610290366004611387565b610734565b6101db6102a33660046112fd565b6001600160a01b031660009081526020819052604090205490565b61019a6102cc3660046113ca565b60009182526005602090815260408084206001600160a01b0393909316845291905290205460ff1690565b6101b76107bc565b61019a61030d366004611387565b6107cb565b6101db600081565b61019a610328366004611387565b610853565b61019a61033b366004611387565b610904565b6101db7f9f2df0fed2c77648de5860a4cc508cd0818c85b8b8a1ab4ceeef8d981c8956a681565b6101fc6103753660046113ca565b610911565b6101db610388366004611318565b6001600160a01b03918216600090815260016020908152604080832093909416825291909152205490565b60007fffffffff0000000000000000000000000000000000000000000000000000000082167f7965db0b00000000000000000000000000000000000000000000000000000000148061044657507f01ffc9a7000000000000000000000000000000000000000000000000000000007fffffffff000000000000000000000000000000000000000000000000000000008316145b92915050565b60606003805461045b90611574565b80601f016020809104026020016040519081016040528092919081815260200182805461048790611574565b80156104d45780601f106104a9576101008083540402835291602001916104d4565b820191906000526020600020905b8154815290600101906020018083116104b757829003601f168201915b5050505050905090565b60006104eb338484610937565b50600192915050565b3360009081527f05b8ccbb9d4d8fb16ea74ce3c29a41f1b461fbdaff4714a0d9a8eb05499746bc602052604090205460ff166105775760405162461bcd60e51b815260206004820152601e60248201527f45524332304d696e7461626c652f63616c6c65722d6e6f742d61646d696e000060448201526064015b60405180910390fd5b610582838383610a8f565b505050565b6000610594848484610a8f565b6001600160a01b03841660009081526001602090815260408083203384529091529020548281101561062e5760405162461bcd60e51b815260206004820152602860248201527f45524332303a207472616e7366657220616d6f756e742065786365656473206160448201527f6c6c6f77616e6365000000000000000000000000000000000000000000000000606482015260840161056e565b61063b8533858403610937565b506001949350505050565b6000828152600560205260409020600101546106628133610ca8565b6105828383610d28565b6001600160a01b03811633146106ea5760405162461bcd60e51b815260206004820152602f60248201527f416363657373436f6e74726f6c3a2063616e206f6e6c792072656e6f756e636560448201527f20726f6c657320666f722073656c660000000000000000000000000000000000606482015260840161056e565b6106f48282610dca565b5050565b3360008181526001602090815260408083206001600160a01b038716845290915281205490916104eb91859061072f9086906114e3565b610937565b3360009081527f15a28d26fa1bf736cf7edc9922607171ccb09c3c73b808e7772a3013e068a522602052604090205460ff166107b25760405162461bcd60e51b815260206004820152601f60248201527f45524332304d696e7461626c652f63616c6c65722d6e6f742d6d696e74657200604482015260640161056e565b6106f48282610e4d565b60606004805461045b90611574565b3360009081527f05b8ccbb9d4d8fb16ea74ce3c29a41f1b461fbdaff4714a0d9a8eb05499746bc602052604081205460ff166108495760405162461bcd60e51b815260206004820152601e60248201527f45524332304d696e7461626c652f63616c6c65722d6e6f742d61646d696e0000604482015260640161056e565b6104eb8383610f2c565b3360009081526001602090815260408083206001600160a01b0386168452909152812054828110156108ed5760405162461bcd60e51b815260206004820152602560248201527f45524332303a2064656372656173656420616c6c6f77616e63652062656c6f7760448201527f207a65726f000000000000000000000000000000000000000000000000000000606482015260840161056e565b6108fa3385858403610937565b5060019392505050565b60006104eb338484610a8f565b60008281526005602052604090206001015461092d8133610ca8565b6105828383610dca565b6001600160a01b0383166109b25760405162461bcd60e51b8152602060048201526024808201527f45524332303a20617070726f76652066726f6d20746865207a65726f2061646460448201527f7265737300000000000000000000000000000000000000000000000000000000606482015260840161056e565b6001600160a01b038216610a2e5760405162461bcd60e51b815260206004820152602260248201527f45524332303a20617070726f766520746f20746865207a65726f20616464726560448201527f7373000000000000000000000000000000000000000000000000000000000000606482015260840161056e565b6001600160a01b0383811660008181526001602090815260408083209487168084529482529182902085905590518481527f8c5be1e5ebec7d5bd14f71427d1e84f3dd0314c0f7b2291e5b200ac8c7c3b925910160405180910390a3505050565b6001600160a01b038316610b0b5760405162461bcd60e51b815260206004820152602560248201527f45524332303a207472616e736665722066726f6d20746865207a65726f20616460448201527f6472657373000000000000000000000000000000000000000000000000000000606482015260840161056e565b6001600160a01b038216610b875760405162461bcd60e51b815260206004820152602360248201527f45524332303a207472616e7366657220746f20746865207a65726f206164647260448201527f6573730000000000000000000000000000000000000000000000000000000000606482015260840161056e565b6001600160a01b03831660009081526020819052604090205481811015610c165760405162461bcd60e51b815260206004820152602660248201527f45524332303a207472616e7366657220616d6f756e742065786365656473206260448201527f616c616e63650000000000000000000000000000000000000000000000000000606482015260840161056e565b6001600160a01b03808516600090815260208190526040808220858503905591851681529081208054849290610c4d9084906114e3565b92505081905550826001600160a01b0316846001600160a01b03167fddf252ad1be2c89b69c2b068fc378daa952ba7f163c4a11628f55a4df523b3ef84604051610c9991815260200190565b60405180910390a35b50505050565b60008281526005602090815260408083206001600160a01b038516845290915290205460ff166106f457610ce6816001600160a01b031660146110b1565b610cf18360206110b1565b604051602001610d0292919061142f565b60408051601f198184030181529082905262461bcd60e51b825261056e916004016114b0565b60008281526005602090815260408083206001600160a01b038516845290915290205460ff166106f45760008281526005602090815260408083206001600160a01b03851684529091529020805460ff19166001179055610d863390565b6001600160a01b0316816001600160a01b0316837f2f8788117e7eff1d82e926ec794901d17c78024a50270940304540a733656f0d60405160405180910390a45050565b60008281526005602090815260408083206001600160a01b038516845290915290205460ff16156106f45760008281526005602090815260408083206001600160a01b0385168085529252808320805460ff1916905551339285917ff6391f5c32d9c69d2a47ea670b442974b53935d1edc7fd64eb21e047a839171b9190a45050565b6001600160a01b038216610ea35760405162461bcd60e51b815260206004820152601f60248201527f45524332303a206d696e7420746f20746865207a65726f206164647265737300604482015260640161056e565b8060026000828254610eb591906114e3565b90915550506001600160a01b03821660009081526020819052604081208054839290610ee29084906114e3565b90915550506040518181526001600160a01b038316906000907fddf252ad1be2c89b69c2b068fc378daa952ba7f163c4a11628f55a4df523b3ef9060200160405180910390a35050565b6001600160a01b038216610fa85760405162461bcd60e51b815260206004820152602160248201527f45524332303a206275726e2066726f6d20746865207a65726f2061646472657360448201527f7300000000000000000000000000000000000000000000000000000000000000606482015260840161056e565b6001600160a01b038216600090815260208190526040902054818110156110375760405162461bcd60e51b815260206004820152602260248201527f45524332303a206275726e20616d6f756e7420657863656564732062616c616e60448201527f6365000000000000000000000000000000000000000000000000000000000000606482015260840161056e565b6001600160a01b038316600090815260208190526040812083830390556002805484929061106690849061151a565b90915550506040518281526000906001600160a01b038516907fddf252ad1be2c89b69c2b068fc378daa952ba7f163c4a11628f55a4df523b3ef9060200160405180910390a3505050565b606060006110c08360026114fb565b6110cb9060026114e3565b67ffffffffffffffff8111156110e3576110e36115db565b6040519080825280601f01601f19166020018201604052801561110d576020820181803683370190505b5090507f300000000000000000000000000000000000000000000000000000000000000081600081518110611144576111446115c5565b60200101907effffffffffffffffffffffffffffffffffffffffffffffffffffffffffffff1916908160001a9053507f7800000000000000000000000000000000000000000000000000000000000000816001815181106111a7576111a76115c5565b60200101907effffffffffffffffffffffffffffffffffffffffffffffffffffffffffffff1916908160001a90535060006111e38460026114fb565b6111ee9060016114e3565b90505b600181111561128b577f303132333435363738396162636465660000000000000000000000000000000085600f166010811061122f5761122f6115c5565b1a60f81b828281518110611245576112456115c5565b60200101907effffffffffffffffffffffffffffffffffffffffffffffffffffffffffffff1916908160001a90535060049490941c936112848161155d565b90506111f1565b5083156112da5760405162461bcd60e51b815260206004820181905260248201527f537472696e67733a20686578206c656e67746820696e73756666696369656e74604482015260640161056e565b9392505050565b80356001600160a01b03811681146112f857600080fd5b919050565b60006020828403121561130f57600080fd5b6112da826112e1565b6000806040838503121561132b57600080fd5b611334836112e1565b9150611342602084016112e1565b90509250929050565b60008060006060848603121561136057600080fd5b611369846112e1565b9250611377602085016112e1565b9150604084013590509250925092565b6000806040838503121561139a57600080fd5b6113a3836112e1565b946020939093013593505050565b6000602082840312156113c357600080fd5b5035919050565b600080604083850312156113dd57600080fd5b82359150611342602084016112e1565b6000602082840312156113ff57600080fd5b81357fffffffff00000000000000000000000000000000000000000000000000000000811681146112da57600080fd5b7f416363657373436f6e74726f6c3a206163636f756e7420000000000000000000815260008351611467816017850160208801611531565b7f206973206d697373696e6720726f6c652000000000000000000000000000000060179184019182015283516114a4816028840160208801611531565b01602801949350505050565b60208152600082518060208401526114cf816040850160208701611531565b601f01601f19169190910160400192915050565b600082198211156114f6576114f66115af565b500190565b6000816000190483118215151615611515576115156115af565b500290565b60008282101561152c5761152c6115af565b500390565b60005b8381101561154c578181015183820152602001611534565b83811115610ca25750506000910152565b60008161156c5761156c6115af565b506000190190565b600181811c9082168061158857607f821691505b602082108114156115a957634e487b7160e01b600052602260045260246000fd5b50919050565b634e487b7160e01b600052601160045260246000fd5b634e487b7160e01b600052603260045260246000fd5b634e487b7160e01b600052604160045260246000fdfea26469706673582212203f75e8d15447e0086ae43a146c17348a4bf1310725f17a2fabde8ca010c3339964736f6c63430008060033",
  "devdoc": {
    "details": "Extension of {ERC20} that adds a set of accounts with the {MinterRole}, which have permission to mint (create) new tokens as they see fit. At construction, the deployer of the contract is the only minter.",
    "kind": "dev",
    "methods": {
      "allowance(address,address)": {
        "details": "See {IERC20-allowance}."
      },
      "approve(address,uint256)": {
        "details": "See {IERC20-approve}. Requirements: - `spender` cannot be the zero address."
      },
      "balanceOf(address)": {
        "details": "See {IERC20-balanceOf}."
      },
      "balanceOfToken(address)": {
        "returns": {
          "_0": "The underlying balance of asset tokens."
        }
      },
      "decimals()": {
        "details": "Returns the number of decimals used to get its user representation. For example, if `decimals` equals `2`, a balance of `505` tokens should be displayed to a user as `5.05` (`505 / 10 ** 2`). Tokens usually opt for a value of 18, imitating the relationship between Ether and Wei. This is the value {ERC20} uses, unless this function is overridden; NOTE: This information is only used for _display_ purposes: it in no way affects any of the arithmetic of the contract, including {IERC20-balanceOf} and {IERC20-transfer}."
      },
      "decreaseAllowance(address,uint256)": {
        "details": "Atomically decreases the allowance granted to `spender` by the caller. This is an alternative to {approve} that can be used as a mitigation for problems described in {IERC20-approve}. Emits an {Approval} event indicating the updated allowance. Requirements: - `spender` cannot be the zero address. - `spender` must have allowance for the caller of at least `subtractedValue`."
      },
      "depositToken()": {
        "returns": {
          "_0": "The ERC20 asset token address."
        }
      },
      "increaseAllowance(address,uint256)": {
        "details": "Atomically increases the allowance granted to `spender` by the caller. This is an alternative to {approve} that can be used as a mitigation for problems described in {IERC20-approve}. Emits an {Approval} event indicating the updated allowance. Requirements: - `spender` cannot be the zero address."
      },
      "name()": {
        "details": "Returns the name of the token."
      },
      "redeemToken(uint256)": {
        "params": {
          "amount": "The amount of asset tokens to withdraw.  Denominated in `depositToken()` as above."
        },
        "returns": {
          "_0": "The actual amount of interst bearing tokens that were redeemed."
        }
      },
      "supplyTokenTo(uint256,address)": {
        "params": {
          "amount": "The amount of asset tokens to be supplied.  Denominated in `depositToken()` as above.",
          "to": "The user whose balance will receive the tokens"
        }
      },
      "symbol()": {
        "details": "Returns the symbol of the token, usually a shorter version of the name."
      },
      "totalSupply()": {
        "details": "See {IERC20-totalSupply}."
      },
      "transfer(address,uint256)": {
        "details": "See {IERC20-transfer}. Requirements: - `recipient` cannot be the zero address. - the caller must have a balance of at least `amount`."
      },
      "transferFrom(address,address,uint256)": {
        "details": "See {IERC20-transferFrom}. Emits an {Approval} event indicating the updated allowance. This is not required by the EIP. See the note at the beginning of {ERC20}. Requirements: - `sender` and `recipient` cannot be the zero address. - `sender` must have a balance of at least `amount`. - the caller must have allowance for ``sender``'s tokens of at least `amount`."
      }
    },
    "version": 1
  },
  "userdoc": {
    "kind": "user",
    "methods": {
      "balanceOfToken(address)": {
        "notice": "Returns the total balance (in asset tokens).  This includes the deposits and interest."
      },
      "depositToken()": {
        "notice": "Returns the ERC20 asset token used for deposits."
      },
      "redeemToken(uint256)": {
        "notice": "Redeems tokens from the yield source."
      },
      "supplyTokenTo(uint256,address)": {
        "notice": "Supplies tokens to the yield source.  Allows assets to be supplied on other user's behalf using the `to` param."
      }
    },
    "version": 1
  },
  "storageLayout": {
    "storage": [
      {
        "astId": 729,
        "contract": "@pooltogether/yield-source-interface/contracts/test/MockYieldSource.sol:MockYieldSource",
        "label": "_balances",
        "offset": 0,
        "slot": "0",
        "type": "t_mapping(t_address,t_uint256)"
      },
      {
        "astId": 735,
        "contract": "@pooltogether/yield-source-interface/contracts/test/MockYieldSource.sol:MockYieldSource",
        "label": "_allowances",
        "offset": 0,
        "slot": "1",
        "type": "t_mapping(t_address,t_mapping(t_address,t_uint256))"
      },
      {
        "astId": 737,
        "contract": "@pooltogether/yield-source-interface/contracts/test/MockYieldSource.sol:MockYieldSource",
        "label": "_totalSupply",
        "offset": 0,
        "slot": "2",
        "type": "t_uint256"
      },
      {
        "astId": 739,
        "contract": "@pooltogether/yield-source-interface/contracts/test/MockYieldSource.sol:MockYieldSource",
        "label": "_name",
        "offset": 0,
        "slot": "3",
        "type": "t_string_storage"
      },
      {
        "astId": 741,
        "contract": "@pooltogether/yield-source-interface/contracts/test/MockYieldSource.sol:MockYieldSource",
        "label": "_symbol",
        "offset": 0,
        "slot": "4",
        "type": "t_string_storage"
      },
      {
        "astId": 12787,
        "contract": "@pooltogether/yield-source-interface/contracts/test/MockYieldSource.sol:MockYieldSource",
        "label": "token",
        "offset": 0,
        "slot": "5",
        "type": "t_contract(ERC20Mintable)12775"
      },
      {
        "astId": 12789,
        "contract": "@pooltogether/yield-source-interface/contracts/test/MockYieldSource.sol:MockYieldSource",
        "label": "ratePerSecond",
        "offset": 0,
        "slot": "6",
        "type": "t_uint256"
      },
      {
        "astId": 12791,
        "contract": "@pooltogether/yield-source-interface/contracts/test/MockYieldSource.sol:MockYieldSource",
        "label": "lastYieldTimestamp",
        "offset": 0,
        "slot": "7",
        "type": "t_uint256"
      },
      {
        "astId": 12793,
        "contract": "@pooltogether/yield-source-interface/contracts/test/MockYieldSource.sol:MockYieldSource",
        "label": "_decimals",
        "offset": 0,
        "slot": "8",
        "type": "t_uint8"
      }
    ],
    "types": {
      "t_address": {
        "encoding": "inplace",
        "label": "address",
        "numberOfBytes": "20"
      },
      "t_contract(ERC20Mintable)12775": {
        "encoding": "inplace",
        "label": "contract ERC20Mintable",
        "numberOfBytes": "20"
      },
      "t_mapping(t_address,t_mapping(t_address,t_uint256))": {
        "encoding": "mapping",
        "key": "t_address",
        "label": "mapping(address => mapping(address => uint256))",
        "numberOfBytes": "32",
        "value": "t_mapping(t_address,t_uint256)"
      },
      "t_mapping(t_address,t_uint256)": {
        "encoding": "mapping",
        "key": "t_address",
        "label": "mapping(address => uint256)",
        "numberOfBytes": "32",
        "value": "t_uint256"
      },
      "t_string_storage": {
        "encoding": "bytes",
        "label": "string",
        "numberOfBytes": "32"
      },
      "t_uint256": {
        "encoding": "inplace",
        "label": "uint256",
        "numberOfBytes": "32"
      },
      "t_uint8": {
        "encoding": "inplace",
        "label": "uint8",
        "numberOfBytes": "1"
      }
    }
  }
}