{
  "address": "0xF07E44AFcACAF8D1307EF5A2405659a3e07B05A0",
  "abi": [
    {
      "inputs": [
        {
          "internalType": "string",
          "name": "_name",
          "type": "string"
        },
        {
          "internalType": "string",
          "name": "_symbol",
          "type": "string"
        },
        {
          "internalType": "uint8",
          "name": "_decimals",
          "type": "uint8"
        }
      ],
      "stateMutability": "nonpayable",
      "type": "constructor"
    },
    {
      "anonymous": false,
      "inputs": [
        {
          "indexed": true,
          "internalType": "address",
          "name": "owner",
          "type": "address"
        },
        {
          "indexed": true,
          "internalType": "address",
          "name": "spender",
          "type": "address"
        },
        {
          "indexed": false,
          "internalType": "uint256",
          "name": "value",
          "type": "uint256"
        }
      ],
      "name": "Approval",
      "type": "event"
    },
    {
      "anonymous": false,
      "inputs": [
        {
          "indexed": true,
          "internalType": "address",
          "name": "from",
          "type": "address"
        },
        {
          "indexed": true,
          "internalType": "address",
          "name": "to",
          "type": "address"
        },
        {
          "indexed": false,
          "internalType": "uint256",
          "name": "value",
          "type": "uint256"
        }
      ],
      "name": "Transfer",
      "type": "event"
    },
    {
      "inputs": [
        {
          "internalType": "address",
          "name": "owner",
          "type": "address"
        },
        {
          "internalType": "address",
          "name": "spender",
          "type": "address"
        }
      ],
      "name": "allowance",
      "outputs": [
        {
          "internalType": "uint256",
          "name": "",
          "type": "uint256"
        }
      ],
      "stateMutability": "view",
      "type": "function"
    },
    {
      "inputs": [
        {
          "internalType": "address",
          "name": "spender",
          "type": "address"
        },
        {
          "internalType": "uint256",
          "name": "amount",
          "type": "uint256"
        }
      ],
      "name": "approve",
      "outputs": [
        {
          "internalType": "bool",
          "name": "",
          "type": "bool"
        }
      ],
      "stateMutability": "nonpayable",
      "type": "function"
    },
    {
      "inputs": [
        {
          "internalType": "address",
          "name": "account",
          "type": "address"
        }
      ],
      "name": "balanceOf",
      "outputs": [
        {
          "internalType": "uint256",
          "name": "",
          "type": "uint256"
        }
      ],
      "stateMutability": "view",
      "type": "function"
    },
    {
      "inputs": [
        {
          "internalType": "address",
          "name": "addr",
          "type": "address"
        }
      ],
      "name": "balanceOfToken",
      "outputs": [
        {
          "internalType": "uint256",
          "name": "",
          "type": "uint256"
        }
      ],
      "stateMutability": "nonpayable",
      "type": "function"
    },
    {
      "inputs": [],
      "name": "decimals",
      "outputs": [
        {
          "internalType": "uint8",
          "name": "",
          "type": "uint8"
        }
      ],
      "stateMutability": "view",
      "type": "function"
    },
    {
      "inputs": [
        {
          "internalType": "address",
          "name": "spender",
          "type": "address"
        },
        {
          "internalType": "uint256",
          "name": "subtractedValue",
          "type": "uint256"
        }
      ],
      "name": "decreaseAllowance",
      "outputs": [
        {
          "internalType": "bool",
          "name": "",
          "type": "bool"
        }
      ],
      "stateMutability": "nonpayable",
      "type": "function"
    },
    {
      "inputs": [],
      "name": "depositToken",
      "outputs": [
        {
          "internalType": "address",
          "name": "",
          "type": "address"
        }
      ],
      "stateMutability": "view",
      "type": "function"
    },
    {
      "inputs": [
        {
          "internalType": "address",
          "name": "spender",
          "type": "address"
        },
        {
          "internalType": "uint256",
          "name": "addedValue",
          "type": "uint256"
        }
      ],
      "name": "increaseAllowance",
      "outputs": [
        {
          "internalType": "bool",
          "name": "",
          "type": "bool"
        }
      ],
      "stateMutability": "nonpayable",
      "type": "function"
    },
    {
      "inputs": [],
      "name": "name",
      "outputs": [
        {
          "internalType": "string",
          "name": "",
          "type": "string"
        }
      ],
      "stateMutability": "view",
      "type": "function"
    },
    {
      "inputs": [],
      "name": "ratePerSecond",
      "outputs": [
        {
          "internalType": "uint256",
          "name": "",
          "type": "uint256"
        }
      ],
      "stateMutability": "view",
      "type": "function"
    },
    {
      "inputs": [
        {
          "internalType": "uint256",
          "name": "amount",
          "type": "uint256"
        }
      ],
      "name": "redeemToken",
      "outputs": [
        {
          "internalType": "uint256",
          "name": "",
          "type": "uint256"
        }
      ],
      "stateMutability": "nonpayable",
      "type": "function"
    },
    {
      "inputs": [
        {
          "internalType": "uint256",
          "name": "_ratePerSecond",
          "type": "uint256"
        }
      ],
      "name": "setRatePerSecond",
      "outputs": [],
      "stateMutability": "nonpayable",
      "type": "function"
    },
    {
      "inputs": [
        {
          "internalType": "uint256",
          "name": "shares",
          "type": "uint256"
        }
      ],
      "name": "sharesToTokens",
      "outputs": [
        {
          "internalType": "uint256",
          "name": "",
          "type": "uint256"
        }
      ],
      "stateMutability": "view",
      "type": "function"
    },
    {
      "inputs": [
        {
          "internalType": "uint256",
          "name": "amount",
          "type": "uint256"
        },
        {
          "internalType": "address",
          "name": "to",
          "type": "address"
        }
      ],
      "name": "supplyTokenTo",
      "outputs": [],
      "stateMutability": "nonpayable",
      "type": "function"
    },
    {
      "inputs": [],
      "name": "symbol",
      "outputs": [
        {
          "internalType": "string",
          "name": "",
          "type": "string"
        }
      ],
      "stateMutability": "view",
      "type": "function"
    },
    {
      "inputs": [],
      "name": "token",
      "outputs": [
        {
          "internalType": "contract ERC20Mintable",
          "name": "",
          "type": "address"
        }
      ],
      "stateMutability": "view",
      "type": "function"
    },
    {
      "inputs": [
        {
          "internalType": "uint256",
          "name": "tokens",
          "type": "uint256"
        }
      ],
      "name": "tokensToShares",
      "outputs": [
        {
          "internalType": "uint256",
          "name": "",
          "type": "uint256"
        }
      ],
      "stateMutability": "view",
      "type": "function"
    },
    {
      "inputs": [],
      "name": "totalSupply",
      "outputs": [
        {
          "internalType": "uint256",
          "name": "",
          "type": "uint256"
        }
      ],
      "stateMutability": "view",
      "type": "function"
    },
    {
      "inputs": [
        {
          "internalType": "address",
          "name": "recipient",
          "type": "address"
        },
        {
          "internalType": "uint256",
          "name": "amount",
          "type": "uint256"
        }
      ],
      "name": "transfer",
      "outputs": [
        {
          "internalType": "bool",
          "name": "",
          "type": "bool"
        }
      ],
      "stateMutability": "nonpayable",
      "type": "function"
    },
    {
      "inputs": [
        {
          "internalType": "address",
          "name": "sender",
          "type": "address"
        },
        {
          "internalType": "address",
          "name": "recipient",
          "type": "address"
        },
        {
          "internalType": "uint256",
          "name": "amount",
          "type": "uint256"
        }
      ],
      "name": "transferFrom",
      "outputs": [
        {
          "internalType": "bool",
          "name": "",
          "type": "bool"
        }
      ],
      "stateMutability": "nonpayable",
      "type": "function"
    },
    {
      "inputs": [
        {
          "internalType": "uint256",
          "name": "amount",
          "type": "uint256"
        }
      ],
      "name": "yield",
      "outputs": [],
      "stateMutability": "nonpayable",
      "type": "function"
    }
  ],
  "transactionHash": "0xd11328665a89b3d6abd112f8a4d30d541b988575775c1929f80098c83c4966e8",
  "args": [
    "Token",
    "TOK",
    18
  ],
  "numDeployments": 1,
  "solcInputHash": "7bdba8864c159acc88f31747e3d0950f",
  "bytecode": "0x60806040523480156200001157600080fd5b506040516200274338038062002743833981016040819052620000349162000267565b60405180604001604052806005815260200164165251531160da1b8152506040518060400160405280600381526020016216531160ea1b815250601282600390805190602001906200008892919062000122565b5081516200009e90600490602085019062000122565b506005805460ff191660ff929092169190911790555050604051839083908390620000c990620001b1565b620000d7939291906200031a565b604051809103906000f080158015620000f4573d6000803e3d6000fd5b50603380546001600160a01b0319166001600160a01b039290921691909117905550504260355550620003dd565b82805462000130906200038a565b90600052602060002090601f0160209004810192826200015457600085556200019f565b82601f106200016f57805160ff19168380011785556200019f565b828001600101855582156200019f579182015b828111156200019f57825182559160200191906001019062000182565b50620001ad929150620001bf565b5090565b610fb6806200178d83390190565b5b80821115620001ad5760008155600101620001c0565b600082601f830112620001e857600080fd5b81516001600160401b0380821115620002055762000205620003c7565b604051601f8301601f19908116603f01168101908282118183101715620002305762000230620003c7565b816040528381528660208588010111156200024a57600080fd5b6200025d84602083016020890162000357565b9695505050505050565b6000806000606084860312156200027d57600080fd5b83516001600160401b03808211156200029557600080fd5b620002a387838801620001d6565b94506020860151915080821115620002ba57600080fd5b50620002c986828701620001d6565b925050604084015160ff81168114620002e157600080fd5b809150509250925092565b600081518084526200030681602086016020860162000357565b601f01601f19169290920160200192915050565b6060815260006200032f6060830186620002ec565b8281036020840152620003438186620002ec565b91505060ff83166040830152949350505050565b60005b83811015620003745781810151838201526020016200035a565b8381111562000384576000848401525b50505050565b600181811c908216806200039f57607f821691505b60208210811415620003c157634e487b7160e01b600052602260045260246000fd5b50919050565b634e487b7160e01b600052604160045260246000fd5b6113a080620003ed6000396000f3fe608060405234801561001057600080fd5b50600436106101775760003560e01c806387a6eeef116100d8578063b99152d01161008c578063e8fe76d511610066578063e8fe76d514610329578063f3044ac71461033c578063fc0c546a1461034f57600080fd5b8063b99152d0146102b8578063c89039c5146102cb578063dd62ed3e146102f057600080fd5b806395d89b41116100bd57806395d89b411461028a578063a457c2d714610292578063a9059cbb146102a557600080fd5b806387a6eeef1461026e5780638eff1a981461028157600080fd5b806327def4fd1161012f5780633950935111610114578063395093511461021d57806370a0823114610230578063765287ef1461025957600080fd5b806327def4fd146101f5578063313ce5671461020857600080fd5b8063095ea7b311610160578063095ea7b3146101b757806318160ddd146101da57806323b872dd146101e257600080fd5b8063013054c21461017c57806306fdde03146101a2575b600080fd5b61018f61018a3660046111c9565b610362565b6040519081526020015b60405180910390f35b6101aa610428565b604051610199919061121e565b6101ca6101c536600461117d565b6104ba565b6040519015158152602001610199565b60025461018f565b6101ca6101f0366004611141565b6104d0565b61018f6102033660046111c9565b610594565b60055460405160ff9091168152602001610199565b6101ca61022b36600461117d565b61064a565b61018f61023e3660046110f3565b6001600160a01b031660009081526020819052604090205490565b61026c6102673660046111c9565b610686565b005b61026c61027c3660046111fb565b610727565b61018f60345481565b6101aa6107ee565b6101ca6102a036600461117d565b6107fd565b6101ca6102b336600461117d565b6108ae565b61018f6102c63660046110f3565b6108bb565b6033546001600160a01b03165b6040516001600160a01b039091168152602001610199565b61018f6102fe36600461110e565b6001600160a01b03918216600090815260016020908152604080832093909416825291909152205490565b61026c6103373660046111c9565b6108ed565b61018f61034a3660046111c9565b6108fe565b6033546102d8906001600160a01b031681565b600061036c610996565b6000610377836108fe565b90506103833382610b03565b6033546040517fa9059cbb000000000000000000000000000000000000000000000000000000008152336004820152602481018590526001600160a01b039091169063a9059cbb90604401602060405180830381600087803b1580156103e857600080fd5b505af11580156103fc573d6000803e3d6000fd5b505050506040513d601f19601f8201168201806040525081019061042091906111a7565b509192915050565b6060600380546104379061131f565b80601f01602080910402602001604051908101604052809291908181526020018280546104639061131f565b80156104b05780601f10610485576101008083540402835291602001916104b0565b820191906000526020600020905b81548152906001019060200180831161049357829003601f168201915b5050505050905090565b60006104c7338484610c88565b50600192915050565b60006104dd848484610de0565b6001600160a01b03841660009081526001602090815260408083203384529091529020548281101561057c5760405162461bcd60e51b815260206004820152602860248201527f45524332303a207472616e7366657220616d6f756e742065786365656473206160448201527f6c6c6f77616e636500000000000000000000000000000000000000000000000060648201526084015b60405180910390fd5b6105898533858403610c88565b506001949350505050565b6000806105a060025490565b9050806105ae575090919050565b6033546040516370a0823160e01b815230600482015282916001600160a01b0316906370a082319060240160206040518083038186803b1580156105f157600080fd5b505afa158015610605573d6000803e3d6000fd5b505050506040513d601f19601f8201168201806040525081019061062991906111e2565b61063390856112cb565b61063d91906112a9565b9392505050565b50919050565b3360008181526001602090815260408083206001600160a01b038716845290915281205490916104c7918590610681908690611291565b610c88565b6033546040517f40c10f19000000000000000000000000000000000000000000000000000000008152306004820152602481018390526001600160a01b03909116906340c10f1990604401602060405180830381600087803b1580156106eb57600080fd5b505af11580156106ff573d6000803e3d6000fd5b505050506040513d601f19601f8201168201806040525081019061072391906111a7565b5050565b61072f610996565b600061073a836108fe565b6033546040517f23b872dd000000000000000000000000000000000000000000000000000000008152336004820152306024820152604481018690529192506001600160a01b0316906323b872dd90606401602060405180830381600087803b1580156107a657600080fd5b505af11580156107ba573d6000803e3d6000fd5b505050506040513d601f19601f820116820180604052508101906107de91906111a7565b506107e98282610ff8565b505050565b6060600480546104379061131f565b3360009081526001602090815260408083206001600160a01b0386168452909152812054828110156108975760405162461bcd60e51b815260206004820152602560248201527f45524332303a2064656372656173656420616c6c6f77616e63652062656c6f7760448201527f207a65726f0000000000000000000000000000000000000000000000000000006064820152608401610573565b6108a43385858403610c88565b5060019392505050565b60006104c7338484610de0565b60006108c5610996565b6108e7610203836001600160a01b031660009081526020819052604090205490565b92915050565b6108f5610996565b42603555603455565b6033546040516370a0823160e01b815230600482015260009182916001600160a01b03909116906370a082319060240160206040518083038186803b15801561094657600080fd5b505afa15801561095a573d6000803e3d6000fd5b505050506040513d601f19601f8201168201806040525081019061097e91906111e2565b90508061098c575090919050565b8061062960025490565b6000603554426109a69190611308565b90506000603454826109b891906112cb565b6033546040516370a0823160e01b81523060048201529192506000916001600160a01b03909116906370a082319060240160206040518083038186803b158015610a0157600080fd5b505afa158015610a15573d6000803e3d6000fd5b505050506040513d601f19601f82011682018060405250810190610a3991906111e2565b90506000670de0b6b3a7640000610a5083856112cb565b610a5a91906112a9565b6033546040517f40c10f19000000000000000000000000000000000000000000000000000000008152306004820152602481018390529192506001600160a01b0316906340c10f1990604401602060405180830381600087803b158015610ac057600080fd5b505af1158015610ad4573d6000803e3d6000fd5b505050506040513d601f19601f82011682018060405250810190610af891906111a7565b505042603555505050565b6001600160a01b038216610b7f5760405162461bcd60e51b815260206004820152602160248201527f45524332303a206275726e2066726f6d20746865207a65726f2061646472657360448201527f73000000000000000000000000000000000000000000000000000000000000006064820152608401610573565b6001600160a01b03821660009081526020819052604090205481811015610c0e5760405162461bcd60e51b815260206004820152602260248201527f45524332303a206275726e20616d6f756e7420657863656564732062616c616e60448201527f63650000000000000000000000000000000000000000000000000000000000006064820152608401610573565b6001600160a01b0383166000908152602081905260408120838303905560028054849290610c3d908490611308565b90915550506040518281526000906001600160a01b038516907fddf252ad1be2c89b69c2b068fc378daa952ba7f163c4a11628f55a4df523b3ef9060200160405180910390a3505050565b6001600160a01b038316610d035760405162461bcd60e51b8152602060048201526024808201527f45524332303a20617070726f76652066726f6d20746865207a65726f2061646460448201527f72657373000000000000000000000000000000000000000000000000000000006064820152608401610573565b6001600160a01b038216610d7f5760405162461bcd60e51b815260206004820152602260248201527f45524332303a20617070726f766520746f20746865207a65726f20616464726560448201527f73730000000000000000000000000000000000000000000000000000000000006064820152608401610573565b6001600160a01b0383811660008181526001602090815260408083209487168084529482529182902085905590518481527f8c5be1e5ebec7d5bd14f71427d1e84f3dd0314c0f7b2291e5b200ac8c7c3b925910160405180910390a3505050565b6001600160a01b038316610e5c5760405162461bcd60e51b815260206004820152602560248201527f45524332303a207472616e736665722066726f6d20746865207a65726f20616460448201527f64726573730000000000000000000000000000000000000000000000000000006064820152608401610573565b6001600160a01b038216610ed85760405162461bcd60e51b815260206004820152602360248201527f45524332303a207472616e7366657220746f20746865207a65726f206164647260448201527f65737300000000000000000000000000000000000000000000000000000000006064820152608401610573565b6001600160a01b03831660009081526020819052604090205481811015610f675760405162461bcd60e51b815260206004820152602660248201527f45524332303a207472616e7366657220616d6f756e742065786365656473206260448201527f616c616e636500000000000000000000000000000000000000000000000000006064820152608401610573565b6001600160a01b03808516600090815260208190526040808220858503905591851681529081208054849290610f9e908490611291565b92505081905550826001600160a01b0316846001600160a01b03167fddf252ad1be2c89b69c2b068fc378daa952ba7f163c4a11628f55a4df523b3ef84604051610fea91815260200190565b60405180910390a350505050565b6001600160a01b03821661104e5760405162461bcd60e51b815260206004820152601f60248201527f45524332303a206d696e7420746f20746865207a65726f2061646472657373006044820152606401610573565b80600260008282546110609190611291565b90915550506001600160a01b0382166000908152602081905260408120805483929061108d908490611291565b90915550506040518181526001600160a01b038316906000907fddf252ad1be2c89b69c2b068fc378daa952ba7f163c4a11628f55a4df523b3ef9060200160405180910390a35050565b80356001600160a01b03811681146110ee57600080fd5b919050565b60006020828403121561110557600080fd5b61063d826110d7565b6000806040838503121561112157600080fd5b61112a836110d7565b9150611138602084016110d7565b90509250929050565b60008060006060848603121561115657600080fd5b61115f846110d7565b925061116d602085016110d7565b9150604084013590509250925092565b6000806040838503121561119057600080fd5b611199836110d7565b946020939093013593505050565b6000602082840312156111b957600080fd5b8151801515811461063d57600080fd5b6000602082840312156111db57600080fd5b5035919050565b6000602082840312156111f457600080fd5b5051919050565b6000806040838503121561120e57600080fd5b82359150611138602084016110d7565b600060208083528351808285015260005b8181101561124b5785810183015185820160400152820161122f565b8181111561125d576000604083870101525b50601f017fffffffffffffffffffffffffffffffffffffffffffffffffffffffffffffffe016929092016040019392505050565b600082198211156112a4576112a4611354565b500190565b6000826112c657634e487b7160e01b600052601260045260246000fd5b500490565b6000817fffffffffffffffffffffffffffffffffffffffffffffffffffffffffffffffff048311821515161561130357611303611354565b500290565b60008282101561131a5761131a611354565b500390565b600181811c9082168061133357607f821691505b6020821081141561064457634e487b7160e01b600052602260045260246000fd5b634e487b7160e01b600052601160045260246000fdfea264697066735822122054cd5476cd144d6702cd347a43ec9b3c81802b91320c51067345a015ccd51ff764736f6c6343000806003360806040523480156200001157600080fd5b5060405162000fb638038062000fb68339810160408190526200003491620001e3565b82828282600390805190602001906200004f92919062000086565b5081516200006590600490602085019062000086565b506005805460ff191660ff9290921691909117905550620002bb9350505050565b828054620000949062000268565b90600052602060002090601f016020900481019282620000b8576000855562000103565b82601f10620000d357805160ff191683800117855562000103565b8280016001018555821562000103579182015b8281111562000103578251825591602001919060010190620000e6565b506200011192915062000115565b5090565b5b8082111562000111576000815560010162000116565b600082601f8301126200013e57600080fd5b81516001600160401b03808211156200015b576200015b620002a5565b604051601f8301601f19908116603f01168101908282118183101715620001865762000186620002a5565b81604052838152602092508683858801011115620001a357600080fd5b600091505b83821015620001c75785820183015181830184015290820190620001a8565b83821115620001d95760008385830101525b9695505050505050565b600080600060608486031215620001f957600080fd5b83516001600160401b03808211156200021157600080fd5b6200021f878388016200012c565b945060208601519150808211156200023657600080fd5b5062000245868287016200012c565b925050604084015160ff811681146200025d57600080fd5b809150509250925092565b600181811c908216806200027d57607f821691505b602082108114156200029f57634e487b7160e01b600052602260045260246000fd5b50919050565b634e487b7160e01b600052604160045260246000fd5b610ceb80620002cb6000396000f3fe608060405234801561001057600080fd5b50600436106100ea5760003560e01c806340c10f191161008c5780639dc29fac116100665780639dc29fac146101d6578063a457c2d7146101e9578063a9059cbb146101fc578063dd62ed3e1461020f57600080fd5b806340c10f191461019257806370a08231146101a557806395d89b41146101ce57600080fd5b80631c9c7903116100c85780631c9c79031461014257806323b872dd14610157578063313ce5671461016a578063395093511461017f57600080fd5b806306fdde03146100ef578063095ea7b31461010d57806318160ddd14610130575b600080fd5b6100f7610248565b6040516101049190610b90565b60405180910390f35b61012061011b366004610b66565b6102da565b6040519015158152602001610104565b6002545b604051908152602001610104565b610155610150366004610b2a565b6102f0565b005b610120610165366004610b2a565b610300565b60055460405160ff9091168152602001610104565b61012061018d366004610b66565b6103c4565b6101206101a0366004610b66565b610400565b6101346101b3366004610ad5565b6001600160a01b031660009081526020819052604090205490565b6100f761040c565b6101206101e4366004610b66565b61041b565b6101206101f7366004610b66565b610427565b61012061020a366004610b66565b6104d8565b61013461021d366004610af7565b6001600160a01b03918216600090815260016020908152604080832093909416825291909152205490565b60606003805461025790610c32565b80601f016020809104026020016040519081016040528092919081815260200182805461028390610c32565b80156102d05780601f106102a5576101008083540402835291602001916102d0565b820191906000526020600020905b8154815290600101906020018083116102b357829003601f168201915b5050505050905090565b60006102e73384846104e5565b50600192915050565b6102fb83838361063d565b505050565b600061030d84848461063d565b6001600160a01b0384166000908152600160209081526040808320338452909152902054828110156103ac5760405162461bcd60e51b815260206004820152602860248201527f45524332303a207472616e7366657220616d6f756e742065786365656473206160448201527f6c6c6f77616e636500000000000000000000000000000000000000000000000060648201526084015b60405180910390fd5b6103b985338584036104e5565b506001949350505050565b3360008181526001602090815260408083206001600160a01b038716845290915281205490916102e79185906103fb908690610c03565b6104e5565b60006102e78383610855565b60606004805461025790610c32565b60006102e78383610934565b3360009081526001602090815260408083206001600160a01b0386168452909152812054828110156104c15760405162461bcd60e51b815260206004820152602560248201527f45524332303a2064656372656173656420616c6c6f77616e63652062656c6f7760448201527f207a65726f00000000000000000000000000000000000000000000000000000060648201526084016103a3565b6104ce33858584036104e5565b5060019392505050565b60006102e733848461063d565b6001600160a01b0383166105605760405162461bcd60e51b8152602060048201526024808201527f45524332303a20617070726f76652066726f6d20746865207a65726f2061646460448201527f726573730000000000000000000000000000000000000000000000000000000060648201526084016103a3565b6001600160a01b0382166105dc5760405162461bcd60e51b815260206004820152602260248201527f45524332303a20617070726f766520746f20746865207a65726f20616464726560448201527f737300000000000000000000000000000000000000000000000000000000000060648201526084016103a3565b6001600160a01b0383811660008181526001602090815260408083209487168084529482529182902085905590518481527f8c5be1e5ebec7d5bd14f71427d1e84f3dd0314c0f7b2291e5b200ac8c7c3b925910160405180910390a3505050565b6001600160a01b0383166106b95760405162461bcd60e51b815260206004820152602560248201527f45524332303a207472616e736665722066726f6d20746865207a65726f20616460448201527f647265737300000000000000000000000000000000000000000000000000000060648201526084016103a3565b6001600160a01b0382166107355760405162461bcd60e51b815260206004820152602360248201527f45524332303a207472616e7366657220746f20746865207a65726f206164647260448201527f657373000000000000000000000000000000000000000000000000000000000060648201526084016103a3565b6001600160a01b038316600090815260208190526040902054818110156107c45760405162461bcd60e51b815260206004820152602660248201527f45524332303a207472616e7366657220616d6f756e742065786365656473206260448201527f616c616e6365000000000000000000000000000000000000000000000000000060648201526084016103a3565b6001600160a01b038085166000908152602081905260408082208585039055918516815290812080548492906107fb908490610c03565b92505081905550826001600160a01b0316846001600160a01b03167fddf252ad1be2c89b69c2b068fc378daa952ba7f163c4a11628f55a4df523b3ef8460405161084791815260200190565b60405180910390a350505050565b6001600160a01b0382166108ab5760405162461bcd60e51b815260206004820152601f60248201527f45524332303a206d696e7420746f20746865207a65726f20616464726573730060448201526064016103a3565b80600260008282546108bd9190610c03565b90915550506001600160a01b038216600090815260208190526040812080548392906108ea908490610c03565b90915550506040518181526001600160a01b038316906000907fddf252ad1be2c89b69c2b068fc378daa952ba7f163c4a11628f55a4df523b3ef9060200160405180910390a35050565b6001600160a01b0382166109b05760405162461bcd60e51b815260206004820152602160248201527f45524332303a206275726e2066726f6d20746865207a65726f2061646472657360448201527f730000000000000000000000000000000000000000000000000000000000000060648201526084016103a3565b6001600160a01b03821660009081526020819052604090205481811015610a3f5760405162461bcd60e51b815260206004820152602260248201527f45524332303a206275726e20616d6f756e7420657863656564732062616c616e60448201527f636500000000000000000000000000000000000000000000000000000000000060648201526084016103a3565b6001600160a01b0383166000908152602081905260408120838303905560028054849290610a6e908490610c1b565b90915550506040518281526000906001600160a01b038516907fddf252ad1be2c89b69c2b068fc378daa952ba7f163c4a11628f55a4df523b3ef9060200160405180910390a3505050565b80356001600160a01b0381168114610ad057600080fd5b919050565b600060208284031215610ae757600080fd5b610af082610ab9565b9392505050565b60008060408385031215610b0a57600080fd5b610b1383610ab9565b9150610b2160208401610ab9565b90509250929050565b600080600060608486031215610b3f57600080fd5b610b4884610ab9565b9250610b5660208501610ab9565b9150604084013590509250925092565b60008060408385031215610b7957600080fd5b610b8283610ab9565b946020939093013593505050565b600060208083528351808285015260005b81811015610bbd57858101830151858201604001528201610ba1565b81811115610bcf576000604083870101525b50601f017fffffffffffffffffffffffffffffffffffffffffffffffffffffffffffffffe016929092016040019392505050565b60008219821115610c1657610c16610c86565b500190565b600082821015610c2d57610c2d610c86565b500390565b600181811c90821680610c4657607f821691505b60208210811415610c80577f4e487b7100000000000000000000000000000000000000000000000000000000600052602260045260246000fd5b50919050565b7f4e487b7100000000000000000000000000000000000000000000000000000000600052601160045260246000fdfea26469706673582212200d8946b5eb130740744d8a31937c9971ac977e9fddfc4c96a792b9ef1e4e0a5c64736f6c63430008060033",
  "devdoc": {
    "details": "Extension of {ERC20} that adds a set of accounts with the {MinterRole}, which have permission to mint (create) new tokens as they see fit. At construction, the deployer of the contract is the only minter.",
    "kind": "dev",
    "methods": {
      "allowance(address,address)": {
        "details": "See {IERC20-allowance}."
      },
      "approve(address,uint256)": {
        "details": "See {IERC20-approve}. Requirements: - `spender` cannot be the zero address."
      },
      "balanceOf(address)": {
        "details": "See {IERC20-balanceOf}."
      },
      "balanceOfToken(address)": {
        "returns": {
          "_0": "The underlying balance of asset tokens."
        }
      },
      "decimals()": {
        "details": "Returns the number of decimals used to get its user representation. For example, if `decimals` equals `2`, a balance of `505` tokens should be displayed to a user as `5,05` (`505 / 10 ** 2`). Tokens usually opt for a value of 18, imitating the relationship between Ether and Wei. This is the value {ERC20} uses, unless this function is overridden; NOTE: This information is only used for _display_ purposes: it in no way affects any of the arithmetic of the contract, including {IERC20-balanceOf} and {IERC20-transfer}."
      },
      "decreaseAllowance(address,uint256)": {
        "details": "Atomically decreases the allowance granted to `spender` by the caller. This is an alternative to {approve} that can be used as a mitigation for problems described in {IERC20-approve}. Emits an {Approval} event indicating the updated allowance. Requirements: - `spender` cannot be the zero address. - `spender` must have allowance for the caller of at least `subtractedValue`."
      },
      "depositToken()": {
        "returns": {
          "_0": "The ERC20 asset token address."
        }
      },
      "increaseAllowance(address,uint256)": {
        "details": "Atomically increases the allowance granted to `spender` by the caller. This is an alternative to {approve} that can be used as a mitigation for problems described in {IERC20-approve}. Emits an {Approval} event indicating the updated allowance. Requirements: - `spender` cannot be the zero address."
      },
      "name()": {
        "details": "Returns the name of the token."
      },
      "redeemToken(uint256)": {
        "params": {
          "amount": "The amount of asset tokens to withdraw.  Denominated in `depositToken()` as above."
        },
        "returns": {
          "_0": "The actual amount of interst bearing tokens that were redeemed."
        }
      },
      "supplyTokenTo(uint256,address)": {
        "params": {
          "amount": "The amount of asset tokens to be supplied.  Denominated in `depositToken()` as above.",
          "to": "The user whose balance will receive the tokens"
        }
      },
      "symbol()": {
        "details": "Returns the symbol of the token, usually a shorter version of the name."
      },
      "totalSupply()": {
        "details": "See {IERC20-totalSupply}."
      },
      "transfer(address,uint256)": {
        "details": "See {IERC20-transfer}. Requirements: - `recipient` cannot be the zero address. - the caller must have a balance of at least `amount`."
      },
      "transferFrom(address,address,uint256)": {
        "details": "See {IERC20-transferFrom}. Emits an {Approval} event indicating the updated allowance. This is not required by the EIP. See the note at the beginning of {ERC20}. Requirements: - `sender` and `recipient` cannot be the zero address. - `sender` must have a balance of at least `amount`. - the caller must have allowance for ``sender``'s tokens of at least `amount`."
      }
    },
    "version": 1
  },
  "userdoc": {
    "kind": "user",
    "methods": {
      "balanceOfToken(address)": {
        "notice": "Returns the total balance (in asset tokens).  This includes the deposits and interest."
      },
      "depositToken()": {
        "notice": "Returns the ERC20 asset token used for deposits."
      },
      "redeemToken(uint256)": {
        "notice": "Redeems tokens from the yield source."
      },
      "supplyTokenTo(uint256,address)": {
        "notice": "Supplies tokens to the yield source.  Allows assets to be supplied on other user's behalf using the `to` param."
      }
    },
    "version": 1
  },
  "storageLayout": {
    "storage": [
      {
        "astId": 40,
        "contract": "@pooltogether/yield-source-interface/contracts/test/MockYieldSource.sol:MockYieldSource",
        "label": "_balances",
        "offset": 0,
        "slot": "0",
        "type": "t_mapping(t_address,t_uint256)"
      },
      {
        "astId": 46,
        "contract": "@pooltogether/yield-source-interface/contracts/test/MockYieldSource.sol:MockYieldSource",
        "label": "_allowances",
        "offset": 0,
        "slot": "1",
        "type": "t_mapping(t_address,t_mapping(t_address,t_uint256))"
      },
      {
        "astId": 48,
        "contract": "@pooltogether/yield-source-interface/contracts/test/MockYieldSource.sol:MockYieldSource",
        "label": "_totalSupply",
        "offset": 0,
        "slot": "2",
        "type": "t_uint256"
      },
      {
        "astId": 50,
        "contract": "@pooltogether/yield-source-interface/contracts/test/MockYieldSource.sol:MockYieldSource",
        "label": "_name",
        "offset": 0,
        "slot": "3",
        "type": "t_string_storage"
      },
      {
        "astId": 52,
        "contract": "@pooltogether/yield-source-interface/contracts/test/MockYieldSource.sol:MockYieldSource",
        "label": "_symbol",
        "offset": 0,
        "slot": "4",
        "type": "t_string_storage"
      },
      {
        "astId": 54,
        "contract": "@pooltogether/yield-source-interface/contracts/test/MockYieldSource.sol:MockYieldSource",
        "label": "_decimals",
        "offset": 0,
        "slot": "5",
        "type": "t_uint8"
      },
      {
        "astId": 590,
        "contract": "@pooltogether/yield-source-interface/contracts/test/MockYieldSource.sol:MockYieldSource",
        "label": "__gap",
        "offset": 0,
        "slot": "6",
        "type": "t_array(t_uint256)45_storage"
      },
      {
        "astId": 676,
        "contract": "@pooltogether/yield-source-interface/contracts/test/MockYieldSource.sol:MockYieldSource",
        "label": "token",
        "offset": 0,
        "slot": "51",
        "type": "t_contract(ERC20Mintable)664"
      },
      {
        "astId": 678,
        "contract": "@pooltogether/yield-source-interface/contracts/test/MockYieldSource.sol:MockYieldSource",
        "label": "ratePerSecond",
        "offset": 0,
        "slot": "52",
        "type": "t_uint256"
      },
      {
        "astId": 680,
        "contract": "@pooltogether/yield-source-interface/contracts/test/MockYieldSource.sol:MockYieldSource",
        "label": "lastYieldTimestamp",
        "offset": 0,
        "slot": "53",
        "type": "t_uint256"
      }
    ],
    "types": {
      "t_address": {
        "encoding": "inplace",
        "label": "address",
        "numberOfBytes": "20"
      },
      "t_array(t_uint256)45_storage": {
        "base": "t_uint256",
        "encoding": "inplace",
        "label": "uint256[45]",
        "numberOfBytes": "1440"
      },
      "t_contract(ERC20Mintable)664": {
        "encoding": "inplace",
        "label": "contract ERC20Mintable",
        "numberOfBytes": "20"
      },
      "t_mapping(t_address,t_mapping(t_address,t_uint256))": {
        "encoding": "mapping",
        "key": "t_address",
        "label": "mapping(address => mapping(address => uint256))",
        "numberOfBytes": "32",
        "value": "t_mapping(t_address,t_uint256)"
      },
      "t_mapping(t_address,t_uint256)": {
        "encoding": "mapping",
        "key": "t_address",
        "label": "mapping(address => uint256)",
        "numberOfBytes": "32",
        "value": "t_uint256"
      },
      "t_string_storage": {
        "encoding": "bytes",
        "label": "string",
        "numberOfBytes": "32"
      },
      "t_uint256": {
        "encoding": "inplace",
        "label": "uint256",
        "numberOfBytes": "32"
      },
      "t_uint8": {
        "encoding": "inplace",
        "label": "uint8",
        "numberOfBytes": "1"
      }
    }
  }
}