{
  "address": "0x0C8a87436dd0f97F28bF46F330802DfD36aAB155",
  "abi": [
    {
      "inputs": [
        {
          "internalType": "contract IPrizePool",
          "name": "_prizePool",
          "type": "address"
        }
      ],
      "name": "availableBalanceOf",
      "outputs": [
        {
          "internalType": "uint256",
          "name": "",
          "type": "uint256"
        }
      ],
      "stateMutability": "nonpayable",
      "type": "function"
    },
    {
      "inputs": [
        {
          "internalType": "contract IPrizePool",
          "name": "_prizePool",
          "type": "address"
        },
        {
          "internalType": "uint256",
          "name": "_amountOut",
          "type": "uint256"
        }
      ],
      "name": "computeExactAmountIn",
      "outputs": [
        {
          "internalType": "uint256",
          "name": "",
          "type": "uint256"
        }
      ],
      "stateMutability": "nonpayable",
      "type": "function"
    },
    {
      "inputs": [
        {
          "internalType": "contract IPrizePool",
          "name": "_prizePool",
          "type": "address"
        },
        {
          "internalType": "uint256",
          "name": "_amountIn",
          "type": "uint256"
        }
      ],
      "name": "computeExactAmountOut",
      "outputs": [
        {
          "internalType": "uint256",
          "name": "",
          "type": "uint256"
        }
      ],
      "stateMutability": "nonpayable",
      "type": "function"
    },
    {
      "inputs": [
        {
          "internalType": "contract IPrizePool",
          "name": "_prizePool",
          "type": "address"
        }
      ],
      "name": "currentExchangeRate",
      "outputs": [
        {
          "internalType": "uint256",
          "name": "",
          "type": "uint256"
        }
      ],
      "stateMutability": "nonpayable",
      "type": "function"
    },
    {
      "inputs": [
        {
          "internalType": "contract IPrizePool",
          "name": "_prizePool",
          "type": "address"
        }
      ],
      "name": "getLiquidationState",
      "outputs": [
        {
          "components": [
            {
              "internalType": "uint256",
              "name": "reserveA",
              "type": "uint256"
            },
            {
              "internalType": "uint256",
              "name": "reserveB",
              "type": "uint256"
            }
          ],
          "internalType": "struct PrizePoolLiquidator.LiquidatorState",
          "name": "state",
          "type": "tuple"
        }
      ],
      "stateMutability": "view",
      "type": "function"
    },
    {
      "inputs": [],
      "name": "listener",
      "outputs": [
        {
          "internalType": "contract IPrizePoolLiquidatorListener",
          "name": "",
          "type": "address"
        }
      ],
      "stateMutability": "view",
      "type": "function"
    },
    {
      "inputs": [
        {
          "internalType": "contract IPrizePool",
          "name": "_pool",
          "type": "address"
        },
        {
          "internalType": "address",
          "name": "_target",
          "type": "address"
        },
        {
          "internalType": "contract IERC20",
          "name": "_want",
          "type": "address"
        },
        {
          "internalType": "uint32",
          "name": "_swapMultiplier",
          "type": "uint32"
        },
        {
          "internalType": "uint32",
          "name": "_liquidityFraction",
          "type": "uint32"
        },
        {
          "internalType": "uint192",
          "name": "_reserveA",
          "type": "uint192"
        },
        {
          "internalType": "uint192",
          "name": "_reserveB",
          "type": "uint192"
        }
      ],
      "name": "setPrizePool",
      "outputs": [
        {
          "internalType": "bool",
          "name": "",
          "type": "bool"
        }
      ],
      "stateMutability": "nonpayable",
      "type": "function"
    },
    {
      "inputs": [
        {
          "internalType": "contract IPrizePool",
          "name": "_prizePool",
          "type": "address"
        },
        {
          "internalType": "uint256",
          "name": "_amountIn",
          "type": "uint256"
        },
        {
          "internalType": "uint256",
          "name": "_amountOutMin",
          "type": "uint256"
        }
      ],
      "name": "swapExactAmountIn",
      "outputs": [
        {
          "internalType": "uint256",
          "name": "",
          "type": "uint256"
        }
      ],
      "stateMutability": "nonpayable",
      "type": "function"
    },
    {
      "inputs": [
        {
          "internalType": "contract IPrizePool",
          "name": "_prizePool",
          "type": "address"
        },
        {
          "internalType": "uint256",
          "name": "_amountOut",
          "type": "uint256"
        },
        {
          "internalType": "uint256",
          "name": "_amountInMax",
          "type": "uint256"
        }
      ],
      "name": "swapExactAmountOut",
      "outputs": [
        {
          "internalType": "uint256",
          "name": "",
          "type": "uint256"
        }
      ],
      "stateMutability": "nonpayable",
      "type": "function"
    }
  ],
  "transactionHash": "0xd623901028a1200744bb573260cd0817f59d562c8019c44c806b981b0a9a0be3",
  "args": [],
  "numDeployments": 1,
  "solcInputHash": "46a7ec46315ece58f9d4c4ea7316a87f",
  "bytecode": "0x608060405234801561001057600080fd5b5061124f806100206000396000f3fe608060405234801561001057600080fd5b50600436106100a35760003560e01c80637b92228d11610076578063b822988f1161005b578063b822988f14610285578063c57f192214610298578063c9a61be9146102ab57600080fd5b80637b92228d146102475780639551dd581461025a57600080fd5b806325d998bb146100a85780633a58fd77146100ce57806347edc6fb146100e15780634e376a9f14610234575b600080fd5b6100bb6100b6366004610feb565b61031b565b6040519081526020015b60405180910390f35b6100bb6100dc366004611094565b61032c565b6102246100ef366004611008565b604080516080810182526001600160a01b039788168152958716602080880191825263ffffffff96871688840190815295871660608901908152998916600081815280835284812099518a54908c167fffffffffffffffffffffffff0000000000000000000000000000000000000000909116178a5592516001998a01805498519c518a16600160c01b027fffffffff00000000ffffffffffffffffffffffffffffffffffffffffffffffff9d909a16600160a01b027fffffffffffffffff00000000000000000000000000000000000000000000000090991691909b16179690961799909916959095179096558551808701875277ffffffffffffffffffffffffffffffffffffffffffffffff92831681529116818701908152918352948390529290209251835590519181019190915590565b60405190151581526020016100c5565b6100bb6102423660046110c0565b6103cb565b6100bb610255366004611094565b61056c565b60025461026d906001600160a01b031681565b6040516001600160a01b0390911681526020016100c5565b6100bb610293366004610feb565b610602565b6100bb6102a63660046110c0565b61066c565b6103006102b9366004610feb565b6040805180820190915260008082526020820152506001600160a01b0316600090815260016020818152604092839020835180850190945280548452909101549082015290565b604080518251815260209283015192810192909252016100c5565b6000610326826107fb565b92915050565b6001600160a01b0380831660008181526020818152604080832081516080810183528154871681526001918201549687168185015263ffffffff600160a01b8804811682850152600160c01b9097049096166060870152938352838252808320815180830190925280548083529401549181018290529193926103c2916103b2886107fb565b8786604001518760600151610870565b95945050505050565b6001600160a01b0380841660008181526020818152604080832081516080810183528154871681526001918201549687168185015263ffffffff600160a01b8804811682850152600160c01b9097049096166060870152938352838252808320815180830190925280548252909301549083015291908261044b876107fb565b9050600080600061047085600001518660200151868c8a604001518b606001516108df565b8288526020880182905291945092509050838111156104d65760405162461bcd60e51b815260206004820152601e60248201527f57686f6f7073212068617665206578636565647320617661696c61626c65000060448201526064015b60405180910390fd5b878110156105265760405162461bcd60e51b815260206004820152601760248201527f747261646520646f6573206e6f74206d656574206d696e00000000000000000060448201526064016104cd565b6001600160a01b038a1660009081526001602081815260409092208751815582880151910155860151865161055f918c9133858e6109d7565b9998505050505050505050565b6001600160a01b0380831660008181526020818152604080832081516080810183528154871681526001918201549687168185015263ffffffff600160a01b8804811682850152600160c01b9097049096166060870152938352838252808320815180830190925280548083529401549181018290529193926103c2916105f2886107fb565b8786604001518760600151610c22565b6001600160a01b038116600090815260016020818152604080842081518083019092528054808352930154918101829052918391829161064a91610645886107fb565b610c95565b90925090508061066283670de0b6b3a764000061117e565b6103c29190611143565b6001600160a01b0380841660008181526020818152604080832081516080810183528154871681526001918201549687168185015263ffffffff600160a01b8804811682850152600160c01b909704909616606087015293835283825280832081518083019092528054825290930154908301529190826106ec876107fb565b9050600080600061071185600001518660200151868c8a604001518b60600151610cc8565b8288526020880182905291945092509050878111156107725760405162461bcd60e51b815260206004820152601760248201527f747261646520646f6573206e6f74206d656574206d696e00000000000000000060448201526064016104cd565b838911156107c25760405162461bcd60e51b815260206004820152601e60248201527f57686f6f7073212068617665206578636565647320617661696c61626c65000060448201526064016104cd565b6001600160a01b038a1660009081526001602081815260409092208751815582880151910155860151865161055f918c91338d866109d7565b6000816001600160a01b031663e6d8a94b6040518163ffffffff1660e01b8152600401602060405180830381600087803b15801561083857600080fd5b505af115801561084c573d6000803e3d6000fd5b505050506040513d601f19601f820116820180604052508101906103269190611112565b6000848411156108c25760405162461bcd60e51b815260206004820152600e60248201527f696e737566662062616c616e636500000000000000000000000000000000000060448201526064016104cd565b6000806108d0898989610c95565b9150915061055f868383610daf565b60008060008087116109335760405162461bcd60e51b815260206004820152601a60248201527f57686f6f707321206e6f2066756e647320617661696c61626c6500000000000060448201526064016104cd565b61093e898989610c95565b909350915061094e868385610e3c565b9050868111156109a05760405162461bcd60e51b815260206004820152601e60248201527f57686f6f7073212068617665206578636565647320617661696c61626c65000060448201526064016104cd565b6109aa8287610eaf565b91506109b68382610ec2565b92506109c6838389848989610ece565b909a90995090975095505050505050565b6040517f5d8a776e0000000000000000000000000000000000000000000000000000000081526001600160a01b03848116600483015260248201849052871690635d8a776e90604401600060405180830381600087803b158015610a3a57600080fd5b505af1158015610a4e573d6000803e3d6000fd5b50506040517f23b872dd0000000000000000000000000000000000000000000000000000000081526001600160a01b038681166004830152878116602483015260448201859052881692506323b872dd9150606401602060405180830381600087803b158015610abd57600080fd5b505af1158015610ad1573d6000803e3d6000fd5b505050506040513d601f19601f82011682018060405250810190610af59190610fc9565b506002546001600160a01b03168015610c1957806001600160a01b031663fd40162888896001600160a01b031663c002c4d66040518163ffffffff1660e01b815260040160206040518083038186803b158015610b5157600080fd5b505afa158015610b65573d6000803e3d6000fd5b505050506040513d601f19601f82011682018060405250810190610b8991906110f5565b6040517fffffffff0000000000000000000000000000000000000000000000000000000060e085901b1681526001600160a01b03928316600482015290821660248201526044810187905290891660648201526084810185905260a401600060405180830381600087803b158015610c0057600080fd5b505af1158015610c14573d6000803e3d6000fd5b505050505b50505050505050565b6000806000610c32898989610c95565b915091506000610c43878484610e3c565b90508781111561055f5760405162461bcd60e51b815260206004820152600e60248201527f696e737566662062616c616e636500000000000000000000000000000000000060448201526064016104cd565b6000806000610ca5848787610e3c565b9050610cb18582610ec2565b9150610cbd8685610eaf565b925050935093915050565b6000806000808711610d1c5760405162461bcd60e51b815260206004820152601a60248201527f57686f6f707321206e6f2066756e647320617661696c61626c6500000000000060448201526064016104cd565b86861115610d6c5760405162461bcd60e51b815260206004820152601e60248201527f57686f6f7073212068617665206578636565647320617661696c61626c65000060448201526064016104cd565b610d77898989610c95565b9093509150610d87868484610daf565b9050610d938282610eaf565b9150610d9f8387610ec2565b92506109c6838389898989610ece565b60008083118015610dc05750600082115b610e0c5760405162461bcd60e51b815260206004820152601f60248201527f43706d6d4c69623a20494e53554646494349454e545f4c49515549444954590060448201526064016104cd565b6000610e188486610f7c565b90506000610e268487610ec2565b9050610e328183611143565b9695505050505050565b60008083118015610e4d5750600082115b610e995760405162461bcd60e51b815260206004820152601f60248201527f43706d6d4c69623a20494e53554646494349454e545f4c49515549444954590060448201526064016104cd565b6000610ea58584610f7c565b90506000610e2685875b6000610ebb828461112b565b9392505050565b6000610ebb82846111bb565b60008080633b9aca00610ee763ffffffff87168861117e565b610ef19190611143565b90506000610f00828b8b610daf565b9050610f0c8a82610eaf565b9350610f188983610ec2565b92506000610f2c63ffffffff87168561117e565b610f36908a611143565b9050633b9aca00610f47828761117e565b610f519190611143565b9450633b9aca00610f62828661117e565b610f6c9190611143565b9350505050965096945050505050565b6000610ebb828461117e565b803577ffffffffffffffffffffffffffffffffffffffffffffffff81168114610fb057600080fd5b919050565b803563ffffffff81168114610fb057600080fd5b600060208284031215610fdb57600080fd5b81518015158114610ebb57600080fd5b600060208284031215610ffd57600080fd5b8135610ebb81611201565b600080600080600080600060e0888a03121561102357600080fd5b873561102e81611201565b9650602088013561103e81611201565b9550604088013561104e81611201565b945061105c60608901610fb5565b935061106a60808901610fb5565b925061107860a08901610f88565b915061108660c08901610f88565b905092959891949750929550565b600080604083850312156110a757600080fd5b82356110b281611201565b946020939093013593505050565b6000806000606084860312156110d557600080fd5b83356110e081611201565b95602085013595506040909401359392505050565b60006020828403121561110757600080fd5b8151610ebb81611201565b60006020828403121561112457600080fd5b5051919050565b6000821982111561113e5761113e6111d2565b500190565b600082611179577f4e487b7100000000000000000000000000000000000000000000000000000000600052601260045260246000fd5b500490565b6000817fffffffffffffffffffffffffffffffffffffffffffffffffffffffffffffffff04831182151516156111b6576111b66111d2565b500290565b6000828210156111cd576111cd6111d2565b500390565b7f4e487b7100000000000000000000000000000000000000000000000000000000600052601160045260246000fd5b6001600160a01b038116811461121657600080fd5b5056fea26469706673582212204c899565d0cbcefeb18430e2a51025f8f995f32aa21706b570061dc116695fbb64736f6c63430008060033",
  "devdoc": {
    "kind": "dev",
    "methods": {},
    "version": 1
  },
  "userdoc": {
    "kind": "user",
    "methods": {},
    "version": 1
  },
  "storageLayout": {
    "storage": [
      {
        "astId": 13836,
        "contract": "contracts/PrizePoolLiquidator.sol:PrizePoolLiquidator",
        "label": "poolLiquidatorConfigs",
        "offset": 0,
        "slot": "0",
        "type": "t_mapping(t_contract(IPrizePool)17066,t_struct(LiquidatorConfig)13825_storage)"
      },
      {
        "astId": 13842,
        "contract": "contracts/PrizePoolLiquidator.sol:PrizePoolLiquidator",
        "label": "poolLiquidatorStates",
        "offset": 0,
        "slot": "1",
        "type": "t_mapping(t_contract(IPrizePool)17066,t_struct(LiquidatorState)13830_storage)"
      },
      {
        "astId": 13845,
        "contract": "contracts/PrizePoolLiquidator.sol:PrizePoolLiquidator",
        "label": "listener",
        "offset": 0,
        "slot": "2",
        "type": "t_contract(IPrizePoolLiquidatorListener)17089"
      }
    ],
    "types": {
      "t_address": {
        "encoding": "inplace",
        "label": "address",
        "numberOfBytes": "20"
      },
      "t_contract(IERC20)663": {
        "encoding": "inplace",
        "label": "contract IERC20",
        "numberOfBytes": "20"
      },
      "t_contract(IPrizePool)17066": {
        "encoding": "inplace",
        "label": "contract IPrizePool",
        "numberOfBytes": "20"
      },
      "t_contract(IPrizePoolLiquidatorListener)17089": {
        "encoding": "inplace",
        "label": "contract IPrizePoolLiquidatorListener",
        "numberOfBytes": "20"
      },
      "t_mapping(t_contract(IPrizePool)17066,t_struct(LiquidatorConfig)13825_storage)": {
        "encoding": "mapping",
        "key": "t_contract(IPrizePool)17066",
        "label": "mapping(contract IPrizePool => struct PrizePoolLiquidator.LiquidatorConfig)",
        "numberOfBytes": "32",
        "value": "t_struct(LiquidatorConfig)13825_storage"
      },
      "t_mapping(t_contract(IPrizePool)17066,t_struct(LiquidatorState)13830_storage)": {
        "encoding": "mapping",
        "key": "t_contract(IPrizePool)17066",
        "label": "mapping(contract IPrizePool => struct PrizePoolLiquidator.LiquidatorState)",
        "numberOfBytes": "32",
        "value": "t_struct(LiquidatorState)13830_storage"
      },
      "t_struct(LiquidatorConfig)13825_storage": {
        "encoding": "inplace",
        "label": "struct PrizePoolLiquidator.LiquidatorConfig",
        "members": [
          {
            "astId": 13817,
            "contract": "contracts/PrizePoolLiquidator.sol:PrizePoolLiquidator",
            "label": "target",
            "offset": 0,
            "slot": "0",
            "type": "t_address"
          },
          {
            "astId": 13820,
            "contract": "contracts/PrizePoolLiquidator.sol:PrizePoolLiquidator",
            "label": "want",
            "offset": 0,
            "slot": "1",
            "type": "t_contract(IERC20)663"
          },
          {
            "astId": 13822,
            "contract": "contracts/PrizePoolLiquidator.sol:PrizePoolLiquidator",
            "label": "swapMultiplier",
            "offset": 20,
            "slot": "1",
            "type": "t_uint32"
          },
          {
            "astId": 13824,
            "contract": "contracts/PrizePoolLiquidator.sol:PrizePoolLiquidator",
            "label": "liquidityFraction",
            "offset": 24,
            "slot": "1",
            "type": "t_uint32"
          }
        ],
        "numberOfBytes": "64"
      },
      "t_struct(LiquidatorState)13830_storage": {
        "encoding": "inplace",
        "label": "struct PrizePoolLiquidator.LiquidatorState",
        "members": [
          {
            "astId": 13827,
            "contract": "contracts/PrizePoolLiquidator.sol:PrizePoolLiquidator",
            "label": "reserveA",
            "offset": 0,
            "slot": "0",
            "type": "t_uint256"
          },
          {
            "astId": 13829,
            "contract": "contracts/PrizePoolLiquidator.sol:PrizePoolLiquidator",
            "label": "reserveB",
            "offset": 0,
            "slot": "1",
            "type": "t_uint256"
          }
        ],
        "numberOfBytes": "64"
      },
      "t_uint256": {
        "encoding": "inplace",
        "label": "uint256",
        "numberOfBytes": "32"
      },
      "t_uint32": {
        "encoding": "inplace",
        "label": "uint32",
        "numberOfBytes": "4"
      }
    }
  }
}