{
  "address": "0xF33e8157569e09a9090E058b0a6D685d394258ed",
  "abi": [
    {
      "inputs": [
        {
          "internalType": "address",
          "name": "_owner",
          "type": "address"
        },
        {
          "internalType": "contract IERC20",
          "name": "_token",
          "type": "address"
        },
        {
          "internalType": "contract IDrawCalculatorV3",
          "name": "_drawCalculator",
          "type": "address"
        },
        {
          "internalType": "address",
          "name": "_vault",
          "type": "address"
        }
      ],
      "stateMutability": "nonpayable",
      "type": "constructor"
    },
    {
      "anonymous": false,
      "inputs": [
        {
          "indexed": true,
          "internalType": "address",
          "name": "user",
          "type": "address"
        },
        {
          "indexed": true,
          "internalType": "uint32",
          "name": "drawId",
          "type": "uint32"
        },
        {
          "indexed": false,
          "internalType": "uint256",
          "name": "payout",
          "type": "uint256"
        }
      ],
      "name": "ClaimedDraw",
      "type": "event"
    },
    {
      "anonymous": false,
      "inputs": [
        {
          "indexed": true,
          "internalType": "contract IDrawCalculatorV3",
          "name": "calculator",
          "type": "address"
        }
      ],
      "name": "DrawCalculatorSet",
      "type": "event"
    },
    {
      "anonymous": false,
      "inputs": [
        {
          "indexed": true,
          "internalType": "contract IERC20",
          "name": "token",
          "type": "address"
        },
        {
          "indexed": true,
          "internalType": "address",
          "name": "to",
          "type": "address"
        },
        {
          "indexed": false,
          "internalType": "uint256",
          "name": "amount",
          "type": "uint256"
        }
      ],
      "name": "ERC20Withdrawn",
      "type": "event"
    },
    {
      "anonymous": false,
      "inputs": [
        {
          "indexed": true,
          "internalType": "address",
          "name": "previousManager",
          "type": "address"
        },
        {
          "indexed": true,
          "internalType": "address",
          "name": "newManager",
          "type": "address"
        }
      ],
      "name": "ManagerTransferred",
      "type": "event"
    },
    {
      "anonymous": false,
      "inputs": [
        {
          "indexed": true,
          "internalType": "address",
          "name": "pendingOwner",
          "type": "address"
        }
      ],
      "name": "OwnershipOffered",
      "type": "event"
    },
    {
      "anonymous": false,
      "inputs": [
        {
          "indexed": true,
          "internalType": "address",
          "name": "previousOwner",
          "type": "address"
        },
        {
          "indexed": true,
          "internalType": "address",
          "name": "newOwner",
          "type": "address"
        }
      ],
      "name": "OwnershipTransferred",
      "type": "event"
    },
    {
      "anonymous": false,
      "inputs": [
        {
          "indexed": true,
          "internalType": "contract IERC20",
          "name": "token",
          "type": "address"
        }
      ],
      "name": "TokenSet",
      "type": "event"
    },
    {
      "inputs": [
        {
          "internalType": "contract ITicket",
          "name": "_ticket",
          "type": "address"
        },
        {
          "internalType": "address",
          "name": "_user",
          "type": "address"
        },
        {
          "internalType": "uint32[]",
          "name": "_drawIds",
          "type": "uint32[]"
        },
        {
          "internalType": "bytes",
          "name": "_data",
          "type": "bytes"
        }
      ],
      "name": "claim",
      "outputs": [
        {
          "internalType": "uint256",
          "name": "",
          "type": "uint256"
        }
      ],
      "stateMutability": "nonpayable",
      "type": "function"
    },
    {
      "inputs": [],
      "name": "claimOwnership",
      "outputs": [],
      "stateMutability": "nonpayable",
      "type": "function"
    },
    {
      "inputs": [],
      "name": "getDrawCalculator",
      "outputs": [
        {
          "internalType": "contract IDrawCalculatorV3",
          "name": "",
          "type": "address"
        }
      ],
      "stateMutability": "view",
      "type": "function"
    },
    {
      "inputs": [
        {
          "internalType": "address",
          "name": "_user",
          "type": "address"
        },
        {
          "internalType": "uint32",
          "name": "_drawId",
          "type": "uint32"
        }
      ],
      "name": "getDrawPayoutBalanceOf",
      "outputs": [
        {
          "internalType": "uint256",
          "name": "",
          "type": "uint256"
        }
      ],
      "stateMutability": "view",
      "type": "function"
    },
    {
      "inputs": [],
      "name": "getToken",
      "outputs": [
        {
          "internalType": "contract IERC20",
          "name": "",
          "type": "address"
        }
      ],
      "stateMutability": "view",
      "type": "function"
    },
    {
      "inputs": [],
      "name": "manager",
      "outputs": [
        {
          "internalType": "address",
          "name": "",
          "type": "address"
        }
      ],
      "stateMutability": "view",
      "type": "function"
    },
    {
      "inputs": [],
      "name": "owner",
      "outputs": [
        {
          "internalType": "address",
          "name": "",
          "type": "address"
        }
      ],
      "stateMutability": "view",
      "type": "function"
    },
    {
      "inputs": [],
      "name": "pendingOwner",
      "outputs": [
        {
          "internalType": "address",
          "name": "",
          "type": "address"
        }
      ],
      "stateMutability": "view",
      "type": "function"
    },
    {
      "inputs": [],
      "name": "renounceOwnership",
      "outputs": [],
      "stateMutability": "nonpayable",
      "type": "function"
    },
    {
      "inputs": [
        {
          "internalType": "contract IDrawCalculatorV3",
          "name": "_newCalculator",
          "type": "address"
        }
      ],
      "name": "setDrawCalculator",
      "outputs": [
        {
          "internalType": "contract IDrawCalculatorV3",
          "name": "",
          "type": "address"
        }
      ],
      "stateMutability": "nonpayable",
      "type": "function"
    },
    {
      "inputs": [
        {
          "internalType": "address",
          "name": "_newManager",
          "type": "address"
        }
      ],
      "name": "setManager",
      "outputs": [
        {
          "internalType": "bool",
          "name": "",
          "type": "bool"
        }
      ],
      "stateMutability": "nonpayable",
      "type": "function"
    },
    {
      "inputs": [
        {
          "internalType": "address",
          "name": "_newOwner",
          "type": "address"
        }
      ],
      "name": "transferOwnership",
      "outputs": [],
      "stateMutability": "nonpayable",
      "type": "function"
    },
    {
      "inputs": [],
      "name": "vault",
      "outputs": [
        {
          "internalType": "address",
          "name": "",
          "type": "address"
        }
      ],
      "stateMutability": "view",
      "type": "function"
    },
    {
      "inputs": [
        {
          "internalType": "contract IERC20",
          "name": "_erc20Token",
          "type": "address"
        },
        {
          "internalType": "address",
          "name": "_to",
          "type": "address"
        },
        {
          "internalType": "uint256",
          "name": "_amount",
          "type": "uint256"
        }
      ],
      "name": "withdrawERC20",
      "outputs": [
        {
          "internalType": "bool",
          "name": "",
          "type": "bool"
        }
      ],
      "stateMutability": "nonpayable",
      "type": "function"
    }
  ],
  "transactionHash": "0x1be0efae610446a707eea7bbce1a61eb5a7ab4077a8f638c166a92a2435651e9",
  "args": [
    "0x3A791e828fDd420fbE16416efDF509E4b9088Dd4",
    "0xDf5BcA54fcB0Fc9ee4473A143df883cAE976932b",
    "0xC5f05726fdB23935f78dd561ebb2fD4A803E2312",
    "0x08551a424a092B9eaEEbEe2d1a11EAB79Dc58391"
  ],
  "numDeployments": 1,
  "solcInputHash": "b05209ff2ac583caae27b575ae3779ab",
  "bytecode": "0x60a06040523480156200001157600080fd5b50604051620017da380380620017da833981016040819052620000349162000215565b83620000408162000123565b506200004c8262000173565b6001600160a01b038316620000ba5760405162461bcd60e51b815260206004820152602960248201527f5072697a654469737472696275746f7256322f746f6b656e2d6e6f742d7a65726044820152686f2d6164647265737360b81b60648201526084015b60405180910390fd5b606083901b6001600160601b031916608052600580546001600160a01b0319166001600160a01b0383811691909117909155604051908416907fa07c91c183e42229e705a9795a1c06d76528b673788b849597364528c96eefb790600090a25050505062000296565b600080546001600160a01b038381166001600160a01b0319831681178455604051919092169283917f8be0079c531659141344cd1fd0a4f28419497f9722a3daafe3b4186f6b6457e09190a35050565b6001600160a01b038116620001cb5760405162461bcd60e51b815260206004820181905260248201527f5072697a654469737472696275746f7256322f63616c632d6e6f742d7a65726f6044820152606401620000b1565b600380546001600160a01b0319166001600160a01b0383169081179091556040517fff37eafdc3779d387d79dcf458fdc36536d857426f03a53204694f8fbb0d8a6b90600090a250565b600080600080608085870312156200022c57600080fd5b845162000239816200027d565b60208601519094506200024c816200027d565b60408601519093506200025f816200027d565b606086015190925062000272816200027d565b939692955090935050565b6001600160a01b03811681146200029357600080fd5b50565b60805160601c61151e620002bc600039600081816101170152610a3d015261151e6000f3fe608060405234801561001057600080fd5b50600436106100ea5760003560e01c8063715018a61161008c578063d0ebdbe711610066578063d0ebdbe7146101dd578063e30c3978146101f0578063f2fde38b14610201578063fbfa77cf1461021457600080fd5b8063715018a6146101b15780638da5cb5b146101b9578063b7f892d1146101ca57600080fd5b806344004cc1116100c857806344004cc114610160578063454a814014610183578063481c6a75146101965780634e71e0c8146101a757600080fd5b80631ca4bc74146100ef57806321df0da7146101155780632d680cfa1461014f575b600080fd5b6101026100fd366004611222565b610227565b6040519081526020015b60405180910390f35b7f00000000000000000000000000000000000000000000000000000000000000005b6040516001600160a01b03909116815260200161010c565b6003546001600160a01b0316610137565b61017361016e3660046111e1565b610465565b604051901515815260200161010c565b61013761019136600461109b565b61067e565b6002546001600160a01b0316610137565b6101af610744565b005b6101af6107d2565b6000546001600160a01b0316610137565b6101026101d83660046110b8565b610847565b6101736101eb36600461109b565b610876565b6001546001600160a01b0316610137565b6101af61020f36600461109b565b6108f0565b600554610137906001600160a01b031681565b6003546040517f6144a4eb000000000000000000000000000000000000000000000000000000008152600091829182916001600160a01b031690636144a4eb9061027f908c908c908c908c908c908c9060040161131f565b60006040518083038186803b15801561029757600080fd5b505afa1580156102ab573d6000803e3d6000fd5b505050506040513d6000823e601f3d908101601f191682016040526102d391908101906110ed565b50805190915060005b8181101561044c5760008989838181106102f8576102f86114a4565b905060200201602081019061030d91906112e8565b90506000848381518110610323576103236114a4565b6020908102919091018101516001600160a01b038e16600090815260048352604080822063ffffffff8716835290935291822054909250908183116103af5760405162461bcd60e51b815260206004820152601e60248201527f5072697a654469737472696275746f7256322f7a65726f2d7061796f7574000060448201526064015b60405180910390fd5b506001600160a01b038d16600090815260046020908152604080832063ffffffff8716845290915290208290558082036103e98189611411565b97508363ffffffff168e6001600160a01b03167fda18d31fbb73ed04b84307ef1bc6602e02c855af9f65b53ed10ba43e8d35b7dd8360405161042d91815260200190565b60405180910390a350505050808061044490611455565b9150506102dc565b506104578984610a2c565b509098975050505050505050565b60003361047a6002546001600160a01b031690565b6001600160a01b031614806104a857503361049d6000546001600160a01b031690565b6001600160a01b0316145b61051a5760405162461bcd60e51b815260206004820152602660248201527f4d616e61676561626c652f63616c6c65722d6e6f742d6d616e616765722d6f7260448201527f2d6f776e6572000000000000000000000000000000000000000000000000000060648201526084016103a6565b6001600160a01b0383166105965760405162461bcd60e51b815260206004820152602d60248201527f5072697a654469737472696275746f7256322f726563697069656e742d6e6f7460448201527f2d7a65726f2d616464726573730000000000000000000000000000000000000060648201526084016103a6565b6001600160a01b0384166106125760405162461bcd60e51b815260206004820152602960248201527f5072697a654469737472696275746f7256322f45524332302d6e6f742d7a657260448201527f6f2d61646472657373000000000000000000000000000000000000000000000060648201526084016103a6565b6106266001600160a01b0385168484610a6b565b826001600160a01b0316846001600160a01b03167fbfed55bdcd242e3dd0f60ddd7d1e87c67f61c34cd9527b3e6455d841b10253628460405161066b91815260200190565b60405180910390a35060015b9392505050565b6000336106936002546001600160a01b031690565b6001600160a01b031614806106c15750336106b66000546001600160a01b031690565b6001600160a01b0316145b6107335760405162461bcd60e51b815260206004820152602660248201527f4d616e61676561626c652f63616c6c65722d6e6f742d6d616e616765722d6f7260448201527f2d6f776e6572000000000000000000000000000000000000000000000000000060648201526084016103a6565b61073c82610b19565b50805b919050565b6001546001600160a01b0316331461079e5760405162461bcd60e51b815260206004820152601f60248201527f4f776e61626c652f63616c6c65722d6e6f742d70656e64696e674f776e65720060448201526064016103a6565b6001546107b3906001600160a01b0316610bc6565b6001805473ffffffffffffffffffffffffffffffffffffffff19169055565b336107e56000546001600160a01b031690565b6001600160a01b03161461083b5760405162461bcd60e51b815260206004820152601860248201527f4f776e61626c652f63616c6c65722d6e6f742d6f776e6572000000000000000060448201526064016103a6565b6108456000610bc6565b565b6001600160a01b038216600090815260046020908152604080832063ffffffff85168452909152812054610677565b60003361088b6000546001600160a01b031690565b6001600160a01b0316146108e15760405162461bcd60e51b815260206004820152601860248201527f4f776e61626c652f63616c6c65722d6e6f742d6f776e6572000000000000000060448201526064016103a6565b6108ea82610c23565b92915050565b336109036000546001600160a01b031690565b6001600160a01b0316146109595760405162461bcd60e51b815260206004820152601860248201527f4f776e61626c652f63616c6c65722d6e6f742d6f776e6572000000000000000060448201526064016103a6565b6001600160a01b0381166109d55760405162461bcd60e51b815260206004820152602560248201527f4f776e61626c652f70656e64696e674f776e65722d6e6f742d7a65726f2d616460448201527f647265737300000000000000000000000000000000000000000000000000000060648201526084016103a6565b6001805473ffffffffffffffffffffffffffffffffffffffff19166001600160a01b0383169081179091556040517f239a2ddded15777fa246aed5f7e1a9bc69a39d4eb4a397034d1d85766cca7d4c90600090a250565b600554610a67906001600160a01b037f0000000000000000000000000000000000000000000000000000000000000000811691168484610d0f565b5050565b6040516001600160a01b038316602482015260448101829052610b149084907fa9059cbb00000000000000000000000000000000000000000000000000000000906064015b60408051601f198184030181529190526020810180517bffffffffffffffffffffffffffffffffffffffffffffffffffffffff167fffffffff0000000000000000000000000000000000000000000000000000000090931692909217909152610d66565b505050565b6001600160a01b038116610b6f5760405162461bcd60e51b815260206004820181905260248201527f5072697a654469737472696275746f7256322f63616c632d6e6f742d7a65726f60448201526064016103a6565b6003805473ffffffffffffffffffffffffffffffffffffffff19166001600160a01b0383169081179091556040517fff37eafdc3779d387d79dcf458fdc36536d857426f03a53204694f8fbb0d8a6b90600090a250565b600080546001600160a01b0383811673ffffffffffffffffffffffffffffffffffffffff19831681178455604051919092169283917f8be0079c531659141344cd1fd0a4f28419497f9722a3daafe3b4186f6b6457e09190a35050565b6002546000906001600160a01b03908116908316811415610cac5760405162461bcd60e51b815260206004820152602360248201527f4d616e61676561626c652f6578697374696e672d6d616e616765722d6164647260448201527f657373000000000000000000000000000000000000000000000000000000000060648201526084016103a6565b6002805473ffffffffffffffffffffffffffffffffffffffff19166001600160a01b0385811691821790925560405190918316907f9cb45c728de594dab506a1f1a8554e24c8eeaf983618d5ec5dd7bc6f3c49feee90600090a350600192915050565b6040516001600160a01b0380851660248301528316604482015260648101829052610d609085907f23b872dd0000000000000000000000000000000000000000000000000000000090608401610ab0565b50505050565b6000610dbb826040518060400160405280602081526020017f5361666545524332303a206c6f772d6c6576656c2063616c6c206661696c6564815250856001600160a01b0316610e4b9092919063ffffffff16565b805190915015610b145780806020019051810190610dd991906111bf565b610b145760405162461bcd60e51b815260206004820152602a60248201527f5361666545524332303a204552433230206f7065726174696f6e20646964206e60448201527f6f7420737563636565640000000000000000000000000000000000000000000060648201526084016103a6565b6060610e5a8484600085610e62565b949350505050565b606082471015610eda5760405162461bcd60e51b815260206004820152602660248201527f416464726573733a20696e73756666696369656e742062616c616e636520666f60448201527f722063616c6c000000000000000000000000000000000000000000000000000060648201526084016103a6565b843b610f285760405162461bcd60e51b815260206004820152601d60248201527f416464726573733a2063616c6c20746f206e6f6e2d636f6e747261637400000060448201526064016103a6565b600080866001600160a01b03168587604051610f449190611303565b60006040518083038185875af1925050503d8060008114610f81576040519150601f19603f3d011682016040523d82523d6000602084013e610f86565b606091505b5091509150610f96828286610fa1565b979650505050505050565b60608315610fb0575081610677565b825115610fc05782518084602001fd5b8160405162461bcd60e51b81526004016103a691906113ad565b60008083601f840112610fec57600080fd5b50813567ffffffffffffffff81111561100457600080fd5b60208301915083602082850101111561101c57600080fd5b9250929050565b600082601f83011261103457600080fd5b815167ffffffffffffffff81111561104e5761104e6114ba565b6110616020601f19601f840116016113e0565b81815284602083860101111561107657600080fd5b610e5a826020830160208701611429565b803563ffffffff8116811461073f57600080fd5b6000602082840312156110ad57600080fd5b8135610677816114d0565b600080604083850312156110cb57600080fd5b82356110d6816114d0565b91506110e460208401611087565b90509250929050565b6000806040838503121561110057600080fd5b825167ffffffffffffffff8082111561111857600080fd5b818501915085601f83011261112c57600080fd5b8151602082821115611140576111406114ba565b8160051b61114f8282016113e0565b8381528281019086840183880185018c101561116a57600080fd5b600097505b8588101561118d57805183526001979097019691840191840161116f565b5092890151929750919450505050808211156111a857600080fd5b506111b585828601611023565b9150509250929050565b6000602082840312156111d157600080fd5b8151801515811461067757600080fd5b6000806000606084860312156111f657600080fd5b8335611201816114d0565b92506020840135611211816114d0565b929592945050506040919091013590565b6000806000806000806080878903121561123b57600080fd5b8635611246816114d0565b95506020870135611256816114d0565b9450604087013567ffffffffffffffff8082111561127357600080fd5b818901915089601f83011261128757600080fd5b81358181111561129657600080fd5b8a60208260051b85010111156112ab57600080fd5b6020830196508095505060608901359150808211156112c957600080fd5b506112d689828a01610fda565b979a9699509497509295939492505050565b6000602082840312156112fa57600080fd5b61067782611087565b60008251611315818460208701611429565b9190910192915050565b6001600160a01b03878116825286166020808301919091526080604083018190528201859052600090869060a0840190835b8881101561137a5763ffffffff61136785611087565b1683529281019291810191600101611351565b5084820360608601528582528587828401376000828701820152601f909501601f19160190930198975050505050505050565b60208152600082518060208401526113cc816040850160208701611429565b601f01601f19169190910160400192915050565b604051601f8201601f1916810167ffffffffffffffff81118282101715611409576114096114ba565b604052919050565b600082198211156114245761142461148e565b500190565b60005b8381101561144457818101518382015260200161142c565b83811115610d605750506000910152565b60007fffffffffffffffffffffffffffffffffffffffffffffffffffffffffffffffff8214156114875761148761148e565b5060010190565b634e487b7160e01b600052601160045260246000fd5b634e487b7160e01b600052603260045260246000fd5b634e487b7160e01b600052604160045260246000fd5b6001600160a01b03811681146114e557600080fd5b5056fea2646970667358221220a8aa8a69f638fa5042bf65837ef3c01f625ce5c0a5cc81eeb1802e35dc6cd3c864736f6c63430008060033",
  "devdoc": {
    "author": "PoolTogether Inc Team",
    "events": {
      "ClaimedDraw(address,uint32,uint256)": {
        "params": {
          "drawId": "Draw id that was paid out",
          "payout": "Payout for draw",
          "user": "User address receiving draw claim payouts"
        }
      },
      "DrawCalculatorSet(address)": {
        "params": {
          "calculator": "IDrawCalculatorV3 address"
        }
      },
      "ERC20Withdrawn(address,address,uint256)": {
        "params": {
          "amount": "Amount of tokens transferred.",
          "to": "Address that received funds.",
          "token": "ERC20 token transferred."
        }
      },
      "TokenSet(address)": {
        "params": {
          "token": "Token address"
        }
      }
    },
    "kind": "dev",
    "methods": {
      "claimOwnership()": {
        "details": "This function is only callable by the `_pendingOwner`."
      },
      "constructor": {
        "params": {
          "_drawCalculator": "IDrawCalculatorV3 address",
          "_owner": "Owner address",
          "_token": "Token address"
        }
      },
      "manager()": {
        "returns": {
          "_0": "Current `_manager` address."
        }
      },
      "pendingOwner()": {
        "returns": {
          "_0": "Current `_pendingOwner` address."
        }
      },
      "renounceOwnership()": {
        "details": "Leaves the contract without owner. It will not be possible to call `onlyOwner` functions anymore. Can only be called by the current owner. NOTE: Renouncing ownership will leave the contract without an owner, thereby removing any functionality that is only available to the owner."
      },
      "setManager(address)": {
        "details": "Throws if called by any account other than the owner.",
        "params": {
          "_newManager": "New _manager address."
        },
        "returns": {
          "_0": "Boolean to indicate if the operation was successful or not."
        }
      },
      "transferOwnership(address)": {
        "params": {
          "_newOwner": "Address to transfer ownership to."
        }
      }
    },
    "title": "PoolTogether V4 PrizeDistributorV2",
    "version": 1
  },
  "userdoc": {
    "events": {
      "ClaimedDraw(address,uint32,uint256)": {
        "notice": "Emit when user has claimed token from the PrizeDistributorV2."
      },
      "DrawCalculatorSet(address)": {
        "notice": "Emit when IDrawCalculatorV3 is set."
      },
      "ERC20Withdrawn(address,address,uint256)": {
        "notice": "Emit when ERC20 tokens are withdrawn."
      },
      "TokenSet(address)": {
        "notice": "Emit when Token is set."
      }
    },
    "kind": "user",
    "methods": {
      "claimOwnership()": {
        "notice": "Allows the `_pendingOwner` address to finalize the transfer."
      },
      "constructor": {
        "notice": "Initialize PrizeDistributorV2 smart contract."
      },
      "manager()": {
        "notice": "Gets current `_manager`."
      },
      "owner()": {
        "notice": "Returns the address of the current owner."
      },
      "pendingOwner()": {
        "notice": "Gets current `_pendingOwner`."
      },
      "renounceOwnership()": {
        "notice": "Renounce ownership of the contract."
      },
      "setManager(address)": {
        "notice": "Set or change of manager."
      },
      "transferOwnership(address)": {
        "notice": "Allows current owner to set the `_pendingOwner` address."
      },
      "vault()": {
        "notice": "The vault that stores the prize tokens"
      }
    },
    "notice": "The PrizeDistributorV2 contract holds Tickets (captured interest) and distributes tickets to users with winning draw claims. PrizeDistributorV2 uses an external IDrawCalculatorV3 to validate a users draw claim, before awarding payouts. To prevent users  from reclaiming prizes, a payout history for each draw claim is mapped to user accounts. Reclaiming a draw can occur if an \"optimal\" prize was not included in previous claim pick indices and the new claims updated payout is greater then the previous prize distributor claim payout.",
    "version": 1
  },
  "storageLayout": {
    "storage": [
      {
        "astId": 4303,
        "contract": "contracts/PrizeDistributorV2.sol:PrizeDistributorV2",
        "label": "_owner",
        "offset": 0,
        "slot": "0",
        "type": "t_address"
      },
      {
        "astId": 4305,
        "contract": "contracts/PrizeDistributorV2.sol:PrizeDistributorV2",
        "label": "_pendingOwner",
        "offset": 0,
        "slot": "1",
        "type": "t_address"
      },
      {
        "astId": 4201,
        "contract": "contracts/PrizeDistributorV2.sol:PrizeDistributorV2",
        "label": "_manager",
        "offset": 0,
        "slot": "2",
        "type": "t_address"
      },
      {
        "astId": 17412,
        "contract": "contracts/PrizeDistributorV2.sol:PrizeDistributorV2",
        "label": "drawCalculator",
        "offset": 0,
        "slot": "3",
        "type": "t_contract(IDrawCalculatorV3)20414"
      },
      {
        "astId": 17423,
        "contract": "contracts/PrizeDistributorV2.sol:PrizeDistributorV2",
        "label": "userDrawPayouts",
        "offset": 0,
        "slot": "4",
        "type": "t_mapping(t_address,t_mapping(t_uint256,t_uint256))"
      },
      {
        "astId": 17426,
        "contract": "contracts/PrizeDistributorV2.sol:PrizeDistributorV2",
        "label": "vault",
        "offset": 0,
        "slot": "5",
        "type": "t_address"
      }
    ],
    "types": {
      "t_address": {
        "encoding": "inplace",
        "label": "address",
        "numberOfBytes": "20"
      },
      "t_contract(IDrawCalculatorV3)20414": {
        "encoding": "inplace",
        "label": "contract IDrawCalculatorV3",
        "numberOfBytes": "20"
      },
      "t_mapping(t_address,t_mapping(t_uint256,t_uint256))": {
        "encoding": "mapping",
        "key": "t_address",
        "label": "mapping(address => mapping(uint256 => uint256))",
        "numberOfBytes": "32",
        "value": "t_mapping(t_uint256,t_uint256)"
      },
      "t_mapping(t_uint256,t_uint256)": {
        "encoding": "mapping",
        "key": "t_uint256",
        "label": "mapping(uint256 => uint256)",
        "numberOfBytes": "32",
        "value": "t_uint256"
      },
      "t_uint256": {
        "encoding": "inplace",
        "label": "uint256",
        "numberOfBytes": "32"
      }
    }
  }
}