{
  "address": "0x8580e9822287AadF74d5b90734E45133147efc64",
  "abi": [
    {
      "inputs": [
        {
          "internalType": "address",
          "name": "_owner",
          "type": "address"
        },
        {
          "internalType": "contract IERC20",
          "name": "_token",
          "type": "address"
        },
        {
          "internalType": "contract IDrawCalculatorV3",
          "name": "_drawCalculator",
          "type": "address"
        },
        {
          "internalType": "address",
          "name": "_tokenVault",
          "type": "address"
        }
      ],
      "stateMutability": "nonpayable",
      "type": "constructor"
    },
    {
      "anonymous": false,
      "inputs": [
        {
          "indexed": true,
          "internalType": "address",
          "name": "user",
          "type": "address"
        },
        {
          "indexed": true,
          "internalType": "uint32",
          "name": "drawId",
          "type": "uint32"
        },
        {
          "indexed": false,
          "internalType": "uint256",
          "name": "payout",
          "type": "uint256"
        },
        {
          "indexed": false,
          "internalType": "uint64[]",
          "name": "pickIndices",
          "type": "uint64[]"
        }
      ],
      "name": "ClaimedDraw",
      "type": "event"
    },
    {
      "anonymous": false,
      "inputs": [
        {
          "indexed": true,
          "internalType": "address",
          "name": "caller",
          "type": "address"
        },
        {
          "indexed": true,
          "internalType": "contract IDrawCalculatorV3",
          "name": "calculator",
          "type": "address"
        }
      ],
      "name": "DrawCalculatorSet",
      "type": "event"
    },
    {
      "anonymous": false,
      "inputs": [
        {
          "indexed": true,
          "internalType": "contract IERC20",
          "name": "token",
          "type": "address"
        },
        {
          "indexed": true,
          "internalType": "address",
          "name": "to",
          "type": "address"
        },
        {
          "indexed": false,
          "internalType": "uint256",
          "name": "amount",
          "type": "uint256"
        }
      ],
      "name": "ERC20Withdrawn",
      "type": "event"
    },
    {
      "anonymous": false,
      "inputs": [
        {
          "indexed": true,
          "internalType": "address",
          "name": "previousManager",
          "type": "address"
        },
        {
          "indexed": true,
          "internalType": "address",
          "name": "newManager",
          "type": "address"
        }
      ],
      "name": "ManagerTransferred",
      "type": "event"
    },
    {
      "anonymous": false,
      "inputs": [
        {
          "indexed": true,
          "internalType": "address",
          "name": "pendingOwner",
          "type": "address"
        }
      ],
      "name": "OwnershipOffered",
      "type": "event"
    },
    {
      "anonymous": false,
      "inputs": [
        {
          "indexed": true,
          "internalType": "address",
          "name": "previousOwner",
          "type": "address"
        },
        {
          "indexed": true,
          "internalType": "address",
          "name": "newOwner",
          "type": "address"
        }
      ],
      "name": "OwnershipTransferred",
      "type": "event"
    },
    {
      "anonymous": false,
      "inputs": [
        {
          "indexed": true,
          "internalType": "contract IERC20",
          "name": "token",
          "type": "address"
        }
      ],
      "name": "TokenSet",
      "type": "event"
    },
    {
      "anonymous": false,
      "inputs": [
        {
          "indexed": true,
          "internalType": "address",
          "name": "caller",
          "type": "address"
        },
        {
          "indexed": true,
          "internalType": "address",
          "name": "tokenVault",
          "type": "address"
        }
      ],
      "name": "TokenVaultSet",
      "type": "event"
    },
    {
      "inputs": [
        {
          "internalType": "contract ITicket",
          "name": "_ticket",
          "type": "address"
        },
        {
          "internalType": "address",
          "name": "_user",
          "type": "address"
        },
        {
          "internalType": "uint32[]",
          "name": "_drawIds",
          "type": "uint32[]"
        },
        {
          "internalType": "uint64[][]",
          "name": "_drawPickIndices",
          "type": "uint64[][]"
        }
      ],
      "name": "claim",
      "outputs": [
        {
          "internalType": "uint256",
          "name": "",
          "type": "uint256"
        }
      ],
      "stateMutability": "nonpayable",
      "type": "function"
    },
    {
      "inputs": [],
      "name": "claimOwnership",
      "outputs": [],
      "stateMutability": "nonpayable",
      "type": "function"
    },
    {
      "inputs": [],
      "name": "getDrawCalculator",
      "outputs": [
        {
          "internalType": "contract IDrawCalculatorV3",
          "name": "",
          "type": "address"
        }
      ],
      "stateMutability": "view",
      "type": "function"
    },
    {
      "inputs": [
        {
          "internalType": "address",
          "name": "_user",
          "type": "address"
        },
        {
          "internalType": "uint32",
          "name": "_drawId",
          "type": "uint32"
        }
      ],
      "name": "getDrawPayoutBalanceOf",
      "outputs": [
        {
          "internalType": "uint256",
          "name": "",
          "type": "uint256"
        }
      ],
      "stateMutability": "view",
      "type": "function"
    },
    {
      "inputs": [],
      "name": "getToken",
      "outputs": [
        {
          "internalType": "contract IERC20",
          "name": "",
          "type": "address"
        }
      ],
      "stateMutability": "view",
      "type": "function"
    },
    {
      "inputs": [],
      "name": "getTokenVault",
      "outputs": [
        {
          "internalType": "address",
          "name": "",
          "type": "address"
        }
      ],
      "stateMutability": "view",
      "type": "function"
    },
    {
      "inputs": [],
      "name": "manager",
      "outputs": [
        {
          "internalType": "address",
          "name": "",
          "type": "address"
        }
      ],
      "stateMutability": "view",
      "type": "function"
    },
    {
      "inputs": [],
      "name": "owner",
      "outputs": [
        {
          "internalType": "address",
          "name": "",
          "type": "address"
        }
      ],
      "stateMutability": "view",
      "type": "function"
    },
    {
      "inputs": [],
      "name": "pendingOwner",
      "outputs": [
        {
          "internalType": "address",
          "name": "",
          "type": "address"
        }
      ],
      "stateMutability": "view",
      "type": "function"
    },
    {
      "inputs": [],
      "name": "renounceOwnership",
      "outputs": [],
      "stateMutability": "nonpayable",
      "type": "function"
    },
    {
      "inputs": [
        {
          "internalType": "contract IDrawCalculatorV3",
          "name": "_newCalculator",
          "type": "address"
        }
      ],
      "name": "setDrawCalculator",
      "outputs": [
        {
          "internalType": "contract IDrawCalculatorV3",
          "name": "",
          "type": "address"
        }
      ],
      "stateMutability": "nonpayable",
      "type": "function"
    },
    {
      "inputs": [
        {
          "internalType": "address",
          "name": "_newManager",
          "type": "address"
        }
      ],
      "name": "setManager",
      "outputs": [
        {
          "internalType": "bool",
          "name": "",
          "type": "bool"
        }
      ],
      "stateMutability": "nonpayable",
      "type": "function"
    },
    {
      "inputs": [
        {
          "internalType": "address",
          "name": "_tokenVault",
          "type": "address"
        }
      ],
      "name": "setTokenVault",
      "outputs": [
        {
          "internalType": "address",
          "name": "",
          "type": "address"
        }
      ],
      "stateMutability": "nonpayable",
      "type": "function"
    },
    {
      "inputs": [
        {
          "internalType": "address",
          "name": "_newOwner",
          "type": "address"
        }
      ],
      "name": "transferOwnership",
      "outputs": [],
      "stateMutability": "nonpayable",
      "type": "function"
    },
    {
      "inputs": [
        {
          "internalType": "contract IERC20",
          "name": "_erc20Token",
          "type": "address"
        },
        {
          "internalType": "address",
          "name": "_to",
          "type": "address"
        },
        {
          "internalType": "uint256",
          "name": "_amount",
          "type": "uint256"
        }
      ],
      "name": "withdrawERC20",
      "outputs": [
        {
          "internalType": "bool",
          "name": "",
          "type": "bool"
        }
      ],
      "stateMutability": "nonpayable",
      "type": "function"
    }
  ],
  "transactionHash": "0x2620d7ee95f8fce0873f4c29dd8b2e478766ed12be14c22d4242fbeb2b74765d",
  "args": [
    "0x3A791e828fDd420fbE16416efDF509E4b9088Dd4",
    "0x79B00FD40Ca5923B982afBa53573F9D349d43418",
    "0xB399D0Eac6E06B51944d07b2600f6b2534efCf4c",
    "0x6BC0301c159306FF06E4039660F169aed458C13D"
  ],
  "numDeployments": 1,
  "solcInputHash": "46a7ec46315ece58f9d4c4ea7316a87f",
  "bytecode": "0x60a06040523480156200001157600080fd5b5060405162001ad238038062001ad28339810160408190526200003491620002f3565b8362000040816200015b565b506001600160a01b0384166200009d5760405162461bcd60e51b815260206004820152601e60248201527f504469737456322f6f776e65722d6e6f742d7a65726f2d61646472657373000060448201526064015b60405180910390fd5b6001600160a01b038316620000f55760405162461bcd60e51b815260206004820152601e60248201527f504469737456322f746f6b656e2d6e6f742d7a65726f2d616464726573730000604482015260640162000094565b6200010082620001ab565b6200010b816200024f565b6001600160601b0319606084901b166080526040516001600160a01b038416907fa07c91c183e42229e705a9795a1c06d76528b673788b849597364528c96eefb790600090a25050505062000374565b600080546001600160a01b038381166001600160a01b0319831681178455604051919092169283917f8be0079c531659141344cd1fd0a4f28419497f9722a3daafe3b4186f6b6457e09190a35050565b6001600160a01b038116620002035760405162461bcd60e51b815260206004820152601d60248201527f504469737456322f63616c632d6e6f742d7a65726f2d61646472657373000000604482015260640162000094565b600380546001600160a01b0319166001600160a01b03831690811790915560405133907f453e1a5082fe6c3a78577f31ba7a7e9a0c6f422b526cbcc2b557e8091e7d36a690600090a350565b6001600160a01b038116620002a75760405162461bcd60e51b815260206004820152601e60248201527f504469737456322f7661756c742d6e6f742d7a65726f2d616464726573730000604482015260640162000094565b600480546001600160a01b0319166001600160a01b03831690811790915560405133907f1c73cad7e46288bd430ec7cf83a3a64866a145b0d756948ae7fc021385d332dc90600090a350565b600080600080608085870312156200030a57600080fd5b845162000317816200035b565b60208601519094506200032a816200035b565b60408601519093506200033d816200035b565b606086015190925062000350816200035b565b939692955090935050565b6001600160a01b03811681146200037157600080fd5b50565b60805160601c611739620003996000396000818160fc0152610c6401526117396000f3fe608060405234801561001057600080fd5b50600436106100f55760003560e01c80636144696711610097578063b7f892d111610066578063b7f892d1146101f9578063d0ebdbe71461020c578063e30c39781461021f578063f2fde38b1461023057600080fd5b806361446967146101ac5780636497a8a0146101cd578063715018a6146101e05780638da5cb5b146101e857600080fd5b8063454a8140116100d3578063454a81401461016d578063481c6a75146101805780634e71e0c81461019157806354f2f7af1461019b57600080fd5b806321df0da7146100fa5780632d680cfa1461013957806344004cc11461014a575b600080fd5b7f00000000000000000000000000000000000000000000000000000000000000005b6040516001600160a01b0390911681526020015b60405180910390f35b6003546001600160a01b031661011c565b61015d610158366004611302565b610243565b6040519015158152602001610130565b61011c61017b3660046111bc565b6103fe565b6002546001600160a01b031661011c565b6101996104ad565b005b6004546001600160a01b031661011c565b6101bf6101ba366004611343565b61053b565b604051908152602001610130565b61011c6101db3660046111bc565b610798565b61019961083f565b6000546001600160a01b031661011c565b6101bf6102073660046111d9565b6108b4565b61015d61021a3660046111bc565b6108e3565b6001546001600160a01b031661011c565b61019961023e3660046111bc565b61095d565b6000336102586002546001600160a01b031690565b6001600160a01b0316148061028657503361027b6000546001600160a01b031690565b6001600160a01b0316145b6102e65760405162461bcd60e51b815260206004820152602660248201527f4d616e61676561626c652f63616c6c65722d6e6f742d6d616e616765722d6f7260448201526516b7bbb732b960d11b60648201526084015b60405180910390fd5b6001600160a01b03831661033c5760405162461bcd60e51b815260206004820152601b60248201527f504469737456322f746f2d6e6f742d7a65726f2d61646472657373000000000060448201526064016102dd565b6001600160a01b0384166103925760405162461bcd60e51b815260206004820152601e60248201527f504469737456322f45524332302d6e6f742d7a65726f2d61646472657373000060448201526064016102dd565b6103a66001600160a01b0385168484610a99565b826001600160a01b0316846001600160a01b03167fbfed55bdcd242e3dd0f60ddd7d1e87c67f61c34cd9527b3e6455d841b1025362846040516103eb91815260200190565b60405180910390a35060015b9392505050565b6000336104136002546001600160a01b031690565b6001600160a01b031614806104415750336104366000546001600160a01b031690565b6001600160a01b0316145b61049c5760405162461bcd60e51b815260206004820152602660248201527f4d616e61676561626c652f63616c6c65722d6e6f742d6d616e616765722d6f7260448201526516b7bbb732b960d11b60648201526084016102dd565b6104a582610b47565b50805b919050565b6001546001600160a01b031633146105075760405162461bcd60e51b815260206004820152601f60248201527f4f776e61626c652f63616c6c65722d6e6f742d70656e64696e674f776e65720060448201526064016102dd565b60015461051c906001600160a01b0316610bf6565b6001805473ffffffffffffffffffffffffffffffffffffffff19169055565b6003546040517f8eaf7400000000000000000000000000000000000000000000000000000000008152600091829182916001600160a01b031690638eaf740090610593908c908c908c908c908c908c9060040161145f565b60006040518083038186803b1580156105ab57600080fd5b505afa1580156105bf573d6000803e3d6000fd5b505050506040513d6000823e601f3d908101601f191682016040526105e7919081019061120e565b50805190915060005b8181101561077f57600089898381811061060c5761060c6116bf565b905060200201602081019061062191906113d8565b90506000848381518110610637576106376116bf565b6020908102919091018101516001600160a01b038e16600090815260058352604080822063ffffffff8716835290935291822054909250908183116106be5760405162461bcd60e51b815260206004820152601360248201527f504469737456322f7a65726f2d7061796f75740000000000000000000000000060448201526064016102dd565b506001600160a01b038d16600090815260056020908152604080832063ffffffff8716845290915290208290558082036106f8818961162c565b97508363ffffffff168e6001600160a01b03167f797a2e660a072e8e1c4477f0b133e88f5c2ff1a054c81cc3504c2d0e55746492838e8e8a81811061073f5761073f6116bf565b905060200281019061075191906115b1565b6040516107609392919061158e565b60405180910390a350505050808061077790611670565b9150506105f0565b5061078a8984610c53565b509098975050505050505050565b6000336107ad6002546001600160a01b031690565b6001600160a01b031614806107db5750336107d06000546001600160a01b031690565b6001600160a01b0316145b6108365760405162461bcd60e51b815260206004820152602660248201527f4d616e61676561626c652f63616c6c65722d6e6f742d6d616e616765722d6f7260448201526516b7bbb732b960d11b60648201526084016102dd565b6104a582610c92565b336108526000546001600160a01b031690565b6001600160a01b0316146108a85760405162461bcd60e51b815260206004820152601860248201527f4f776e61626c652f63616c6c65722d6e6f742d6f776e6572000000000000000060448201526064016102dd565b6108b26000610bf6565b565b6001600160a01b038216600090815260056020908152604080832063ffffffff851684529091528120546103f7565b6000336108f86000546001600160a01b031690565b6001600160a01b03161461094e5760405162461bcd60e51b815260206004820152601860248201527f4f776e61626c652f63616c6c65722d6e6f742d6f776e6572000000000000000060448201526064016102dd565b61095782610d41565b92915050565b336109706000546001600160a01b031690565b6001600160a01b0316146109c65760405162461bcd60e51b815260206004820152601860248201527f4f776e61626c652f63616c6c65722d6e6f742d6f776e6572000000000000000060448201526064016102dd565b6001600160a01b038116610a425760405162461bcd60e51b815260206004820152602560248201527f4f776e61626c652f70656e64696e674f776e65722d6e6f742d7a65726f2d616460448201527f647265737300000000000000000000000000000000000000000000000000000060648201526084016102dd565b6001805473ffffffffffffffffffffffffffffffffffffffff19166001600160a01b0383169081179091556040517f239a2ddded15777fa246aed5f7e1a9bc69a39d4eb4a397034d1d85766cca7d4c90600090a250565b6040516001600160a01b038316602482015260448101829052610b429084907fa9059cbb00000000000000000000000000000000000000000000000000000000906064015b60408051601f198184030181529190526020810180517bffffffffffffffffffffffffffffffffffffffffffffffffffffffff167fffffffff0000000000000000000000000000000000000000000000000000000090931692909217909152610e2d565b505050565b6001600160a01b038116610b9d5760405162461bcd60e51b815260206004820152601d60248201527f504469737456322f63616c632d6e6f742d7a65726f2d6164647265737300000060448201526064016102dd565b6003805473ffffffffffffffffffffffffffffffffffffffff19166001600160a01b03831690811790915560405133907f453e1a5082fe6c3a78577f31ba7a7e9a0c6f422b526cbcc2b557e8091e7d36a690600090a350565b600080546001600160a01b0383811673ffffffffffffffffffffffffffffffffffffffff19831681178455604051919092169283917f8be0079c531659141344cd1fd0a4f28419497f9722a3daafe3b4186f6b6457e09190a35050565b600454610c8e906001600160a01b037f0000000000000000000000000000000000000000000000000000000000000000811691168484610f12565b5050565b6001600160a01b038116610ce85760405162461bcd60e51b815260206004820152601e60248201527f504469737456322f7661756c742d6e6f742d7a65726f2d61646472657373000060448201526064016102dd565b6004805473ffffffffffffffffffffffffffffffffffffffff19166001600160a01b03831690811790915560405133907f1c73cad7e46288bd430ec7cf83a3a64866a145b0d756948ae7fc021385d332dc90600090a350565b6002546000906001600160a01b03908116908316811415610dca5760405162461bcd60e51b815260206004820152602360248201527f4d616e61676561626c652f6578697374696e672d6d616e616765722d6164647260448201527f657373000000000000000000000000000000000000000000000000000000000060648201526084016102dd565b6002805473ffffffffffffffffffffffffffffffffffffffff19166001600160a01b0385811691821790925560405190918316907f9cb45c728de594dab506a1f1a8554e24c8eeaf983618d5ec5dd7bc6f3c49feee90600090a350600192915050565b6000610e82826040518060400160405280602081526020017f5361666545524332303a206c6f772d6c6576656c2063616c6c206661696c6564815250856001600160a01b0316610f699092919063ffffffff16565b805190915015610b425780806020019051810190610ea091906112e0565b610b425760405162461bcd60e51b815260206004820152602a60248201527f5361666545524332303a204552433230206f7065726174696f6e20646964206e60448201527f6f7420737563636565640000000000000000000000000000000000000000000060648201526084016102dd565b6040516001600160a01b0380851660248301528316604482015260648101829052610f639085907f23b872dd0000000000000000000000000000000000000000000000000000000090608401610ade565b50505050565b6060610f788484600085610f80565b949350505050565b606082471015610ff85760405162461bcd60e51b815260206004820152602660248201527f416464726573733a20696e73756666696369656e742062616c616e636520666f60448201527f722063616c6c000000000000000000000000000000000000000000000000000060648201526084016102dd565b843b6110465760405162461bcd60e51b815260206004820152601d60248201527f416464726573733a2063616c6c20746f206e6f6e2d636f6e747261637400000060448201526064016102dd565b600080866001600160a01b031685876040516110629190611443565b60006040518083038185875af1925050503d806000811461109f576040519150601f19603f3d011682016040523d82523d6000602084013e6110a4565b606091505b50915091506110b48282866110bf565b979650505050505050565b606083156110ce5750816103f7565b8251156110de5782518084602001fd5b8160405162461bcd60e51b81526004016102dd919061155b565b60008083601f84011261110a57600080fd5b50813567ffffffffffffffff81111561112257600080fd5b6020830191508360208260051b850101111561113d57600080fd5b9250929050565b600082601f83011261115557600080fd5b815167ffffffffffffffff81111561116f5761116f6116d5565b6111826020601f19601f840116016115fb565b81815284602083860101111561119757600080fd5b610f78826020830160208701611644565b803563ffffffff811681146104a857600080fd5b6000602082840312156111ce57600080fd5b81356103f7816116eb565b600080604083850312156111ec57600080fd5b82356111f7816116eb565b9150611205602084016111a8565b90509250929050565b6000806040838503121561122157600080fd5b825167ffffffffffffffff8082111561123957600080fd5b818501915085601f83011261124d57600080fd5b8151602082821115611261576112616116d5565b8160051b6112708282016115fb565b8381528281019086840183880185018c101561128b57600080fd5b600097505b858810156112ae578051835260019790970196918401918401611290565b5092890151929750919450505050808211156112c957600080fd5b506112d685828601611144565b9150509250929050565b6000602082840312156112f257600080fd5b815180151581146103f757600080fd5b60008060006060848603121561131757600080fd5b8335611322816116eb565b92506020840135611332816116eb565b929592945050506040919091013590565b6000806000806000806080878903121561135c57600080fd5b8635611367816116eb565b95506020870135611377816116eb565b9450604087013567ffffffffffffffff8082111561139457600080fd5b6113a08a838b016110f8565b909650945060608901359150808211156113b957600080fd5b506113c689828a016110f8565b979a9699509497509295939492505050565b6000602082840312156113ea57600080fd5b6103f7826111a8565b818352600060208085019450826000805b8681101561143757823567ffffffffffffffff8116808214611424578384fd5b8952509683019691830191600101611404565b50959695505050505050565b60008251611455818460208701611644565b9190910192915050565b6001600160a01b03878116825286166020808301919091526080604083018190528201859052600090869060a0840190835b888110156114ba5763ffffffff6114a7856111a8565b1683529281019291810191600101611491565b5084820360608601528582528082019250600586811b830182018860005b8981101561154857601f198684030187528135601e198c36030181126114fd57600080fd5b8b01803567ffffffffffffffff81111561151657600080fd5b80861b36038d131561152757600080fd5b61153485828985016113f3565b9887019894505050908401906001016114d8565b50909d9c50505050505050505050505050565b602081526000825180602084015261157a816040850160208701611644565b601f01601f19169190910160400192915050565b8381526040602082015260006115a86040830184866113f3565b95945050505050565b6000808335601e198436030181126115c857600080fd5b83018035915067ffffffffffffffff8211156115e357600080fd5b6020019150600581901b360382131561113d57600080fd5b604051601f8201601f1916810167ffffffffffffffff81118282101715611624576116246116d5565b604052919050565b6000821982111561163f5761163f6116a9565b500190565b60005b8381101561165f578181015183820152602001611647565b83811115610f635750506000910152565b60007fffffffffffffffffffffffffffffffffffffffffffffffffffffffffffffffff8214156116a2576116a26116a9565b5060010190565b634e487b7160e01b600052601160045260246000fd5b634e487b7160e01b600052603260045260246000fd5b634e487b7160e01b600052604160045260246000fd5b6001600160a01b038116811461170057600080fd5b5056fea264697066735822122056c5fd9182c3d80aeb69c49cd71931ab4bee1c060ec7633df95b4a8cb4b4779764736f6c63430008060033",
  "devdoc": {
    "author": "PoolTogether Inc Team",
    "events": {
      "ClaimedDraw(address,uint32,uint256,uint64[])": {
        "params": {
          "drawId": "Draw id that was paid out",
          "payout": "Payout for draw",
          "pickIndices": "Pick indices for draw",
          "user": "User address receiving draw claim payouts"
        }
      },
      "DrawCalculatorSet(address,address)": {
        "params": {
          "calculator": "IDrawCalculatorV3 address",
          "caller": "Address who has set the new DrawCalculator"
        }
      },
      "ERC20Withdrawn(address,address,uint256)": {
        "params": {
          "amount": "Amount of tokens transferred",
          "to": "Address that received funds",
          "token": "ERC20 token transferred"
        }
      },
      "TokenSet(address)": {
        "params": {
          "token": "Token address"
        }
      },
      "TokenVaultSet(address,address)": {
        "params": {
          "caller": "Address who has set the new tokenVault",
          "tokenVault": "Address of the tokenVault that was set"
        }
      }
    },
    "kind": "dev",
    "methods": {
      "claim(address,address,uint32[],uint64[][])": {
        "details": "The claim function is public and any wallet may execute claim on behalf of another user. Prizes are always paid out to the designated user account and not the caller (msg.sender). Claiming prizes is not limited to a single transaction. Reclaiming can be executed subsequentially if an \"optimal\" prize was not included in previous claim pick indices. The payout difference for the new claim is calculated during the award process and transfered to user.",
        "params": {
          "_drawIds": "Draw IDs from global DrawBuffer reference",
          "_drawPickIndices": "Pick indices for each drawId",
          "_ticket": "Address of the Ticket to claim prizes for",
          "_user": "Address of the user to claim rewards for. Does NOT need to be msg.sender"
        },
        "returns": {
          "_0": "Total claim payout. May include calculations from multiple draws."
        }
      },
      "claimOwnership()": {
        "details": "This function is only callable by the `_pendingOwner`."
      },
      "constructor": {
        "params": {
          "_drawCalculator": "Address of the DrawCalculatorV3 contract which computes draw payouts",
          "_owner": "Contract owner address",
          "_token": "Address of the token being used to pay out prizes",
          "_tokenVault": "Address of the TokenVault contract that holds the `token` being used to pay out prizes"
        }
      },
      "getDrawCalculator()": {
        "returns": {
          "_0": "IDrawCalculatorV3"
        }
      },
      "getDrawPayoutBalanceOf(address,uint32)": {
        "params": {
          "_drawId": "Draw ID",
          "_user": "User address"
        }
      },
      "getToken()": {
        "returns": {
          "_0": "IERC20"
        }
      },
      "getTokenVault()": {
        "returns": {
          "_0": "Address of the tokenVault"
        }
      },
      "manager()": {
        "returns": {
          "_0": "Current `_manager` address."
        }
      },
      "pendingOwner()": {
        "returns": {
          "_0": "Current `_pendingOwner` address."
        }
      },
      "renounceOwnership()": {
        "details": "Leaves the contract without owner. It will not be possible to call `onlyOwner` functions anymore. Can only be called by the current owner. NOTE: Renouncing ownership will leave the contract without an owner, thereby removing any functionality that is only available to the owner."
      },
      "setDrawCalculator(address)": {
        "params": {
          "_newCalculator": "DrawCalculator address"
        },
        "returns": {
          "_0": "New DrawCalculator address"
        }
      },
      "setManager(address)": {
        "details": "Throws if called by any account other than the owner.",
        "params": {
          "_newManager": "New _manager address."
        },
        "returns": {
          "_0": "Boolean to indicate if the operation was successful or not."
        }
      },
      "setTokenVault(address)": {
        "params": {
          "_tokenVault": "Address of the new TokenVault"
        },
        "returns": {
          "_0": "New TokenVault address"
        }
      },
      "transferOwnership(address)": {
        "params": {
          "_newOwner": "Address to transfer ownership to."
        }
      },
      "withdrawERC20(address,address,uint256)": {
        "details": "Only callable by contract owner or manager.",
        "params": {
          "_amount": "Amount of tokens to transfer",
          "_erc20Token": "Address of the ERC20 token to transfer",
          "_to": "Address of the recipient of the tokens"
        },
        "returns": {
          "_0": "true if operation is successful."
        }
      }
    },
    "title": "PoolTogether V4 PrizeDistributorV2",
    "version": 1
  },
  "userdoc": {
    "events": {
      "ClaimedDraw(address,uint32,uint256,uint64[])": {
        "notice": "Emitted when user has claimed token from the PrizeDistributorV2."
      },
      "DrawCalculatorSet(address,address)": {
        "notice": "Emitted when IDrawCalculatorV3 is set."
      },
      "ERC20Withdrawn(address,address,uint256)": {
        "notice": "Emitted when ERC20 tokens are withdrawn."
      },
      "TokenSet(address)": {
        "notice": "Emitted when Token is set."
      },
      "TokenVaultSet(address,address)": {
        "notice": "Emitted when tokenVault is set."
      }
    },
    "kind": "user",
    "methods": {
      "claim(address,address,uint32[],uint64[][])": {
        "notice": "Claim prize payout(s) by submitting valid drawId(s) and winning pick indice(s). The user address is used as the \"seed\" phrase to generate random numbers."
      },
      "claimOwnership()": {
        "notice": "Allows the `_pendingOwner` address to finalize the transfer."
      },
      "constructor": {
        "notice": "Constructs PrizeDistributorV2 smart contract."
      },
      "getDrawCalculator()": {
        "notice": "Read global DrawCalculator address."
      },
      "getDrawPayoutBalanceOf(address,uint32)": {
        "notice": "Get the amount that a user has already been paid out for a draw"
      },
      "getToken()": {
        "notice": "Read global Token address."
      },
      "getTokenVault()": {
        "notice": "Read global tokenVault address."
      },
      "manager()": {
        "notice": "Gets current `_manager`."
      },
      "owner()": {
        "notice": "Returns the address of the current owner."
      },
      "pendingOwner()": {
        "notice": "Gets current `_pendingOwner`."
      },
      "renounceOwnership()": {
        "notice": "Renounce ownership of the contract."
      },
      "setDrawCalculator(address)": {
        "notice": "Sets DrawCalculator reference contract."
      },
      "setManager(address)": {
        "notice": "Set or change of manager."
      },
      "setTokenVault(address)": {
        "notice": "Sets TokenVault address."
      },
      "transferOwnership(address)": {
        "notice": "Allows current owner to set the `_pendingOwner` address."
      },
      "withdrawERC20(address,address,uint256)": {
        "notice": "Transfer ERC20 tokens out of contract to recipient address."
      }
    },
    "notice": "The PrizeDistributorV2 contract holds Tickets (captured interest) and distributes tickets to users with winning draw claims. PrizeDistributorV2 uses an external IDrawCalculatorV3 to validate a users draw claim, before awarding payouts. To prevent users from reclaiming prizes, a payout history for each draw claim is mapped to user accounts. Reclaiming a draw can occur if an \"optimal\" prize was not included in previous claim pick indices and the new claims updated payout is greater then the previous prize distributor claim payout.",
    "version": 1
  },
  "storageLayout": {
    "storage": [
      {
        "astId": 4303,
        "contract": "contracts/PrizeDistributorV2.sol:PrizeDistributorV2",
        "label": "_owner",
        "offset": 0,
        "slot": "0",
        "type": "t_address"
      },
      {
        "astId": 4305,
        "contract": "contracts/PrizeDistributorV2.sol:PrizeDistributorV2",
        "label": "_pendingOwner",
        "offset": 0,
        "slot": "1",
        "type": "t_address"
      },
      {
        "astId": 4201,
        "contract": "contracts/PrizeDistributorV2.sol:PrizeDistributorV2",
        "label": "_manager",
        "offset": 0,
        "slot": "2",
        "type": "t_address"
      },
      {
        "astId": 13364,
        "contract": "contracts/PrizeDistributorV2.sol:PrizeDistributorV2",
        "label": "drawCalculator",
        "offset": 0,
        "slot": "3",
        "type": "t_contract(IDrawCalculatorV3)16414"
      },
      {
        "astId": 13371,
        "contract": "contracts/PrizeDistributorV2.sol:PrizeDistributorV2",
        "label": "tokenVault",
        "offset": 0,
        "slot": "4",
        "type": "t_address"
      },
      {
        "astId": 13378,
        "contract": "contracts/PrizeDistributorV2.sol:PrizeDistributorV2",
        "label": "userDrawPayouts",
        "offset": 0,
        "slot": "5",
        "type": "t_mapping(t_address,t_mapping(t_uint256,t_uint256))"
      }
    ],
    "types": {
      "t_address": {
        "encoding": "inplace",
        "label": "address",
        "numberOfBytes": "20"
      },
      "t_contract(IDrawCalculatorV3)16414": {
        "encoding": "inplace",
        "label": "contract IDrawCalculatorV3",
        "numberOfBytes": "20"
      },
      "t_mapping(t_address,t_mapping(t_uint256,t_uint256))": {
        "encoding": "mapping",
        "key": "t_address",
        "label": "mapping(address => mapping(uint256 => uint256))",
        "numberOfBytes": "32",
        "value": "t_mapping(t_uint256,t_uint256)"
      },
      "t_mapping(t_uint256,t_uint256)": {
        "encoding": "mapping",
        "key": "t_uint256",
        "label": "mapping(uint256 => uint256)",
        "numberOfBytes": "32",
        "value": "t_uint256"
      },
      "t_uint256": {
        "encoding": "inplace",
        "label": "uint256",
        "numberOfBytes": "32"
      }
    }
  }
}