{
  "address": "0xf12aD182E0990DD894A96b60604477F82AC3C4cd",
  "abi": [
    {
      "inputs": [],
      "name": "PRBMathSD59x18__DivInputTooSmall",
      "type": "error"
    },
    {
      "inputs": [
        {
          "internalType": "uint256",
          "name": "rAbs",
          "type": "uint256"
        }
      ],
      "name": "PRBMathSD59x18__DivOverflow",
      "type": "error"
    },
    {
      "inputs": [
        {
          "internalType": "int256",
          "name": "x",
          "type": "int256"
        }
      ],
      "name": "PRBMathSD59x18__FromIntOverflow",
      "type": "error"
    },
    {
      "inputs": [
        {
          "internalType": "int256",
          "name": "x",
          "type": "int256"
        }
      ],
      "name": "PRBMathSD59x18__FromIntUnderflow",
      "type": "error"
    },
    {
      "inputs": [],
      "name": "PRBMathSD59x18__MulInputTooSmall",
      "type": "error"
    },
    {
      "inputs": [
        {
          "internalType": "uint256",
          "name": "rAbs",
          "type": "uint256"
        }
      ],
      "name": "PRBMathSD59x18__MulOverflow",
      "type": "error"
    },
    {
      "inputs": [
        {
          "internalType": "uint256",
          "name": "prod1",
          "type": "uint256"
        }
      ],
      "name": "PRBMath__MulDivFixedPointOverflow",
      "type": "error"
    },
    {
      "inputs": [
        {
          "internalType": "uint256",
          "name": "prod1",
          "type": "uint256"
        },
        {
          "internalType": "uint256",
          "name": "denominator",
          "type": "uint256"
        }
      ],
      "name": "PRBMath__MulDivOverflow",
      "type": "error"
    },
    {
      "inputs": [
        {
          "internalType": "contract IPrizePool",
          "name": "_prizePool",
          "type": "address"
        }
      ],
      "name": "availableBalanceOf",
      "outputs": [
        {
          "internalType": "uint256",
          "name": "",
          "type": "uint256"
        }
      ],
      "stateMutability": "nonpayable",
      "type": "function"
    },
    {
      "inputs": [
        {
          "internalType": "contract IPrizePool",
          "name": "_prizePool",
          "type": "address"
        },
        {
          "internalType": "uint256",
          "name": "amountOut",
          "type": "uint256"
        }
      ],
      "name": "computeExactAmountIn",
      "outputs": [
        {
          "internalType": "uint256",
          "name": "",
          "type": "uint256"
        }
      ],
      "stateMutability": "nonpayable",
      "type": "function"
    },
    {
      "inputs": [
        {
          "internalType": "contract IPrizePool",
          "name": "_prizePool",
          "type": "address"
        },
        {
          "internalType": "uint256",
          "name": "amountOut",
          "type": "uint256"
        },
        {
          "internalType": "uint256",
          "name": "currentTime",
          "type": "uint256"
        }
      ],
      "name": "computeExactAmountInAtTime",
      "outputs": [
        {
          "internalType": "uint256",
          "name": "",
          "type": "uint256"
        }
      ],
      "stateMutability": "nonpayable",
      "type": "function"
    },
    {
      "inputs": [
        {
          "internalType": "contract IPrizePool",
          "name": "_prizePool",
          "type": "address"
        },
        {
          "internalType": "uint256",
          "name": "amountIn",
          "type": "uint256"
        }
      ],
      "name": "computeExactAmountOut",
      "outputs": [
        {
          "internalType": "uint256",
          "name": "",
          "type": "uint256"
        }
      ],
      "stateMutability": "nonpayable",
      "type": "function"
    },
    {
      "inputs": [
        {
          "internalType": "contract IPrizePool",
          "name": "_prizePool",
          "type": "address"
        },
        {
          "internalType": "uint256",
          "name": "amountIn",
          "type": "uint256"
        },
        {
          "internalType": "uint256",
          "name": "currentTime",
          "type": "uint256"
        }
      ],
      "name": "computeExactAmountOutAtTime",
      "outputs": [
        {
          "internalType": "uint256",
          "name": "",
          "type": "uint256"
        }
      ],
      "stateMutability": "nonpayable",
      "type": "function"
    },
    {
      "inputs": [
        {
          "internalType": "contract IPrizePool",
          "name": "_prizePool",
          "type": "address"
        }
      ],
      "name": "currentExchangeRate",
      "outputs": [
        {
          "internalType": "int256",
          "name": "",
          "type": "int256"
        }
      ],
      "stateMutability": "view",
      "type": "function"
    },
    {
      "inputs": [
        {
          "internalType": "contract IPrizePool",
          "name": "_prizePool",
          "type": "address"
        }
      ],
      "name": "getLiquidationState",
      "outputs": [
        {
          "internalType": "int256",
          "name": "exchangeRate",
          "type": "int256"
        },
        {
          "internalType": "uint256",
          "name": "lastSaleTime",
          "type": "uint256"
        }
      ],
      "stateMutability": "view",
      "type": "function"
    },
    {
      "inputs": [],
      "name": "listener",
      "outputs": [
        {
          "internalType": "contract IPrizePoolLiquidatorListener",
          "name": "",
          "type": "address"
        }
      ],
      "stateMutability": "view",
      "type": "function"
    },
    {
      "inputs": [
        {
          "internalType": "contract IPrizePool",
          "name": "pool",
          "type": "address"
        },
        {
          "internalType": "address",
          "name": "target",
          "type": "address"
        },
        {
          "internalType": "contract IERC20",
          "name": "want",
          "type": "address"
        },
        {
          "internalType": "int256",
          "name": "exchangeRate",
          "type": "int256"
        },
        {
          "internalType": "int256",
          "name": "deltaRatePerSecond",
          "type": "int256"
        },
        {
          "internalType": "int256",
          "name": "maxSlippage",
          "type": "int256"
        }
      ],
      "name": "setPrizePool",
      "outputs": [
        {
          "internalType": "bool",
          "name": "",
          "type": "bool"
        }
      ],
      "stateMutability": "nonpayable",
      "type": "function"
    },
    {
      "inputs": [
        {
          "internalType": "contract IPrizePool",
          "name": "pool",
          "type": "address"
        },
        {
          "internalType": "address",
          "name": "target",
          "type": "address"
        },
        {
          "internalType": "contract IERC20",
          "name": "want",
          "type": "address"
        },
        {
          "internalType": "int256",
          "name": "exchangeRate",
          "type": "int256"
        },
        {
          "internalType": "int256",
          "name": "deltaRatePerSecond",
          "type": "int256"
        },
        {
          "internalType": "int256",
          "name": "maxSlippage",
          "type": "int256"
        },
        {
          "internalType": "uint256",
          "name": "currentTime",
          "type": "uint256"
        }
      ],
      "name": "setPrizePoolAtTime",
      "outputs": [
        {
          "internalType": "bool",
          "name": "",
          "type": "bool"
        }
      ],
      "stateMutability": "nonpayable",
      "type": "function"
    },
    {
      "inputs": [
        {
          "internalType": "contract IPrizePool",
          "name": "_prizePool",
          "type": "address"
        },
        {
          "internalType": "int256",
          "name": "deltaRatePerSecond",
          "type": "int256"
        },
        {
          "internalType": "int256",
          "name": "maxSlippage",
          "type": "int256"
        }
      ],
      "name": "setPrizePoolLiquidationState",
      "outputs": [],
      "stateMutability": "nonpayable",
      "type": "function"
    },
    {
      "inputs": [
        {
          "internalType": "uint256",
          "name": "_time",
          "type": "uint256"
        }
      ],
      "name": "setTime",
      "outputs": [],
      "stateMutability": "nonpayable",
      "type": "function"
    },
    {
      "inputs": [
        {
          "internalType": "contract IPrizePool",
          "name": "_prizePool",
          "type": "address"
        },
        {
          "internalType": "uint256",
          "name": "amountIn",
          "type": "uint256"
        },
        {
          "internalType": "uint256",
          "name": "amountOutMin",
          "type": "uint256"
        }
      ],
      "name": "swapExactAmountIn",
      "outputs": [
        {
          "internalType": "uint256",
          "name": "",
          "type": "uint256"
        }
      ],
      "stateMutability": "nonpayable",
      "type": "function"
    },
    {
      "inputs": [
        {
          "internalType": "contract IPrizePool",
          "name": "_prizePool",
          "type": "address"
        },
        {
          "internalType": "uint256",
          "name": "amountOut",
          "type": "uint256"
        },
        {
          "internalType": "uint256",
          "name": "amountInMax",
          "type": "uint256"
        }
      ],
      "name": "swapExactAmountOut",
      "outputs": [
        {
          "internalType": "uint256",
          "name": "",
          "type": "uint256"
        }
      ],
      "stateMutability": "nonpayable",
      "type": "function"
    }
  ],
  "transactionHash": "0x8fb5fe57f1de10aa47febf2778ee826cf01f9461afc3dba32a44e089d0dd06d9",
  "args": [],
  "numDeployments": 1,
  "solcInputHash": "b05209ff2ac583caae27b575ae3779ab",
  "bytecode": "0x608060405234801561001057600080fd5b50611964806100206000396000f3fe608060405234801561001057600080fd5b50600436106100e95760003560e01c80638452e1a81161008c578063a0822daa11610066578063a0822daa146102ff578063b822988f146103e9578063c57f1922146103fc578063c9a61be91461040f57600080fd5b80638452e1a8146102705780638866bc18146102835780639551dd58146102d457600080fd5b80633a58fd77116100c85780633a58fd77146102225780633beb26c4146102355780634e376a9f1461024a5780637b92228d1461025d57600080fd5b806274d3c7146100ee578063208a4e841461011457806325d998bb1461020f575b600080fd5b6101016100fc36600461172f565b61049b565b6040519081526020015b60405180910390f35b6101ff61012236600461165c565b6040805180820182526001600160a01b039687168152948616602080870191825297871660008181526001808b5284822098518954908b167fffffffffffffffffffffffff0000000000000000000000000000000000000000918216178a559351988101805499909a169890931697909717909755815160a08101835260808101958652948552428589019081528251808a0184529485528583019485528251808a018452938452606086019384529686526002978890529420925151835593518284015551519381019390935590515160039092019190915590565b604051901515815260200161010b565b61010161021d36600461163f565b6104d3565b610101610230366004611764565b6104e4565b6102486102433660046117ad565b600055565b005b61010161025836600461172f565b610512565b61010161026b366004611764565b610520565b61010161027e36600461172f565b61054e565b61024861029136600461172f565b60408051602080820183529381526001600160a01b0390941660008181526002808652838220965187820155835180870190945293835252915251600390910155565b6003546102e7906001600160a01b031681565b6040516001600160a01b03909116815260200161010b565b6101ff61030d3660046116c1565b6040805180820182526001600160a01b039788168152958716602080880191825298881660008181526001808c5284822099518a54908c167fffffffffffffffffffffffff0000000000000000000000000000000000000000918216178b55935199810180549a909b169990931698909817909855815160a081018352608081019687529586528589019283528151808a0183529485528582019485528151808a018352938452606086019384529686526002978890529094209251518355925182850155515193810193909355515160039092019190915590565b6101016103f736600461163f565b61057c565b61010161040a36600461172f565b6105b1565b61048661041d36600461163f565b6001600160a01b0316600090815260026020818152604092839020835160a0810185528154608082019081528152600182015481840190815285518085018752948301548552818601949094528451928301909452600301548152606083015290515190519091565b6040805192835260208301919091520161010b565b60006104c96104a9856105bf565b6001600160a01b0386166000908152600260205260409020908585610634565b90505b9392505050565b60006104de826105bf565b92915050565b60006104cc6104f2846105bf565b6001600160a01b0385166000908152600260205260409020908442610671565b60006104c9848484426106a2565b60006104cc61052e846105bf565b6001600160a01b0385166000908152600260205260409020908442610634565b60006104c961055c856105bf565b6001600160a01b0386166000908152600260205260409020908585610671565b6001600160a01b03811660009081526002602052604081206104de906105a29042610789565b51670de0b6b3a7640000900590565b60006104c9848484426107c6565b6000816001600160a01b031663e6d8a94b6040518163ffffffff1660e01b8152600401602060405180830381600087803b1580156105fc57600080fd5b505af1158015610610573d6000803e3d6000fd5b505050506040513d601f19601f820116820180604052508101906104de91906117c6565b60008361064357506000610669565b60006106508686856108a8565b90506106658482602001518360000151610947565b9150505b949350505050565b60008361068057506000610669565b600061068d8686856108a8565b905061066584826020015183600001516109f0565b6000806106ae866105bf565b6001600160a01b0387166000908152600260205260408120919250906106d690838887610a8d565b90508181111561072d5760405162461bcd60e51b815260206004820152601e60248201527f57686f6f7073212068617665206578636565647320617661696c61626c65000060448201526064015b60405180910390fd5b8481101561077d5760405162461bcd60e51b815260206004820152601760248201527f747261646520646f6573206e6f74206d656574206d696e0000000000000000006044820152606401610724565b61066587338389610b9b565b60408051602081019091526000815260408051602080820183528554825282519081019092526002850154825260018501546104cc929085610e02565b6000806107d2866105bf565b6001600160a01b0387166000908152600260205260408120919250906107fa90838887610e48565b90508481111561084c5760405162461bcd60e51b815260206004820152601760248201527f747261646520646f6573206e6f74206d656574206d696e0000000000000000006044820152606401610724565b8186111561089c5760405162461bcd60e51b815260206004820152601e60248201527f57686f6f7073212068617665206578636565647320617661696c61626c6500006044820152606401610724565b61066587338884610b9b565b60408051808201909152600080825260208201526040805160a08101825285546080820190815281526001860154602080830191825283518082018552600289015481528385019081528451918201909452600388015481526060830152815192519051919260009261091c929087610e02565b905061093d82606001518261093861093389610f38565b610fbb565b61109b565b9695505050505050565b600080831180156109585750600082115b6109ca5760405162461bcd60e51b815260206004820152602860248201527f556e697377617056324c6962726172793a20494e53554646494349454e545f4c60448201527f49515549444954590000000000000000000000000000000000000000000000006064820152608401610724565b60006109d68584611167565b905060006109e48587611173565b905061093d8183611836565b60008083118015610a015750600082115b610a735760405162461bcd60e51b815260206004820152602860248201527f556e697377617056324c6962726172793a20494e53554646494349454e545f4c60448201527f49515549444954590000000000000000000000000000000000000000000000006064820152608401610724565b6000610a7f8486611167565b905060006109e4848761117f565b6000808411610ade5760405162461bcd60e51b815260206004820152601a60248201527f57686f6f707321206e6f2066756e647320617661696c61626c650000000000006044820152606401610724565b6000610aeb8686856108a8565b90506000610b028583602001518460000151610947565b90508482602001818151610b16919061181e565b905250815181908390610b2a9083906118b6565b90525085811115610b7d5760405162461bcd60e51b815260206004820152601e60248201527f57686f6f7073212068617665206578636565647320617661696c61626c6500006044820152606401610724565b60018701849055610b8d8261118b565b518755915050949350505050565b6001600160a01b0384811660008181526001602081905260408083209182015481517f5d8a776e00000000000000000000000000000000000000000000000000000000815289871660048201526024810189905291519295169392635d8a776e9260448084019382900301818387803b158015610c1757600080fd5b505af1158015610c2b573d6000803e3d6000fd5b505083546040517f23b872dd0000000000000000000000000000000000000000000000000000000081526001600160a01b03898116600483015291821660248201526044810187905290841692506323b872dd9150606401602060405180830381600087803b158015610c9d57600080fd5b505af1158015610cb1573d6000803e3d6000fd5b505050506040513d601f19601f82011682018060405250810190610cd5919061161d565b506003546001600160a01b03168015610df957806001600160a01b031663fd40162888896001600160a01b031663c002c4d66040518163ffffffff1660e01b815260040160206040518083038186803b158015610d3157600080fd5b505afa158015610d45573d6000803e3d6000fd5b505050506040513d601f19601f82011682018060405250810190610d699190611790565b6040517fffffffff0000000000000000000000000000000000000000000000000000000060e085901b1681526001600160a01b03928316600482015290821660248201526044810189905290851660648201526084810187905260a401600060405180830381600087803b158015610de057600080fd5b505af1158015610df4573d6000803e3d6000fd5b505050505b50505050505050565b6040805160208101909152600081526000610e28610933610e2386866118b6565b610f38565b9050610665610e41610e3a83886111b5565b88906111b5565b87906112cf565b6000808411610e995760405162461bcd60e51b815260206004820152601a60248201527f57686f6f707321206e6f2066756e647320617661696c61626c650000000000006044820152606401610724565b6000610ea68686856108a8565b90506000610ebd85836020015184600001516109f0565b90508082602001818151610ed1919061181e565b905250815185908390610ee59083906118b6565b90525085851115610b7d5760405162461bcd60e51b815260206004820152601e60248201527f57686f6f7073212068617665206578636565647320617661696c61626c6500006044820152606401610724565b60006001600160ff1b03821115610fb75760405162461bcd60e51b815260206004820152602860248201527f53616665436173743a2076616c756520646f65736e27742066697420696e206160448201527f6e20696e743235360000000000000000000000000000000000000000000000006064820152608401610724565b5090565b6040805160208101909152600081527ffffffffffffffff6c6d11716de2a2f8c500cdd19dbc6030cd280cbb9b6b8f070821215611027576040517fe608e18b00000000000000000000000000000000000000000000000000000000815260048101839052602401610724565b7809392ee8e921d5d073aff322e62439fcf32d7f344649470f9082131561107d576040517f71f72a3100000000000000000000000000000000000000000000000000000000815260048101839052602401610724565b506040805160208101909152670de0b6b3a764000091909102815290565b60408051808201909152600080825260208201526040805160208101909152670de0b6b3a7640000815260006110db856110d58489611301565b906111b5565b90506000611113611109846111036110f389876111b5565b6110fd8a8c6111b5565b9061132a565b90611301565b6110fd878561132a565b9050600061112182886111b5565b905060405180604001604052806111418351670de0b6b3a7640000900590565b81526020016111598451670de0b6b3a7640000900590565b905298975050505050505050565b60006104cc8284611858565b60006104cc828461181e565b60006104cc82846118b6565b6040805160208101909152600081526104de6111aa8360200151610fbb565b83516110fd90610fbb565b60408051602081019091526000815282518251600160ff1b8214806111dd5750600160ff1b81145b15611214576040517f3406846c00000000000000000000000000000000000000000000000000000000815260040160405180910390fd5b60008060008412611225578361122a565b836000035b91506000831261123a578261123f565b826000035b9050600061124d8383611441565b90506001600160ff1b03811115611293576040517fbf79e8d900000000000000000000000000000000000000000000000000000000815260048101829052602401610724565b60408051602081019091526000198087139190861390808284186001146112ba57846112bf565b846000035b90529a9950505050505050505050565b60408051602081019091526000815260408051602081019091528251845182916112f8916117df565b90529392505050565b60408051602081019091526000815260408051602081019091528251845182916112f891611877565b60408051602081019091526000815282518251600160ff1b8214806113525750600160ff1b81145b15611389576040517fb3c754a300000000000000000000000000000000000000000000000000000000815260040160405180910390fd5b6000806000841261139a578361139f565b836000035b9150600083126113af57826113b4565b826000035b905060006113cb83670de0b6b3a764000084611536565b90506001600160ff1b03811115611411576040517f7cb4bef500000000000000000000000000000000000000000000000000000000815260048101829052602401610724565b604080516020810190915260001980871391908613908082841860011461143857846112bf565b6112bf856118cd565b60008080600019848609848602925082811083820303915050670de0b6b3a7640000811061149e576040517fd31b340200000000000000000000000000000000000000000000000000000000815260048101829052602401610724565b600080670de0b6b3a76400008688099150506706f05b59d3b1ffff8111826114d85780670de0b6b3a76400008504019450505050506104de565b6204000082850304939091119091037d40000000000000000000000000000000000000000000000000000000000002919091177faccb18165bd6fe31ae1cf318dc5b51eee0e1ba569b88cd74c1773b91fac106690201905092915050565b6000808060001985870985870292508281108382030391505080600014156115715783828161156757611567611900565b04925050506104cc565b8381106115b4576040517f773cc18c0000000000000000000000000000000000000000000000000000000081526004810182905260248101859052604401610724565b60008486880960026001871981018816978890046003810283188082028403028082028403028082028403028082028403028082028403029081029092039091026000889003889004909101858311909403939093029303949094049190911702949350505050565b60006020828403121561162f57600080fd5b815180151581146104cc57600080fd5b60006020828403121561165157600080fd5b81356104cc81611916565b60008060008060008060c0878903121561167557600080fd5b863561168081611916565b9550602087013561169081611916565b945060408701356116a081611916565b959894975094956060810135955060808101359460a0909101359350915050565b600080600080600080600060e0888a0312156116dc57600080fd5b87356116e781611916565b965060208801356116f781611916565b9550604088013561170781611916565b969995985095966060810135965060808101359560a0820135955060c0909101359350915050565b60008060006060848603121561174457600080fd5b833561174f81611916565b95602085013595506040909401359392505050565b6000806040838503121561177757600080fd5b823561178281611916565b946020939093013593505050565b6000602082840312156117a257600080fd5b81516104cc81611916565b6000602082840312156117bf57600080fd5b5035919050565b6000602082840312156117d857600080fd5b5051919050565b6000808212826001600160ff1b0303841381151615611800576118006118ea565b82600160ff1b038412811615611818576118186118ea565b50500190565b60008219821115611831576118316118ea565b500190565b60008261185357634e487b7160e01b600052601260045260246000fd5b500490565b6000816000190483118215151615611872576118726118ea565b500290565b600080831283600160ff1b01831281151615611895576118956118ea565b836001600160ff1b030183138116156118b0576118b06118ea565b50500390565b6000828210156118c8576118c86118ea565b500390565b6000600160ff1b8214156118e3576118e36118ea565b5060000390565b634e487b7160e01b600052601160045260246000fd5b634e487b7160e01b600052601260045260246000fd5b6001600160a01b038116811461192b57600080fd5b5056fea26469706673582212208f0651cbf626e6c10c027fbb5d2439e03bbd56bec68b197efa70cb368de4d52564736f6c63430008060033",
  "devdoc": {
    "kind": "dev",
    "methods": {},
    "version": 1
  },
  "userdoc": {
    "errors": {
      "PRBMathSD59x18__DivInputTooSmall()": [
        {
          "notice": "Emitted when one of the inputs is MIN_SD59x18."
        }
      ],
      "PRBMathSD59x18__DivOverflow(uint256)": [
        {
          "notice": "Emitted when one of the intermediary unsigned results overflows SD59x18."
        }
      ],
      "PRBMathSD59x18__FromIntOverflow(int256)": [
        {
          "notice": "Emitted when converting a basic integer to the fixed-point format overflows SD59x18."
        }
      ],
      "PRBMathSD59x18__FromIntUnderflow(int256)": [
        {
          "notice": "Emitted when converting a basic integer to the fixed-point format underflows SD59x18."
        }
      ],
      "PRBMathSD59x18__MulInputTooSmall()": [
        {
          "notice": "Emitted when one of the inputs is MIN_SD59x18."
        }
      ],
      "PRBMathSD59x18__MulOverflow(uint256)": [
        {
          "notice": "Emitted when the intermediary absolute result overflows SD59x18."
        }
      ],
      "PRBMath__MulDivFixedPointOverflow(uint256)": [
        {
          "notice": "Emitted when the result overflows uint256."
        }
      ],
      "PRBMath__MulDivOverflow(uint256,uint256)": [
        {
          "notice": "Emitted when the result overflows uint256."
        }
      ]
    },
    "kind": "user",
    "methods": {},
    "version": 1
  },
  "storageLayout": {
    "storage": [
      {
        "astId": 17793,
        "contract": "contracts/PrizePoolLiquidator.sol:PrizePoolLiquidator",
        "label": "time",
        "offset": 0,
        "slot": "0",
        "type": "t_uint256"
      },
      {
        "astId": 17805,
        "contract": "contracts/PrizePoolLiquidator.sol:PrizePoolLiquidator",
        "label": "poolTargets",
        "offset": 0,
        "slot": "1",
        "type": "t_mapping(t_contract(IPrizePool)21066,t_struct(Target)17799_storage)"
      },
      {
        "astId": 17811,
        "contract": "contracts/PrizePoolLiquidator.sol:PrizePoolLiquidator",
        "label": "poolLiquidatorStates",
        "offset": 0,
        "slot": "2",
        "type": "t_mapping(t_contract(IPrizePool)21066,t_struct(State)21696_storage)"
      },
      {
        "astId": 17814,
        "contract": "contracts/PrizePoolLiquidator.sol:PrizePoolLiquidator",
        "label": "listener",
        "offset": 0,
        "slot": "3",
        "type": "t_contract(IPrizePoolLiquidatorListener)21089"
      }
    ],
    "types": {
      "t_address": {
        "encoding": "inplace",
        "label": "address",
        "numberOfBytes": "20"
      },
      "t_contract(IERC20)663": {
        "encoding": "inplace",
        "label": "contract IERC20",
        "numberOfBytes": "20"
      },
      "t_contract(IPrizePool)21066": {
        "encoding": "inplace",
        "label": "contract IPrizePool",
        "numberOfBytes": "20"
      },
      "t_contract(IPrizePoolLiquidatorListener)21089": {
        "encoding": "inplace",
        "label": "contract IPrizePoolLiquidatorListener",
        "numberOfBytes": "20"
      },
      "t_int256": {
        "encoding": "inplace",
        "label": "int256",
        "numberOfBytes": "32"
      },
      "t_mapping(t_contract(IPrizePool)21066,t_struct(State)21696_storage)": {
        "encoding": "mapping",
        "key": "t_contract(IPrizePool)21066",
        "label": "mapping(contract IPrizePool => struct LiquidatorLib.State)",
        "numberOfBytes": "32",
        "value": "t_struct(State)21696_storage"
      },
      "t_mapping(t_contract(IPrizePool)21066,t_struct(Target)17799_storage)": {
        "encoding": "mapping",
        "key": "t_contract(IPrizePool)21066",
        "label": "mapping(contract IPrizePool => struct PrizePoolLiquidator.Target)",
        "numberOfBytes": "32",
        "value": "t_struct(Target)17799_storage"
      },
      "t_struct(SD59x18)5688_storage": {
        "encoding": "inplace",
        "label": "struct PRBMath.SD59x18",
        "members": [
          {
            "astId": 5687,
            "contract": "contracts/PrizePoolLiquidator.sol:PrizePoolLiquidator",
            "label": "value",
            "offset": 0,
            "slot": "0",
            "type": "t_int256"
          }
        ],
        "numberOfBytes": "32"
      },
      "t_struct(State)21696_storage": {
        "encoding": "inplace",
        "label": "struct LiquidatorLib.State",
        "members": [
          {
            "astId": 21687,
            "contract": "contracts/PrizePoolLiquidator.sol:PrizePoolLiquidator",
            "label": "exchangeRate",
            "offset": 0,
            "slot": "0",
            "type": "t_struct(SD59x18)5688_storage"
          },
          {
            "astId": 21689,
            "contract": "contracts/PrizePoolLiquidator.sol:PrizePoolLiquidator",
            "label": "lastSaleTime",
            "offset": 0,
            "slot": "1",
            "type": "t_uint256"
          },
          {
            "astId": 21692,
            "contract": "contracts/PrizePoolLiquidator.sol:PrizePoolLiquidator",
            "label": "deltaRatePerSecond",
            "offset": 0,
            "slot": "2",
            "type": "t_struct(SD59x18)5688_storage"
          },
          {
            "astId": 21695,
            "contract": "contracts/PrizePoolLiquidator.sol:PrizePoolLiquidator",
            "label": "maxSlippage",
            "offset": 0,
            "slot": "3",
            "type": "t_struct(SD59x18)5688_storage"
          }
        ],
        "numberOfBytes": "128"
      },
      "t_struct(Target)17799_storage": {
        "encoding": "inplace",
        "label": "struct PrizePoolLiquidator.Target",
        "members": [
          {
            "astId": 17795,
            "contract": "contracts/PrizePoolLiquidator.sol:PrizePoolLiquidator",
            "label": "target",
            "offset": 0,
            "slot": "0",
            "type": "t_address"
          },
          {
            "astId": 17798,
            "contract": "contracts/PrizePoolLiquidator.sol:PrizePoolLiquidator",
            "label": "want",
            "offset": 0,
            "slot": "1",
            "type": "t_contract(IERC20)663"
          }
        ],
        "numberOfBytes": "64"
      },
      "t_uint256": {
        "encoding": "inplace",
        "label": "uint256",
        "numberOfBytes": "32"
      }
    }
  }
}