{
  "address": "0x6075e8090B165817762C1b53bB9BF6c80a8708c3",
  "abi": [
    {
      "inputs": [
        {
          "internalType": "address",
          "name": "_owner",
          "type": "address"
        }
      ],
      "stateMutability": "nonpayable",
      "type": "constructor"
    },
    {
      "anonymous": false,
      "inputs": [
        {
          "indexed": true,
          "internalType": "contract IPrizePoolLiquidatorListener",
          "name": "listener",
          "type": "address"
        }
      ],
      "name": "ListenerSet",
      "type": "event"
    },
    {
      "anonymous": false,
      "inputs": [
        {
          "indexed": true,
          "internalType": "address",
          "name": "previousManager",
          "type": "address"
        },
        {
          "indexed": true,
          "internalType": "address",
          "name": "newManager",
          "type": "address"
        }
      ],
      "name": "ManagerTransferred",
      "type": "event"
    },
    {
      "anonymous": false,
      "inputs": [
        {
          "indexed": true,
          "internalType": "address",
          "name": "pendingOwner",
          "type": "address"
        }
      ],
      "name": "OwnershipOffered",
      "type": "event"
    },
    {
      "anonymous": false,
      "inputs": [
        {
          "indexed": true,
          "internalType": "address",
          "name": "previousOwner",
          "type": "address"
        },
        {
          "indexed": true,
          "internalType": "address",
          "name": "newOwner",
          "type": "address"
        }
      ],
      "name": "OwnershipTransferred",
      "type": "event"
    },
    {
      "anonymous": false,
      "inputs": [
        {
          "indexed": true,
          "internalType": "contract IPrizePool",
          "name": "prizePool",
          "type": "address"
        },
        {
          "indexed": false,
          "internalType": "contract IERC20",
          "name": "want",
          "type": "address"
        },
        {
          "indexed": false,
          "internalType": "address",
          "name": "target",
          "type": "address"
        },
        {
          "indexed": true,
          "internalType": "address",
          "name": "account",
          "type": "address"
        },
        {
          "indexed": false,
          "internalType": "uint256",
          "name": "amountIn",
          "type": "uint256"
        },
        {
          "indexed": false,
          "internalType": "uint256",
          "name": "amountOut",
          "type": "uint256"
        }
      ],
      "name": "Swapped",
      "type": "event"
    },
    {
      "inputs": [
        {
          "internalType": "contract IPrizePool",
          "name": "_prizePool",
          "type": "address"
        }
      ],
      "name": "availableBalanceOf",
      "outputs": [
        {
          "internalType": "uint256",
          "name": "",
          "type": "uint256"
        }
      ],
      "stateMutability": "nonpayable",
      "type": "function"
    },
    {
      "inputs": [],
      "name": "claimOwnership",
      "outputs": [],
      "stateMutability": "nonpayable",
      "type": "function"
    },
    {
      "inputs": [
        {
          "internalType": "contract IPrizePool",
          "name": "_prizePool",
          "type": "address"
        },
        {
          "internalType": "uint256",
          "name": "_amountOut",
          "type": "uint256"
        }
      ],
      "name": "computeExactAmountIn",
      "outputs": [
        {
          "internalType": "uint256",
          "name": "",
          "type": "uint256"
        }
      ],
      "stateMutability": "nonpayable",
      "type": "function"
    },
    {
      "inputs": [
        {
          "internalType": "contract IPrizePool",
          "name": "_prizePool",
          "type": "address"
        },
        {
          "internalType": "uint256",
          "name": "_amountIn",
          "type": "uint256"
        }
      ],
      "name": "computeExactAmountOut",
      "outputs": [
        {
          "internalType": "uint256",
          "name": "",
          "type": "uint256"
        }
      ],
      "stateMutability": "nonpayable",
      "type": "function"
    },
    {
      "inputs": [
        {
          "internalType": "contract IPrizePool",
          "name": "_prizePool",
          "type": "address"
        }
      ],
      "name": "getLiquidationConfig",
      "outputs": [
        {
          "components": [
            {
              "internalType": "address",
              "name": "target",
              "type": "address"
            },
            {
              "internalType": "contract IERC20",
              "name": "want",
              "type": "address"
            },
            {
              "internalType": "uint32",
              "name": "swapMultiplier",
              "type": "uint32"
            },
            {
              "internalType": "uint32",
              "name": "liquidityFraction",
              "type": "uint32"
            }
          ],
          "internalType": "struct PrizePoolLiquidator.LiquidatorConfig",
          "name": "state",
          "type": "tuple"
        }
      ],
      "stateMutability": "view",
      "type": "function"
    },
    {
      "inputs": [
        {
          "internalType": "contract IPrizePool",
          "name": "_prizePool",
          "type": "address"
        }
      ],
      "name": "getLiquidationState",
      "outputs": [
        {
          "components": [
            {
              "internalType": "uint256",
              "name": "reserveA",
              "type": "uint256"
            },
            {
              "internalType": "uint256",
              "name": "reserveB",
              "type": "uint256"
            }
          ],
          "internalType": "struct PrizePoolLiquidator.LiquidatorState",
          "name": "state",
          "type": "tuple"
        }
      ],
      "stateMutability": "view",
      "type": "function"
    },
    {
      "inputs": [],
      "name": "getListener",
      "outputs": [
        {
          "internalType": "contract IPrizePoolLiquidatorListener",
          "name": "",
          "type": "address"
        }
      ],
      "stateMutability": "view",
      "type": "function"
    },
    {
      "inputs": [],
      "name": "manager",
      "outputs": [
        {
          "internalType": "address",
          "name": "",
          "type": "address"
        }
      ],
      "stateMutability": "view",
      "type": "function"
    },
    {
      "inputs": [
        {
          "internalType": "contract IPrizePool",
          "name": "_prizePool",
          "type": "address"
        }
      ],
      "name": "nextLiquidationState",
      "outputs": [
        {
          "components": [
            {
              "internalType": "uint256",
              "name": "reserveA",
              "type": "uint256"
            },
            {
              "internalType": "uint256",
              "name": "reserveB",
              "type": "uint256"
            }
          ],
          "internalType": "struct PrizePoolLiquidator.LiquidatorState",
          "name": "state",
          "type": "tuple"
        }
      ],
      "stateMutability": "nonpayable",
      "type": "function"
    },
    {
      "inputs": [],
      "name": "owner",
      "outputs": [
        {
          "internalType": "address",
          "name": "",
          "type": "address"
        }
      ],
      "stateMutability": "view",
      "type": "function"
    },
    {
      "inputs": [],
      "name": "pendingOwner",
      "outputs": [
        {
          "internalType": "address",
          "name": "",
          "type": "address"
        }
      ],
      "stateMutability": "view",
      "type": "function"
    },
    {
      "inputs": [],
      "name": "renounceOwnership",
      "outputs": [],
      "stateMutability": "nonpayable",
      "type": "function"
    },
    {
      "inputs": [
        {
          "internalType": "contract IPrizePoolLiquidatorListener",
          "name": "_listener",
          "type": "address"
        }
      ],
      "name": "setListener",
      "outputs": [],
      "stateMutability": "nonpayable",
      "type": "function"
    },
    {
      "inputs": [
        {
          "internalType": "address",
          "name": "_newManager",
          "type": "address"
        }
      ],
      "name": "setManager",
      "outputs": [
        {
          "internalType": "bool",
          "name": "",
          "type": "bool"
        }
      ],
      "stateMutability": "nonpayable",
      "type": "function"
    },
    {
      "inputs": [
        {
          "internalType": "contract IPrizePool",
          "name": "_pool",
          "type": "address"
        },
        {
          "internalType": "address",
          "name": "_target",
          "type": "address"
        },
        {
          "internalType": "contract IERC20",
          "name": "_want",
          "type": "address"
        },
        {
          "internalType": "uint32",
          "name": "_swapMultiplier",
          "type": "uint32"
        },
        {
          "internalType": "uint32",
          "name": "_liquidityFraction",
          "type": "uint32"
        },
        {
          "internalType": "uint192",
          "name": "_reserveA",
          "type": "uint192"
        },
        {
          "internalType": "uint192",
          "name": "_reserveB",
          "type": "uint192"
        }
      ],
      "name": "setPrizePool",
      "outputs": [
        {
          "internalType": "bool",
          "name": "",
          "type": "bool"
        }
      ],
      "stateMutability": "nonpayable",
      "type": "function"
    },
    {
      "inputs": [
        {
          "internalType": "contract IPrizePool",
          "name": "_prizePool",
          "type": "address"
        },
        {
          "internalType": "uint256",
          "name": "_amountIn",
          "type": "uint256"
        },
        {
          "internalType": "uint256",
          "name": "_amountOutMin",
          "type": "uint256"
        }
      ],
      "name": "swapExactAmountIn",
      "outputs": [
        {
          "internalType": "uint256",
          "name": "",
          "type": "uint256"
        }
      ],
      "stateMutability": "nonpayable",
      "type": "function"
    },
    {
      "inputs": [
        {
          "internalType": "contract IPrizePool",
          "name": "_prizePool",
          "type": "address"
        },
        {
          "internalType": "uint256",
          "name": "_amountOut",
          "type": "uint256"
        },
        {
          "internalType": "uint256",
          "name": "_amountInMax",
          "type": "uint256"
        }
      ],
      "name": "swapExactAmountOut",
      "outputs": [
        {
          "internalType": "uint256",
          "name": "",
          "type": "uint256"
        }
      ],
      "stateMutability": "nonpayable",
      "type": "function"
    },
    {
      "inputs": [
        {
          "internalType": "address",
          "name": "_newOwner",
          "type": "address"
        }
      ],
      "name": "transferOwnership",
      "outputs": [],
      "stateMutability": "nonpayable",
      "type": "function"
    }
  ],
  "transactionHash": "0x4705be05e6c6c66de4de099092e5c3b418685ee46f23f9e6e600bd24050dac35",
  "args": [
    "0x3A791e828fDd420fbE16416efDF509E4b9088Dd4"
  ],
  "numDeployments": 1,
  "solcInputHash": "baf4361f1169b10b86eec49b574a8e52",
  "bytecode": "0x608060405234801561001057600080fd5b50604051611a18380380611a1883398101604081905261002f91610090565b8061003981610040565b50506100c0565b600080546001600160a01b038381166001600160a01b0319831681178455604051919092169283917f8be0079c531659141344cd1fd0a4f28419497f9722a3daafe3b4186f6b6457e09190a35050565b6000602082840312156100a257600080fd5b81516001600160a01b03811681146100b957600080fd5b9392505050565b611949806100cf6000396000f3fe608060405234801561001057600080fd5b50600436106101365760003560e01c80638da5cb5b116100b2578063c57f192211610081578063d0ebdbe711610066578063d0ebdbe7146104b9578063e30c3978146104cc578063f2fde38b146104dd57600080fd5b8063c57f192214610451578063c9a61be91461046457600080fd5b80638da5cb5b1461032c578063986615461461033d578063adcd905b1461036b578063b6bacf9b1461037e57600080fd5b8063481c6a75116101095780634e71e0c8116100ee5780634e71e0c814610307578063715018a6146103115780637b92228d1461031957600080fd5b8063481c6a75146102e35780634e376a9f146102f457600080fd5b806325d998bb1461013b5780633a58fd77146101615780634296434f1461017457806347edc6fb14610199575b600080fd5b61014e6101493660046116c3565b6104f0565b6040519081526020015b60405180910390f35b61014e61016f36600461178e565b610501565b6005546001600160a01b03165b6040516001600160a01b039091168152602001610158565b6102d36101a7366004611702565b604080516080810182526001600160a01b039788168152958716602080880191825263ffffffff9687168884019081529587166060890190815299891660008181526003835284812099518a54908c1673ffffffffffffffffffffffffffffffffffffffff19909116178a5592516001998a01805498519c518a16600160c01b027fffffffff00000000ffffffffffffffffffffffffffffffffffffffffffffffff9d909a16600160a01b027fffffffffffffffff00000000000000000000000000000000000000000000000090991691909b16179690961799909916959095179096558551808701875277ffffffffffffffffffffffffffffffffffffffffffffffff9283168152911681870190815291835260049095529290209251835590519181019190915590565b6040519015158152602001610158565b6002546001600160a01b0316610181565b61014e6103023660046117ba565b610599565b61030f610754565b005b61030f6107e2565b61014e61032736600461178e565b610857565b6000546001600160a01b0316610181565b61035061034b3660046116c3565b6108e6565b60408051825181526020928301519281019290925201610158565b61030f6103793660046116c3565b61095b565b61040661038c3660046116c3565b60408051608080820183526000808352602080840182905283850182905260609384018290526001600160a01b039586168252600381529084902084519283018552805486168352600101549485169082015263ffffffff600160a01b8504811693820193909352600160c01b9093049091169082015290565b6040805182516001600160a01b039081168252602080850151909116908201528282015163ffffffff9081169282019290925260609283015190911691810191909152608001610158565b61014e61045f3660046117ba565b610a65565b6103506104723660046116c3565b6040805180820190915260008082526020820152506001600160a01b0316600090815260046020908152604091829020825180840190935280548352600101549082015290565b6102d36104c73660046116c3565b610c0a565b6001546001600160a01b0316610181565b61030f6104eb3660046116c3565b610c83565b60006104fb82610dbf565b92915050565b6001600160a01b03808316600081815260036020908152604080832081516080810183528154871681526001918201549687168185015263ffffffff600160a01b8804811682850152600160c01b909704909616606087015293835260048252808320815180830190925280548083529401549181018290529193926105909161058a88610dbf565b87610e34565b95945050505050565b6001600160a01b03808416600081815260036020908152604080832081516080810183528154871681526001918201549687168185015263ffffffff600160a01b8804811682850152600160c01b909704909616606087015293835260048252808320815180830190925280548252909301549083015291908261061c87610dbf565b9050600080600061064185600001518660200151868c8a604001518b60600151610eae565b8288526020880182905291945092509050878110156106a75760405162461bcd60e51b815260206004820152601760248201527f747261646520646f6573206e6f74206d656574206d696e00000000000000000060448201526064015b60405180910390fd5b6001600160a01b038a166000908152600460209081526040909120865181558187015160019091015586015186516106e3918c9133858e610f57565b6020868101518751604080516001600160a01b039384168152918316938201939093529182018b9052606082018390523391908c16907fd6d4f5681c246c9f42c203e287975af1601f8df8035a9251f79aab5c8f09e2f8906080015b60405180910390a39998505050505050505050565b6001546001600160a01b031633146107ae5760405162461bcd60e51b815260206004820152601f60248201527f4f776e61626c652f63616c6c65722d6e6f742d70656e64696e674f776e657200604482015260640161069e565b6001546107c3906001600160a01b03166111a2565b6001805473ffffffffffffffffffffffffffffffffffffffff19169055565b336107f56000546001600160a01b031690565b6001600160a01b03161461084b5760405162461bcd60e51b815260206004820152601860248201527f4f776e61626c652f63616c6c65722d6e6f742d6f776e65720000000000000000604482015260640161069e565b61085560006111a2565b565b6001600160a01b03808316600081815260036020908152604080832081516080810183528154871681526001918201549687168185015263ffffffff600160a01b8804811682850152600160c01b90970490961660608701529383526004825280832081518083019092528054808352940154918101829052919392610590916108e088610dbf565b876111ff565b604080518082018252600080825260208083018290526001600160a01b038516825260048152838220845180860190955280548086526001909101549185018290529293928291610940919061093b88610dbf565b611272565b60408051808201909152918252602082015295945050505050565b3361096e6002546001600160a01b031690565b6001600160a01b0316148061099c5750336109916000546001600160a01b031690565b6001600160a01b0316145b610a0e5760405162461bcd60e51b815260206004820152602660248201527f4d616e61676561626c652f63616c6c65722d6e6f742d6d616e616765722d6f7260448201527f2d6f776e65720000000000000000000000000000000000000000000000000000606482015260840161069e565b6005805473ffffffffffffffffffffffffffffffffffffffff19166001600160a01b0383169081179091556040517fcfa8a0bee53ef7ce679cd216dcda56c0d99ce13ddae0131ef64a0b9953b7017a90600090a250565b6001600160a01b03808416600081815260036020908152604080832081516080810183528154871681526001918201549687168185015263ffffffff600160a01b8804811682850152600160c01b9097049096166060870152938352600482528083208151808301909252805482529093015490830152919082610ae887610dbf565b90506000806000610b0d85600001518660200151868c8a604001518b606001516112a5565b828852602088018290529194509250905087811115610b6e5760405162461bcd60e51b815260206004820152601760248201527f747261646520646f6573206e6f74206d656574206d6178000000000000000000604482015260640161069e565b6001600160a01b038a16600090815260046020908152604090912086518155818701516001909101558601518651610baa918c91338d86610f57565b6020808701518751604080516001600160a01b03938416815291831693820193909352918201839052606082018b90523391908c16907fd6d4f5681c246c9f42c203e287975af1601f8df8035a9251f79aab5c8f09e2f89060800161073f565b600033610c1f6000546001600160a01b031690565b6001600160a01b031614610c755760405162461bcd60e51b815260206004820152601860248201527f4f776e61626c652f63616c6c65722d6e6f742d6f776e65720000000000000000604482015260640161069e565b6104fb8261133d565b919050565b33610c966000546001600160a01b031690565b6001600160a01b031614610cec5760405162461bcd60e51b815260206004820152601860248201527f4f776e61626c652f63616c6c65722d6e6f742d6f776e65720000000000000000604482015260640161069e565b6001600160a01b038116610d685760405162461bcd60e51b815260206004820152602560248201527f4f776e61626c652f70656e64696e674f776e65722d6e6f742d7a65726f2d616460448201527f6472657373000000000000000000000000000000000000000000000000000000606482015260840161069e565b6001805473ffffffffffffffffffffffffffffffffffffffff19166001600160a01b0383169081179091556040517f239a2ddded15777fa246aed5f7e1a9bc69a39d4eb4a397034d1d85766cca7d4c90600090a250565b6000816001600160a01b031663e6d8a94b6040518163ffffffff1660e01b8152600401602060405180830381600087803b158015610dfc57600080fd5b505af1158015610e10573d6000803e3d6000fd5b505050506040513d601f19601f820116820180604052508101906104fb919061180c565b600082821115610e865760405162461bcd60e51b815260206004820152600e60248201527f696e737566662062616c616e6365000000000000000000000000000000000000604482015260640161069e565b600080610e94878787611272565b91509150610ea3848383611429565b979650505050505050565b6000806000610ebe898989611272565b9093509150610ece868484611506565b905086811115610f205760405162461bcd60e51b815260206004820152601160248201527f4c69714c69622f696e737566662d6c6971000000000000000000000000000000604482015260640161069e565b610f2a838761158b565b9250610f36828261159e565b9150610f468383898489896115aa565b909a90995090975095505050505050565b6040517f5d8a776e0000000000000000000000000000000000000000000000000000000081526001600160a01b03848116600483015260248201849052871690635d8a776e90604401600060405180830381600087803b158015610fba57600080fd5b505af1158015610fce573d6000803e3d6000fd5b50506040517f23b872dd0000000000000000000000000000000000000000000000000000000081526001600160a01b038681166004830152878116602483015260448201859052881692506323b872dd9150606401602060405180830381600087803b15801561103d57600080fd5b505af1158015611051573d6000803e3d6000fd5b505050506040513d601f19601f8201168201806040525081019061107591906116e0565b506005546001600160a01b0316801561119957806001600160a01b031663fd40162888896001600160a01b031663c002c4d66040518163ffffffff1660e01b815260040160206040518083038186803b1580156110d157600080fd5b505afa1580156110e5573d6000803e3d6000fd5b505050506040513d601f19601f8201168201806040525081019061110991906117ef565b6040517fffffffff0000000000000000000000000000000000000000000000000000000060e085901b1681526001600160a01b03928316600482015290821660248201526044810187905290891660648201526084810185905260a401600060405180830381600087803b15801561118057600080fd5b505af1158015611194573d6000803e3d6000fd5b505050505b50505050505050565b600080546001600160a01b0383811673ffffffffffffffffffffffffffffffffffffffff19831681178455604051919092169283917f8be0079c531659141344cd1fd0a4f28419497f9722a3daafe3b4186f6b6457e09190a35050565b600080600061120f878787611272565b915091506000611220858484611506565b905085811115610ea35760405162461bcd60e51b815260206004820152600e60248201527f696e737566662062616c616e6365000000000000000000000000000000000000604482015260640161069e565b6000806000611282848688611506565b905061128e868261159e565b925061129a858561158b565b915050935093915050565b6000806000868611156112fa5760405162461bcd60e51b815260206004820152601160248201527f4c69714c69622f696e737566662d6c6971000000000000000000000000000000604482015260640161069e565b611305898989611272565b9093509150611315868484611429565b9050611321838261158b565b925061132d828761159e565b9150610f468383898989896115aa565b6002546000906001600160a01b039081169083168114156113c65760405162461bcd60e51b815260206004820152602360248201527f4d616e61676561626c652f6578697374696e672d6d616e616765722d6164647260448201527f6573730000000000000000000000000000000000000000000000000000000000606482015260840161069e565b6002805473ffffffffffffffffffffffffffffffffffffffff19166001600160a01b0385811691821790925560405190918316907f9cb45c728de594dab506a1f1a8554e24c8eeaf983618d5ec5dd7bc6f3c49feee90600090a350600192915050565b600081841061147a5760405162461bcd60e51b815260206004820152601260248201527f43706d6d4c69622f494e535546465f4c49510000000000000000000000000000604482015260640161069e565b60008311801561148a5750600082115b6114d65760405162461bcd60e51b815260206004820152601760248201527f43706d6d4c69622f494e535546465f504149525f4c4951000000000000000000604482015260640161069e565b60006114e2848661167b565b905060006114f0848761159e565b90506114fc818361183d565b9695505050505050565b600080831180156115175750600082115b6115635760405162461bcd60e51b815260206004820152601760248201527f43706d6d4c69622f494e535546465f504149525f4c4951000000000000000000604482015260640161069e565b600061156f858461167b565b9050600061157d858761158b565b90506000610ea3828461183d565b60006115978284611825565b9392505050565b600061159782846118b5565b60008080633b9aca006115c363ffffffff871688611878565b6115cd919061183d565b905060006115dc828b8b611429565b90506115e88a8261158b565b93506115f4898361159e565b92506000836116078a633b9aca00611878565b611611919061183d565b9050600063ffffffff871661162a83633b9aca00611878565b611634919061183d565b9050633b9aca006116458288611878565b61164f919061183d565b9550633b9aca006116608287611878565b61166a919061183d565b945050505050965096945050505050565b60006115978284611878565b803577ffffffffffffffffffffffffffffffffffffffffffffffff81168114610c7e57600080fd5b803563ffffffff81168114610c7e57600080fd5b6000602082840312156116d557600080fd5b8135611597816118fb565b6000602082840312156116f257600080fd5b8151801515811461159757600080fd5b600080600080600080600060e0888a03121561171d57600080fd5b8735611728816118fb565b96506020880135611738816118fb565b95506040880135611748816118fb565b9450611756606089016116af565b9350611764608089016116af565b925061177260a08901611687565b915061178060c08901611687565b905092959891949750929550565b600080604083850312156117a157600080fd5b82356117ac816118fb565b946020939093013593505050565b6000806000606084860312156117cf57600080fd5b83356117da816118fb565b95602085013595506040909401359392505050565b60006020828403121561180157600080fd5b8151611597816118fb565b60006020828403121561181e57600080fd5b5051919050565b60008219821115611838576118386118cc565b500190565b600082611873577f4e487b7100000000000000000000000000000000000000000000000000000000600052601260045260246000fd5b500490565b6000817fffffffffffffffffffffffffffffffffffffffffffffffffffffffffffffffff04831182151516156118b0576118b06118cc565b500290565b6000828210156118c7576118c76118cc565b500390565b7f4e487b7100000000000000000000000000000000000000000000000000000000600052601160045260246000fd5b6001600160a01b038116811461191057600080fd5b5056fea26469706673582212201370e6b1e062196ad79cd835729571b5e7d2e19f0f3347b9967a8b9e456188bc64736f6c63430008060033",
  "devdoc": {
    "kind": "dev",
    "methods": {
      "claimOwnership()": {
        "details": "This function is only callable by the `_pendingOwner`."
      },
      "manager()": {
        "returns": {
          "_0": "Current `_manager` address."
        }
      },
      "pendingOwner()": {
        "returns": {
          "_0": "Current `_pendingOwner` address."
        }
      },
      "renounceOwnership()": {
        "details": "Leaves the contract without owner. It will not be possible to call `onlyOwner` functions anymore. Can only be called by the current owner. NOTE: Renouncing ownership will leave the contract without an owner, thereby removing any functionality that is only available to the owner."
      },
      "setManager(address)": {
        "details": "Throws if called by any account other than the owner.",
        "params": {
          "_newManager": "New _manager address."
        },
        "returns": {
          "_0": "Boolean to indicate if the operation was successful or not."
        }
      },
      "transferOwnership(address)": {
        "params": {
          "_newOwner": "Address to transfer ownership to."
        }
      }
    },
    "version": 1
  },
  "userdoc": {
    "kind": "user",
    "methods": {
      "claimOwnership()": {
        "notice": "Allows the `_pendingOwner` address to finalize the transfer."
      },
      "manager()": {
        "notice": "Gets current `_manager`."
      },
      "owner()": {
        "notice": "Returns the address of the current owner."
      },
      "pendingOwner()": {
        "notice": "Gets current `_pendingOwner`."
      },
      "renounceOwnership()": {
        "notice": "Renounce ownership of the contract."
      },
      "setManager(address)": {
        "notice": "Set or change of manager."
      },
      "transferOwnership(address)": {
        "notice": "Allows current owner to set the `_pendingOwner` address."
      }
    },
    "version": 1
  },
  "storageLayout": {
    "storage": [
      {
        "astId": 4843,
        "contract": "contracts/PrizePoolLiquidator.sol:PrizePoolLiquidator",
        "label": "_owner",
        "offset": 0,
        "slot": "0",
        "type": "t_address"
      },
      {
        "astId": 4845,
        "contract": "contracts/PrizePoolLiquidator.sol:PrizePoolLiquidator",
        "label": "_pendingOwner",
        "offset": 0,
        "slot": "1",
        "type": "t_address"
      },
      {
        "astId": 4741,
        "contract": "contracts/PrizePoolLiquidator.sol:PrizePoolLiquidator",
        "label": "_manager",
        "offset": 0,
        "slot": "2",
        "type": "t_address"
      },
      {
        "astId": 14001,
        "contract": "contracts/PrizePoolLiquidator.sol:PrizePoolLiquidator",
        "label": "poolLiquidatorConfigs",
        "offset": 0,
        "slot": "3",
        "type": "t_mapping(t_contract(IPrizePool)17281,t_struct(LiquidatorConfig)13969_storage)"
      },
      {
        "astId": 14007,
        "contract": "contracts/PrizePoolLiquidator.sol:PrizePoolLiquidator",
        "label": "poolLiquidatorStates",
        "offset": 0,
        "slot": "4",
        "type": "t_mapping(t_contract(IPrizePool)17281,t_struct(LiquidatorState)13974_storage)"
      },
      {
        "astId": 14010,
        "contract": "contracts/PrizePoolLiquidator.sol:PrizePoolLiquidator",
        "label": "listener",
        "offset": 0,
        "slot": "5",
        "type": "t_contract(IPrizePoolLiquidatorListener)17304"
      }
    ],
    "types": {
      "t_address": {
        "encoding": "inplace",
        "label": "address",
        "numberOfBytes": "20"
      },
      "t_contract(IERC20)1096": {
        "encoding": "inplace",
        "label": "contract IERC20",
        "numberOfBytes": "20"
      },
      "t_contract(IPrizePool)17281": {
        "encoding": "inplace",
        "label": "contract IPrizePool",
        "numberOfBytes": "20"
      },
      "t_contract(IPrizePoolLiquidatorListener)17304": {
        "encoding": "inplace",
        "label": "contract IPrizePoolLiquidatorListener",
        "numberOfBytes": "20"
      },
      "t_mapping(t_contract(IPrizePool)17281,t_struct(LiquidatorConfig)13969_storage)": {
        "encoding": "mapping",
        "key": "t_contract(IPrizePool)17281",
        "label": "mapping(contract IPrizePool => struct PrizePoolLiquidator.LiquidatorConfig)",
        "numberOfBytes": "32",
        "value": "t_struct(LiquidatorConfig)13969_storage"
      },
      "t_mapping(t_contract(IPrizePool)17281,t_struct(LiquidatorState)13974_storage)": {
        "encoding": "mapping",
        "key": "t_contract(IPrizePool)17281",
        "label": "mapping(contract IPrizePool => struct PrizePoolLiquidator.LiquidatorState)",
        "numberOfBytes": "32",
        "value": "t_struct(LiquidatorState)13974_storage"
      },
      "t_struct(LiquidatorConfig)13969_storage": {
        "encoding": "inplace",
        "label": "struct PrizePoolLiquidator.LiquidatorConfig",
        "members": [
          {
            "astId": 13961,
            "contract": "contracts/PrizePoolLiquidator.sol:PrizePoolLiquidator",
            "label": "target",
            "offset": 0,
            "slot": "0",
            "type": "t_address"
          },
          {
            "astId": 13964,
            "contract": "contracts/PrizePoolLiquidator.sol:PrizePoolLiquidator",
            "label": "want",
            "offset": 0,
            "slot": "1",
            "type": "t_contract(IERC20)1096"
          },
          {
            "astId": 13966,
            "contract": "contracts/PrizePoolLiquidator.sol:PrizePoolLiquidator",
            "label": "swapMultiplier",
            "offset": 20,
            "slot": "1",
            "type": "t_uint32"
          },
          {
            "astId": 13968,
            "contract": "contracts/PrizePoolLiquidator.sol:PrizePoolLiquidator",
            "label": "liquidityFraction",
            "offset": 24,
            "slot": "1",
            "type": "t_uint32"
          }
        ],
        "numberOfBytes": "64"
      },
      "t_struct(LiquidatorState)13974_storage": {
        "encoding": "inplace",
        "label": "struct PrizePoolLiquidator.LiquidatorState",
        "members": [
          {
            "astId": 13971,
            "contract": "contracts/PrizePoolLiquidator.sol:PrizePoolLiquidator",
            "label": "reserveA",
            "offset": 0,
            "slot": "0",
            "type": "t_uint256"
          },
          {
            "astId": 13973,
            "contract": "contracts/PrizePoolLiquidator.sol:PrizePoolLiquidator",
            "label": "reserveB",
            "offset": 0,
            "slot": "1",
            "type": "t_uint256"
          }
        ],
        "numberOfBytes": "64"
      },
      "t_uint256": {
        "encoding": "inplace",
        "label": "uint256",
        "numberOfBytes": "32"
      },
      "t_uint32": {
        "encoding": "inplace",
        "label": "uint32",
        "numberOfBytes": "4"
      }
    }
  }
}