{
  "address": "0x6BC0301c159306FF06E4039660F169aed458C13D",
  "abi": [
    {
      "inputs": [
        {
          "internalType": "address",
          "name": "_owner",
          "type": "address"
        }
      ],
      "stateMutability": "nonpayable",
      "type": "constructor"
    },
    {
      "anonymous": false,
      "inputs": [
        {
          "indexed": true,
          "internalType": "address",
          "name": "spender",
          "type": "address"
        },
        {
          "indexed": false,
          "internalType": "bool",
          "name": "approved",
          "type": "bool"
        }
      ],
      "name": "Approved",
      "type": "event"
    },
    {
      "anonymous": false,
      "inputs": [
        {
          "indexed": true,
          "internalType": "address",
          "name": "previousManager",
          "type": "address"
        },
        {
          "indexed": true,
          "internalType": "address",
          "name": "newManager",
          "type": "address"
        }
      ],
      "name": "ManagerTransferred",
      "type": "event"
    },
    {
      "anonymous": false,
      "inputs": [
        {
          "indexed": true,
          "internalType": "address",
          "name": "pendingOwner",
          "type": "address"
        }
      ],
      "name": "OwnershipOffered",
      "type": "event"
    },
    {
      "anonymous": false,
      "inputs": [
        {
          "indexed": true,
          "internalType": "address",
          "name": "previousOwner",
          "type": "address"
        },
        {
          "indexed": true,
          "internalType": "address",
          "name": "newOwner",
          "type": "address"
        }
      ],
      "name": "OwnershipTransferred",
      "type": "event"
    },
    {
      "inputs": [
        {
          "internalType": "address",
          "name": "",
          "type": "address"
        }
      ],
      "name": "approved",
      "outputs": [
        {
          "internalType": "bool",
          "name": "",
          "type": "bool"
        }
      ],
      "stateMutability": "view",
      "type": "function"
    },
    {
      "inputs": [],
      "name": "claimOwnership",
      "outputs": [],
      "stateMutability": "nonpayable",
      "type": "function"
    },
    {
      "inputs": [
        {
          "internalType": "contract IERC20",
          "name": "_token",
          "type": "address"
        },
        {
          "internalType": "address",
          "name": "_spender",
          "type": "address"
        },
        {
          "internalType": "uint256",
          "name": "_amount",
          "type": "uint256"
        }
      ],
      "name": "decreaseERC20Allowance",
      "outputs": [],
      "stateMutability": "nonpayable",
      "type": "function"
    },
    {
      "inputs": [
        {
          "internalType": "contract IERC20",
          "name": "_token",
          "type": "address"
        },
        {
          "internalType": "address",
          "name": "_spender",
          "type": "address"
        },
        {
          "internalType": "uint256",
          "name": "_amount",
          "type": "uint256"
        }
      ],
      "name": "increaseERC20Allowance",
      "outputs": [],
      "stateMutability": "nonpayable",
      "type": "function"
    },
    {
      "inputs": [],
      "name": "manager",
      "outputs": [
        {
          "internalType": "address",
          "name": "",
          "type": "address"
        }
      ],
      "stateMutability": "view",
      "type": "function"
    },
    {
      "inputs": [],
      "name": "owner",
      "outputs": [
        {
          "internalType": "address",
          "name": "",
          "type": "address"
        }
      ],
      "stateMutability": "view",
      "type": "function"
    },
    {
      "inputs": [],
      "name": "pendingOwner",
      "outputs": [
        {
          "internalType": "address",
          "name": "",
          "type": "address"
        }
      ],
      "stateMutability": "view",
      "type": "function"
    },
    {
      "inputs": [],
      "name": "renounceOwnership",
      "outputs": [],
      "stateMutability": "nonpayable",
      "type": "function"
    },
    {
      "inputs": [
        {
          "internalType": "address",
          "name": "_spender",
          "type": "address"
        },
        {
          "internalType": "bool",
          "name": "_approve",
          "type": "bool"
        }
      ],
      "name": "setApproval",
      "outputs": [],
      "stateMutability": "nonpayable",
      "type": "function"
    },
    {
      "inputs": [
        {
          "internalType": "address",
          "name": "_newManager",
          "type": "address"
        }
      ],
      "name": "setManager",
      "outputs": [
        {
          "internalType": "bool",
          "name": "",
          "type": "bool"
        }
      ],
      "stateMutability": "nonpayable",
      "type": "function"
    },
    {
      "inputs": [
        {
          "internalType": "address",
          "name": "_newOwner",
          "type": "address"
        }
      ],
      "name": "transferOwnership",
      "outputs": [],
      "stateMutability": "nonpayable",
      "type": "function"
    }
  ],
  "transactionHash": "0x64dfd345133767f66661d09e0868614d143fdcef1651968db763b74370cb1fab",
  "args": [
    "0x3A791e828fDd420fbE16416efDF509E4b9088Dd4"
  ],
  "numDeployments": 1,
  "solcInputHash": "46a7ec46315ece58f9d4c4ea7316a87f",
  "bytecode": "0x608060405234801561001057600080fd5b506040516110e93803806110e983398101604081905261002f916100ea565b806100398161009a565b506001600160a01b0381166100945760405162461bcd60e51b815260206004820152601d60248201527f545661756c742f6f776e65722d6e6f742d7a65726f2d61646472657373000000604482015260640160405180910390fd5b5061011a565b600080546001600160a01b038381166001600160a01b0319831681178455604051919092169283917f8be0079c531659141344cd1fd0a4f28419497f9722a3daafe3b4186f6b6457e09190a35050565b6000602082840312156100fc57600080fd5b81516001600160a01b038116811461011357600080fd5b9392505050565b610fc0806101296000396000f3fe608060405234801561001057600080fd5b50600436106100c95760003560e01c8063cad1b11311610081578063db9b71701161005b578063db9b717014610187578063e30c39781461019a578063f2fde38b146101ab57600080fd5b8063cad1b1131461012e578063d0ebdbe714610141578063d8b964e61461016457600080fd5b8063715018a6116100b2578063715018a6146101025780638da5cb5b1461010a578063b29fd8591461011b57600080fd5b8063481c6a75146100ce5780634e71e0c8146100f8575b600080fd5b6002546001600160a01b03165b6040516001600160a01b0390911681526020015b60405180910390f35b6101006101be565b005b610100610251565b6000546001600160a01b03166100db565b610100610129366004610e50565b6102c6565b61010061013c366004610e50565b6103fa565b61015461014f366004610ddd565b6104c1565b60405190151581526020016100ef565b610154610172366004610ddd565b60036020526000908152604090205460ff1681565b610100610195366004610dfa565b61053b565b6001546001600160a01b03166100db565b6101006101b9366004610ddd565b610621565b6001546001600160a01b0316331461021d5760405162461bcd60e51b815260206004820152601f60248201527f4f776e61626c652f63616c6c65722d6e6f742d70656e64696e674f776e65720060448201526064015b60405180910390fd5b600154610232906001600160a01b031661075d565b6001805473ffffffffffffffffffffffffffffffffffffffff19169055565b336102646000546001600160a01b031690565b6001600160a01b0316146102ba5760405162461bcd60e51b815260206004820152601860248201527f4f776e61626c652f63616c6c65722d6e6f742d6f776e657200000000000000006044820152606401610214565b6102c4600061075d565b565b336102d96002546001600160a01b031690565b6001600160a01b031614806103075750336102fc6000546001600160a01b031690565b6001600160a01b0316145b6103795760405162461bcd60e51b815260206004820152602660248201527f4d616e61676561626c652f63616c6c65722d6e6f742d6d616e616765722d6f7260448201527f2d6f776e657200000000000000000000000000000000000000000000000000006064820152608401610214565b6001600160a01b03821660009081526003602052604090205460ff166103e15760405162461bcd60e51b815260206004820152601b60248201527f545661756c742f7370656e6465722d6e6f742d617070726f76656400000000006044820152606401610214565b6103f56001600160a01b03841683836107ba565b505050565b3361040d6002546001600160a01b031690565b6001600160a01b0316148061043b5750336104306000546001600160a01b031690565b6001600160a01b0316145b6104ad5760405162461bcd60e51b815260206004820152602660248201527f4d616e61676561626c652f63616c6c65722d6e6f742d6d616e616765722d6f7260448201527f2d6f776e657200000000000000000000000000000000000000000000000000006064820152608401610214565b6103f56001600160a01b0384168383610913565b6000336104d66000546001600160a01b031690565b6001600160a01b03161461052c5760405162461bcd60e51b815260206004820152601860248201527f4f776e61626c652f63616c6c65722d6e6f742d6f776e657200000000000000006044820152606401610214565b61053582610a7b565b92915050565b3361054e6000546001600160a01b031690565b6001600160a01b0316146105a45760405162461bcd60e51b815260206004820152601860248201527f4f776e61626c652f63616c6c65722d6e6f742d6f776e657200000000000000006044820152606401610214565b6001600160a01b03821660008181526003602090815260409182902080547fffffffffffffffffffffffffffffffffffffffffffffffffffffffffffffff001685151590811790915591519182527fbfb2a5467a7553002a13c4482affe6110fc4b3aa01828fb3669f5386cc62b4a3910160405180910390a25050565b336106346000546001600160a01b031690565b6001600160a01b03161461068a5760405162461bcd60e51b815260206004820152601860248201527f4f776e61626c652f63616c6c65722d6e6f742d6f776e657200000000000000006044820152606401610214565b6001600160a01b0381166107065760405162461bcd60e51b815260206004820152602560248201527f4f776e61626c652f70656e64696e674f776e65722d6e6f742d7a65726f2d616460448201527f64726573730000000000000000000000000000000000000000000000000000006064820152608401610214565b6001805473ffffffffffffffffffffffffffffffffffffffff19166001600160a01b0383169081179091556040517f239a2ddded15777fa246aed5f7e1a9bc69a39d4eb4a397034d1d85766cca7d4c90600090a250565b600080546001600160a01b0383811673ffffffffffffffffffffffffffffffffffffffff19831681178455604051919092169283917f8be0079c531659141344cd1fd0a4f28419497f9722a3daafe3b4186f6b6457e09190a35050565b6040517fdd62ed3e0000000000000000000000000000000000000000000000000000000081523060048201526001600160a01b038381166024830152600091839186169063dd62ed3e9060440160206040518083038186803b15801561081f57600080fd5b505afa158015610833573d6000803e3d6000fd5b505050506040513d601f19601f820116820180604052508101906108579190610e91565b6108619190610ef9565b6040516001600160a01b03851660248201526044810182905290915061090d9085907f095ea7b300000000000000000000000000000000000000000000000000000000906064015b60408051601f198184030181529190526020810180517bffffffffffffffffffffffffffffffffffffffffffffffffffffffff167fffffffff0000000000000000000000000000000000000000000000000000000090931692909217909152610b67565b50505050565b6040517fdd62ed3e0000000000000000000000000000000000000000000000000000000081523060048201526001600160a01b0383811660248301526000919085169063dd62ed3e9060440160206040518083038186803b15801561097757600080fd5b505afa15801561098b573d6000803e3d6000fd5b505050506040513d601f19601f820116820180604052508101906109af9190610e91565b905081811015610a275760405162461bcd60e51b815260206004820152602960248201527f5361666545524332303a2064656372656173656420616c6c6f77616e6365206260448201527f656c6f77207a65726f00000000000000000000000000000000000000000000006064820152608401610214565b6040516001600160a01b03841660248201528282036044820181905290610a749086907f095ea7b300000000000000000000000000000000000000000000000000000000906064016108a9565b5050505050565b6002546000906001600160a01b03908116908316811415610b045760405162461bcd60e51b815260206004820152602360248201527f4d616e61676561626c652f6578697374696e672d6d616e616765722d6164647260448201527f65737300000000000000000000000000000000000000000000000000000000006064820152608401610214565b6002805473ffffffffffffffffffffffffffffffffffffffff19166001600160a01b0385811691821790925560405190918316907f9cb45c728de594dab506a1f1a8554e24c8eeaf983618d5ec5dd7bc6f3c49feee90600090a350600192915050565b6000610bbc826040518060400160405280602081526020017f5361666545524332303a206c6f772d6c6576656c2063616c6c206661696c6564815250856001600160a01b0316610c4c9092919063ffffffff16565b8051909150156103f55780806020019051810190610bda9190610e33565b6103f55760405162461bcd60e51b815260206004820152602a60248201527f5361666545524332303a204552433230206f7065726174696f6e20646964206e60448201527f6f742073756363656564000000000000000000000000000000000000000000006064820152608401610214565b6060610c5b8484600085610c65565b90505b9392505050565b606082471015610cdd5760405162461bcd60e51b815260206004820152602660248201527f416464726573733a20696e73756666696369656e742062616c616e636520666f60448201527f722063616c6c00000000000000000000000000000000000000000000000000006064820152608401610214565b843b610d2b5760405162461bcd60e51b815260206004820152601d60248201527f416464726573733a2063616c6c20746f206e6f6e2d636f6e74726163740000006044820152606401610214565b600080866001600160a01b03168587604051610d479190610eaa565b60006040518083038185875af1925050503d8060008114610d84576040519150601f19603f3d011682016040523d82523d6000602084013e610d89565b606091505b5091509150610d99828286610da4565b979650505050505050565b60608315610db3575081610c5e565b825115610dc35782518084602001fd5b8160405162461bcd60e51b81526004016102149190610ec6565b600060208284031215610def57600080fd5b8135610c5e81610f64565b60008060408385031215610e0d57600080fd5b8235610e1881610f64565b91506020830135610e2881610f7c565b809150509250929050565b600060208284031215610e4557600080fd5b8151610c5e81610f7c565b600080600060608486031215610e6557600080fd5b8335610e7081610f64565b92506020840135610e8081610f64565b929592945050506040919091013590565b600060208284031215610ea357600080fd5b5051919050565b60008251610ebc818460208701610f38565b9190910192915050565b6020815260008251806020840152610ee5816040850160208701610f38565b601f01601f19169190910160400192915050565b60008219821115610f33577f4e487b7100000000000000000000000000000000000000000000000000000000600052601160045260246000fd5b500190565b60005b83811015610f53578181015183820152602001610f3b565b8381111561090d5750506000910152565b6001600160a01b0381168114610f7957600080fd5b50565b8015158114610f7957600080fdfea2646970667358221220a446c82ba0c1e2418d695951d05296e5f4dc9b67dbd01ec31c7a15a45635c67464736f6c63430008060033",
  "devdoc": {
    "author": "PoolTogether Inc Team",
    "events": {
      "Approved(address,bool)": {
        "params": {
          "approved": "Whether the spender is approved to spend tokens from the vault or not",
          "spender": "Address that is approved to spend tokens from the vault"
        }
      }
    },
    "kind": "dev",
    "methods": {
      "claimOwnership()": {
        "details": "This function is only callable by the `_pendingOwner`."
      },
      "constructor": {
        "params": {
          "_owner": "Owner address"
        }
      },
      "decreaseERC20Allowance(address,address,uint256)": {
        "details": "Only callable by the owner or asset manager.Current allowance should be computed off-chain to avoid any underflow.",
        "params": {
          "_amount": "Amount of tokens to decrease allowance by",
          "_spender": "Address of the spender of the tokens",
          "_token": "Address of the ERC20 token to decrease allowance for"
        }
      },
      "increaseERC20Allowance(address,address,uint256)": {
        "details": "Only callable by the owner or asset manager.Allowance can only be increased for approved `spender` addresses.Current allowance should be computed off-chain to avoid any overflow.",
        "params": {
          "_amount": "Amount of tokens to increase allowance by",
          "_spender": "Address of the spender of the tokens",
          "_token": "Address of the ERC20 token to increase allowance for"
        }
      },
      "manager()": {
        "returns": {
          "_0": "Current `_manager` address."
        }
      },
      "pendingOwner()": {
        "returns": {
          "_0": "Current `_pendingOwner` address."
        }
      },
      "renounceOwnership()": {
        "details": "Leaves the contract without owner. It will not be possible to call `onlyOwner` functions anymore. Can only be called by the current owner. NOTE: Renouncing ownership will leave the contract without an owner, thereby removing any functionality that is only available to the owner."
      },
      "setApproval(address,bool)": {
        "details": "Only callable by the owner.",
        "params": {
          "_approve": "Whether to approve `spender` or not",
          "_spender": "Address that will spend the tokens"
        }
      },
      "setManager(address)": {
        "details": "Throws if called by any account other than the owner.",
        "params": {
          "_newManager": "New _manager address."
        },
        "returns": {
          "_0": "Boolean to indicate if the operation was successful or not."
        }
      },
      "transferOwnership(address)": {
        "params": {
          "_newOwner": "Address to transfer ownership to."
        }
      }
    },
    "title": "PoolTogether TokenVault",
    "version": 1
  },
  "userdoc": {
    "events": {
      "Approved(address,bool)": {
        "notice": "Emitted when a `spender` address is approved to spend tokens from the vault."
      }
    },
    "kind": "user",
    "methods": {
      "approved(address)": {
        "notice": "Tracks addresses approved to spend tokens from the vault."
      },
      "claimOwnership()": {
        "notice": "Allows the `_pendingOwner` address to finalize the transfer."
      },
      "constructor": {
        "notice": "Constructs TokenVault"
      },
      "decreaseERC20Allowance(address,address,uint256)": {
        "notice": "Decrease allowance of ERC20 tokens held by this contract."
      },
      "increaseERC20Allowance(address,address,uint256)": {
        "notice": "Increase allowance of ERC20 tokens held by this contract."
      },
      "manager()": {
        "notice": "Gets current `_manager`."
      },
      "owner()": {
        "notice": "Returns the address of the current owner."
      },
      "pendingOwner()": {
        "notice": "Gets current `_pendingOwner`."
      },
      "renounceOwnership()": {
        "notice": "Renounce ownership of the contract."
      },
      "setApproval(address,bool)": {
        "notice": "Approves the given `spender` address to spend ERC20 tokens from the vault."
      },
      "setManager(address)": {
        "notice": "Set or change of manager."
      },
      "transferOwnership(address)": {
        "notice": "Allows current owner to set the `_pendingOwner` address."
      }
    },
    "notice": "The TokenVault contract stores ERC20 tokens that are swapped through the PrizePoolLiquidator contract.         Stakers are then able to claim their share of rewards by interacting with the GaugeReward contract.         Rewards are then transferred directly from the TokenVault to the staker account.",
    "version": 1
  },
  "storageLayout": {
    "storage": [
      {
        "astId": 4303,
        "contract": "contracts/TokenVault.sol:TokenVault",
        "label": "_owner",
        "offset": 0,
        "slot": "0",
        "type": "t_address"
      },
      {
        "astId": 4305,
        "contract": "contracts/TokenVault.sol:TokenVault",
        "label": "_pendingOwner",
        "offset": 0,
        "slot": "1",
        "type": "t_address"
      },
      {
        "astId": 4201,
        "contract": "contracts/TokenVault.sol:TokenVault",
        "label": "_manager",
        "offset": 0,
        "slot": "2",
        "type": "t_address"
      },
      {
        "astId": 15781,
        "contract": "contracts/TokenVault.sol:TokenVault",
        "label": "approved",
        "offset": 0,
        "slot": "3",
        "type": "t_mapping(t_address,t_bool)"
      }
    ],
    "types": {
      "t_address": {
        "encoding": "inplace",
        "label": "address",
        "numberOfBytes": "20"
      },
      "t_bool": {
        "encoding": "inplace",
        "label": "bool",
        "numberOfBytes": "1"
      },
      "t_mapping(t_address,t_bool)": {
        "encoding": "mapping",
        "key": "t_address",
        "label": "mapping(address => bool)",
        "numberOfBytes": "32",
        "value": "t_bool"
      }
    }
  }
}